:020000040800F2
:10800000B85D0020DD810008FFE500085DCF0008B5
:108010000DDD00085D97000815FB0008000000005A
:108020000000000000000000000000004581000882
:10803000659A000800000000898100082DEB000807
:10804000F7810008F7810008F7810008F781000830
:10805000F7810008F7810008F7810008F781000820
:10806000F7810008F7810008F7810008F781000810
:10807000F7810008059A0008F7810008F7810008D9
:10808000F7810008F7810008F7810008F7810008F0
:10809000F7810008F7810008F7810008F7810008E0
:1080A000F7810008CDED0008F7810008F78100088E
:1080B000F7810008F7810008D9ED0008F781000872
:1080C000F7810008F7810008F7810008F7810008B0
:1080D000F7810008DDF9000815FA000831FA0008F8
:1080E000F7810008F7810008F7810008F781000890
:1080F000F7810008F7810008F7810008F781000880
:10810000F7810008F7810008E5ED0008F781000815
:1081100001F6000805F6000809EE0008F7810008DE
:10812000F7810008F7810008119A0008F78100081C
:10813000DFF80CD000F0F6FC00480047A91D01084C
:10814000B85D0020224B19680868B0E8F00F80F392
:108150000988BFF36F8F4FF0000080F311884EF055
:108160000D0E70470000000006480068006880F3AC
:10817000088862B661B6BFF34F8FBFF36F8F00DF21
:1081800000BF00BF08ED00E0EFF30980BFF36F8F81
:108190000F4B1A6820E9F00F106008B54FF050003F
:1081A00080F31188BFF34F8FBFF36F8F0BF03EF852
:1081B0004FF0000080F31188BDE808401968086896
:1081C000B0E8F00F80F30988BFF36F8F704700BFEE
:1081D0008C000020EFF305807047000006488047C0
:1081E00006480047FEE7FEE7FEE7FEE7FEE7FEE79C
:1081F000FEE7FEE7FEE7FEE7D5EB00083181000869
:10820000202A04DB203A21FA02F00021704721FAEB
:1082100002F3D040C2F12002914008431946704752
:1082200040EA01039B0703D009E008C9121F08C0F8
:10823000042AFAD203E011F8013B00F8013B521E78
:10824000F9D27047D2B201E000F8012B491EFBD2EF
:1082500070470022F6E710B513460A460446194651
:10826000FFF7F0FF204610BD10B5044604E00B7880
:1082700000F8013B03B1491C521EF8D2204610BD44
:10828000421C10F8011B0029FBD1801A704730B541
:1082900004460020034600E05B1C934203D2E05CEE
:1082A000CD5C401BF8D030BD70B50F4D00B92868CB
:1082B000002412E00A4602E09E4203D0521C1378CA
:1082C000002BF9D1DAB2224305D02BB124B1002121
:1082D00000F8011B04E00446401C0678002EE9D19A
:1082E0002860204670BD0000A008002070B506463A
:1082F00008F002F8046805460A220021304600F022
:10830000E6FA2C6070BD80EA010210B502F000436D
:10831000400022D04A001FD0010E01EB1261C0F3D1
:108320005600C2F3560240F4000042F40002A0FBE3
:10833000022000047F39140400D0401C50EA12408F
:1083400001D44000491EC2B20C0604EBD010401C00
:108350004008802A02D003E0002010BD20F0010078
:10836000002900DA0020184310BD30B480EA010271
:1083700002F0004530F0004221F0004013D090B1EF
:10838000C30DD40DC2F31601C0F31600E41A41F474
:10839000000140F400027D34914201D3641C00E0EE
:1083A0004900002C02DA30BC002070474FF4000076
:1083B0000023914201D3891A034340084FEA410147
:1083C000F7D151B1914202D14FF0004105E002D204
:1083D0004FF0010101E06FF0010103EBC4502844AC
:1083E00030BC00F0ACBA2DE9FE4F804681EA0300B4
:1083F000C00F0C46009021F0004123F00045B8EB7F
:108400000200A94105D24046214690461C460B4633
:10841000024623F00040104347D0270DC7F30A005F
:10842000C3F30A510290401A019040286BDAC3F35B
:10843000130040F4801B0098924620B10023D2EB39
:10844000030A63EB0B0B01985946C0F140025046FA
:1084500000F01CFA06460D4650465946019A00F0B7
:1084600024FA10EB08006141002487EA115284EAE3
:10847000E7731A4340D0009A62B3019A012A4FEA87
:10848000075215DC001B61EB02014FF0004202EACB
:108490000752CDE90042001C41F5801132462B46BF
:1084A00000F093FA03B0BDE8F08F40462146F9E7AB
:1084B000001B61EB0201001C41F5801300185B41B9
:1084C0002018A2F5001747EB030140EAD570B61952
:1084D0006D4111E06D084FEA360645EAC0754FEA76
:1084E0000752001B61EB0201001C41F58011490895
:1084F0004FEA30000019514132462B4603B0BDE827
:10850000F04F00F053BA0098012240000023D0EB56
:10851000020263EBE073009821464FEAE074B8EB87
:10852000000061EB0401E9E783F000435BE781F0C1
:10853000004158E72DE9FE4F81EA030404F00044AE
:1085400021F0004100944FF0000B23F0004350EA6B
:1085500001045ED052EA03045BD0C3F30A54C1F3B2
:108560000A552C44A4F2F3340194A0FB0254C1F345
:10857000130141F48011C3F3130343F4801301FB8F
:10858000024400FB034E840A970A44EA815447EAF6
:108590008357A4FB076802958D0A05FB07854FEA00
:1085A000932C04FB0C542705029D4FEA065847EA1A
:1085B0001637B5EB08056EEB070C870E920E47EAEF
:1085C000811742EA8312A7FB0201B6EB0B0164EBB1
:1085D00000042B0D43EA0C335E1844EB1C50DA46C2
:1085E0005146E7FB0201C5F313044FEA0B3343EA9C
:1085F00014534FEA0432019C43EA0603A4F10C042D
:108600000294009CCDE900B400F0DFF903B0BDE8AE
:10861000F08F00200146F9E72DE9F04D81EA0304CF
:1086200004F0004B21F0004514464FF0000A23F0FF
:10863000004150EA050220D054EA01021DD0C5F3E2
:108640000A570246C5F31303C1F31300C1F30A56D8
:1086500040F4801543F48013A7EB0608101BD646A0
:1086600008F2FD3873EB050002D308F1010801E0C0
:1086700092185B41B8F1000F03DA00200146BDE813
:10868000F08D00204FF48011064684460EE0171B43
:1086900073EB050705D3121B63EB050306434CEA96
:1086A000010C49084FEA300092185B4150EA01077B
:1086B000EDD152EA030012D082EA040083EA0501F8
:1086C000084305D0101BAB4106D20122002306E06F
:1086D00000224FF0004302E06FF0010253101AEB4A
:1086E00006004CEB085110EB0A0041EB0B01BDE812
:1086F000F04D00F05BB996230022114600F028B936
:108700000EB5C10F80EAE0700844CA07002140F2AC
:1087100033438DE80E000A460B4600F056F903B0CD
:1087200000BD0EB540F2334102910021CDE90011A8
:108730000A460B4600F049F903B000BD00F00042C4
:1087400020F00040C10DC0F3160040F400007F2966
:1087500001DA00207047962903DCC1F19601C84078
:1087600001E096398840002AF4D040427047C1F3B6
:108770000A5210B5C1F3130140F2FF3341F48011E6
:108780009A4201DA002010BD40F233439A42A2F22D
:10879000334203DC5242FFF733FD10BD904010BD61
:1087A00000F0004230F000400AD0C10D01F56071C8
:1087B000C0F3160042EA0151C20840071143704756
:1087C00000200146704701F0004330B421F0004121
:1087D00050EA010206D00A0DA2F56072C1F313013E
:1087E000002A02DC30BC00207047440F44EAC10478
:1087F000C100E01830BC00EBC25000F0A0B830B5AA
:108800000B46014600202022012409E021FA02F54E
:108810009D4205D303FA02F5491B04FA02F52844E8
:10882000151EA2F10102F1DC30BD2DE9F05F054615
:10883000002092469B4688460646814640241BE01F
:108840002846414647462246FFF7DAFC53465A4639
:10885000C01A914110D311461846224600F016F86E
:108860002D1A67EB01084F4622460120002100F037
:108870000DF817EB00094E41201EA4F10104DFDCC6
:10888000484631462A464346BDE8F09F202A04DB8D
:10889000203A00FA02F1002070479140C2F1200313
:1088A00020FA03F3194390407047202A06DBCB17C8
:1088B000203A41FA02F043EAE07306E041FA02F39B
:1088C000D040C2F1200291400843194670472DE97B
:1088D000F04791460F4680460446002614F8015B97
:1088E0002DB100F031F90068405DC007F6D12B2DA5
:1088F00002D02D2D18D0641E4A463946204600F07D
:1089000027F927B13968A14201D1C7F80080710564
:108910004FF002040BD54042002803DD07F0ECFCC9
:108920000460A007BDE8F08746F48066E4E700280D
:10893000F8DA07F0E1FC04606FF00040F2E700298C
:10894000A8BF7047401C490008BF20F001007047D5
:1089500010B4B0FA80FC00FA0CF050EA010404BF35
:1089600010BC704749B1CCF1200421FA04F411FA8B
:108970000CF118BF012121430843A3EB0C01CB1DCF
:108980004FEA00614FEA102042BF002010BC704740
:1089900000EBC35010440029A4BF10BC7047401C1A
:1089A000490008BF20F0010010BC704710B5141E2C
:1089B00073F1000408DA401C41F1000192185B4198
:1089C0001A4301D120F0010010BD2DE9F04D92466F
:1089D0009B4611B1B1FA81F202E0B0FA80F2203286
:1089E0009046FFF753FF04460F4640EA0A0041EA6B
:1089F0000B0153465A46084313D0114653EA01006F
:108A000019D0C8F140025046FFF7FAFB05460E4662
:108A1000504659464246FFF739FF084305D001202A
:108A200004E020463946BDE8F08D0020054346EAC3
:108A3000E0762C4337430A986305E40AA0EB08006C
:108A40000022FD0A44EA47540A3002D500200146BC
:108A5000E9E7010510196941DDE908450019694197
:108A6000BDE8F04DA2E770B521F0004303430CD000
:108A7000C1F30A550024D5EB040564EB0403D617B3
:108A8000AD1AB34102DB0020014670BD201841EB56
:108A9000025170BDC1F30A52C1F3130140F2FF331A
:108AA00041F480119A4202DA00200146704740F2F8
:108AB00033439A42A2F2334202DC5242FFF7A0BB98
:108AC000FFF7E4BE30B5041E71F1000404DB4FF083
:108AD0000044404264EB0101141E73F1000405DB05
:108AE0001C464FF00043524263EB04038B4208BF25
:108AF000824230BD30B5041E71F1000404DB4FF03A
:108B00000044404264EB0101141E73F1000405DBD4
:108B10001C464FF00043524263EB0403994208BFE6
:108B2000904230BD064C074D06E0E06840F001037E
:108B300094E8070098471034AC42F6D3FFF7FCFAEC
:108B4000F841010818420108004870471C4101081B
:108B50002DE9F05F82460078002715468B460AF122
:108B60000104B946302801D09DB113E014F8010B7F
:108B70000127782803D0582801D045B10AE00DB16B
:108B8000102D07D10027102514F8010B02E008254D
:108B900000E00A250026B0460EE005FB080005FBB4
:108BA00006F1012701EB10461FFA80F8B6F5803F69
:108BB00000D3B94614F8010B294600F018F8002834
:108BC000EBDABBF1000F05D00FB1641E00E0544694
:108BD000CBF80040B9F1000F06D007F08DFB022161
:108BE0000160C81EBDE8F09F48EA0640FAE73A284F
:108BF00000D2303820F02002412A01D3A2F1370000
:108C0000884201D34FF0FF30704770B58C1810F8D0
:108C1000015B15F0070301D110F8013B2A1106D1C1
:108C200010F8012B03E010F8016B01F8016B5B1EDB
:108C3000F9D12B0705D40023521E0DD401F8013BB6
:108C4000FAE710F8013BCB1A921C03E013F8015B22
:108C500001F8015B521EF9D5A142D8D3002070BDA6
:108C600070B5044600688168C943C90717D1816897
:108C700021F00101816002F0E5FA05460AE000BF3B
:108C800002F0E0FA401B022804D920688068C04343
:108C9000C00706D020688068C043C007F0D000201D
:108CA00070BDA06A40F01000A062E06A40F00100D0
:108CB000E062012070BD0000F8B500260446009671
:108CC00000688168C943C9072DD0816841F001015E
:108CD0008160164816490068B0FBF1F000E0401EC4
:108CE00000900028FBD102F0ADFA054616E000BF67
:108CF00002F0A8FA401B022810D920688068C043FF
:108D0000C0070BD0A06A40F01000A062E06A40F0FB
:108D10000100E06284F824600120F8BD20688068CA
:108D2000C043C007E4D10020F8BD00008800002047
:108D300040420F0002484178491C417070470000D2
:108D40000C0800202DE9F0412C4C4FF4FA76A18854
:108D50006088814207D0B04200D96680608800F008
:108D6000EBFC6088A08006F011F80025012748B9C7
:108D700005F0FCFF10B905F0ABFFC0B1022005F013
:108D8000A3FEA0B120780028608806D068B10A2828
:108D900009D90A386080BDE8F081B04201D20A30BA
:108DA000F8E72770F7E76580F5E72570F3E705F04A
:108DB000C3FF40B120780028608801D098B9F4E75B
:108DC000B0420CD3EDE70E480068008800286088A8
:108DD00007D0B0420CD2C0F5FA71052906DD401D5E
:108DE000D8E70028D7D0052806D8DCE76680D2E788
:108DF000A0F5FA710529F9DD401FCBE780070020B7
:108E00000006002010B5002000F096FC064C012260
:108E10001021204602F011FA20460122BDE8104040
:108E2000202102F00ABA0000000C014010B504F045
:108E30000DFC01F079F907480021026911800170E9
:108E400000F02AFD06F04AF906F038F9BDE81040B6
:108E500006F0BCBAE00100200C4810B50269002100
:108E600011800170C16942680A60016A82680A6003
:108E7000426A0521118000F128014FF47A72C0681E
:108E8000FFF7CEF9BDE8104004F0EABBE001002096
:108E900010B50821042001F0C5F80149C86010BDD3
:108EA0008C06002010B504F0B3F9124CE071217863
:108EB00081421BD1207A401CC0B22072022818D3F4
:108EC00000F04EFC2079AA2803D0BDE8104000F045
:108ED0001DB8207800280CD000F066FC607821785E
:108EE00008436070BDE8104004F084BB207000208F
:108EF000207210BD8C07002010B50F2004F07AFB03
:108F000005F069FEBDE8104005F09CBE2DE9F04774
:108F1000464D2869401C286169699631884202D90A
:108F2000012006F091F90024404FDFF80481414E02
:108F30001837A1463A5D2878824233D128696861A2
:108F4000002006F081F956F82400401C46F8240061
:108F5000642862D100F030FC2878012804D156F84A
:108F60002400401E46F824003A5D33A1384807F03B
:108F70008FF93748FFF784F9C1B2354806F030FC65
:108F8000D8F800000088102808D0112808D02748F9
:108F900010F1600050F8240080473EE02D48F9E7CA
:108FA0002D48F7E76878824235D156F824006428C6
:108FB0000BD32AA1264807F06BF92548FFF760F983
:108FC000C1B2234806F00CFC27E000F0F5FB224676
:108FD00028A11F4807F05CF91D48FFF751F9C1B2FD
:108FE0001B4806F0FDFBD8F80000008810280BD0C5
:108FF00011280BD00D48403050F824008047D8F895
:109000000000008820B106E02048F5E72048F3E79B
:10901000385D05F00FFD46F82490641CE4B2082C7E
:1090200088D328786870BDE8F08700008C0700209E
:10903000000600200448002044454255473A205B82
:10904000B0B4BCFCB3A4B0B45D3A2025640A0A00F5
:10905000B84200206C060020DC0600204445425542
:10906000473A205BB0B4BCFCB6CCB0B45D3A202526
:10907000640A0A0044454255473A205BB0B4BCFC40
:10908000B5E3BBF75D3A2025640A0A004C060020D0
:10909000BC06002010B5274C42F21071E268521C49
:1090A000E2606088884201D2401C00E000206080BD
:1090B00040F2DC50824203D9A08840F48070A08046
:1090C0004FF49670B2FBF0F100FB112171B98242AE
:1090D0000CD319A1234807F0EBF82248FFF7D0F88A
:1090E000C1B2204806F07CFB05F0ECF860880A214C
:1090F000B0FBF1F201FB1202062A11D0B0FBF1F233
:1091000001FB120282B1B0FBF1F201FB1200032855
:109110000ED1207800280BD0BDE8104004F058BED6
:10912000BDE8104004F056BFBDE8104004F05CBE3E
:1091300010BD0000480800205B4552524F525D09A7
:10914000C7FDB6AFB0E5CDA8D1B6B9CAD5CF2063BB
:109150006E743A09256409D6D8C6F4B4AEBFDA0AEB
:10916000000000000E4F002010B50021032000F089
:109170006FFF1C4C01216080032000F069FFA0807C
:10918000032805D90322A2800121104605F00CFC1A
:109190000221032000F05CFFE080072805D90722A8
:1091A000E2800221032005F0FFFB0421032000F0F0
:1091B0004FFF2081082805D908222281042103209D
:1091C00005F0F2FB0521032000F042FF6081012839
:1091D00007D9012262810521BDE81040032005F076
:1091E000E3BB10BD3406002010B5074C2078AA2838
:1091F00003D0BDE8104000F00FB805F047FD05F0C2
:1092000035FD0020207010BD90070020014902208C
:1092100008707047DC01002070B505F09DFD002846
:109220006AD1364CE068401CE0600A285DD3002615
:10923000E6602069401C206106F0B0FC00F020FAD6
:10924000A0792F4D012805D00120A07105F04AF822
:1092500078B118E0A67105F057FD40B328780121D8
:1092600040F008002870084606F03CF805F062FF60
:109270003BE02878002120F008002870012006F04B
:1092800031F805F057FF03F0ADFE10B100F004FE19
:109290002BE0E66101F000F8112803D100F080FB1B
:1092A00004F074F805F020FD10B103F03FFF1CE05E
:1092B00005F06CFD10B100F07BF816E005F056FDEE
:1092C00010B105F001FA10E005F036FD10B105F01F
:1092D000B7F90AE005F06AFD10B105F0FBFB04E008
:1092E00005F01EFD08B105F08BF96079002803D167
:1092F000BDE8704004F04AB870BD00000C080020C2
:10930000DC01002000B5012005F0D6FB05F0ECFCE7
:1093100000280ED105F03AFD0E4918B10868018801
:10932000491E05E005F022FD20B108680188891E6C
:10933000018000BD05F000FD18B108680188C91E54
:10934000F6E705F033FD0028F3D008680188091F0F
:10935000EEE700000006002010B5012005F0ACFB90
:1093600005F0C2FC114918B108680188C91C17E052
:1093700005F00CFD18B108680188891C10E005F0A3
:10938000F5FC18B108680188491C09E005F0D4FC17
:1093900000280AD105F00AFD18B108680188491EA5
:1093A0000180BDE8104000F0EFBA10BD00060020BB
:1093B00000B5012005F080FB05F096FC104920B1B6
:1093C00009680888801C088000BD05F0DFFC18B122
:1093D00008680188491C09E005F0C8FC0028F3D1A1
:1093E00005F0AAFC20B108680188491E018000BD73
:1093F00005F0DCFC0028FAD008680188891EF5E732
:109400000006002000B5012005F056FB05F06CFCBD
:10941000104920B109680888401C088000BD05F08B
:10942000B5FC0028FAD105F0A1FC18B10868018844
:10943000491E05E005F080FC20B108680188891EFE
:10944000018000BD05F0B2FC0028FAD00868018850
:10945000C91EF5E70006002010B5012005F02CFB21
:1094600005F042FC134918B108680188091D13E092
:1094700005F08CFC18B108680188C91C0CE005F0E7
:1094800075FC18B108680188891C05E005F054FCDA
:1094900020B108680188491C018003E005F086FCC2
:1094A000002806D1002004F049FDBDE8104000F07E
:1094B0006BBA10BD00060020012000F09BB8000030
:1094C00001480078704700006907002010B5194B6B
:1094D00001221521184804F054FF0021032000F058
:1094E000A1FD024640F2E32423460321124804F082
:1094F0000FFF0021032000F095FD024623460621C0
:109500000D4804F005FF0021032000F08BFD02460A
:1095100023461021084804F0FBFE0021032000F040
:1095200081FD23460246BDE810400521024804F0B3
:10953000EFBE000095E90008C444002010B500F01B
:109540007FF84FF4FA6009F071F8002000F05AF843
:1095500041F2883009F06AF8BDE81040F32000F0CD
:109560002BB80000014805F035B80000C4440020C5
:109570000D4910B591F80622002A11D1012281F877
:1095800003220022A1F8002291F8054201F5807320
:10959000E05491F80502FF2803D2401C81F805022F
:1095A00010BD81F8052210BDC4440020014804F01C
:1095B000F9BE0000C444002010B588B00446202144
:1095C0006846FEF746FE224606A1684606F070FE93
:1095D0006846FEF755FE0146684605F0DBF908B01F
:1095E00010BD000041542B424C454D54553D25645F
:1095F0000D0A0000032801D80149087070470000D7
:109600006907002010B588B0044620216846FEF79F
:1096100020FE224606A1684606F04AFE6846FEF78E
:109620002FFE0146684605F0B5F908B010BD0000F0
:1096300041542B424C454D4F44453D25640D0A0095
:1096400000B589B020216846FEF703FE06A16846F2
:1096500006F02EFE6846FEF713FE0146684605F04A
:1096600099F909B000BD000041542B424C454E41D0
:109670004D453D696E7665726A65740D0A0000009D
:1096800010B5FFF71DFF1F4C01280CD0FFF718FF86
:10969000032827D0FFF714FF022820782FD020F0CE
:1096A0000100207010BD1848816911B10269914212
:1096B00001D9016981610269D10705D12178CB0700
:1096C0000DD021F0010121708169511A78290FD93B
:1096D000002101610846FFF78DFF207805E041F089
:1096E0000101F0E72078C10706D020F001002070CA
:1096F000BDE8104003F04ABE40F00100F7E740F03B
:109700000100CEE7DC0100200C080020FFF77AFB07
:10971000044801F0BCFEFFF715FB142008F086FF9B
:10972000F6E70000841300204FF4FA7000F004B84C
:10973000002000F001B8000070B5074D044600217C
:10974000A86802F099FEA86801684C63BDE8704003
:10975000002102F037BE000080070020FEE7000075
:1097600070B5104C607901280DD002280ED00A285F
:109770000ED9A179002589B1122809D905F0AAFCD2
:109780006571A57170BD05F0A5FC01E005F08DFCCB
:1097900060790028F6D0401C607170BD05F09AFC1D
:1097A000657170BD8C0700200248012181714171F3
:1097B000704700008C07002010B505F0CDFA002896
:1097C00004D10348012141710021817110BD0000C5
:1097D0008C07002010B504460821064802F04CFE14
:1097E00004480068C463BDE810400821014802F045
:1097F000E9BD0000D813002030B5ADF5017D0D4660
:1098000004464FF400720B496846FEF709FD00203C
:10981000694608E014F8012B82EA102231F8122080
:1098200082EA002080B26D1EADB2F3D20DF5017D4B
:1098300030BD0000F43D010810B500F0B1F8054856
:109840000021C161018105F03DFABDE8104003F03F
:109850009DBD00000C080020002180B1012810D01F
:1098600002280ED003280ED004280ED00F280ED0C8
:1098700010280CD011280AD006280AD080210846CA
:1098800070470121FBE70821F9E70221F7E70421EE
:10989000F5E71021F3E7000070B5314BD869008877
:1098A00003F097FC10B9D86959680160186A0088FC
:1098B00003F08FFC20B1186A408803F091FC10B9C6
:1098C000186A99680160586A0188491E082901D3FD
:1098D0000521018000249C704FF47A72DC70987826
:1098E00000EBC00101EB0010D96801EBC000D97892
:1098F00030F8210003F06DFCF8B1987800EBC0015E
:1099000001EB0010D96801EBC000D97800EB8100B1
:10991000408803F065FC80B1D878A8B1997801EB54
:10992000C10505EB0111DD6805EBC10101EB80010B
:109930004D8831F8021C8D4206D8D868BDE87040C9
:1099400007492831FEF76CBC401CC0B2D8703228E1
:10995000C5D39878401CC0B298700528BED370BD9E
:10996000E001002010B50522064B002133F811401C
:10997000844201D1012010BD491C89B29142F5D326
:10998000002010BD3C0800200148016901627047B9
:109990000C08002001490020487070470C08002086
:1099A00010B500F021F80C4C0020E16808800B494C
:1099B0002070607009680880A07805F023F80849D5
:1099C000084AE078096808801268A1881180BDE81B
:1099D000104000F039B800008C0600200806002076
:1099E000F4010020F801002002480021C1608180BC
:1099F00070470000480800200149002008707047A7
:109A00000C080020014801F07FB800002018002059
:109A1000014801F079B80000DC17002030B590F85B
:109A200040500124AC40C56B6C60046863604368BF
:109A3000102B036803D099600068C26030BD9A6043
:109A40000068C16030BD0000054910B54969088053
:109A500004F074FABDE81040022005F025B80000BB
:109A6000E00100207047704710B586B0044614220C
:109A700013496846FEF7D4FB4FF4E130042C0FD0B5
:109A8000012C0FD0022C15D0032C09D0052C07D0A7
:109A9000601E042811D8684600EB840050F8040CBE
:109AA00006B010BD07490220C9680880054810307B
:109AB0008068F5E74FF41650F2E70020F0E7000069
:109AC000E03B0108B001002010B50021032000F0A8
:109AD000A9FA0A4C01212060032000F0A3FAE060FB
:109AE0000120FFF7C1FF0021042000F09BFA606015
:109AF0000121042000F096FAA06010BDB001002002
:109B000010B50446800703D5FF21052005F044FC6D
:109B1000E00705D0FF21BDE81040042005F03CBC63
:109B200010BD10B50446400703D50021072005F0FD
:109B3000D9FBA00703D5FF21072005F02DFCE00786
:109B400005D0FF21BDE81040062005F025BC10BD62
:109B500010B5FF21052005F01FFCFF21BDE81040D6
:109B6000042005F019BC70B50446642802D94FF0F2
:109B7000640400E002D34FF0010101E04FF0000166
:109B80004FF0070005F0AEFB0A25B4FBF5F0B0FB83
:109B9000F5F105FB1101072005F0FEFBB4FBF5F024
:109BA00005FB1041BDE87040062005F0F5BB70B51F
:109BB00004464FF47A70B4FBF0F00A25B0FBF5F1DF
:109BC00005FB1101002005F0E7FB6420B4FBF0F079
:109BD000B0FBF5F105FB1101012005F0DDFBB4FB45
:109BE000F5F0B0FBF5F105FB1101022005F0D4FB07
:109BF000B4FBF5F005FB1041BDE87040032005F013
:109C0000CBBB10B504464521002005F09DFBC4F3F5
:109C10000321012005F0C0FBC4F30311022005F06D
:109C2000BBFB04F00F01BDE81040032005F0B4BBFE
:109C300070B505460A24B0FBF4F0B0FBF4F104FB68
:109C40001101002005F0A8FBB5FBF4F004FB105156
:109C5000BDE87040012005F09FBB10B504465021BF
:109C6000052005F071FB0A20B4FBF0F100FB114167
:109C7000BDE81040042005F08FBB70B50446642891
:109C800002D94FF0640400E002D34FF0010101E07B
:109C90004FF000014FF0070005F024FB0A25B4FB4C
:109CA000F5F0B0FBF5F105FB1101072005F074FBA1
:109CB000B4FBF5F005FB1041BDE87040062005F04F
:109CC0006BBB70B505460A24B0FBF4F0B0FBF4F1B1
:109CD00004FB1101022005F05FFBB5FBF4F004FB6F
:109CE0001051BDE87040032005F056BB70B5044626
:109CF000642802D94FF0640400E002D34FF0010160
:109D000001E04FF000014FF0070005F0EBFA0A25E3
:109D10000A2C01D2FF2105E0B4FBF5F0B0FBF5F110
:109D200005FB1101072005F037FBB4FBF5F005FB3F
:109D30001041BDE87040062005F02EBB70B5054609
:109D40000A24B0FBF4F0B0FBF4F104FB1101052090
:109D500005F022FBB5FBF4F004FB1051BDE87040A8
:109D6000042005F019BB72B6FEE7000070B50D4E79
:109D70000546304608F080FF002812D10A4C2069C1
:109D800040F0020020616561206940F040002061E0
:109D9000304608F071FF012803D0206920F002004E
:109DA000206170BDFFFF5F0000200240044B0022D5
:109DB000DA61044A136943F00103136101807047BB
:109DC000B01800200020024014480022C168CB06D1
:109DD000134904D5CA6942F00202CA611022C3685D
:109DE0005B0705D5CB6943F00103CB6142F0040268
:109DF000C369DB0707D0CB6943F00403CB61C169BA
:109E000021F00101C161A2F58071013901D0C26068
:109E10007047C16921F00101C16170470020024013
:109E2000B018002070B5054601F00CFA0646114C3A
:109E300009E0681C07D025B101F004FA801BA84294
:109E400001D9032070BDE068C007F2D1E068800648
:109E500001D52020E060E068C00605D4E069C007B5
:109E600002D1E068400703D5FFF7AEFF012070BDC7
:109E7000002070BD0020024010B5064CE06800884C
:109E800000F040F920706178814201D901206070B2
:109E900010BD00008C06002010B5C0B000F0FCF929
:109EA000112802D005F0ACFA3AE004F011FF0028C6
:109EB00036D003F08DF898BB00F0E8F94FF48071CC
:109EC00088422DD01E4CA2782069801AB0F5E15F3F
:109ED00012D96846FEF7BDF962781AA1684606F005
:109EE000E7F96846FEF7CCF9C1B2684605F078FCA0
:109EF00000206070207CA070E06910B12169884268
:109F000004D92069E061A17801B9A070E1692069F4
:109F1000401AF02804D96078401C6070FFF78CFC70
:109F200003F0D4FF30B1022004F0CEFD10B10220C6
:109F300004F0C2FD40B0BDE8104005F0B7BD000020
:109F40000C080020B9CAD5CFBBD6B8B4BCC6CAB1BC
:109F5000B3ACB9FD31D0A1CAB12CC7E5B3FDBCC6C5
:109F6000CAFDC6F73A0925640A0000000B4810B57F
:109F7000006808F091FB0A48006808F08DFB09486A
:109F8000006808F089FB0848006808F085FB07486E
:109F90000068BDE8104008F07FBB000050000020C2
:109FA00054000020580000206000002064000020C1
:109FB000094810B5006808F089FB0848006808F0F7
:109FC00085FB0748006808F081FB06480068BDE88B
:109FD000104008F07BBB000050000020540000201F
:109FE0005800002060000020094810B5006808F003
:109FF0006DFB0848006808F069FB0748006808F036
:10A0000065FB06480068BDE8104008F05FBB000033
:10A010005000002058000020600000206400002054
:10A0200070470000032802D0042805D00AE0B1F5EB
:10A03000397F07D2044802E0102903D8034800EB17
:10A04000410070470020704724480020EC4D00205C
:10A05000032802D0042805D00AE0B1F5397F07D2E1
:10A06000044802E0102903D8034830F81100704773
:10A070000020704724480020EC4D002070B50920D6
:10A0800003F020FB124C606800F086F9606800F075
:10A09000DFFB0721606800F03DFB606800F066FAB6
:10A0A000800503D5606800F063FA05464DB1B5F54B
:10A0B000805F06D0002020802846BDE8704000F078
:10A0C000F7B82088411C21800A28F5D9014870BDC5
:10A0D0006C0700200000C8C230B500231A460125D5
:10A0E00005FA02F4044206D05B1CDBB2994202D1AD
:10A0F000521CD0B230BD521CD2B2102AF0D3002074
:10A1000030BD0000024610B5002001465FF001049A
:10A1100004FA01F3134201D0401CC0B2491CC9B279
:10A120001029F5D310BD000000B530210320FFF742
:10A1300079FF4149086080210320FFF773FF3F4901
:10A14000086082210320FFF76DFF3D4908604FF44E
:10A1500080710320FFF766FF3A490860062103205B
:10A16000FFF760FF3849086002884FF4FA718A42AD
:10A1700000D9018000210320FFF754FF3349086014
:10A1800001210320FFF74EFF31490860022103201F
:10A19000FFF748FF2F49086004210320FFF742FF23
:10A1A0002D49086004210846FFF73CFF2B49086051
:10A1B00008210420FFF736FF2949086009210420FF
:10A1C000FFF730FF274908600A210420FFF72AFF24
:10A1D000254908600B210420FFF724FF234908606C
:10A1E0000C210420FFF71EFF214908600E210420E6
:10A1F000FFF718FF1F49086010210420FFF712FF26
:10A200001D49086022210320FFF70CFF1B4908604D
:10A2100021210320FFF706FF1949086023210320AD
:10A22000FFF700FF1749086024210320FFF7FAFE1B
:10A230001549086000BD0000FC050020FC0100205D
:10A2400000020020EC01002030060020240600203F
:10A25000280600202C06002004020020040600200E
:10A26000080600200C06002010060020140600201E
:10A27000180600201C0600202006002000060020F2
:10A28000F0010020F4010020F8010020014880883E
:10A2900070470000480800200148006800787047B7
:10A2A000000600200148C078704700000C0800201C
:10A2B0002DE9F041FEF71FFAFEF772FA4FF066380B
:10A2C00042461C4BFEF736F9FEF77DFA0546FEF7CF
:10A2D00067FA4246184BFEF72AF9184E07460C4615
:10A2E00031462846FEF70FF8FEF75AFA3A4623465B
:10A2F000FEF792F9FEF767FA3146FEF736F8FEF7F9
:10A300004FFA07F0A3FB00220D4BFEF785F90D4A2B
:10A310000D4BFEF768F802460B4600200B49FEF78E
:10A320007BF942460A4BFEF7FFF8BDE8F041FEF725
:10A330004ABA000066664A3F66660A40000020414D
:10A3400000DCAE4083DBB5DCE1796B3F0000F03F21
:10A350006612714001480078704700008C080020A8
:10A360002DE9F04100250B4E2C46012706EBC400D9
:10A37000818856F8340000F05BFF18B907FA04F042
:10A380002843C5B2641CE4B2022CEFD32846BDE8D2
:10A39000F081000040000020F8B50025044600953B
:10A3A00090F82400012808D0012084F824002046D9
:10A3B000FEF756FC060002D053E00220F8BDA06A6A
:10A3C00020F4885040F00200A062022001F04AF917
:10A3D00026490968B1FBF0F0400000E0401E009003
:10A3E0000028FBD12046FEF767FC2068816841F019
:10A3F0000801816000F026FF074608E000F022FF18
:10A40000C01B0A2803D920688068000715D420687B
:10A4100080680007F2D42068816841F004018160FF
:10A4200000F010FF074612E000F00CFFC01B0A28E6
:10A430000DD920688068400709D5A06A20F0020085
:10A4400040F01000A06284F824500120F8BD20687C
:10A4500080684007E8D4A06A20F0020040F00100C4
:10A46000A06284F824503046F8BD00008800002027
:10A47000F8B50024009490F824202546012A12D033
:10A48000012280F824204A681F23072A0DD206687B
:10A49000776B521E02EB820293409F430B689340FE
:10A4A0001F43776319E00220F8BD06680D2A0AD21F
:10A4B000376BD21F02EB820293409F430B6893409D
:10A4C0001F43376309E0F76A0D3A02EB82029340BB
:10A4D0009F430B6893401F43F7620A68072306688F
:10A4E0000A2A0AD3F7680A3A02EB420293409F43D2
:10A4F0008B6893401F43F76008E0376902EB420224
:10A5000093409F438B6893401F4337610A68102A2A
:10A5100001D0112A20D1124B02689A4217D19368B8
:10A520001B0219D4936843F400039360096810294F
:10A5300012D10C490C4A0968B1FBF2F101EB81011F
:10A54000490000E0491E00910029FBD104E0816A26
:10A5500041F020018162012480F824502046F8BD9A
:10A56000002401408800002040420F00806A7047AC
:10A570000068C06C704700002DE9F04104004FF006
:10A5800000057FD0A06A002628B9E66284F824601E
:10A59000204600F081F82046FEF762FBA16AC9065A
:10A5A00000D420B1A06A40F01000A0626AE0A16A65
:10A5B00021F4885141F00201A162334923688B42A2
:10A5C000E16904D1B1F5402F01D14FF40021277B7F
:10A5D0004FF4807C41EA470261680A43A168614503
:10A5E00008D0012906D0002194F814E0BEF1010F33
:10A5F00002D00AE06146F7E7C7B1A76A47F0200733
:10A60000A762E76A47F00107E7625F6827F46947D6
:10A610000F435F60236899681C4F3940114399606C
:10A62000A16861450BD0012909D00CE0DFF860E09A
:10A63000A7690EEB47370F4347F40061E5E7218A2E
:10A640000D05A5F580152168CB6A23F470032B4313
:10A65000CB62216889680F4B1940914208D1E662AC
:10A66000A16A21F0020141F00101A162BDE8F0817F
:10A67000A06A20F0020040F01000A062E06A40F002
:10A680000100E0620120F1E7003C0140FDF7E1FF3D
:10A6900000E0FFFFFE0E1FFF10B586B00021009105
:10A6A00001910291039100681649884227D116480A
:10A6B000816941F480618161816901F48061049163
:10A6C000816941F004018161816901F00401049113
:10A6D000816941F0080181618069032400F008006C
:10A6E00004906020CDE900046946084800F0A4FC0D
:10A6F0000220CDE900046946054800F09DFC06B043
:10A7000010BD000000280140001002400008014078
:10A71000000C01402DE9F84300270D460446009740
:10A7200000F090FD804620688168C90508D5A06AC0
:10A7300040F02000A06284F824700120BDE8F88376
:10A740004168C90503D4C06A10F4700F2AD00220F2
:10A7500000F088FF3B490968B1FBF0F62068036907
:10A7600039490B424FEA61014FEAA1121FD1C36878
:10A770004FEA611C13EA0C0F19D103690B4225D172
:10A78000C068104222D1142023E0681C0AD02DB1E9
:10A7900000F058FDA0EB0800A84203D9206800682B
:10A7A000800725D5206800688007EED52DE0036975
:10A7B0000B4202D1C168114206D0026923490A4204
:10A7C00006D1C068084203D1542002E0292000E0ED
:10A7D000FC204643009816E0681C11D02DB100F013
:10A7E00031FDA0EB0800A8420AD90098B04207D278
:10A7F000A06A40F00400A06284F8247003209DE762
:10A800000098401C0090B042E6D321686FF012001F
:10A810000860A06A40F40070A06220688068C0F3FD
:10A82000424007280CD1207B50B9A06A20F48070E8
:10A83000A062A06AC00403D4A06A40F00100A06234
:10A8400000207BE7880000202449922449922400BC
:10A8500070B5044690F8240001280DD0012084F83A
:10A8600024002046FEF728FA02004FF0000005D031
:10A8700084F82400104670BD022070BDA16A40F229
:10A880000123994341F48071A1621F4D23681F4940
:10A89000AB4218D10E6816F4702F14D0A66A46F495
:10A8A0008016A6620E68760505D5A66A26F40056BF
:10A8B00046F48056A662A66AF6040AD5E66A26F031
:10A8C0000606E66206E0A66A26F48016A6625E68C0
:10A8D000E9E7E06284F824006FF002001860206865
:10A8E0008368C3F34243072B05D1A84208D1096806
:10A8F00011F4702F04D0816841F480118160B9E7B0
:10A90000816841F4A001F9E70028014004240140D6
:10A9100010B590F821100022022905D0042181638E
:10A9200080F82020012010BD01680B6823F00E0381
:10A930000B6001680B6823F001030B6090F8403056
:10A94000C46B012101FA03F3636080F8211080F8E1
:10A950002020104610BD00002DE9F05F90F8211076
:10A960000024022903D004218163012485E00168C9
:10A970000A6822F00E020A6001680A6822F00102E9
:10A980000A603F4E3E4FB215DFF8F4C0DFF8F0909A
:10A99000DFF8ECA0DFF8E8B0DFF8E4E00168783F2A
:10A9A00013011502ACF1640CA9F15009AAF13C0A9B
:10A9B000ABF1280BAEF1140E4FF48018B14227D939
:10A9C000B9420ED0614512D049451DD0514518D02D
:10A9D000594518D0714501D1424615E0294EB14282
:10A9E00001D1012210E0274E1436B14201D11022CC
:10A9F0000AE0244E2836B14206D0224A3C32914227
:10AA000001D11A4600E02A461E49091F0A602BE0C0
:10AA1000B94213D0614517D0494522D051451DD0C8
:10AA200059451DD0714501D142461AE0B14202D1CB
:10AA30004FF0807215E0134EB14201D1012210E0B7
:10AA4000104E1436B14201D110220AE00D4E2836C4
:10AA5000B14206D00B4A3C32914201D11A4600E085
:10AA60002A46074980394A60012180F821100021D7
:10AA700080F82010416B01B188472046BDE8F09F67
:10AA8000800002400804024010B5D0B101680A6895
:10AA900022F001020A600268002111600268516020
:10AAA000026891600268D160144C02681423A242CB
:10AAB00009D2134C2244B2FBF3F292000264114A11
:10AAC0000AE0012010BD0D4C64422244B2FBF3F2B7
:10AAD00092000264094A083AC26390F840300122A9
:10AAE0009A40C36B5A608162C162016341638163B2
:10AAF00080F8211080F82010002010BD08040240CA
:10AB0000F8FFFDBF000002402DE9F05FC16B0A684D
:10AB100001680B68046C4FF0040808FA04F8844DCF
:10AB2000844E854FDFF814C2DFF81492DFF814A2C8
:10AB3000DFF814B2DFF814E218EA020F65D05FEA1A
:10AB4000437862D50A68920603D40A6822F00402A8
:10AB50000A60DFF8F0814FF48062016808F11408A0
:10AB600013011402414524D9A9420DD0B1420FD09E
:10AB7000B9421AD0614515D0494515D0514501D18A
:10AB8000120312E0594501D104220EE0714501D1B2
:10AB900040220AE06D4D1435A94206D06B4A283296
:10ABA000914201D11A4600E022466749091F0A6016
:10ABB00029E0A94213D0B14215D0B94220D0614555
:10ABC0001BD049451BD0514502D14FF4800217E0FC
:10ABD000414502D14FF0806212E0594501D1042273
:10ABE0000EE0714501D140220AE0584D1435A942CA
:10ABF00006D0564A2832914201D11A4600E0224638
:10AC00004B4908394A60C16A71E04FF0020808FAFE
:10AC100004F818EA020F70D05FEA83786DD50A68ED
:10AC2000920606D40A6822F00A020A60012180F81E
:10AC30002110DFF810814FF40072016808F1140848
:10AC400013011402414524D9A9420DD0B1420FD0BD
:10AC5000B9421AD0614515D0494515D0514501D1A9
:10AC6000120312E0594501D102220EE0714501D1D3
:10AC700020220AE0354D1435A94206D0334A283245
:10AC8000914201D11A4600E022462F49091F0A606D
:10AC900029E0A94213D0B14215D0B94220D0614574
:10ACA0001BD049451BD0514502D14FF4001217E08B
:10ACB000414502D14FF0007212E0594501D1022204
:10ACC0000EE0714501D120220AE0204D1435A94241
:10ACD00006D01E4A2832914201D11A4600E022468F
:10ACE000134908394A60002180F82010816A002940
:10ACF0001CD0BDE8F05F0847FFE70825A5401542D6
:10AD000014D01A0712D50A6822F00E020A6090F8D1
:10AD10004020C36B012101FA02F25A60816380F87E
:10AD20002110002180F82010016BE0E7BDE8F09FC2
:10AD3000080002401C000240300002404400024073
:10AD4000580002406C000240080402401C0402400B
:10AD500030B560B11A4B026814219A4209D2194BDE
:10AD60001344B3FBF1F18900016417490AE00120A3
:10AD700030BD134B5B421344B3FBF1F18900016416
:10AD80000F490839C163022180F82110136843F686
:10AD9000F0718B43F0E901142143D0E902452C43C3
:10ADA00021430469214344692143846921431943B0
:10ADB000116000214163012242770177084630BDCE
:10ADC00008040240F8FFFDBF0000024070B50446D1
:10ADD00090F82000002501280CD0012084F82000E4
:10ADE00094F821600020012E06D084F8200002256E
:10ADF000284670BD022070BD022684F82160A06341
:10AE00002068066826F0010606602046FEF706FE6A
:10AE1000E06A00282068016802D041F00E0106E0D7
:10AE200021F0040101602068016841F00A0101601D
:10AE30002068016841F001010160D9E7064810B5BA
:10AE40004FF0FF31C16000220261C160C26000F0BA
:10AE500085FB002010BD000000100240034801697E
:10AE600041F0800101610020704700000020024095
:10AE70002DE9F05F07461C4888460024017E1546F0
:10AE80001E46012909D00121814601764CF2503A33
:10AE90005046FEF7C7FF18B122E00220BDE8F09F40
:10AEA000012F02D0022F00D00427D346DFF83CA0A8
:10AEB000220128463146FDF7A3F981B208EB440090
:10AEC000FEF774FF5846FEF7ADFFDAF8102022F0C7
:10AED0000102CAF8102018B9641CE4B2BC42E7D3DE
:10AEE000002289F81820D9E7B0180020002002407D
:10AEF000064900200A69120607D5054A4A60054A34
:10AF00004A600969090600D5012070470020024007
:10AF100023016745AB89EFCD2DE9F04300233E4F78
:10AF20000F2574E001229A400A406ED023F00304FA
:10AF3000E619D6F808809C074FEA147C05FA0CF94C
:10AF400009EA0804DFF8D480404502D14FF0000838
:10AF500024E0DFF8CC80404502D14FF001081DE02D
:10AF6000DFF8C080404502D14FF0020816E0DFF85C
:10AF7000B880404502D14FF003080FE0DFF8AC8005
:10AF8000404502D14FF0040808E0DFF8A4804045B6
:10AF900002D14FF0050801E04FF0060808FA0CF85E
:10AFA000A04515D1D6F808C02CEA090CC6F808C08F
:10AFB000204E346894433460341D266896432660DE
:10AFC000241D266896432660241D26689643266025
:10AFD000FF2A01D8064601E000F104064FEA830487
:10AFE00001D9A4F12004D6F800C005FA04F82CEA2F
:10AFF000080C4FF0040808FA04F84CEA080CC6F8EC
:10B0000000C0C46824EA0204C46003F1010331FAF9
:10B0100003F287D1BDE8F083000001400008014041
:10B02000000C0140001001400014014000180140D4
:10B03000001C0140000401402DE9F84FDFF8C891E1
:10B04000002409F1040A0AF1040B23460F270BF12F
:10B05000040ED1E00125A54006EA0502AA4276D1F8
:10B06000DFF8A8C14E68A6EB0C0866452BD00DDCB6
:10B07000032E34D005DC36B3012E19D0022E2FD189
:10B080001BE0112E16D0122E2AD119E0B8F5881F18
:10B0900019D006DCB8F5803F15D0B8F5801F1FD158
:10B0A00011E0B8F5001F0ED0B8F5041F18D10AE062
:10B0B000CB6815E0CB681B1D12E0CB6808330FE0AE
:10B0C000CB680C330CE08B682BB1012B4FF00803DD
:10B0D00003D0456104E0042302E0056100E00023A1
:10B0E000FF2A01D8064601E000F104064FEA840574
:10B0F00001D9A5F12005D6F8008007FA05FC28EA59
:10B100000C0803FA05F548EA0508C6F800804D6802
:10B11000ED0070D53E4DAE6946F00106AE61AD69F9
:10B1200024F0030605F0010500953A4D06EB050CE9
:10B13000DCF80850A607360F07FA06F825EA0805D6
:10B14000DFF8D480404503D14FF0000825E052E0FD
:10B15000DFF8C880404502D14FF001081DE0DFF85C
:10B16000C080404502D14FF0020816E0DFF8B480FD
:10B17000404502D14FF003080FE0DFF8AC804045B6
:10B1800002D14FF0040808E0DFF8A080404502D16A
:10B190004FF0050801E04FF0060808FA06F848EA03
:10B1A0000508CCF808804D68D9F80060ED034D46DD
:10B1B00001D5164300E096432E604D68DAF8006032
:10B1C000AD03554601D5164300E096432E604D6809
:10B1D000DBF80060ED025D4601D5164300E09643C2
:10B1E0002E604D68DEF80060AD02754601D516434D
:10B1F00000E096432E60641C0A681646E2407FF425
:10B2000029AFBDE8F88F00000004014000001110D4
:10B21000001002400000014000080140000C014005
:10B22000001001400014014000180140001C0140C2
:10B230008068084000D0012070470AB10161704762
:10B240000904FBE701488068704700007C0000208B
:10B2500070B5040025D094F83D00002520B984F88D
:10B260003C50204600F0B8F8242084F83D002068C7
:10B27000016821F0010101602068016841F400418A
:10B2800001602068016821F40041016000F080FB4A
:10B290004D4A6168914201D84C4900E04C498842CE
:10B2A00001D2012070BD4B492368B0FBF1F15E680B
:10B2B00026F03F060E435E606368934206D94FF462
:10B2C000967359434FF47A73B1FBF3F12368491C29
:10B2D0001E6A26F03F06314319626168914210D818
:10B2E0004900401EB0FBF1F2521CC2F30B02042ACB
:10B2F00001D2042022E0B0FBF1F0401CC0F30B00AF
:10B300001CE0A268F2B301EBC10303EB0116431E7C
:10B31000B3FBF6F35B1C43F480431B0549D092B3A7
:10B3200001EBC10202EB0111401EB0FBF1F0401C29
:10B33000C0F30B0040F4804040F400402168CA692B
:10B340004CF6FF739A431043C861D4E907100143D8
:10B350002068026822F0C00211430160D4E90301B1
:10B3600001432068826848F2FF339A4311438160A9
:10B37000D4E9050108432168CA6822F0FF0210439E
:10B38000C86001E00EE016E02068016841F00101AC
:10B3900001602564202084F83D00256384F83E5038
:10B3A000002070BD01EB4106431EB3FBF6F35B1CAE
:10B3B000B3E70120C2E701EB4101401EB0FBF1F011
:10B3C000401CC0F30B00B7E7A086010080841E007C
:10B3D00000093D0040420F0010B586B000210091E9
:10B3E00001910291039100680F4988421AD10F4CD4
:10B3F000A06940F00800A061A069694600F008005B
:10B400000490C0200090122001900320039008486F
:10B41000FFF712FEE06940F40010E061E06900F41B
:10B420000010049006B010BD00540040001002400F
:10B43000000C014070B5040011D021684CF6CC40DE
:10B440000860216845F255500860D4E90001416068
:10B450002168A0688860FFF7F5FE05460DE0012031
:10B4600070BD00BFFFF7EEFE401B272805D92068FE
:10B47000C068800701D0032070BD2068C0688007C5
:10B48000F0D121684AF6AA200860002070BD00684B
:10B490004AF6AA2101600020704700000248816836
:10B4A00002781144816070477C000020074810B585
:10B4B000016841F010010160032000F0C1F80F2085
:10B4C00000F006F800F04CF8002010BD002002400B
:10B4D00030B505461C4887B0816941F4006181613F
:10B4E000806906A900F40060009001A800F030FA1D
:10B4F00000F05EFA1549164AB0FBF1F11548491EF5
:10B500000260416040F2E7320021C0E9032181601E
:10B51000816100F063FC040012D10E4800F0EAFCE7
:10B5200004000DD1192000F05DF8102D07D2002283
:10B530002946192000F064F80748056000E001245E
:10B5400007B0204630BD00000010024040420F000E
:10B55000002C01406418002080000020704700008B
:10B560000F4808B5816941F001018161816901F0ED
:10B5700001010091C16941F08051C161C06900229F
:10B5800000F0805000900F21901E00F039F805481F
:10B59000416821F0E06141F00071416008BD0000A8
:10B5A0000010024000000140002809DB00F01F02EB
:10B5B000012191404009800000F1E020C0F8801294
:10B5C000704700280DDB00F01F0201219140400967
:10B5D000800000F1E020C0F88011BFF34F8FBFF36F
:10B5E0006F8F7047002809DB00F01F020121914096
:10B5F0004009800000F1E020C0F800117047000011
:10B60000F0B40E4B1B680C46C3F30223C3F10705CD
:10B61000042D00D90425191D072901D2002300E0BB
:10B62000DB1E012606FA05F1491E214099409E4085
:10B63000761E16403143F0BC04F04EBE0CED00E027
:10B64000064900F0070208684FF6FF03184040EA79
:10B650000220034A10430860704700000CED00E030
:10B660000000FA0510B52CA401461DCC86B08DE86B
:10B670001D002DA02D4C00680490002004292FD01F
:10B680000BDC01292FD0022928D100F091F9616843
:10B69000C1F38131491C49001EE0082920D010293E
:10B6A0001CD161682268D20118D5C1F38342C90355
:10B6B0001DF8020009D5616804AAC1F34041515C3C
:10B6C0001B4AB2FBF1F1484301E01A494843616863
:10B6D000490203D440000321B0FBF1F006B010BDD5
:10B6E00000F076F9FAE7226AC2F30121012903D1B9
:10B6F000920701D5C803F1E7022905D1626A9207D2
:10B7000002D549F64040E9E70329E7D121688903DA
:10B71000E4D54FF22440E1E70203040506070809D7
:10B720000A0B0C0D0E0F1010010200000010024059
:10B7300000127A0000093D002DE9F8430546007823
:10B74000354CC00754D0E0690026C00008D4E06939
:10B7500040F08050E061E069012600F080500090E8
:10B760002E480168C90512D40168804641F48071F1
:10B770000160FFF767FD074605E000BFFFF762FDC8
:10B78000C01B642823D8D8F80000C005F6D5206A6D
:10B7900010F4407021D0A98801F4407181421CD07E
:10B7A000206A1F49012220F440700A6000220A60CA
:10B7B0002062C00711D0FFF745FD074641F28838E7
:10B7C00008E000BFFFF73EFDC11B414502D9032041
:10B7D000BDE8F883206A8007F4D5206A696820F400
:10B7E0004070084320621EB1E06920F08050E061A3
:10B7F0002878800705D56068A96820F44040084390
:10B8000060602878C00605D56068696920F480000A
:10B81000084360600020DBE7001002400070004039
:10B82000400442422DE9F0470F46050061D0434EE7
:10B83000306800F00700B84209D2306820F00700F5
:10B8400038433060306800F00700B84251D12868B2
:10B850003B4C810712D5400703D5606840F4E06097
:10B8600060602878000703D5606840F4605060602D
:10B870006068A96820F0F000084360602878C0077D
:10B8800028D06868012810D02168022810D08907C4
:10B8900000292EDA616821F0030101436160FFF79E
:10B8A000D1FC804641F288390DE021688903EFE739
:10B8B0008901EDE7FFF7C6FCA0EB0801494502D975
:10B8C0000320BDE8F0876068696800F00C00B0EB09
:10B8D000810FEFD1306800F00700B8420BD9306813
:10B8E00020F0070038433060306800F00700B842AD
:10B8F00001D00120E5E72878400705D56068E968B0
:10B9000020F4E060084360602878000706D560688E
:10B91000296920F4605040EAC100606000F058F8E6
:10B920006168084AC1F30311515CC84006490860C8
:10B9300006480068FFF7CCFD0020C2E70020024067
:10B9400000100240C8390108880000208000002053
:10B950000F2202600C4A536803F0030343605368EC
:10B9600003F0F0038360536803F4E063C36052683C
:10B970004FF4E06303EAD20202610448006800F079
:10B9800007000860704700000010024000200240DD
:10B990000448054900684968044AC1F30221515C22
:10B9A000C84070478800002000100240D8390108C4
:10B9B0000448054900684968044AC1F3C221515C42
:10B9C000C84070478800002000100240D8390108A4
:10B9D00012A185B00FC98DE80F0014A0144A0068A9
:10B9E00004905168134801F00C03042B10D0082B6D
:10B9F0000ED1C1F38343C9031DF803000AD5516872
:10BA000004AAC1F34041515C0A4A5043B0FBF1F033
:10BA100005B0704708494843FAE7000002030405EF
:10BA2000060708090A0B0C0D0E0F1010010200008A
:10BA30000010024000127A0000093D002DE9F84F85
:10BA4000040070D02078C04DC00749D06868C0F3AA
:10BA50008100012807D06868C0F38100022809D15D
:10BA60006868C00306D52868800339D56068002857
:10BA7000E7D035E06068B0F5803F0BD010B1B0F58D
:10BA8000A02F11D0286820F480302860286820F486
:10BA9000802002E0286840F480302860606890B11F
:10BAA000FFF7D0FB06460AE0286840F480202860B3
:10BAB000F0E700BFFFF7C6FB801B642873D8286837
:10BAC0008003F7D50CE0FFF7BDFB064605E000BF9D
:10BAD000FFF7B8FB801B6428F0D828688003F7D4F0
:10BAE00020789A4E80074FF001094FF0000839D5B1
:10BAF000686810F00C0F07D06868C0F38100022856
:10BB000009D16868C00306D42868800714D5206965
:10BB1000012808D110E02069B0B1C6F80090FFF705
:10BB200091FB074605E00AE1FFF78CFBC01B0228EA
:10BB3000C4D828688007F7D52868616920F0F80024
:10BB400040EAC10028600DE0C6F80080FFF77AFBEC
:10BB5000074604E0FFF776FBC01B022823D82868BD
:10BB60008007F7D4207800072CD57948A169D9B18E
:10BB7000C0F80090FFF766FB074604E0FFF762FBA2
:10BB8000C01B02280FD8686A8007F7D571484FF4A8
:10BB9000FA510068B0FBF1F0009000BF0098411E20
:10BBA0000091FAD20EE080E0C0F80080FFF74AFB77
:10BBB000074604E0FFF746FBC01B022875D8686AF9
:10BBC0008007F7D42078400760D5E8690027C000D7
:10BBD00008D4E86940F08050E861E869012700F086
:10BBE000805000905C480168C90513D40168834601
:10BBF00041F480710160FFF725FB824606E000BF3B
:10BC0000FFF720FBA0EB0A0064284ED8DBF8000009
:10BC1000C005F5D5E06801280AD008B1052813D081
:10BC2000286A20F001002862286A20F0040002E05F
:10BC3000286A40F001002862E06841F2883B98B130
:10BC4000FFF700FB82460BE0286A40F00400286200
:10BC5000EEE700BFFFF7F6FAA0EB0A0159455AD804
:10BC6000286A8007F6D50CE0FFF7ECFA824605E07B
:10BC7000FFF7E8FAA0EB0A0159454CD8286A80077B
:10BC8000F6D41FB1E86920F08050E861E06988B31C
:10BC90006968C1F38101022944D00228C6F8608096
:10BCA00004D0FFF7CFFA044638E034E0FFF7CAFAD1
:10BCB000074604E0FFF7C6FAC01B02282BD8286805
:10BCC0008001F7D4206AB0F5803F05D16868A1688B
:10BCD00020F4003008436860D4E90801084369682B
:10BCE00021F4741108436860C6F86090FFF7AAFA5F
:10BCF000044606E025E000BFFFF7A4FA001B022877
:10BD000009D828688001F7D51BE000BFFFF79AFA31
:10BD1000001B022802D90320BDE8F88F28688001A3
:10BD2000F4D40EE00128F7D06868226A00F480316C
:10BD3000914204D1616A00F47010884201D0012060
:10BD4000EAE70020E8E7000000100240000042425D
:10BD50008004424288000020007000407047704715
:10BD600070B590F83C20012A2CD0012480F83C408A
:10BD7000022280F83D2003685A689D6822F0700610
:10BD80000A6832435A60104B02689A420ED00F4B39
:10BD90009A420BD0B2F1804F08D00D4B9A4205D099
:10BDA0000C4B9A4202D00C4B9A4204D1496825F0C0
:10BDB00080031943916080F83D40002180F83C10D9
:10BDC000084670BD022070BD002C014000340140C7
:10BDD0000004004000080040000C004010B50400C2
:10BDE00003D094F83D0010B107E0012010BD002001
:10BDF00084F83C00204600F01FF8022084F83D0043
:10BE0000211D206803F006F8012084F8460084F81C
:10BE10003E0084F83F0084F8400084F8410084F834
:10BE2000420084F8430084F8440084F8450084F814
:10BE30003D00002010BD000008B501682848B1F1A0
:10BE4000804F0BD0274A914210D1C16941F00201C5
:10BE5000C161C06900F00200009008BDC16941F0F5
:10BE60000101C161C06900F00100F5E71E4A91427D
:10BE70000ED1C16941F00401C161C069002200F026
:10BE80000400009005211E20FFF7BAFB1E2022E0CF
:10BE9000164A91420ED1C16941F00801C161C069E1
:10BEA000002200F00800009005213220FFF7A8FBD7
:10BEB000322010E00E4A9142CFD1C16941F0100109
:10BEC000C161C069002200F01000009005213620F9
:10BED000FFF796FB3620BDE80840FFF783BB000064
:10BEE000001002400004004000080040000C004028
:10BEF0000010004090F83D10012901D0012070474A
:10BF0000022180F83D100168CA6842F00102CA604F
:10BF100000680E4988420ED00D4988420BD0B0F11E
:10BF2000804F08D00B49884205D00B49884202D087
:10BF30000A49884204D1816801F00701062903D02B
:10BF4000016841F00101016000207047002C0140B0
:10BF5000003401400004004000080040000C004094
:10BF60000168CA6822F00102CA6001680A6A41F2E7
:10BF700011131A4207D10A6A9B101A4203D10A68A8
:10BF800022F001020A60012180F83D100020704774
:10BF900070B5044690F83C00012817D0012584F8BC
:10BFA0003C50022084F83D002068826822F077022D
:10BFB00022F47F4282600868502830D00DDC2028AF
:10BFC0004DD005DC98B310283BD148E0022070BD6D
:10BFD000302844D0402834D139E0602828D0702857
:10BFE00006D0B0F5805F2CD0B0F5005F29D10AE013
:10BFF000CB68D1E90121206802F05FFF20688168E9
:10C0000041F0770109E0CB68D1E90121206802F015
:10C0100054FF2068816841F48041816011E0CA6862
:10C020004968206803F01EF85021206807E016E0F8
:10C03000CA684968206803F026F86021206802F089
:10C0400046FF84F83D50002084F83C0070BDCA686B
:10C050004968206803F006F840212068EFE722686D
:10C0600001461046EBE7704770B504460068016969
:10C070004FF00005C943890715D4C168C943890732
:10C0800011D4E91E016101202077206880698007B2
:10C09000204602D0FFF7E7FF04E000F0D3F8204687
:10C0A00000F08EF9257720680169C943490717D444
:10C0B000C168C943490713D46FF00401016102202C
:10C0C00020772068806910F4407F204602D0FFF777
:10C0D000CAFF04E000F0B6F8204600F071F92577B9
:10C0E00020680169C943090716D4C168C943090713
:10C0F00012D46FF008010161042020772068C06924
:10C100008007204602D0FFF7AEFF04E000F09AF867
:10C11000204600F055F9257720680169C943C90612
:10C1200017D4C168C943C90613D46FF01001016167
:10C13000082020772068C06910F4407F204602D094
:10C14000FFF791FF04E000F07DF8204600F038F999
:10C15000257720680169C943C90708D1C168C94367
:10C16000C90704D1891E0161204600F0DDF920686D
:10C170000169C943090609D4C168C943090605D440
:10C180006FF0800101612046FFF7E8FD206801693A
:10C19000C943490609D4C168C943490605D46FF0AB
:10C1A00040010161204600F0E1F920680169C943BE
:10C1B00089060BD4C168C943890607D46FF02001F2
:10C1C00001612046BDE87040FFF7C9BD70BD0000A9
:10C1D00000B585B0002100910191029103910268A0
:10C1E00014480221B2F1804F14D0134B9A420FD160
:10C1F000826942F0080282618069039100F00800C0
:10C2000004900120CDE9000169460C48FEF714FFB7
:10C2100005B000BD826942F0040282618069039129
:10C2200000F0040004900320CDE9000169460448B1
:10C23000ECE700000010024000040040000C014048
:10C2400000080140704770B50D46040003D094F813
:10C250003D0010B107E0012070BD002084F83C00D3
:10C26000204600F01BF8022084F83D00211D2068C4
:10C2700002F0D0FD2068016821F00801016054F847
:10C28000460B016829430160012004F81F09E0758D
:10C290002076E0762077A075002070BD704770B5DD
:10C2A000044690F83C000D4601280AD0012084F88D
:10C2B0003C0042B1042A18D0082A2AD00C2A4DD1B9
:10C2C00039E0022070BD206802F00AFE2068816912
:10C2D00041F0080181612068816921F004018161D8
:10C2E000206881692A69114311E0206802F028FE64
:10C2F0002068816941F4006181612068816921F4CD
:10C3000080618161206881692A6941EA0221816135
:10C3100024E0206802F04AFE2068C16941F008016B
:10C32000C1612068C16921F00401C1612068C1694F
:10C330002A69114311E0206802F06CFE2068C1698F
:10C3400041F40061C1612068C16921F48061C1616B
:10C350002068C1692A6941EA0221C161002084F88C
:10C360003C0070BD10B5040003D094F83D0010B13E
:10C3700007E0012010BD002084F83C00204600F0BA
:10C380001EF8022084F83D00211D206802F042FDC5
:10C39000012084F8460084F83E0084F83F0084F8C9
:10C3A000400084F8410084F8420084F8430084F897
:10C3B000440084F8450084F83D00002010BD70471B
:10C3C0007047000010B50446022249B104290ED07E
:10C3D000082913D094F84100012816D0012010BD7F
:10C3E00094F83E000128F9D184F83E200FE094F83B
:10C3F0003F000128F2D184F83F2008E094F8400083
:10C400000128EBD184F8402001E084F8412001228A
:10C41000206802F045FD13492068134A884201D084
:10C42000904203D1436C43F4004343642068884244
:10C430000DD090420BD0B0F1804F08D00B4988420C
:10C4400005D00B49884202D00A49884204D181684C
:10C4500001F00701062903D0016841F001010160E4
:10C46000002010BD002C01400034014000040040B9
:10C4700000080040000C004030B5044600680D0084
:10C4800006D0042D08D0082D38D00C2D08D139E065
:10C49000C16821F0020102E0C16821F00401C1601D
:10C4A00000222946206802F0FBFC1D4B41F21111CD
:10C4B00020688A10984202D01A4B984209D1036A28
:10C4C0000B4206D1036A134203D1436C23F40043A9
:10C4D00043642068036A0B4206D1016A114203D10A
:10C4E000016821F00101016001207DB1042D10D00F
:10C4F000082D11D084F84100002030BDC16821F022
:10C500000801CCE7C16821F01001C8E784F83E00BB
:10C51000F2E784F83F00EFE784F84000ECE7000022
:10C52000002C01400034014010B5044600680B495E
:10C53000884201D1FEF7B2FF09492068884201D143
:10C5400006F0F4FA07492068884206D102F0C2FDDD
:10C55000BDE810400448FFF703BD10BD002C0140AA
:10C560000008004000100040B0140020704738B5AB
:10C57000044690F83E0020281CD181B17AB194F88D
:10C580003C00012816D0012084F83C00206320469E
:10C5900003F09EF9002803D1216B012901D001206D
:10C5A00038BD21680A684A680092CA6842F01002E1
:10C5B000CA6038BD022038BD704710B50446006817
:10C5C000416994F83D20C1F3C011212A0BD151B12A
:10C5D000416921F080014161606B08B1FEF798F973
:10C5E000204603F099F82068416994F83E20C1F391
:10C5F0008011222A0BD151B1416921F040014161E2
:10C60000A06B08B1FEF784F9204603F06DF8002016
:10C6100010BD10B5040014D0242084F83D0020681B
:10C62000C16821F40051C160204600F081F900206A
:10C63000206484F83D0084F83E0044F8300F2073F5
:10C6400010BD012010BD00007CB5054600208DF80E
:10C65000000028680168C943090725D401684068BB
:10C66000019001226946284600F071FB0F482C68B2
:10C6700084420AD1861531460D48FBF7EAFD206851
:10C68000606832460A4901900BE00A4884420BD1A7
:10C6900040210948FBF7DDFD20686068064940221B
:10C6A0000190284600F03EFB7CBD000000480040A1
:10C6B0000E4E0020004C004038440020F8B50268BF
:10C6C00004461068D168536910F00F0F4FF0000551
:10C6D00053D003F0010601F49077374360D0C207CE
:10C6E00005D0CA0503D5226C42F00102226442073C
:10C6F00005D5DA0703D0226C42F0020222648207D9
:10C7000005D5DA0703D0226C42F004022264020746
:10C7100007D501F02002324303D0226C42F0080218
:10C720002264226C002A3AD0800604D5880602D5FD
:10C73000204602F0FAFF20684069216CC0F38010A7
:10C74000090700D438B3204602F0CEFF20684169C3
:10C7500049061BD5416921F040014161A06BA8B198
:10C7600059494163A06BFEF7F7F8002817D0A06B7A
:10C77000416B01B0BDE8F0400847830610D58B0639
:10C780000ED52046BDE8F84002F0CFBF2046BDE8F8
:10C79000F840FFF759BF2046FFF756FF2564F8BD64
:10C7A000266B2023012E52D1C60650D5CE064ED57B
:10C7B000106850680090506940062AD5A16B08683F
:10C7C00040680004000CEAD0A68D8642E7D9E085D7
:10C7D0008869202818D0D06820F48070D060206844
:10C7E000416921F0010141612068416921F0400166
:10C7F000416184F83E3025632068C16821F0100152
:10C80000C160A06BFEF784F8A08DE18D401A81B263
:10C8100019E0A08DE18D401A81B2E08D0028BED0D4
:10C820000029BCD0D06820F49070D06020684269A4
:10C8300022F00102426184F83E3025632068C2681C
:10C8400022F01002C2602046FFF7B6FEF8BD0506D2
:10C850002BD50D0629D594F83D002128F6D1A068E6
:10C86000B0F5805F01D12069B0B1206A411C21621E
:10C87000216800784860E08C401E0004000CE084D1
:10C88000E4D12068C16821F08001C1602068C168DE
:10C8900041F04001C160F8BD206A0088C0F3080083
:10C8A0005060206A801C2062E5E74006F3D5480608
:10C8B000F1D5D168204621F04001D16084F83D30A7
:10C8C00000F04BFBF8BD00001DF6000870B5040039
:10C8D00004D094F83D00002510B106E0012070BDA1
:10C8E00084F83C50204600F089F8242084F83D006C
:10C8F0002068C16821F40051C160204602F08CFF1D
:10C900002068016921F4904101612068416921F0AA
:10C910002A0141612068C16841F40051C160256469
:10C92000202084F83D0084F83E00002070BD000007
:10C9300070B50446274D0368274A28484FF44061E4
:10C94000AB420AD1D36923F40023D361FEF7E4FAA2
:10C95000A06BFEF799F8342037E0214DAB420CD1A3
:10C96000D16921F48011D1619914FEF7D5FA04211F
:10C970001C48FEF7D1FA352027E01B4D1B48AB427F
:10C9800009D1916921F4804191614FF4C061FEF7B2
:10C99000C3FA252019E0164DAB4208D1D16921F424
:10C9A0000031D1610C21FEF7B7FA26200DE01148C5
:10C9B00083420ED1D06920F48020D0610E48FEF76A
:10C9C000ABFAA06BFEF760F82720BDE87040FEF7D9
:10C9D000F8BD70BD004C0040001002400010014046
:10C9E00000500040001401400038014000080140A0
:10C9F0000044004000480040000C01402DE9F04F89
:10CA000085B00024009401940294039405460168C3
:10CA10008848874A0615DFF820924FF002084FF445
:10CA2000006A4FF0800B914237D1C16941F4002177
:10CA3000C161C16901F400210491816941F01001D3
:10CA400081618069CDE9006800F01000CDE90380C4
:10CA500069464846FEF7F0FACDF800A0CDE9014856
:10CA600069464846FEF7E8FA754E7448C6E9000480
:10CA7000C6E9024B34617461B4613046F461FEF77B
:10CA800067F908B1FDF76FF9AE6300220621342083
:10CA90007562FEF7B5FD342032E06A4A0427914200
:10CAA00033D1C16941F48011C161C16901F48011C0
:10CAB0000491816941F010018161816901F01001E7
:10CAC0000491816941F0200181618069694600F02B
:10CAD000200004909014CDE900084846CDF80C8061
:10CAE000FEF7AAFACDE9007469465748CDF80880E8
:10CAF000FEF7A2FA012204213520FEF781FD352040
:10CB0000FEF770FD05B0BDE8F08F504ADFF84091A8
:10CB1000914227D1816941F480418161816901F4A9
:10CB200080410491816941F0040181618069694615
:10CB300000F0040004905015CDE900084846CDF8F7
:10CB40000C80FEF779FACDE9006469464846CDF8D5
:10CB50000880FEF771FA002206212520FEF750FD1D
:10CB60002520CDE73B4A914224D1C16941F40031EF
:10CB7000C161C16901F400310491816941F004018E
:10CB800081618069CDE9007800F00400CDE903807F
:10CB900069464846FEF750FA08208DE811016946BB
:10CBA0004846FEF749FA002204212620FEF728FD18
:10CBB0002620A5E7284A9142A4D1C16941F48021E9
:10CBC000C161C16901F480210491816941F00801CA
:10CBD00081618069CDE9006800F00800CDE903803B
:10CBE0001E4E69463046FEF727FACDF800A0CDE983
:10CBF000014869463046FEF71FFA114E1848443680
:10CC0000C6E90004C6E9024B34617461B461304680
:10CC1000F461FEF79DF808B1FDF7A5F8AE630022B8
:10CC2000052127207562FEF7EBFC272068E700004E
:10CC3000004C00400010024000100140300402404F
:10CC4000DC17002000500040001401400038014073
:10CC5000000801400044004000480040000C014032
:10CC6000300002402DE9F84F044690F83E009A4605
:10CC700016460D46202853D1FDB1F6B194F83C007C
:10CC800001284DD0012084F83C0000272764222091
:10CC900084F83E002763FEF7D5FAA6858146E6852F
:10CCA000A0684FF48058404501D1206940B12E461C
:10CCB0005FF0000584F83C7027E00120BDE8F88FA4
:10CCC0000026F7E74B46002220212046CDF800A0A1
:10CCD00002F051FE08B10320F0E726B1A0684045FC
:10CCE0001BD038B108E020684068C0F3080025F880
:10CCF000020B07E0206980B12068406800F07F00E7
:10CD000006F8010BE08D401EE085E08D0028D9D1AA
:10CD1000202084F83E000020D0E720684068EFE73C
:10CD20000220CBE790F83E30202B0ED159B152B102
:10CD300090F83C30012B08D0012380F83C300023D0
:10CD4000036302F0C5BD012070470220704790F8D0
:10CD50003E30202B0ED159B152B190F83C30012B0E
:10CD600008D0012380F83C300023036302F0E8BDC3
:10CD70000120704702207047F8B506460068424916
:10CD8000884208D14148007805F0A0FF01223F49C0
:10CD90003F48FFF7DCFF3D4C3E4930680127A41EA9
:10CDA0000025884228D120893949020401F1440133
:10CDB00017D404F103024304127804D50A2A0CD1D3
:10CDC00040F400402AE00D2A26D0C0F30D03401C99
:10CDD00080B2CA542081632800D9258120890004AB
:10CDE0000AD52770087860702089C0F30D012848A3
:10CDF0004430FBF72EFA25812749306888422DD12F
:10CE0000E08801041FD42149420401F1020109789C
:10CE100009D50A2913D103E040F480402081DDE7E1
:10CE200040F400402CE00D2928D0C0F30D02184B2F
:10CE3000401CEC3380B29954E080632800D9E5802F
:10CE4000E08800040AD52770E0881149C0F30D027C
:10CE5000EC3101F1EC00FBF7E3F9E5800F493068B4
:10CE600088420FD10E48006801684068009007486A
:10CE7000C01C0078BDE8F84002F04EBE40F480408F
:10CE8000E080DDE7F8BD00000044004072000020B3
:10CE90003C15002000480040004C0040005000407D
:10CEA000D0160020704700002DE9F843044690F8A2
:10CEB0003D001F4616460D4620284CD1C5B1BEB1D7
:10CEC00094F83C00012846D0012084F83C004FF043
:10CED0000008C4F84080212084F83D00FEF7B2F934
:10CEE000A6848146E684A068B0F5805F03D004E0A4
:10CEF0000120BDE8F883206928B12E465FF00005C7
:10CF000084F83C800EE00026FAE78021204602F0FB
:10CF100032FDA0B9AEB116F8010B21684860E08C73
:10CF2000401EE084E08C4B464FF000020097002842
:10CF3000EBD14FF04001204602F01DFD30B103203F
:10CF4000D7E735F8020BC0F30800E6E7202084F8A5
:10CF50003D000020CDE70220CBE77047FEE7000050
:10CF600010B590B1012814D0212821D1114CB4F86A
:10CF7000420010B1002001F02BFDB4F8440000285D
:10CF800016D1BDE8104001F05DBEBDE8104000F0D4
:10CF900001BF094C20680068C16821F40051C160DC
:10CFA00000F042FE20680068C16841F40051C16091
:10CFB00010BD000024480020A801002010B5FDF796
:10CFC0006BF9112801D0012010BD002010BD000018
:10CFD00003484078022801D30120704700207047A1
:10CFE0000C08002038B501F09BFE08B1002038BDC8
:10CFF000FDF74CF90446FDF741F805463849FBF7C3
:10D0000082F9FBF79BFB01B23648ADF800100068CF
:10D0100002888A4200D001802846FBF7C1FB024605
:10D020000B4631A1384803F033F93748FBF728F9AC
:10D03000C1B2354802F0D4FB344800783C2801D214
:10D0400044F400743248854202D144F0400422E0A6
:10D050003048854202DB44F020041CE02E492F4872
:10D060008D4209DB8168092901D2491C0AE0FDF7DC
:10D0700019F980B902200CE029498D420BDC816846
:10D0800011B10021816006E0FDF70CF9022802D100
:10D09000002001F0C9FC234D29680888A04202D075
:10D0A00000B134B10C802868008800289FD001208E
:10D0B00038BD4FF48074A04203D100BFFCF7BCFB25
:10D0C000F1E7194800780128F1D1FFF781FF18B185
:10D0D00028680088A042EAD1FBF72CFEEEE70000AA
:10D0E000000020411406002044454255473A20BB29
:10D0F000FACFE4CEC2B6C8A3BA25302E336620A13B
:10D10000E343200A0A000000B8420020E1010020A9
:10D110000000C8C20000A04200008C428C06002023
:10D120000000824208060020DE01002070B50120C8
:10D1300001F0CAFC1E4C48B1216A2069401AB0F5C2
:10D14000616F34D9BDE8704001F07CBD20780228C1
:10D150000BD2C00704D00120607100F0EDF923E08C
:10D160000020607100F012F91EE002F0AFFC1148DF
:10D17000114D00680088062804D11048296800680D
:10D1800000884880022001F08FFC0D482A68016861
:10D19000098811800068007800F0D0FE00F0F6F8F1
:10D1A000FCF706F9002020702078401C207070BD2C
:10D1B0000C08002000060020FC050020F8010020DB
:10D1C000F4010020401E042801D8012070470020EF
:10D1D00070471438502801D801207047002070474C
:10D1E00041F25C711438884201D801207047002058
:10D1F00070470000FBF780FE0448FEF748F9FBF794
:10D2000051FE142005F012FAF6E700008413002006
:10D210002DE9F0410D4800210D4E057801700C46B6
:10D220005FF0010706EBC400818856F83400FDF773
:10D23000FFFF18B907FA04F02843C5B2641CE4B232
:10D24000042CEFD32846BDE8F081000071000020D7
:10D25000AC0700202DE9F0411E4617460C46C0B22F
:10D26000FCF744FD3C25B4FBF5F06421B0FBF1F282
:10D2700001FB1200FCF7DCFCB4FBF5F005FB1040F1
:10D28000FCF71FFD01F0BAFC08B1002003E001F03B
:10D29000CDFC18B13046FCF7E0FC02E0FF20FCF7C3
:10D2A0002FFC3846BDE8F041AFF3008010B50446CE
:10D2B00000F00101042002F015F804F0020105203D
:10D2C00002F010F804F00401032002F00BF804F05F
:10D2D0000801012002F006F804F01001BDE810403A
:10D2E000022001F0FFBF000070B514460D4606464F
:10D2F00001F0EEFC00281ED0FCF7BEFD0122D10398
:10D300000D48FDF79AFF05F0F3FD3046FCF716FDDA
:10D310002846FCF7B2FC094800EB440030F8020C48
:10D32000FCF76FFC0020FFF7C1FF01F003FFBDE831
:10D33000704005F0FDBD70BD000801409C06002056
:10D3400070B50446FF20FCF7ECFB3C25B4FBF5F080
:10D350006421B0FBF1F201FB1200FCF769FCB4FBA5
:10D36000F5F005FB1040BDE87040FCF7AABC0000DA
:10D3700010B500224FF400410348FDF75EFFBDE801
:10D38000104001F095BF00000008014010B501F009
:10D39000C7FC00282DD101F09BFC002829D101F009
:10D3A000DBFC002825D113480078AA2821D00122CF
:10D3B000D1031148FDF741FF01F0B2FC002818D15C
:10D3C00001F086FC002814D105F092FD0B480E4AAE
:10D3D0000068127803780A480068018809480068E4
:10D3E0000088FFF737FF01F0A5FEBDE8104005F00B
:10D3F0009FBD10BD9007002000080140F0010020F3
:10D40000F8010020F4010020DC01002070B50D4679
:10D41000044601F085FC00281ED00122D1030F48EC
:10D42000FDF70BFF05F064FD2046FCF79CFB28464A
:10D43000FCF7BDFBFCF78CFB042C0BD0052C09D0B2
:10D440005FF00000FFF732FF01F074FEBDE87040AE
:10D4500005F06EBD1020F5E770BD0000000801402A
:10D4600070B5044605F044FD0021072001F03AFFA5
:10D470004121072001F068FF2146062001F08CFFC2
:10D480000D4C3C25642120680088B0FBF5F0B0FB12
:10D49000F1F201FB1200FCF7CBFB20680088B0FB27
:10D4A000F5F105FB1100FCF70CFC01F043FEBDE8B3
:10D4B000704005F03DBD0000F801002070B50D463C
:10D4C00004460122D1031B48FDF7B7FE05F010FD0D
:10D4D00064204543B5FBF4F0C0B2FCF707FC012122
:10D4E000052001F0FFFE0A25B4FBF5F0B0FBF5F1D5
:10D4F00005FB1101052001F04FFFB4FBF5F005FB22
:10D500001041042001F048FF5521002001F01CFFCC
:10D510005021012001F018FF6421022001F014FFC6
:10D520004121032001F010FF01F004FEBDE870402E
:10D5300005F0FEBC0008014010B505F0D9FC084814
:10D540000949006809780278064800680088FFF7F2
:10D55000F7FE01F0EFFDBDE8104005F0E9BC00006A
:10D56000F0010020F8010020DC01002070B501224C
:10D57000D1031E48FDF761FE5321072001F0E4FEB0
:10D580004A21062001F0E0FE0121002001F004FF05
:10D590000221012001F000FF0021022001F0FCFE29
:10D5A0000021032001F0F8FEFCF7DAFE104D0A24FA
:10D5B0002870B0FBF4F0B0FBF4F104FB110105207E
:10D5C00001F0EAFE2878B0FBF4F104FB110104201D
:10D5D00001F0E2FE0020FFF769FE0021072001F0C4
:10D5E00081FEBDE8704001F0A5BD000000080140CB
:10D5F000DE01002070B50446134DC00701D00122A2
:10D6000000E0002208212846FDF717FEA00701D5FB
:10D61000012200E0002204212846FDF70EFE6007EB
:10D6200001D5012200E0002202212846FDF705FE77
:10D63000200701D5012200E000222846BDE8704005
:10D640000121FDF7FABD00000010014040F2E32285
:10D650000149024801F01CB9244800200079000863
:10D6600040F2E3220149024801F020B92448002099
:10D67000007900083EB500241148009401940294FA
:10D680000E498460016004730475012505614FF43F
:10D6900060214460C161FCF76FFF08B1FCF763FBD8
:10D6A0000520CDE90005694602940548FCF7E0FE37
:10D6B000002801D0FCF757FB3EBD000000280140C8
:10D6C000001300200EB5694600900120019007204C
:10D6D000029002484068FCF7CBFE0EBD6C070020AC
:10D6E000114808B5416941F001014161416901F00A
:10D6F00001010091416941F002014161406900224C
:10D7000000F00200009005210D20FDF779FF0D20AB
:10D71000FDF768FF002205213A20FDF771FFBDE803
:10D7200008403A20FDF75EBF0010024010B5AAB0D5
:10D730001C2221496846FAF773FD0021684604F06F
:10D7400081FF1E4C1C491C2220601C3107A8FAF7DF
:10D7500067FD002107A804F075FF174960601C22CF
:10D7600038310EA8FAF75CFD00210EA804F06AFF1C
:10D770001149A0601C22543115A8FAF751FD00216F
:10D7800015A804F05FFF0C49E0601C2270311CA852
:10D79000FAF746FD00211CA804F054FF0649206159
:10D7A0001C228C3123A8FAF73BFD002123A804F0AA
:10D7B00049FF60612AB010BD2039010850000020E7
:10D7C0002DE9F04F85B0002435480094019402946F
:10D7D0000394816941F010018161816901F01001B8
:10D7E0000491816941F020018161816901F020018A
:10D7F0000491816941F004018161816901F00401B2
:10D800000491816941F0080181618069DFF8949099
:10D8100000F00800049000224F214846FDF70DFD5E
:10D82000DFF884A04DF23407002239465046FDF758
:10D8300004FDDFF878B04FF4104800224146584606
:10D84000FDF7FBFC4F2001250226CDE90005CDE9BF
:10D85000024669464846FDF7EFFB4FF46C708DE8D1
:10D86000310069464846FDF7E7FB00970396CDE98E
:10D87000015469465046FDF7DFFB28028DE8310070
:10D8800069465846FDF7D8FBCDF800800396CDE9F0
:10D89000015469465846FDF7CFFB05B0BDE8F08F4F
:10D8A0000010024000100140000C0140000801403F
:10D8B0000D4810B50B4901600C49416000214FF43F
:10D8C00080428160C0E9031241618161C1610162EE
:10D8D000FDF7BEFC002803D0BDE81040FCF743BABA
:10D8E00010BD00000054004030130020A08601004D
:10D8F000094810B5074901600221416040F6FF71F7
:10D900008160FDF797FD002803D0BDE81040FCF7CB
:10D910002ABA10BD003000408413002030B58DB00D
:10D9200000250795089509950A950B951C216846D1
:10D930000C95FAF78EFC284C4FF080402060274869
:10D940000188C4E901154088C4E903052046A561A2
:10D95000FEF744FA08B1FCF706FA4FF4805007903E
:10D9600007A91D48FEF714FB08B1FCF7FCF91A489B
:10D97000FEF7F8FC08B1FCF7F6F90B950BA9164871
:10D980000C95FEF7EDF908B1FCF7EDF96020CDE953
:10D990000005022002900022694604950E48FEF719
:10D9A0007EFC08B1FCF7DFF9042269460A48FEF75D
:10D9B00076FC08B1FCF7D7F900210748FEF75CFDBB
:10D9C0002068456300210448FEF7FCFC0248FEF78E
:10D9D000FFFB0DB030BD0000901300206800002058
:10D9E00010B58EB000240794089409940A940B94FF
:10D9F0001C2168460C94FAF72CFC1E481C49016057
:10DA00001D498A88C0E90124C988C0E903148461DA
:10DA1000FEF7E4F908B1FCF7A6F94FF4805007903F
:10DA200007A91448FEF7B4FA08B1FCF79CF91148AD
:10DA3000FEF798FC08B1FCF796F90B940BA90D487A
:10DA40000C94FEF78DF908B1FCF78DF96020CDE953
:10DA5000000402940822694606480494FEF71FFC5D
:10DA600008B1FCF780F90348FEF7B2FB0EB010BD19
:10DA700000040040D81300206800002010B586B0D4
:10DA800000241748009401940294039404941349C9
:10DA90000594016041F61F41C0E901142321C0E94A
:10DAA000031480218161FEF799F908B1FCF75BF955
:10DAB0004FF48050009069460948FEF769FA08B1B2
:10DAC000FCF751F9049404A905480594FEF748F9B8
:10DAD000002801D0FCF747F906B010BD000800404F
