:020000040800F2
:10800000705D0020DD8100081BE5000835D0000808
:10801000E9DD0008C997000821FA00080000000007
:108020000000000000000000000000004581000882
:10803000319B0008000000008981000861EA000807
:10804000F7810008F7810008F7810008F781000830
:10805000F7810008F7810008F7810008F781000820
:10806000F7810008F7810008F7810008F781000810
:10807000F7810008D19A0008F7810008F78100080D
:10808000F7810008F7810008F7810008F7810008F0
:10809000F7810008F7810008F7810008F7810008E0
:1080A000F781000801ED0008F7810008F78100085A
:1080B000F7810008F78100080DED0008F78100083E
:1080C000F7810008F7810008F7810008F7810008B0
:1080D000F7810008E9F8000821F900083DF90008D7
:1080E000F7810008F7810008F7810008F781000890
:1080F000F7810008F7810008F7810008F781000880
:10810000F7810008F781000819ED0008F7810008E1
:1081100045F5000849F500083DED0008F781000825
:10812000F7810008F7810008DD9A0008F781000850
:10813000DFF80CD000F096FC004800471D1601083F
:10814000705D0020224B19680868B0E8F00F80F3DA
:108150000988BFF36F8F4FF0000080F311884EF055
:108160000D0E70470000000006480068006880F3AC
:10817000088862B661B6BFF34F8FBFF36F8F00DF21
:1081800000BF00BF08ED00E0EFF30980BFF36F8F81
:108190000F4B1A6820E9F00F106008B54FF050003F
:1081A00080F31188BFF34F8FBFF36F8F0AF098FCF5
:1081B0004FF0000080F31188BDE808401968086896
:1081C000B0E8F00F80F30988BFF36F8F704700BFEE
:1081D0008C000020EFF305807047000006488047C0
:1081E00006480047FEE7FEE7FEE7FEE7FEE7FEE79C
:1081F000FEE7FEE7FEE7FEE709EB00083181000835
:10820000202A04DB203A21FA02F00021704721FAEB
:1082100002F3D040C2F12002914008431946704752
:1082200040EA01039B0703D009E008C9121F08C0F8
:10823000042AFAD203E011F8013B00F8013B521E78
:10824000F9D27047D2B201E000F8012B491EFBD2EF
:1082500070470022F6E710B513460A460446194651
:10826000FFF7F0FF204610BD10B5044604E00B7880
:1082700000F8013B03B1491C521EF8D2204610BD44
:10828000421C10F8011B0029FBD1801A704730B541
:1082900004460020034600E05B1C934203D2E05CEE
:1082A000CD5C401BF8D030BD70B50F4D00B92868CB
:1082B000002412E00A4602E09E4203D0521C1378CA
:1082C000002BF9D1DAB2224305D02BB124B1002121
:1082D00000F8011B04E00446401C0678002EE9D19A
:1082E0002860204670BD0000C408002070B5064616
:1082F00007F0BEFF046805460A220021304600F060
:10830000B5FA2C6070BD80EA010210B502F000439E
:10831000400022D04A001FD0010E01EB1261C0F3D1
:108320005600C2F3560240F4000042F40002A0FBE3
:10833000022000047F39140400D0401C50EA12408F
:1083400001D44000491EC2B20C0604EBD010401C00
:108350004008802A02D003E0002010BD20F0010078
:10836000002900DA0020184310BD30B480EA010271
:1083700002F0004530F0004221F0004013D090B1EF
:10838000C30DD40DC2F31601C0F31600E41A41F474
:10839000000140F400027D34914201D3641C00E0EE
:1083A0004900002C02DA30BC002070474FF4000076
:1083B0000023914201D3891A034340084FEA410147
:1083C000F7D151B1914202D14FF0004105E002D204
:1083D0004FF0010101E06FF0010103EBC4502844AC
:1083E00030BC00F07BBA2DE9FE4F804681EA0300E5
:1083F000C00F0C46009021F0004123F00045B8EB7F
:108400000200A94105D24046214690461C460B4633
:10841000024623F00040104347D0270DC7F30A005F
:10842000C3F30A510290401A019040286BDAC3F35B
:10843000130040F4801B0098924620B10023D2EB39
:10844000030A63EB0B0B01985946C0F140025046FA
:1084500000F0EBF906460D4650465946019A00F0E9
:10846000F3F910EB08006141002487EA115284EA15
:10847000E7731A4340D0009A62B3019A012A4FEA87
:10848000075215DC001B61EB02014FF0004202EACB
:108490000752CDE90042001C41F5801132462B46BF
:1084A00000F062FA03B0BDE8F08F40462146F9E7DC
:1084B000001B61EB0201001C41F5801300185B41B9
:1084C0002018A2F5001747EB030140EAD570B61952
:1084D0006D4111E06D084FEA360645EAC0754FEA76
:1084E0000752001B61EB0201001C41F58011490895
:1084F0004FEA30000019514132462B4603B0BDE827
:10850000F04F00F022BA0098012240000023D0EB87
:10851000020263EBE073009821464FEAE074B8EB87
:10852000000061EB0401E9E783F000435BE781F0C1
:10853000004158E72DE9FE4F81EA030404F00044AE
:1085400021F0004100944FF0000B23F0004350EA6B
:1085500001045ED052EA03045BD0C3F30A54C1F3B2
:108560000A552C44A4F2F3340194A0FB0254C1F345
:10857000130141F48011C3F3130343F4801301FB8F
:10858000024400FB034E840A970A44EA815447EAF6
:108590008357A4FB076802958D0A05FB07854FEA00
:1085A000932C04FB0C542705029D4FEA065847EA1A
:1085B0001637B5EB08056EEB070C870E920E47EAEF
:1085C000811742EA8312A7FB0201B6EB0B0164EBB1
:1085D00000042B0D43EA0C335E1844EB1C50DA46C2
:1085E0005146E7FB0201C5F313044FEA0B3343EA9C
:1085F00014534FEA0432019C43EA0603A4F10C042D
:108600000294009CCDE900B400F0AEF903B0BDE8DF
:10861000F08F00200146F9E72DE9F04D81EA0304CF
:1086200004F0004B21F0004514464FF0000A23F0FF
:10863000004150EA050220D054EA01021DD0C5F3E2
:108640000A570246C5F31303C1F31300C1F30A56D8
:1086500040F4801543F48013A7EB0608101BD646A0
:1086600008F2FD3873EB050002D308F1010801E0C0
:1086700092185B41B8F1000F03DA00200146BDE813
:10868000F08D00204FF48011064684460EE0171B43
:1086900073EB050705D3121B63EB050306434CEA96
:1086A000010C49084FEA300092185B4150EA01077B
:1086B000EDD152EA030012D082EA040083EA0501F8
:1086C000084305D0101BAB4106D20122002306E06F
:1086D00000224FF0004302E06FF0010253101AEB4A
:1086E00006004CEB085110EB0A0041EB0B01BDE812
:1086F000F04D00F02AB996230022114600F0F7B899
:108700000EB5C10F80EAE0700844CA07002140F2AC
:1087100033438DE80E000A460B4600F025F903B0FE
:1087200000BD0EB540F2334102910021CDE90011A8
:108730000A460B4600F018F903B000BD00F00042F5
:1087400020F00040C10DC0F3160040F400007F2966
:1087500001DA00207047962903DCC1F19601C84078
:1087600001E096398840002AF4D040427047C1F3B6
:108770000A5210B5C1F3130140F2FF3341F48011E6
:108780009A4201DA002010BD40F233439A42A2F22D
:10879000334203DC5242FFF733FD10BD904010BD61
:1087A00000F0004230F000400AD0C10D01F56071C8
:1087B000C0F3160042EA0151C20840071143704756
:1087C00000200146704701F0004330B421F0004121
:1087D00050EA010206D00A0DA2F56072C1F313013E
:1087E000002A02DC30BC00207047440F44EAC10478
:1087F000C100E01830BC00EBC25000F06FB830B5DB
:108800000B46014600202022012409E021FA02F54E
:108810009D4205D303FA02F5491B04FA02F52844E8
:10882000151EA2F10102F1DC30BD202A04DB203A42
:1088300000FA02F1002070479140C2F1200320FAB3
:1088400003F3194390407047202A06DBCB17203AE8
:1088500041FA02F043EAE07306E041FA02F3D04045
:10886000C2F1200291400843194670472DE9F047B4
:1088700091460F4680460446002614F8015B2DB150
:1088800000F002F90068405DC007F6D12B2D02D040
:108890002D2D18D0641E4A463946204600F0F8F8BF
:1088A00027B13968A14201D1C7F8008071054FF0A6
:1088B00002040BD54042002803DD07F0D9FC046018
:1088C000A007BDE8F08746F48066E4E70028F8DA00
:1088D00007F0CEFC04606FF00040F2E70029A8BF6B
:1088E0007047401C490008BF20F00100704710B4D9
:1088F000B0FA80FC00FA0CF050EA010404BF10BC8E
:10890000704749B1CCF1200421FA04F411FA0CF1BA
:1089100018BF012121430843A3EB0C01CB1D4FEAF3
:1089200000614FEA102042BF002010BC704700EBEE
:10893000C35010440029A4BF10BC7047401C49001C
:1089400008BF20F0010010BC704710B5141E73F171
:10895000000408DA401C41F1000192185B411A43FF
:1089600001D120F0010010BD2DE9F04D92469B464B
:1089700011B1B1FA81F202E0B0FA80F220329046F1
:10898000FFF753FF04460F4640EA0A0041EA0B0195
:1089900053465A46084313D0114653EA010019D0F2
:1089A000C8F140025046FFF72BFC05460E465046E4
:1089B00059464246FFF739FF084305D0012004E03D
:1089C00020463946BDE8F08D0020054346EAE076B2
:1089D0002C4337430A986305E40AA0EB0800002201
:1089E000FD0A44EA47540A3002D500200146E9E76F
:1089F000010510196941DDE9084500196941BDE823
:108A0000F04DA2E770B521F0004303430CD0C1F351
:108A10000A550024D5EB040564EB0403D617AD1A00
:108A2000B34102DB0020014670BD201841EB02512A
:108A300070BD000030B5041E71F1000404DB4FF07E
:108A40000044404264EB0101141E73F1000405DB95
:108A50001C464FF00043524263EB04038B4208BFB5
:108A6000824230BD064C074D06E0E06840F001034D
:108A700094E8070098471034AC42F6D3FFF75CFB4C
:108A8000AC3A0108CC3A010800487047543A010852
:108A90002DE9F05F82460078002715468B460AF1E3
:108AA0000104B946302801D09DB113E014F8010B40
:108AB0000127782803D0582801D045B10AE00DB12C
:108AC000102D07D10027102514F8010B02E008250E
:108AD00000E00A250026B0460EE005FB080005FB75
:108AE00006F1012701EB10461FFA80F8B6F5803F2A
:108AF00000D3B94614F8010B294600F018F80028F5
:108B0000EBDABBF1000F05D00FB1641E00E0544654
:108B1000CBF80040B9F1000F06D007F0A9FB022105
:108B20000160C81EBDE8F09F48EA0640FAE73A280F
:108B300000D2303820F02002412A01D3A2F13700C0
:108B4000884201D34FF0FF30704770B58C1810F891
:108B5000015B15F0070301D110F8013B2A1106D182
:108B600010F8012B03E010F8016B01F8016B5B1E9C
:108B7000F9D12B0705D40023521E0DD401F8013B77
:108B8000FAE710F8013BCB1A921C03E013F8015BE3
:108B900001F8015B521EF9D5A142D8D3002070BD67
:108BA00070B5044600688168C943C90717D1816858
:108BB00021F00101816002F0ADFB05460AE000BF33
:108BC00002F0A8FB401B022804D920688068C0433B
:108BD000C00706D020688068C043C007F0D00020DE
:108BE00070BDA06A40F01000A062E06A40F0010091
:108BF000E062012070BD0000F8B500260446009632
:108C000000688168C943C9072DD0816841F001011E
:108C10008160164816490068B0FBF1F000E0401E84
:108C200000900028FBD102F075FB054616E000BF5E
:108C300002F070FB401B022810D920688068C043F6
:108C4000C0070BD0A06A40F01000A062E06A40F0BC
:108C50000100E06284F824600120F8BD206880688B
:108C6000C043C007E4D10020F8BD00008800002008
:108C700040420F0070B501F00FFA184D697801EB12
:108C800081022232D4B240EA01222146042005F0BA
:108C900023FE1348611C00680288042005F01CFEB6
:108CA0001048A11C00680288042005F015FE0E483B
:108CB000E11C00680288042005F00EFE0B48211D0F
:108CC00000680288042005F007FE68780A2801D2AF
:108CD000401C00E00020687070BD0000D40100203E
:108CE00018060020F4010020F8010020FC010020FB
:108CF00002484178491C4170704700002808002054
:108D00002DE9F0412C4C4FF4FA76A188608881421D
:108D100007D0B04200D96680608800F043FD6088CB
:108D2000A08005F0CDFF0025012748B905F0B8FF68
:108D300010B905F067FFC0B1022005F05FFEA0B1D9
:108D400020780028608806D068B10A2809D90A3836
:108D50006080BDE8F081B04201D20A30F8E72770A8
:108D6000F7E76580F5E72570F3E705F07FFF40B191
:108D700020780028608801D098B9F4E7B0420CD37D
:108D8000EDE70E48006800880028608807D0B042F0
:108D90000CD2C0F5FA71042906DD001DD8E70028C1
:108DA000D7D0042806D8DCE76680D2E7A0F5FA71B0
:108DB0000429F9DD001FCBE79C07002018060020DE
:108DC00010B5002000F0EEFC064C012210212046D8
:108DD00002F09BFA20460122BDE81040202102F05B
:108DE00094BA0000000C014010B504F09DFC01F0A5
:108DF000DBF90748002142691180017000F088FD0D
:108E000006F006F906F0F4F8BDE8104006F078BA6E
:108E1000E0010020124910B50968152008801149A9
:108E200002200968088010480021826A1180426986
:108E300011800170016AD0F806200A60416AD0F8FA
:108E40000A200A60C26A0521118000F140014FF436
:108E50007A720069FFF7E4F9BDE8104004F06EBCD7
:108E6000B0010020BC010020E001002010B5082165
:108E7000042001F017F90149C86010BDA4060020C4
:108E80002DE9F041224D234C002628680088C8B106
:108E9000010410D5C1B2217004F1180200201E4C4B
:108EA0006323175C8F4201D144F82030401CC0B2CC
:108EB0000828F6D300E0207000F03EF8286806800D
:108EC000BDE8F08104F008FAE071217881421CD1FC
:108ED000207A401CC0B220720228F1D300F076FC48
:108EE0002079AA2803D0BDE8F04100F025B8207809
:108EF0000028E5D0012000F097FC60782178084335
:108F00006070BDE8F04104F0E3BB20702672D7E743
:108F100010020020A8070020A446002010B50F2052
:108F200004F0D6FB022000F07FFC05F0EEFDBDE86A
:108F3000104005F021BE00002DE9F0473A4D2869A8
:108F4000401C286169699631884202D9012006F0E7
:108F500015F90024344FDFF8D490354E1837A04669
:108F6000385D297888422DD132490968C1F80080DE
:108F700028696861002006F001F956F82400401CB9
:108F800046F82400642846D100F056FC28780128D1
:108F900001D0022804D156F82400401E46F82400CF
:108FA000D9F800000088102808D0112808D01E48E1
:108FB00010F1600050F8240080472CE01E48F9E7CB
:108FC0001E48F7E76978884223D156F824006428C0
:108FD00021D200F031FCD9F80000008810280ED012
:108FE00011280ED01048403050F82400804700204F
:108FF00005F06CFCD9F80000008838B109E0104891
:1090000000E0104850F824008047F3E7385D05F091
:10901000A9FC46F82480641CE4B2082CA0D328786C
:109020006870BDE8F0870000A8070020180600203F
:10903000A44600201802002084060020F406002028
:1090400064060020D406002010B5204C42F21071B6
:109050006088884201D2401C00E000206080E06807
:1090600040F2DC51884203D9A18841F48071A1808B
:109070004FF49671B0FBF1F201FB12021AB988426B
:1090800001D305F0A5F861880A20B1FBF0F200FBDE
:109090001212062A11D0B1FBF0F200FB121282B1BB
:1090A000B1FBF0F200FB121003280ED1207800284B
:1090B0000BD0BDE8104004F0F9BEBDE8104004F04C
:1090C000AFBFBDE8104004F0FDBE10BD6408002035
:1090D00010B50021032000F0FBFF1C4C0121608033
:1090E000032000F0F5FFA080032805D90322A28009
:1090F0000121104605F0F0FB0221032000F0E8FFFB
:10910000E080072805D90722E2800221032005F02C
:10911000E3FB0421032000F0DBFF2081082805D9B0
:10912000082222810421032005F0D6FB052103201B
:1091300000F0CEFF6081012807D90122628105215C
:10914000BDE81040032005F0C7BB10BD4C06002051
:1091500010B5074C2078AA2803D0BDE8104000F0D5
:109160000FB805F02DFD05F01BFD0020207010BD8F
:10917000AC0700200149022008707047DC01002084
:109180002DE9F04105F082FD002871D1434CE068E3
:10919000401CE06006F088FC00F0A8FAE0680A28AD
:1091A00072D30026E66020693D4D401C2061E079C5
:1091B000012805D00120E07105F01AF838B330E03D
:1091C0003848E67100680168491C0160364800684B
:1091D0000168491C016005F049FD344F10B905F0E4
:1091E0007FFD20B138680168491C016001E03868E2
:1091F000066005F023FD40B32878012140F0080007
:109200002870084606F008F805F02EFF3CE02878A4
:10921000002120F008002870012005F0FDFF05F076
:1092200023FF03F05FFF10B100F09CFE2CE0E6612D
:1092300001F09AF8112803D100F018FC04F004F9A9
:1092400005F0ECFC10B103F0CFFF1DE005F038FD98
:1092500010B100F083F817E005F022FD10B105F021
:10926000C3F911E005F002FD18B105F077F90BE044
:1092700011E005F035FD10B105F0C6FB04E005F086
:10928000E9FC08B105F04AF96079002803D1BDE88E
:10929000F04104F0D9B8BDE8F081000028080020B2
:1092A000DC01002014020020180200201C02002013
:1092B00000B5012005F09AFB05F0B0FC00280ED1A6
:1092C00005F0FEFC0E4918B108680188491E05E04A
:1092D00005F0E6FC20B108680188891E018000BD08
:1092E00005F0C4FC18B108680188C91EF6E705F04E
:1092F000F7FC0028F3D008680188091FEEE700009A
:109300001806002010B5012005F070FB05F086FC62
:10931000114918B108680188C91C17E005F0D0FC94
:1093200018B108680188891C10E005F0B9FC18B173
:1093300008680188491C09E005F098FC00280AD15A
:1093400005F0CEFC18B108680188491E0180BDE80F
:10935000104000F07FBB10BD1806002000B50120B2
:1093600005F044FB05F05AFC104920B10968088853
:10937000801C088000BD05F0A3FC18B108680188B6
:10938000491C09E005F08CFC0028F3D105F06EFCC7
:1093900020B108680188491E018000BD05F0A0FCCD
:1093A0000028FAD008680188891EF5E71806002011
:1093B00000B5012005F01AFB05F030FC104920B182
:1093C00009680888401C088000BD05F079FC002869
:1093D000FAD105F065FC18B108680188491E05E05E
:1093E00005F044FC20B108680188891E018000BD99
:1093F00005F076FC0028FAD008680188C91EF5E758
:109400001806002010B5012005F0F0FA05F006FC62
:10941000134918B108680188091D13E005F050FCD4
:1094200018B108680188C91C0CE005F039FC18B1B6
:1094300008680188891C05E005F018FC20B108685F
:109440000188491C018003E005F04AFC002806D190
:10945000002004F099FDBDE8104000F0FBBA10BDFB
:109460001806002010B5114C608840B102280BD0BE
:1094700004280CD006280DD010280FD011E00321AD
:109480000BA005F019FA0CE000F0FAF809E000F082
:10949000A1F806E0002000F0D5F802E0F32000F08B
:1094A000ABF86088401C608010BD0000820700207F
:1094B0002B2B2B0000B5012000F0BCF80149002047
:1094C000488000BD820700200148007870470000F6
:1094D0008207002010B51E4B012215211D4804F003
:1094E000D6FE0021032000F0DDFD024640F2FF24FD
:1094F00023460321174804F091FE0021042000F0C8
:10950000D1FD0246FF230421124804F087FE00210A
:10951000032000F0C7FD0246234606210D4804F053
:109520007DFE0021032000F0BDFD024623461021F0
:10953000084804F073FE0021032000F0B3FD234629
:109540000246BDE810400521024804F067BE000055
:10955000B9E800086443002010B5002000F0A2F82C
:109560004FF47A7008F0A6FCF32000F045F84FF4B1
:10957000FA6008F09FFCBDE81040012000F092B8AE
:10958000014804F0B5BF0000644300200D4910B548
:1095900091F80622002A11D1012281F8032200222B
:1095A000A1F8002291F8054201F58073E05491F88A
:1095B0000502FF2803D2401C81F8050210BD81F886
:1095C000052210BD64430020014804F071BE000074
:1095D0006443002000B589B0202206496846FEF7A2
:1095E0001FFE6846FEF74CFE0146684605F064F92A
:1095F00009B000BDA834010810B588B00446202188
:109600006846FEF726FE224606A1684606F00CFED6
:109610006846FEF735FE0146684605F04DF908B08C
:1096200010BD000041542B424C454D54553D25641E
:109630000D0A0000032801D8014908707047000096
:109640008207002010B588B0044620216846FEF746
:1096500000FE224606A1684606F0E6FD6846FEF7D3
:109660000FFE0146684605F027F908B010BD00005E
:1096700041542B424C454D4F44453D25640D0A0055
:1096800000B589B0202206496846FEF7C9FD684644
:10969000FEF7F6FD0146684605F00EF909B000BD7B
:1096A000C834010810B588B0044620216846FEF78A
:1096B000D0FD6CB108A1684606F0B6FD6846FEF71D
:1096C000DFFD01464FEA0D0005F0F6F808B010BDC9
:1096D000032105A0F8E7000041542B5452414E539A
:1096E000454E5445520D0A002B2B2B0070B5FFF749
:1096F000EBFE00261E4C1F4D03280CD0E8680A28FC
:1097000014D3FFF7E1FE012811D0FFF7DDFE022898
:10971000AE612BD025E0AE612078C10703D100BF38
:1097200040F0010001E020F00100207070BDFFF763
:1097300099FEA86910B12969884201D92869A861F0
:109740002969C80705D12078C2070CD020F0010094
:109750002070A869081A7828E8D90020AE61FFF7C0
:1097600069FF2078DFE740F00100F1E72078D7E7D4
:10977000DC01002028080020FFF722FB044801F04C
:10978000EEFEFFF7BDFA142008F094FBF6E70000A8
:10979000A41300204FF4FA7000F004B8002000F089
:1097A00001B8000070B5074D04460021A86802F01A
:1097B000CBFEA86801684C63BDE87040002102F050
:1097C00069BE00009C070020FEE7000070B5154C44
:1097D000607901280BD002280CD00A281BD9A17966
:1097E000002551B101290CD002290DD013E005F05C
:1097F0000BFC10E005F0F3FB0DE005F005FC6571D6
:1098000070BD122802D806E0222804D905F0FCFB1E
:109810006571A57170BD60790028FBD0401C607136
:1098200070BD0000A807002002498871012048711E
:1098300070470000A807002010B505F027FA00289F
:1098400004D10348012141710021817110BD000044
:10985000A807002010B504460821064802F074FE4F
:1098600004480068C463BDE810400821014802F0C4
:1098700011BE0000F813002030B5ADF5017D0D4696
:1098800004464FF400720B496846FEF7C9FC0020FD
:10989000694608E014F8012B82EA102231F8122000
:1098A00082EA002080B26D1EADB2F3D20DF5017DCB
:1098B00030BD00002837010810B500F0D7F8054882
:1098C0000021C161018105F097F9BDE8104003F066
:1098D000BBBD000028080020002160B101280CD089
:1098E00002280AD003280AD004280AD005280AD062
:1098F00012280AD08021084670470121FBE7082181
:10990000F9E70221F7E71021F5E70421F3E700006A
:1099100070B5364B186A008803F0BFFC18B9186A96
:10992000D3F806100160586A008803F0B6FC20B135
:10993000586A408803F0B8FC18B9586AD3F80A107E
:109940000160D86A0188491E082901D305210180D8
:109950000024DC704FF47A721C71D87800EBC001DF
:1099600001EB0010196901EBC000197930F82100F2
:1099700003F093FCF8B1D87800EBC00101EB0010C4
:10998000196901EBC000197900EB8100408803F0F0
:109990008BFC80B11879A8B1D97801EBC10505EB32
:1099A00001111D6905EBC10101EB80014D8831F802
:1099B000021C8D4206D81869BDE870400B49403141
:1099C000FEF72EBC401CC0B218713228C5D3D8781F
:1099D000401CC0B2D8700528BED3586B0460986B89
:1099E0000460D86B0460186B048070BDE001002037
:1099F00010B50622064B002133F81140844201D1F4
:109A0000012010BD491C89B29142F5D3002010BD40
:109A10005808002010B5044617290CD0102916D17B
:109A200010220B49FEF733FC002810D10220BDE8BC
:109A30001040FFF7FFBD064917221739FEF727FC34
:109A40000028F4D0024917222E392046EAE710BD3B
:109A50001635010801480169016270472808002095
:109A600001490020487070472808002010B500F018
:109A700021F80C4C0020E16808800B4920706070D0
:109A800009680880A07804F055FF0849084AE07882
:109A9000096808801268A1881180BDE8104000F0B4
:109AA00039B80000A406002020060020F80100209C
:109AB000FC01002002480021C16081807047000045
:109AC0006408002001490020087070472808002021
:109AD000014801F081B8000040180020014801F061
:109AE0007BB80000FC17002030B590F840500124EE
:109AF000AC40C56B6C60046863604368102B0368FE
:109B000003D099600068C26030BD9A600068C1608F
:109B100030BD0000054910B58969088004F034FAA9
:109B2000BDE81040022004F059BF0000E001002011
:109B30007047704710B586B0044614221349684632
:109B4000FEF76EFB4FF4E130042C0FD0012C0FD048
:109B5000022C15D0032C09D0052C07D0601E042838
:109B600011D8684600EB840050F8040C06B010BD14
:109B700007490220C9680880054810308068F5E769
:109B80004FF41650F2E70020F0E70000943401088B
:109B9000B001002010B50021032000F083FA0A4C28
:109BA00001212060032000F07DFAE0600120FFF732
:109BB000C1FF0021042000F075FA6060012104203B
:109BC00000F070FAA06010BDB001002010B504468E
:109BD000800703D5FF21052005F078FBE00705D0BD
:109BE000FF21BDE81040042005F070BB10BD10B58A
:109BF0000446400703D50021072005F00DFBA00710
:109C000003D5FF21072005F061FBE00705D0FF2108
:109C1000BDE81040062005F059BB10BD10B5FF216E
:109C2000052005F053FBFF21BDE81040042005F09E
:109C30004DBB70B50446642802D94FF0640400E0BF
:109C400002D34FF0010101E04FF000014FF0070097
:109C500005F0E2FA0A25B4FBF5F0B0FBF5F105FBDF
:109C60001101072005F032FBB4FBF5F005FB1041B4
:109C7000BDE87040062005F029BB70B504464FF4DE
:109C80007A70B4FBF0F00A25B0FBF5F105FB110189
:109C9000002005F01BFB6420B4FBF0F0B0FBF5F1F5
:109CA00005FB1101012005F011FBB4FBF5F0B0FB41
:109CB000F5F105FB1101022005F008FBB4FBF5F0FE
:109CC00005FB1041BDE87040032005F0FFBA10B558
:109CD00004464521002005F0D1FAC4F303210120F8
:109CE00005F0F4FAC4F30311022005F0EFFA04F0D2
:109CF0000F01BDE81040032005F0E8BA70B5054635
:109D00000A24B0FBF4F0B0FBF4F104FB11010020D5
:109D100005F0DCFAB5FBF4F004FB1051BDE870402F
:109D2000012005F0D3BA10B504465021052005F0F6
:109D3000A5FA0A20B4FBF0F100FB1141BDE8104088
:109D4000042005F0C3BA70B50446642802D94FF068
:109D5000640400E002D34FF0010101E04FF0000184
:109D60004FF0070005F058FA0A25B4FBF5F0B0FBF8
:109D7000F5F105FB1101072005F0A8FAB4FBF5F099
:109D800005FB1041BDE87040062005F09FBA70B594
:109D900005460A24B0FBF4F0B0FBF4F104FB11011A
:109DA000022005F093FAB5FBF4F004FB1051BDE876
:109DB0007040032005F08ABA70B50446642802D9C1
:109DC0004FF0640400E002D34FF0010101E04FF0D6
:109DD00000014FF0070005F01FFA0A250A2C01D2F6
:109DE000FF2105E0B4FBF5F0B0FBF5F105FB110137
:109DF000072005F06BFAB4FBF5F005FB1041BDE858
:109E00007040062005F062BA70B505460A24B0FB22
:109E1000F4F0B0FBF4F104FB1101052005F056FA53
:109E2000B5FBF4F004FB1051BDE87040042005F0D0
:109E30004DBA72B6FEE7000070B50D4E05463046CD
:109E400008F074FB002812D10A4C206940F002008F
:109E500020616561206940F040002061304608F0D3
:109E600065FB012803D0206920F00200206170BD4D
:109E7000FFFF5F0000200240044B0022DA61044A29
:109E8000136943F00103136101807047D01800206B
:109E90000020024014480022C168CB06134904D5B3
:109EA000CA6942F00202CA611022C3685B0705D585
:109EB000CB6943F00103CB6142F00402C369DB07C5
:109EC00007D0CB6943F00403CB61C16921F00101E4
:109ED000C161A2F58071013901D0C2607047C169CA
:109EE00021F00101C161704700200240D01800201C
:109EF00070B5054601F00EFA0646114C09E0681CE3
:109F000007D025B101F006FA801BA84201D9032031
:109F100070BDE068C007F2D1E068800601D520205E
:109F2000E060E068C00605D4E069C00702D1E068DF
:109F3000400703D5FFF7AEFF012070BD002070BDC4
:109F40000020024010B5064CE068008800F01AF9C5
:109F500020706178814201D90120607010BD00003D
:109F6000A406002010B500F0FFF9112802D005F07A
:109F7000E1F925E004F046FE10B303F0A9F8F8B9C2
:109F800000F0ECF9B0F5807F1AD0144882780169AE
:109F90008A1AB2F5E15F02D9002242708170C2696B
:109FA0000AB18A4203D9C161827802B98170C2695B
:109FB000891AF02904D94178491C4170FFF77CFCCB
:109FC00003F0AAFF30B1022004F018FD10B1022006
:109FD00004F00CFDBDE8104005F0EEBC28080020A0
:109FE0000B4810B5006807F09BFF0A48006807F0AF
:109FF00097FF0948006807F093FF0848006807F0DA
:10A000008FFF07480068BDE8104007F089BF0000D7
:10A010005000002054000020580000206000002064
:10A0200064000020094810B5006807F093FF084855
:10A03000006807F08FFF0748006807F08BFF0648AD
:10A040000068BDE8104007F085BF00005000002008
:10A05000580000206000002064000020094810B56E
:10A06000006807F077FF0848006807F073FF0748AB
:10A07000006807F06FFF06480068BDE8104007F071
:10A0800069BF00005000002054000020580000204C
:10A0900060000020704700000148407870470000D1
:10A0A000E0010020032802D0042805D00AE0B1F521
:10A0B000407F07D2044802E0FF2903D8034800EBA1
:10A0C0004100704700207047C4460020C44C002067
:10A0D000032802D0042805D00AE0B1F5407F07D25A
:10A0E000044802E0FF2903D8034830F81100704704
:10A0F00000207047C4460020C44C002070B50920E1
:10A1000003F04EFB124C606800F0AEF9606800F09E
:10A1100007FC0721606800F065FB606800F08EFABC
:10A12000800503D5606800F08BFA05464DB1B5F5A2
:10A13000805F06D0002020802846BDE8704000F0F7
:10A140001FB92088411C21800A28F5D9014870BD1B
:10A15000880700200000C8C230B500231A46012538
:10A1600005FA02F4044206D05B1CDBB2994202D12C
:10A17000521CD0B230BD521CD2B2102AF0D30020F3
:10A1800030BD0000024610B5002001465FF001041A
:10A1900004FA01F3134201D0401CC0B2491CC9B2F9
:10A1A0001029F5D310BD000000B530210320FFF7C2
:10A1B00079FF5049086080210320FFF773FF4E4963
:10A1C000086082210320FFF76DFF4C4908604FF4BF
:10A1D00080710320FFF766FF4949086006210320CC
:10A1E000FFF760FF4749086002884FF4FA718A421E
:10A1F00000D9018000210320FFF754FF4249086085
:10A2000001210320FFF74EFF40490860022103208F
:10A21000FFF748FF3E49086004210320FFF742FF93
:10A220003C49086004210846FFF73CFF3A490860B2
:10A2300008210420FFF736FF38490860092104206F
:10A24000FFF730FF364908600A210420FFF72AFF94
:10A25000344908600B210420FFF724FF32490860CD
:10A260000C210420FFF71EFF304908600E21042056
:10A27000FFF718FF2E49086010210420FFF712FF96
:10A280002C49086012210420FFF70CFF2A490860BE
:10A2900022210320FFF706FF28490860212103201F
:10A2A000FFF700FF2649086023210320FFF7FAFE8D
:10A2B0002449086024210320FFF7F4FE22490860A6
:10A2C00040210420FFF7EEFE2049086042210420CF
:10A2D000FFF7E8FE1E49086044210420FFF7E2FE74
:10A2E0001C49086040210320FFF7DCFE1A49086082
:10A2F00000BD00001406002000020020040200201F
:10A30000F0010020480600204006002044060020FE
:10A31000080200200C0200201C060020200600205D
:10A3200024060020280600202C06002030060020ED
:10A3300034060020380600203C06002018060020C5
:10A34000F4010020F8010020FC010020140200208C
:10A35000180200201C020020100200200148808802
:10A3600070470000640800200148006800787047CA
:10A37000180600200148C078704700002808002017
:10A380002DE9F041FEF7B7F9FEF70AFA4FF066380B
:10A3900042461C4BFEF7CEF8FEF715FA0546FEF7CF
:10A3A000FFF94246184BFEF7C2F8184E07460C4616
:10A3B00031462846FDF7A7FFFEF7F2F93A46234655
:10A3C000FEF72AF9FEF7FFF93146FDF7CEFFFEF75B
:10A3D000E7F906F075FF00220D4BFEF71DF90D4A57
:10A3E0000D4BFEF700F802460B4600200B49FEF726
:10A3F00013F942460A4BFEF797F8BDE8F041FEF725
:10A40000E2B9000066664A3F66660A4000002041E5
:10A4100000DCAE4083DBB5DCE1796B3F0000F03F50
:10A42000661271400148007870470000B0080020B3
:10A430002DE9F04100250B4E2C46012706EBC40008
:10A44000818856F8340000F05BFF18B907FA04F071
:10A450002843C5B2641CE4B2022CEFD32846BDE801
:10A46000F081000040000020F8B50025044600956A
:10A4700090F82400012808D0012084F82400204608
:10A48000FEF78EFB060002D053E00220F8BDA06A62
:10A4900020F4885040F00200A062022001F04AF946
:10A4A00026490968B1FBF0F0400000E0401E009032
:10A4B0000028FBD12046FEF79FFB2068816841F011
:10A4C0000801816000F026FF074608E000F022FF47
:10A4D000C01B0A2803D920688068000715D42068AB
:10A4E00080680007F2D42068816841F0040181602F
:10A4F00000F010FF074612E000F00CFFC01B0A2816
:10A500000DD920688068400709D5A06A20F00200B4
:10A5100040F01000A06284F824500120F8BD2068AB
:10A5200080684007E8D4A06A20F0020040F00100F3
:10A53000A06284F824503046F8BD00008800002056
:10A54000F8B50024009490F824202546012A12D062
:10A55000012280F824204A681F23072A0DD20668AA
:10A56000776B521E02EB820293409F430B6893402D
:10A570001F43776319E00220F8BD06680D2A0AD24E
:10A58000376BD21F02EB820293409F430B689340CC
:10A590001F43376309E0F76A0D3A02EB82029340EA
:10A5A0009F430B6893401F43F7620A6807230668BE
:10A5B0000A2A0AD3F7680A3A02EB420293409F4301
:10A5C0008B6893401F43F76008E0376902EB420253
:10A5D00093409F438B6893401F4337610A68102A5A
:10A5E00001D0112A20D1124B02689A4217D19368E8
:10A5F0001B0219D4936843F400039360096810297F
:10A6000012D10C490C4A0968B1FBF2F101EB81014E
:10A61000490000E0491E00910029FBD104E0816A55
:10A6200041F020018162012480F824502046F8BDC9
:10A63000002401408800002040420F00806A7047DB
:10A640000068C06C704700002DE9F04104004FF035
:10A6500000057FD0A06A002628B9E66284F824604D
:10A66000204600F081F82046FEF79AFAA16AC90652
:10A6700000D420B1A06A40F01000A0626AE0A16A94
:10A6800021F4885141F00201A162334923688B42D1
:10A69000E16904D1B1F5402F01D14FF40021277BAE
:10A6A0004FF4807C41EA470261680A43A168614532
:10A6B00008D0012906D0002194F814E0BEF1010F62
:10A6C00002D00AE06146F7E7C7B1A76A47F0200762
:10A6D000A762E76A47F00107E7625F6827F4694706
:10A6E0000F435F60236899681C4F3940114399609C
:10A6F000A16861450BD0012909D00CE0DFF860E0CA
:10A70000A7690EEB47370F4347F40061E5E7218A5D
:10A710000D05A5F580152168CB6A23F470032B4342
:10A72000CB62216889680F4B1940914208D1E662DB
:10A73000A16A21F0020141F00101A162BDE8F081AE
:10A74000A06A20F0020040F01000A062E06A40F031
:10A750000100E0620120F1E7003C0140FDF7E1FF6C
:10A7600000E0FFFFFE0E1FFF10B586B00021009134
:10A7700001910291039100681649884227D1164839
:10A78000816941F480618161816901F48061049192
:10A79000816941F004018161816901F00401049142
:10A7A000816941F0080181618069032400F008009B
:10A7B00004906020CDE900046946084800F0A4FC3C
:10A7C0000220CDE900046946054800F09DFC06B072
:10A7D00010BD0000002801400010024000080140A8
:10A7E000000C01402DE9F84300270D460446009770
:10A7F00000F090FD804620688168C90508D5A06AF0
:10A8000040F02000A06284F824700120BDE8F883A5
:10A810004168C90503D4C06A10F4700F2AD0022021
:10A8200000F088FF3B490968B1FBF0F62068036936
:10A8300039490B424FEA61014FEAA1121FD1C368A7
:10A840004FEA611C13EA0C0F19D103690B4225D1A1
:10A85000C068104222D1142023E0681C0AD02DB118
:10A8600000F058FDA0EB0800A84203D9206800685A
:10A87000800725D5206800688007EED52DE00369A4
:10A880000B4202D1C168114206D0026923490A4233
:10A8900006D1C068084203D1542002E0292000E01C
:10A8A000FC204643009816E0681C11D02DB100F042
:10A8B00031FDA0EB0800A8420AD90098B04207D2A7
:10A8C000A06A40F00400A06284F8247003209DE791
:10A8D0000098401C0090B042E6D321686FF012004F
:10A8E0000860A06A40F40070A06220688068C0F32D
:10A8F000424007280CD1207B50B9A06A20F4807018
:10A90000A062A06AC00403D4A06A40F00100A06263
:10A9100000207BE7880000202449922449922400EB
:10A9200070B5044690F8240001280DD0012084F869
:10A9300024002046FEF760F902004FF0000005D029
:10A9400084F82400104670BD022070BDA16A40F258
:10A950000123994341F48071A1621F4D23681F496F
:10A96000AB4218D10E6816F4702F14D0A66A46F4C4
:10A970008016A6620E68760505D5A66A26F40056EE
:10A9800046F48056A662A66AF6040AD5E66A26F060
:10A990000606E66206E0A66A26F48016A6625E68EF
:10A9A000E9E7E06284F824006FF002001860206894
:10A9B0008368C3F34243072B05D1A84208D1096835
:10A9C00011F4702F04D0816841F480118160B9E7DF
:10A9D000816841F4A001F9E7002801400424014006
:10A9E00010B590F821100022022905D004218163BE
:10A9F00080F82020012010BD01680B6823F00E03B1
:10AA00000B6001680B6823F001030B6090F8403085
:10AA1000C46B012101FA03F3636080F8211080F810
:10AA20002020104610BD00002DE9F05F90F82110A5
:10AA30000024022903D004218163012485E00168F8
:10AA40000A6822F00E020A6001680A6822F0010218
:10AA50000A603F4E3E4FB215DFF8F4C0DFF8F090C9
:10AA6000DFF8ECA0DFF8E8B0DFF8E4E00168783F59
:10AA700013011502ACF1640CA9F15009AAF13C0ACA
:10AA8000ABF1280BAEF1140E4FF48018B14227D968
:10AA9000B9420ED0614512D049451DD0514518D05C
:10AAA000594518D0714501D1424615E0294EB142B1
:10AAB00001D1012210E0274E1436B14201D11022FB
:10AAC0000AE0244E2836B14206D0224A3C32914256
:10AAD00001D11A4600E02A461E49091F0A602BE0F0
:10AAE000B94213D0614517D0494522D051451DD0F8
:10AAF00059451DD0714501D142461AE0B14202D1FB
:10AB00004FF0807215E0134EB14201D1012210E0E6
:10AB1000104E1436B14201D110220AE00D4E2836F3
:10AB2000B14206D00B4A3C32914201D11A4600E0B4
:10AB30002A46074980394A60012180F82110002106
:10AB400080F82010416B01B188472046BDE8F09F96
:10AB5000800002400804024010B5D0B101680A68C4
:10AB600022F001020A60026800211160026851604F
:10AB7000026891600268D160144C02681423A242FA
:10AB800009D2134C2244B2FBF3F292000264114A40
:10AB90000AE0012010BD0D4C64422244B2FBF3F2E6
:10ABA00092000264094A083AC26390F840300122D8
:10ABB0009A40C36B5A608162C162016341638163E1
:10ABC00080F8211080F82010002010BD08040240F9
:10ABD000F8FFFDBF000002402DE9F05FC16B0A687D
:10ABE00001680B68046C4FF0040808FA04F8844DFF
:10ABF000844E854FDFF814C2DFF81492DFF814A2F8
:10AC0000DFF814B2DFF814E218EA020F65D05FEA49
:10AC1000437862D50A68920603D40A6822F00402D7
:10AC20000A60DFF8F0814FF48062016808F11408CF
:10AC300013011402414524D9A9420DD0B1420FD0CD
:10AC4000B9421AD0614515D0494515D0514501D1B9
:10AC5000120312E0594501D104220EE0714501D1E1
:10AC600040220AE06D4D1435A94206D06B4A2832C5
:10AC7000914201D11A4600E022466749091F0A6045
:10AC800029E0A94213D0B14215D0B94220D0614584
:10AC90001BD049451BD0514502D14FF4800217E02B
:10ACA000414502D14FF0806212E0594501D10422A2
:10ACB0000EE0714501D140220AE0584D1435A942F9
:10ACC00006D0564A2832914201D11A4600E0224667
:10ACD0004B4908394A60C16A71E04FF0020808FA2E
:10ACE00004F818EA020F70D05FEA83786DD50A681D
:10ACF000920606D40A6822F00A020A60012180F84E
:10AD00002110DFF810814FF40072016808F1140877
:10AD100013011402414524D9A9420DD0B1420FD0EC
:10AD2000B9421AD0614515D0494515D0514501D1D8
:10AD3000120312E0594501D102220EE0714501D102
:10AD400020220AE0354D1435A94206D0334A283274
:10AD5000914201D11A4600E022462F49091F0A609C
:10AD600029E0A94213D0B14215D0B94220D06145A3
:10AD70001BD049451BD0514502D14FF4001217E0BA
:10AD8000414502D14FF0007212E0594501D1022233
:10AD90000EE0714501D120220AE0204D1435A94270
:10ADA00006D01E4A2832914201D11A4600E02246BE
:10ADB000134908394A60002180F82010816A00296F
:10ADC0001CD0BDE8F05F0847FFE70825A540154205
:10ADD00014D01A0712D50A6822F00E020A6090F801
:10ADE0004020C36B012101FA02F25A60816380F8AE
:10ADF0002110002180F82010016BE0E7BDE8F09FF2
:10AE0000080002401C0002403000024044000240A2
:10AE1000580002406C000240080402401C0402403A
:10AE200030B560B11A4B026814219A4209D2194B0D
:10AE30001344B3FBF1F18900016417490AE00120D2
:10AE400030BD134B5B421344B3FBF1F18900016445
:10AE50000F490839C163022180F82110136843F6B5
:10AE6000F0718B43F0E901142143D0E902452C43F2
:10AE700021430469214344692143846921431943DF
:10AE8000116000214163012242770177084630BDFD
:10AE900008040240F8FFFDBF0000024070B5044600
:10AEA00090F82000002501280CD0012084F8200013
:10AEB00094F821600020012E06D084F8200002259D
:10AEC000284670BD022070BD022684F82160A06370
:10AED0002068066826F0010606602046FEF704FE9C
:10AEE000E06A00282068016802D041F00E0106E007
:10AEF00021F0040101602068016841F00A0101604D
:10AF00002068016841F001010160D9E7064810B5E9
:10AF10004FF0FF31C16000220261C160C26000F0E9
:10AF200085FB002010BD00000010024003480169AD
:10AF300041F08001016100207047000000200240C4
:10AF40002DE9F05F07461C4888460024017E15461F
:10AF50001E46012909D00121814601764CF2503A62
:10AF60005046FEF7C5FF18B122E00220BDE8F09F71
:10AF7000012F02D0022F00D00427D346DFF83CA0D7
:10AF8000220128463146FDF73BF981B208EB440027
:10AF9000FEF772FF5846FEF7ABFFDAF8102022F0FA
:10AFA0000102CAF8102018B9641CE4B2BC42E7D30D
:10AFB000002289F81820D9E7D0180020002002408C
:10AFC000064900200A69120607D5054A4A60054A63
:10AFD0004A600969090600D5012070470020024037
:10AFE00023016745AB89EFCD2DE9F04300233E4FA8
:10AFF0000F2574E001229A400A406ED023F003042A
:10B00000E619D6F808809C074FEA147C05FA0CF97B
:10B0100009EA0804DFF8D480404502D14FF0000867
:10B0200024E0DFF8CC80404502D14FF001081DE05C
:10B03000DFF8C080404502D14FF0020816E0DFF88B
:10B04000B880404502D14FF003080FE0DFF8AC8034
:10B05000404502D14FF0040808E0DFF8A4804045E5
:10B0600002D14FF0050801E04FF0060808FA0CF88D
:10B07000A04515D1D6F808C02CEA090CC6F808C0BE
:10B08000204E346894433460341D2668964326600D
:10B09000241D266896432660241D26689643266054
:10B0A000FF2A01D8064601E000F104064FEA8304B6
:10B0B00001D9A4F12004D6F800C005FA04F82CEA5E
:10B0C000080C4FF0040808FA04F84CEA080CC6F81B
:10B0D00000C0C46824EA0204C46003F1010331FA29
:10B0E00003F287D1BDE8F083000001400008014071
:10B0F000000C014000100140001401400018014004
:10B10000001C0140000401402DE9F84FDFF8C89110
:10B11000002409F1040A0AF1040B23460F270BF15E
:10B12000040ED1E00125A54006EA0502AA4276D127
:10B13000DFF8A8C14E68A6EB0C0866452BD00DDCE5
:10B14000032E34D005DC36B3012E19D0022E2FD1B8
:10B150001BE0112E16D0122E2AD119E0B8F5881F47
:10B1600019D006DCB8F5803F15D0B8F5801F1FD187
:10B1700011E0B8F5001F0ED0B8F5041F18D10AE091
:10B18000CB6815E0CB681B1D12E0CB6808330FE0DD
:10B19000CB680C330CE08B682BB1012B4FF008030C
:10B1A00003D0456104E0042302E0056100E00023D0
:10B1B000FF2A01D8064601E000F104064FEA8405A3
:10B1C00001D9A5F12005D6F8008007FA05FC28EA88
:10B1D0000C0803FA05F548EA0508C6F800804D6832
:10B1E000ED0070D53E4DAE6946F00106AE61AD6929
:10B1F00024F0030605F0010500953A4D06EB050C19
:10B20000DCF80850A607360F07FA06F825EA080505
:10B21000DFF8D480404503D14FF0000825E052E02C
:10B22000DFF8C880404502D14FF001081DE0DFF88B
:10B23000C080404502D14FF0020816E0DFF8B4802C
:10B24000404502D14FF003080FE0DFF8AC804045E5
:10B2500002D14FF0040808E0DFF8A080404502D199
:10B260004FF0050801E04FF0060808FA06F848EA32
:10B270000508CCF808804D68D9F80060ED034D460C
:10B2800001D5164300E096432E604D68DAF8006061
:10B29000AD03554601D5164300E096432E604D6838
:10B2A000DBF80060ED025D4601D5164300E09643F1
:10B2B0002E604D68DEF80060AD02754601D516437C
:10B2C00000E096432E60641C0A681646E2407FF454
:10B2D00029AFBDE8F88F0000000401400000111004
:10B2E000001002400000014000080140000C014035
:10B2F000001001400014014000180140001C0140F2
:10B300008068084000D0012070470AB10161704791
:10B310000904FBE701488068704700007C000020BA
:10B3200070B5040025D094F83D00002520B984F8BC
:10B330003C50204600F0B8F8242084F83D002068F6
:10B34000016821F0010101602068016841F40041B9
:10B3500001602068016821F40041016000F080FB79
:10B360004D4A6168914201D84C4900E04C498842FD
:10B3700001D2012070BD4B492368B0FBF1F15E683A
:10B3800026F03F060E435E606368934206D94FF491
:10B39000967359434FF47A73B1FBF3F12368491C58
:10B3A0001E6A26F03F06314319626168914210D847
:10B3B0004900401EB0FBF1F2521CC2F30B02042AFA
:10B3C00001D2042022E0B0FBF1F0401CC0F30B00DE
:10B3D0001CE0A268F2B301EBC10303EB0116431EAC
:10B3E000B3FBF6F35B1C43F480431B0549D092B3D7
:10B3F00001EBC10202EB0111401EB0FBF1F0401C59
:10B40000C0F30B0040F4804040F400402168CA695A
:10B410004CF6FF739A431043C861D4E90710014307
:10B420002068026822F0C00211430160D4E90301E0
:10B4300001432068826848F2FF339A4311438160D8
:10B44000D4E9050108432168CA6822F0FF021043CD
:10B45000C86001E00EE016E02068016841F00101DB
:10B4600001602564202084F83D00256384F83E5067
:10B47000002070BD01EB4106431EB3FBF6F35B1CDD
:10B48000B3E70120C2E701EB4101401EB0FBF1F040
:10B49000401CC0F30B00B7E7A086010080841E00AB
:10B4A00000093D0040420F0010B586B00021009118
:10B4B00001910291039100680F4988421AD10F4C03
:10B4C000A06940F00800A061A069694600F008008A
:10B4D0000490C0200090122001900320039008489F
:10B4E000FFF712FEE06940F40010E061E06900F44B
:10B4F0000010049006B010BD00540040001002403F
:10B50000000C014070B5040011D021684CF6CC400D
:10B510000860216845F255500860D4E90001416097
:10B520002168A0688860FFF7F5FE05460DE0012060
:10B5300070BD00BFFFF7EEFE401B272805D920682D
:10B54000C068800701D0032070BD2068C0688007F4
:10B55000F0D121684AF6AA200860002070BD00687A
:10B560004AF6AA2101600020704700000248816865
:10B5700002781144816070477C000020074810B5B4
:10B58000016841F010010160032000F0C1F80F20B4
:10B5900000F006F800F04CF8002010BD002002403A
:10B5A00030B505461C4887B0816941F4006181616E
:10B5B000806906A900F40060009001A800F030FA4C
:10B5C00000F05EFA1549164AB0FBF1F11548491E24
:10B5D0000260416040F2E7320021C0E9032181604E
:10B5E000816100F063FC040012D10E4800F0EAFC17
:10B5F00004000DD1192000F05DF8102D07D20022B3
:10B600002946192000F064F80748056000E001248D
:10B6100007B0204630BD00000010024040420F003D
:10B62000002C01408418002080000020704700009A
:10B630000F4808B5816941F001018161816901F01C
:10B6400001010091C16941F08051C161C0690022CE
:10B6500000F0805000900F21901E00F039F805484E
:10B66000416821F0E06141F00071416008BD0000D7
:10B670000010024000000140002809DB00F01F021A
:10B68000012191404009800000F1E020C0F88012C3
:10B69000704700280DDB00F01F0201219140400996
:10B6A000800000F1E020C0F88011BFF34F8FBFF39E
:10B6B0006F8F7047002809DB00F01F0201219140C5
:10B6C0004009800000F1E020C0F800117047000040
:10B6D000F0B40E4B1B680C46C3F30223C3F10705FD
:10B6E000042D00D90425191D072901D2002300E0EB
:10B6F000DB1E012606FA05F1491E214099409E40B5
:10B70000761E16403143F0BC04F0A2BD0CED00E003
:10B71000064900F0070208684FF6FF03184040EAA8
:10B720000220034A10430860704700000CED00E05F
:10B730000000FA0510B52CA401461DCC86B08DE89A
:10B740001D002DA02D4C00680490002004292FD04E
:10B750000BDC01292FD0022928D100F091F9616872
:10B76000C1F38131491C49001EE0082920D010296D
:10B770001CD161682268D20118D5C1F38342C90384
:10B780001DF8020009D5616804AAC1F34041515C6B
:10B790001B4AB2FBF1F1484301E01A494843616892
:10B7A000490203D440000321B0FBF1F006B010BD04
:10B7B00000F076F9FAE7226AC2F30121012903D1E8
:10B7C000920701D5C803F1E7022905D1626A920701
:10B7D00002D549F64040E9E70329E7D1216889030A
:10B7E000E4D54FF22440E1E7020304050607080907
:10B7F0000A0B0C0D0E0F1010010200000010024089
:10B8000000127A0000093D002DE9F8430546007852
:10B81000354CC00754D0E0690026C00008D4E06968
:10B8200040F08050E061E069012600F08050009017
:10B830002E480168C90512D40168804641F4807120
:10B840000160FFF767FD074605E000BFFFF762FDF7
:10B85000C01B642823D8D8F80000C005F6D5206A9C
:10B8600010F4407021D0A98801F4407181421CD0AD
:10B87000206A1F49012220F440700A6000220A60F9
:10B880002062C00711D0FFF745FD074641F2883816
:10B8900008E000BFFFF73EFDC11B414502D9032070
:10B8A000BDE8F883206A8007F4D5206A696820F42F
:10B8B0004070084320621EB1E06920F08050E061D2
:10B8C0002878800705D56068A96820F440400843BF
:10B8D00060602878C00605D56068696920F480003A
:10B8E000084360600020DBE7001002400070004069
:10B8F000400442422DE9F0470F46050061D0434E17
:10B90000306800F00700B84209D2306820F0070024
:10B9100038433060306800F00700B84251D12868E1
:10B920003B4C810712D5400703D5606840F4E060C6
:10B9300060602878000703D5606840F4605060605C
:10B940006068A96820F0F000084360602878C007AC
:10B9500028D06868012810D02168022810D08907F3
:10B9600000292EDA616821F0030101436160FFF7CD
:10B97000D1FC804641F288390DE021688903EFE768
:10B980008901EDE7FFF7C6FCA0EB0801494502D9A4
:10B990000320BDE8F0876068696800F00C00B0EB38
:10B9A000810FEFD1306800F00700B8420BD9306842
:10B9B00020F0070038433060306800F00700B842DC
:10B9C00001D00120E5E72878400705D56068E968DF
:10B9D00020F4E060084360602878000706D56068BE
:10B9E000296920F4605040EAC100606000F058F816
:10B9F0006168084AC1F30311515CC84006490860F8
:10BA000006480068FFF7CCFD0020C2E70020024096
:10BA1000001002407C3201088800002080000020D5
:10BA20000F2202600C4A536803F00303436053681B
:10BA300003F0F0038360536803F4E063C36052686B
:10BA40004FF4E06303EAD20202610448006800F0A8
:10BA5000070008607047000000100240002002400C
:10BA60000448054900684968044AC1F30221515C51
:10BA7000C840704788000020001002408C32010846
:10BA80000448054900684968044AC1F3C221515C71
:10BA9000C840704788000020001002408C32010826
:10BAA00012A185B00FC98DE80F0014A0144A0068D8
:10BAB00004905168134801F00C03042B10D0082B9C
:10BAC0000ED1C1F38343C9031DF803000AD55168A1
:10BAD00004AAC1F34041515C0A4A5043B0FBF1F063
:10BAE00005B0704708494843FAE70000020304051F
:10BAF000060708090A0B0C0D0E0F101001020000BA
:10BB00000010024000127A0000093D002DE9F84FB4
:10BB1000040070D02078C04DC00749D06868C0F3D9
:10BB20008100012807D06868C0F38100022809D18C
:10BB30006868C00306D52868800339D56068002886
:10BB4000E7D035E06068B0F5803F0BD010B1B0F5BC
:10BB5000A02F11D0286820F480302860286820F4B5
:10BB6000802002E0286840F480302860606890B14E
:10BB7000FFF7D0FB06460AE0286840F480202860E2
:10BB8000F0E700BFFFF7C6FB801B642873D8286866
:10BB90008003F7D50CE0FFF7BDFB064605E000BFCC
:10BBA000FFF7B8FB801B6428F0D828688003F7D41F
:10BBB00020789A4E80074FF001094FF0000839D5E0
:10BBC000686810F00C0F07D06868C0F38100022885
:10BBD00009D16868C00306D42868800714D5206995
:10BBE000012808D110E02069B0B1C6F80090FFF735
:10BBF00091FB074605E00AE1FFF78CFBC01B02281A
:10BC0000C4D828688007F7D52868616920F0F80053
:10BC100040EAC10028600DE0C6F80080FFF77AFB1B
:10BC2000074604E0FFF776FBC01B022823D82868EC
:10BC30008007F7D4207800072CD57948A169D9B1BD
:10BC4000C0F80090FFF766FB074604E0FFF762FBD1
:10BC5000C01B02280FD8686A8007F7D571484FF4D7
:10BC6000FA510068B0FBF1F0009000BF0098411E4F
:10BC70000091FAD20EE080E0C0F80080FFF74AFBA6
:10BC8000074604E0FFF746FBC01B022875D8686A28
:10BC90008007F7D42078400760D5E8690027C00006
:10BCA00008D4E86940F08050E861E869012700F0B5
:10BCB000805000905C480168C90513D40168834630
:10BCC00041F480710160FFF725FB824606E000BF6A
:10BCD000FFF720FBA0EB0A0064284ED8DBF8000039
:10BCE000C005F5D5E06801280AD008B1052813D0B1
:10BCF000286A20F001002862286A20F0040002E08F
:10BD0000286A40F001002862E06841F2883B98B15F
:10BD1000FFF700FB82460BE0286A40F0040028622F
:10BD2000EEE700BFFFF7F6FAA0EB0A0159455AD833
:10BD3000286A8007F6D50CE0FFF7ECFA824605E0AA
:10BD4000FFF7E8FAA0EB0A0159454CD8286A8007AA
:10BD5000F6D41FB1E86920F08050E861E06988B34B
:10BD60006968C1F38101022944D00228C6F86080C5
:10BD700004D0FFF7CFFA044638E034E0FFF7CAFA00
:10BD8000074604E0FFF7C6FAC01B02282BD8286834
:10BD90008001F7D4206AB0F5803F05D16868A168BA
:10BDA00020F4003008436860D4E90801084369685A
:10BDB00021F4741108436860C6F86090FFF7AAFA8E
:10BDC000044606E025E000BFFFF7A4FA001B0228A6
:10BDD00009D828688001F7D51BE000BFFFF79AFA61
:10BDE000001B022802D90320BDE8F88F28688001D3
:10BDF000F4D40EE00128F7D06868226A00F480319C
:10BE0000914204D1616A00F47010884201D001208F
:10BE1000EAE70020E8E7000000100240000042428C
:10BE20008004424288000020007000407047704744
:10BE300070B590F83C20012A2CD0012480F83C40B9
:10BE4000022280F83D2003685A689D6822F070063F
:10BE50000A6832435A60104B02689A420ED00F4B68
:10BE60009A420BD0B2F1804F08D00D4B9A4205D0C8
:10BE70000C4B9A4202D00C4B9A4204D1496825F0EF
:10BE800080031943916080F83D40002180F83C1008
:10BE9000084670BD022070BD002C014000340140F6
:10BEA0000004004000080040000C004010B50400F1
:10BEB00003D094F83D0010B107E0012010BD002030
:10BEC00084F83C00204600F01FF8022084F83D0072
:10BED000211D206802F038FF012084F8460084F814
:10BEE0003E0084F83F0084F8400084F8410084F864
:10BEF000420084F8430084F8440084F8450084F844
:10BF00003D00002010BD000008B501682848B1F1CF
:10BF1000804F0BD0274A914210D1C16941F00201F4
:10BF2000C161C06900F00200009008BDC16941F024
:10BF30000101C161C06900F00100F5E71E4A9142AC
:10BF40000ED1C16941F00401C161C069002200F055
:10BF50000400009005211E20FFF7BAFB1E2022E0FE
:10BF6000164A91420ED1C16941F00801C161C06910
:10BF7000002200F00800009005213220FFF7A8FB06
:10BF8000322010E00E4A9142CFD1C16941F0100138
:10BF9000C161C069002200F0100000900521362028
:10BFA000FFF796FB3620BDE80840FFF783BB000093
:10BFB000001002400004004000080040000C004057
:10BFC0000010004090F83D10012901D00120704779
:10BFD000022180F83D100168CA6842F00102CA607F
:10BFE00000680E4988420ED00D4988420BD0B0F14E
:10BFF000804F08D00B49884205D00B49884202D0B7
:10C000000A49884204D1816801F00701062903D05A
:10C01000016841F00101016000207047002C0140DF
:10C02000003401400004004000080040000C0040C3
:10C030000168CA6822F00102CA6001680A6A41F216
:10C0400011131A4207D10A6A9B101A4203D10A68D7
:10C0500022F001020A60012180F83D1000207047A3
:10C0600070B5044690F83C00012817D0012584F8EB
:10C070003C50022084F83D002068826822F077025C
:10C0800022F47F4282600868502830D00DDC2028DE
:10C090004DD005DC98B310283BD148E0022070BD9C
:10C0A000302844D0402834D139E0602828D0702886
:10C0B00006D0B0F5805F2CD0B0F5005F29D10AE042
:10C0C000CB68D1E90121206802F091FE20688168E7
:10C0D00041F0770109E0CB68D1E90121206802F045
:10C0E00086FE2068816841F48041816011E0CA6861
:10C0F0004968206802F050FF5021206807E016E0F0
:10C10000CA684968206802F058FF6021206802F080
:10C1100078FE84F83D50002084F83C0070BDCA6869
:10C120004968206802F038FF40212068EFE7226864
:10C1300001461046EBE7704770B504460068016998
:10C140004FF00005C943890715D4C168C943890761
:10C1500011D4E91E016101202077206880698007E1
:10C16000204602D0FFF7E7FF04E000F0D3F82046B6
:10C1700000F08EF9257720680169C943490717D473
:10C18000C168C943490713D46FF00401016102205B
:10C1900020772068806910F4407F204602D0FFF7A6
:10C1A000CAFF04E000F0B6F8204600F071F92577E8
:10C1B00020680169C943090716D4C168C943090742
:10C1C00012D46FF008010161042020772068C06953
:10C1D0008007204602D0FFF7AEFF04E000F09AF897
:10C1E000204600F055F9257720680169C943C90642
:10C1F00017D4C168C943C90613D46FF01001016197
:10C20000082020772068C06910F4407F204602D0C3
:10C21000FFF791FF04E000F07DF8204600F038F9C8
:10C22000257720680169C943C90708D1C168C94396
:10C23000C90704D1891E0161204600F0DDF920689C
:10C240000169C943090609D4C168C943090605D46F
:10C250006FF0800101612046FFF7E8FD2068016969
:10C26000C943490609D4C168C943490605D46FF0DA
:10C2700040010161204600F0E1F920680169C943ED
:10C2800089060BD4C168C943890607D46FF0200121
:10C2900001612046BDE87040FFF7C9BD70BD0000D8
:10C2A00000B585B0002100910191029103910268CF
:10C2B00014480221B2F1804F14D0134B9A420FD18F
:10C2C000826942F0080282618069039100F00800EF
:10C2D00004900120CDE9000169460C48FEF714FFE7
:10C2E00005B000BD826942F0040282618069039159
:10C2F00000F0040004900320CDE9000169460448E1
:10C30000ECE700000010024000040040000C014077
:10C3100000080140704770B50D46040003D094F842
:10C320003D0010B107E0012070BD002084F83C0002
:10C33000204600F01BF8022084F83D00211D2068F3
:10C3400002F002FD2068016821F00801016054F844
:10C35000460B016829430160012004F81F09E075BC
:10C360002076E0762077A075002070BD704770B50C
:10C37000044690F83C000D4601280AD0012084F8BC
:10C380003C0042B1042A18D0082A2AD00C2A4DD1E8
:10C3900039E0022070BD206802F03CFD2068816910
:10C3A00041F0080181612068816921F00401816107
:10C3B000206881692A69114311E0206802F05AFD62
:10C3C0002068816941F4006181612068816921F4FC
:10C3D00080618161206881692A6941EA0221816165
:10C3E00024E0206802F07CFD2068C16941F008016A
:10C3F000C1612068C16921F00401C1612068C1697F
:10C400002A69114311E0206802F09EFD2068C1698D
:10C4100041F40061C1612068C16921F48061C1619A
:10C420002068C1692A6941EA0221C161002084F8BB
:10C430003C0070BD10B5040003D094F83D0010B16D
:10C4400007E0012010BD002084F83C00204600F0E9
:10C450001EF8022084F83D00211D206802F074FCC3
:10C46000012084F8460084F83E0084F83F0084F8F8
:10C47000400084F8410084F8420084F8430084F8C6
:10C48000440084F8450084F83D00002010BD70474A
:10C490007047000010B50446022249B104290ED0AD
:10C4A000082913D094F84100012816D0012010BDAE
:10C4B00094F83E000128F9D184F83E200FE094F86A
:10C4C0003F000128F2D184F83F2008E094F84000B2
:10C4D0000128EBD184F8402001E084F841200122BA
:10C4E000206802F077FC13492068134A884201D083
:10C4F000904203D1436C43F4004343642068884274
:10C500000DD090420BD0B0F1804F08D00B4988423B
:10C5100005D00B49884202D00A49884204D181687B
:10C5200001F00701062903D0016841F00101016013
:10C53000002010BD002C01400034014000040040E8
:10C5400000080040000C004030B5044600680D00B3
:10C5500006D0042D08D0082D38D00C2D08D139E094
:10C56000C16821F0020102E0C16821F00401C1604C
:10C5700000222946206802F02DFC1D4B41F21111CA
:10C5800020688A10984202D01A4B984209D1036A57
:10C590000B4206D1036A134203D1436C23F40043D8
:10C5A00043642068036A0B4206D1016A114203D139
:10C5B000016821F00101016001207DB1042D10D03E
:10C5C000082D11D084F84100002030BDC16821F051
:10C5D0000801CCE7C16821F01001C8E784F83E00EB
:10C5E000F2E784F83F00EFE784F84000ECE7000052
:10C5F000002C01400034014010B5044600680B498E
:10C60000884201D1FEF7B2FF09492068884201D172
:10C6100005F0E6FE07492068884206D102F0F4FCE6
:10C62000BDE810400448FFF703BD10BD002C0140D9
:10C630000008004000100040D0140020704738B5BA
:10C64000044690F83E0020281CD181B17AB194F8BC
:10C650003C00012816D0012084F83C0020632046CD
:10C6600003F0BCF8002803D1216B012901D001207F
:10C6700038BD21680A684A680092CA6842F0100210
:10C68000CA6038BD022038BD704710B50446006846
:10C69000416994F83D20C1F3C011212A0BD151B159
:10C6A000416921F080014161606B08B1FEF798F9A2
:10C6B000204602F0D3FF2068416994F83E20C1F380
:10C6C0008011222A0BD151B1416921F04001416111
:10C6D000A06B08B1FEF784F9204602F0A7FF002006
:10C6E00010BD10B5040014D0242084F83D0020684B
:10C6F000C16821F40051C160204600F081F900209A
:10C70000206484F83D0084F83E0044F8300F207324
:10C7100010BD012010BD00007CB5054600208DF83D
:10C72000000028680168C943090725D401684068EA
:10C73000019001226946284600F071FB0F482C68E1
:10C7400084420AD1861531460D48FBF782FD2068E8
:10C75000606832460A4901900BE00A4884420BD1D6
:10C7600040210948FBF775FD2068606806494022B2
:10C770000190284600F03EFB7CBD000000480040D0
:10C78000C44E0020004C0040D8420020F8B502689A
:10C7900004461068D168536910F00F0F4FF0000580
:10C7A00053D003F0010601F49077374360D0C207FD
:10C7B00005D0CA0503D5226C42F00102226442076B
:10C7C00005D5DA0703D0226C42F002022264820708
:10C7D00005D5DA0703D0226C42F004022264020776
:10C7E00007D501F02002324303D0226C42F0080248
:10C7F0002264226C002A3AD0800604D5880602D52D
:10C80000204602F034FF20684069216CC0F380109C
:10C81000090700D438B3204602F008FF20684169B8
:10C8200049061BD5416921F040014161A06BA8B1C7
:10C8300059494163A06BFEF7F7F8002817D0A06BA9
:10C84000416B01B0BDE8F0400847830610D58B0668
:10C850000ED52046BDE8F84002F009BF2046BDE8ED
:10C86000F840FFF759BF2046FFF756FF2564F8BD93
:10C87000266B2023012E52D1C60650D5CE064ED5AA
:10C88000106850680090506940062AD5A16B08686E
:10C8900040680004000CEAD0A68D8642E7D9E08506
:10C8A0008869202818D0D06820F48070D060206873
:10C8B000416921F0010141612068416921F0400195
:10C8C000416184F83E3025632068C16821F0100181
:10C8D000C160A06BFEF784F8A08DE18D401A81B293
:10C8E00019E0A08DE18D401A81B2E08D0028BED004
:10C8F0000029BCD0D06820F49070D06020684269D4
:10C9000022F00102426184F83E3025632068C2684B
:10C9100022F01002C2602046FFF7B6FEF8BD050601
:10C920002BD50D0629D594F83D002128F6D1A06815
:10C93000B0F5805F01D12069B0B1206A411C21624D
:10C94000216800784860E08C401E0004000CE08400
:10C95000E4D12068C16821F08001C1602068C1680D
:10C9600041F04001C160F8BD206A0088C0F30800B2
:10C970005060206A801C2062E5E74006F3D5480637
:10C98000F1D5D168204621F04001D16084F83D30D6
:10C9900000F04FFBF8BD000061F5000870B5040021
:10C9A00004D094F83D00002510B106E0012070BDD0
:10C9B00084F83C50204600F089F8242084F83D009B
:10C9C0002068C16821F40051C160204602F0AAFE2F
:10C9D0002068016921F4904101612068416921F0DA
:10C9E0002A0141612068C16841F40051C160256499
:10C9F000202084F83D0084F83E00002070BD000037
:10CA000070B50446274D0368274A28484FF4406113
:10CA1000AB420AD1D36923F40023D361FEF7E4FAD1
:10CA2000A06BFEF799F8342037E0214DAB420CD1D2
:10CA3000D16921F48011D1619914FEF7D5FA04214E
:10CA40001C48FEF7D1FA352027E01B4D1B48AB42AE
:10CA500009D1916921F4804191614FF4C061FEF7E1
:10CA6000C3FA252019E0164DAB4208D1D16921F453
:10CA70000031D1610C21FEF7B7FA26200DE01148F4
:10CA800083420ED1D06920F48020D0610E48FEF799
:10CA9000ABFAA06BFEF760F82720BDE87040FEF708
:10CAA000F8BD70BD004C0040001002400010014075
:10CAB00000500040001401400038014000080140CF
:10CAC0000044004000480040000C01402DE9F04FB8
:10CAD00085B00024009401940294039405460168F3
:10CAE0008848874A0615DFF820924FF002084FF475
:10CAF000006A4FF0800B914237D1C16941F40021A7
:10CB0000C161C16901F400210491816941F0100102
:10CB100081618069CDE9006800F01000CDE90380F3
:10CB200069464846FEF7F0FACDF800A0CDE9014885
:10CB300069464846FEF7E8FA754E7448C6E90004AF
:10CB4000C6E9024B34617461B4613046F461FEF7AA
:10CB500067F908B1FDF76DF9AE63002206213420B4
:10CB60007562FEF7B5FD342032E06A4A042791422F
:10CB700033D1C16941F48011C161C16901F48011EF
:10CB80000491816941F010018161816901F0100116
:10CB90000491816941F0200181618069694600F05A
:10CBA000200004909014CDE900084846CDF80C8090
:10CBB000FEF7AAFACDE9007469465748CDF8088017
:10CBC000FEF7A2FA012204213520FEF781FD35206F
:10CBD000FEF770FD05B0BDE8F08F504ADFF84091D8
:10CBE000914227D1816941F480418161816901F4D9
:10CBF00080410491816941F0040181618069694645
:10CC000000F0040004905015CDE900084846CDF826
:10CC10000C80FEF779FACDE9006469464846CDF804
:10CC20000880FEF771FA002206212520FEF750FD4C
:10CC30002520CDE73B4A914224D1C16941F400311E
:10CC4000C161C16901F400310491816941F00401BD
:10CC500081618069CDE9007800F00400CDE90380AE
:10CC600069464846FEF750FA08208DE811016946EA
:10CC70004846FEF749FA002204212620FEF728FD47
:10CC80002620A5E7284A9142A4D1C16941F4802118
:10CC9000C161C16901F480210491816941F00801F9
:10CCA00081618069CDE9006800F00800CDE903806A
:10CCB0001E4E69463046FEF727FACDF800A0CDE9B2
:10CCC000014869463046FEF71FFA114E18484436AF
:10CCD000C6E90004C6E9024B34617461B4613046B0
:10CCE000F461FEF79DF808B1FDF7A3F8AE630022EA
:10CCF000052127207562FEF7EBFC272068E700007E
:10CD0000004C00400010024000100140300402407E
:10CD1000FC17002000500040001401400038014082
:10CD2000000801400044004000480040000C014061
:10CD3000300002402DE9F84F044690F83E009A4634
:10CD400016460D46202853D1FDB1F6B194F83C00AB
:10CD500001284DD0012084F83C00002727642220C0
:10CD600084F83E002763FEF7D5FAA6858146E6855E
:10CD7000A0684FF48058404501D1206940B12E464B
:10CD80005FF0000584F83C7027E00120BDE8F88FD3
:10CD90000026F7E74B46002220212046CDF800A0D0
:10CDA00002F06FFD08B10320F0E726B1A06840450E
:10CDB0001BD038B108E020684068C0F3080025F8AF
:10CDC000020B07E0206980B12068406800F07F0016
:10CDD00006F8010BE08D401EE085E08D0028D9D1DA
:10CDE000202084F83E000020D0E720684068EFE76C
:10CDF0000220CBE790F83E30202B0ED159B152B132
:10CE000090F83C30012B08D0012380F83C300023FF
:10CE1000036302F0E3BC012070470220704790F8E2
:10CE20003E30202B0ED159B152B190F83C30012B3D
:10CE300008D0012380F83C300023036302F006BDD4
:10CE40000120704702207047F8B506460068434944
:10CE5000884208D14248007805F092FB01224049FF
:10CE60004048FFF7DCFF3E4C3F4930680127641E15
:10CE7000002588422AD120893A49020401F144015F
:10CE800017D404F102024304127804D50A2A0CD103
:10CE900040F400402CE00D2A28D0C0F30D03401CC4
:10CEA00080B2CA542081632800D9258120890004DA
:10CEB0000CD5277008782D49096808802089C0F3AF
:10CEC0000D0128484430FBF7C4F925812849306812
:10CED00088422DD1E08801041FD42149420401F188
:10CEE0000201097809D50A2913D103E040F48040F2
:10CEF0002081DBE740F400402CE00D2928D0C0F36E
:10CF00000D02184B401CEC3380B29954E08063282A
:10CF100000D9E580E08800040AD52770E08811492F
:10CF2000C0F30D02EC3101F1EC00FBF779F9E5807B
:10CF30001049306888420FD10F4800680168406886
:10CF400000900748C01C0078BDE8F84002F06ABDB8
:10CF500040F48040E080DDE7F8BD00000044004080
:10CF6000710000205C1500200048004010020020E5
:10CF7000004C004000500040F016002070470000B8
:10CF80002DE9F843044690F83D001F4616460D462D
:10CF900020284CD1C5B1BEB194F83C00012846D040
:10CFA000012084F83C004FF00008C4F840802120A4
:10CFB00084F83D00FEF7AEF9A6848146E684A068B9
:10CFC000B0F5805F03D004E00120BDE8F88320695C
:10CFD00028B12E465FF0000584F83C800EE0002664
:10CFE000FAE78021204602F04CFCA0B9AEB116F859
:10CFF000010B21684860E08C401EE084E08C4B46C9
:10D000004FF0000200970028EBD14FF0400120467E
:10D0100002F037FC30B10320D7E735F8020BC0F33C
:10D020000800E6E7202084F83D000020CDE702203C
:10D03000CBE77047FEE7000070B538B1012809D092
:10D040001B4C212816D0232820D070BDBDE870408D
:10D0500000F00EBF174C20680068C16821F4005131
:10D06000C16000F04FFE20680068C16841F40051C3
:10D07000C16070BD104DB5F8420010B1002001F044
:10D080003FFCB5F8440008B901F076FD01F0B0F8B6
:10D0900058B1022001F0A2FC2068007800F074FF73
:10D0A000BDE87040032001F011BC0020F6E700004D
:10D0B000F8010020A8010020C446002010B5FDF7AB
:10D0C00053F9112801D0012010BD002010BD00002F
:10D0D00003484078022801D30120704700207047A0
:10D0E0002808002038B501F0B5FD08B1002038BD92
:10D0F000FDF734F90446FDF701F805463049FBF722
:10D1000002F9FBF71BFB01B22E48ADF800100068D6
:10D1100002888A4200D001802B480078322801D250
:10D1200044F400742948854202D144F0400422E0CE
:10D130002748854202DB44F020041CE025492648AC
:10D140008D4209DB8168092901D2491C0AE0FDF7FB
:10D1500011F980B902200CE020498D420BDC816876
:10D1600011B10021816006E0FDF704F9022802D127
:10D17000002001F0F1FB1A4D29680888A04202D076
:10D1800000B134B10C80286800880028AFD001209D
:10D1900038BD4FF48074A04203D100BFFCF78CFB74
:10D1A000F1E7104800780128F1D1FFF791FF18B19D
:10D1B00028680088A042EAD1FBF79AFDEEE700005C
:10D1C000000020412C060020E20100200000C8C21F
:10D1D0000000A04200008C42A40600200000824211
:10D1E00020060020DE01002070B5012001F006FCC1
:10D1F000214C58B1216A2069421AB2F5616F3AD9BF
:10D20000884238D9BDE8704001F0B6BC20780228C9
:10D210000BD2C00704D00120607100F0FBF927E0B9
:10D220000020607100F010F922E000206071FBF72F
:10D2300021FD02F0D1FB1148114D0068008806283D
:10D2400004D110482968006800884880022001F055
:10D25000C5FB0D482A6801680988118000680078BC
:10D2600000F092FE00F0F0F8FCF778F80020207053
:10D270002078401C207070BD28080020180600206F
:10D2800014060020FC010020F8010020401E0428A4
:10D2900001D801207047002070471438502801D869
:10D2A000012070470020704741F25C7114388842B9
:10D2B00001D801207047002070470000FBF72EFEC8
:10D2C0000448FEF74CF9FBF7DBFD142004F0F2FDF7
:10D2D000F6E70000A41300202DE9F04100250B4ED5
:10D2E0002C46012706EBC400818856F83400FEF76F
:10D2F00007F818B907FA04F02843C5B2641CE4B271
:10D30000042CEFD32846BDE8F0810000C8070020B8
:10D310002DE9F0411E4617460C46C0B2FCF74CFD05
:10D320003C25B4FBF5F06421B0FBF1F201FB1200E7
:10D33000FCF7E4FCB4FBF5F005FB1040FCF727FD1F
:10D3400001F0F6FB08B1002003E001F009FC18B180
:10D350003046FCF7E8FC02E0FF20FCF737FC3846DB
:10D36000BDE8F041AFF3008010B5044600F00101C4
:10D37000042001F051FF04F00201052001F04CFFF0
:10D3800004F00401032001F047FF04F0080101202C
:10D3900001F042FF04F01001BDE81040022001F04E
:10D3A0003BBF000070B514460D46064601F02AFC4E
:10D3B00000281ED0FCF7C6FD0122D1030D48FDF761
:10D3C000A4FF05F0EFF93046FCF71EFD2846FCF7F8
:10D3D000BAFC094800EB440030F8020CFCF777FC7B
:10D3E0000020FFF7C1FF01F03FFEBDE8704005F0EF
:10D3F000F9B970BD00080140B406002070B50446BC
:10D40000FF20FCF7F4FB3C25B4FBF5F06421B0FBF6
:10D41000F1F201FB1200FCF771FCB4FBF5F005FB27
:10D420001040BDE87040FCF7B2BC000010B500220F
:10D430004FF400410348FDF768FFBDE8104001F0DC
:10D44000D1BE00000008014010B501F003FC002827
:10D450002DD101F0D7FB002829D101F017FC0028BD
:10D4600025D113480078AA2821D00122D1031148E0
:10D47000FDF74BFF01F0EEFB002818D101F0C2FBD5
:10D48000002814D105F08EF90B480E4A0068127876
:10D4900003780A4800680188094800680088FFF797
:10D4A00037FF01F0E1FDBDE8104005F09BB910BD6C
:10D4B000AC07002000080140F4010020FC0100201E
:10D4C000F8010020DC01002070B50D46044601F093
:10D4D000C1FB00281ED00122D1030F48FDF715FF24
:10D4E00005F060F92046FCF7A4FB2846FCF7C5FBD5
:10D4F000FCF794FB042C0BD0052C09D05FF0000046
:10D50000FFF732FF01F0B0FDBDE8704005F06AB9E9
:10D510001020F5E770BD00000008014070B504461A
:10D5200005F040F90021072001F076FE4121072097
:10D5300001F0A4FE2146062001F0C8FE0D4C3C255A
:10D54000642120680088B0FBF5F0B0FBF1F201FB2C
:10D550001200FCF7D3FB20680088B0FBF5F105FB57
:10D560001100FCF714FC01F07FFDBDE8704005F0F0
:10D5700039B90000FC01002070B50D4604460122B7
:10D58000D1032348FDF7C1FE05F00CF964204543A3
:10D59000B5FBF4F0C0B2FCF70FFC0121052001F04F
:10D5A0003BFE0121042001F037FE0021012001F0A3
:10D5B00033FE0021022001F02FFE0021032001F0A4
:10D5C0002BFE0A25B4FBF5F0B0FBF5F105FB1101CC
:10D5D000052001F07BFEB4FBF5F005FB10410420B3
:10D5E00001F074FE5521002001F048FE5021012079
:10D5F00001F044FE6421022001F040FE412103209D
:10D6000001F03CFE01F030FDBDE8704005F0EAB8E5
:10D610000008014010B505F0C5F808480949006840
:10D6200009780278064800680088FFF7E7FE01F0F5
:10D630001BFDBDE8104005F0D5B80000F401002046
:10D64000FC010020DC01002070B50122D1031E483E
:10D65000FDF75BFE5321072001F010FE4A21062052
:10D6600001F00CFE0121002001F030FE022101201A
:10D6700001F02CFE0021022001F028FE00210320F1
:10D6800001F024FEFCF7D4FE104D0A242870B0FBF4
:10D69000F4F0B0FBF4F104FB1101052001F016FEDB
:10D6A0002878B0FBF4F104FB1101042001F00EFE18
:10D6B0000020FFF759FE0021072001F0ADFDBDE875
:10D6C000704001F0D1BC000000080140DE010020E4
:10D6D00070B50446134DC00701D0012200E00022BE
:10D6E00008212846FDF711FEA00701D5012200E020
:10D6F000002204212846FDF708FE600701D501221B
:10D7000000E0002202212846FDF7FFFD200701D599
:10D71000012200E000222846BDE870400121FDF70B
:10D72000F4BD00000010014040F2FF220149024810
:10D7300001F040B8C44600200079000840F2FF2202
:10D740000149024801F044B8C446002000790008AD
:10D750003EB5002411480094019402940E4984605F
:10D76000016004730475012505614FF46021446074
:10D77000C161FCF769FF08B1FCF75BFB0520CDE94F
:10D780000005694602940548FCF7DAFE002801D03E
:10D79000FCF74FFB3EBD0000002801402013002095
:10D7A0000EB56946009001200190072002900248C2
:10D7B0004068FCF7C5FE0EBD88070020114808B57B
:10D7C000416941F001014161416901F001010091AC
:10D7D000416941F0020141614069002200F002000C
:10D7E000009005210D20FDF773FF0D20FDF762FF6E
:10D7F000002205213A20FDF76BFFBDE808403A20E2
:10D80000FDF758BF0010024010B5AAB01C222149F4
:10D810006846FAF705FD0021684604F057FB1E4CE8
:10D820001C491C2220601C3107A8FAF7F9FC0021D2
:10D8300007A804F04BFB174960601C2238310EA882
:10D84000FAF7EEFC00210EA804F040FB1149A0609D
:10D850001C22543115A8FAF7E3FC002115A804F0A6
:10D8600035FB0C49E0601C2270311CA8FAF7D8FC8B
:10D8700000211CA804F02AFB064920611C228C31DF
:10D8800023A8FAF7CDFC002123A804F01FFB606158
:10D890002AB010BDD4310108500000202DE9F04F0E
:10D8A00085B0002435480094019402940394816962
:10D8B00041F010018161816901F0100104918169D9
:10D8C00041F020018161816901F0200104918169A9
:10D8D00041F004018161816901F0040104918169D1
:10D8E00041F0080181618069DFF8949000F0080040
:10D8F000049000224F214846FDF707FDDFF884A081
:10D900004DF23407002239465046FDF7FEFCDFF8A1
:10D9100078B04FF41048002241465846FDF7F5FC18
:10D920004F2001250226CDE90005CDE902466946D2
:10D930004846FDF7E9FB4FF46C708DE8310069460D
:10D940004846FDF7E1FB00970396CDE9015469468F
:10D950005046FDF7D9FB28028DE83100694658464C
:10D96000FDF7D2FBCDF800800396CDE9015469465E
:10D970005846FDF7C9FB05B0BDE8F08F0010024026
:10D9800000100140000C0140000801400D4810B596
:10D990000B4901600C49416000214FF480428160D5
:10D9A000C0E9031241618161C1610162FDF7B8FC08
:10D9B000002803D0BDE81040FCF73BBA10BD0000C2
:10D9C0000054004050130020A0860100094810B503
:10D9D000074901600221416040F6FF718160FDF757
:10D9E00091FD002803D0BDE81040FCF722BA10BD1D
:10D9F00000300040A413002030B58DB000250795FD
:10DA0000089509950A950B951C2168460C95FAF71F
:10DA100020FC284C4FF08040206027480188C4E952
:10DA200001154088C4E903052046A561FEF73EFACA
:10DA300008B1FCF7FEF94FF48050079007A91D4884
:10DA4000FEF70EFB08B1FCF7F4F91A48FEF7F2FCFA
:10DA500008B1FCF7EEF90B950BA916480C95FEF7EB
:10DA6000E7F908B1FCF7E5F96020CDE900050220EF
:10DA700002900022694604950E48FEF778FC08B132
:10DA8000FCF7D7F9042269460A48FEF770FC08B192
:10DA9000FCF7CFF900210748FEF756FD20684563E3
:10DAA00000210448FEF7F6FC0248FEF7F9FB0DB032
:10DAB00030BD0000B01300206800002010B58EB00B
:10DAC00000240794089409940A940B941C21684636
:10DAD0000C94FAF7BEFB1E481C4901601D498A8858
