:020000040800F2
:10800000503C0020DD810008E1CE000899C1000845
:1080100095CB00087991000829DF000800000000D6
:108020000000000000000000000000004581000882
:108030005594000800000000898100080DD1000857
:10804000F7810008F7810008F7810008F781000830
:10805000F7810008F7810008F7810008F781000820
:10806000F7810008F7810008F7810008F781000810
:10807000F7810008D5930008F7810008F781000810
:10808000F7810008F7810008F7810008F7810008F0
:10809000F7810008F7810008F7810008F7810008E0
:1080A000F7810008F9D20008F7810008F78100087D
:1080B000F7810008F781000805D30008F781000860
:1080C000F7810008F7810008F7810008F7810008B0
:1080D000F781000861DE00088DDE000899DE0008E7
:1080E000F7810008F7810008F7810008F781000890
:1080F000F7810008F7810008F7810008F781000880
:10810000F7810008F781000811D30008F781000803
:108110005DDA000891DA0008F7810008F7810008AD
:10812000F7810008F7810008E1930008F781000853
:10813000DFF80CD000F004FC004800472DF10008E7
:10814000503C0020224B19680868B0E8F00F80F31B
:108150000988BFF36F8F4FF0000080F311884EF055
:108160000D0E70470000000006480068006880F3AC
:10817000088862B661B6BFF34F8FBFF36F8F00DF21
:1081800000BF00BF08ED00E0EFF30980BFF36F8F81
:108190000F4B1A6820E9F00F106008B54FF050003F
:1081A00080F31188BFF34F8FBFF36F8F07F0BEFED0
:1081B0004FF0000080F31188BDE808401968086896
:1081C000B0E8F00F80F30988BFF36F8F704700BFEE
:1081D00088000020EFF305807047000006488047C4
:1081E00006480047FEE7FEE7FEE7FEE7FEE7FEE79C
:1081F000FEE7FEE7FEE7FEE7B5D1000831810008A3
:10820000202A04DB203A21FA02F00021704721FAEB
:1082100002F3D040C2F12002914008431946704752
:1082200040EA01039B0703D009E008C9121F08C0F8
:10823000042AFAD203E011F8013B00F8013B521E78
:10824000F9D27047D2B201E000F8012B491EFBD2EF
:1082500070470022F6E710B513460A460446194651
:10826000FFF7F0FF204610BD421C10F8011B00294B
:10827000FBD1801A7047F0B480EA0102D40F4200AB
:10828000B2EB410F02D20246084611464A0042D0E4
:10829000C30DDDB2C1F3C752AD1A202D35DAC1F3DB
:1082A000160141F4000204B15242C5F1200602FA5F
:1082B00006F12A411044B3EBD05F23D0C4B1012DA5
:1082C000A0EBC35009DCF0BC4FF0004202EAC352FD
:1082D000DBB200F5000000F062B9400000F18070F0
:1082E00000EBC350A0F1807040EAD170490009E072
:1082F000490841EAC071A0EBC35000F500004008F6
:1083000000EBC350F0BC00F041B96142012202EB26
:108310004101001BF6E7F0BC704781F00041AAE77D
:1083200080F00040A7E730B480EA010202F0004587
:1083300030F0004221F0004013D090B1C30DD40DB5
:10834000C2F31601C0F31600E41A41F4000140F430
:1083500000027D34914201D3641C00E04900002CEE
:1083600002DA30BC002070474FF400000023914235
:1083700001D3891A034340084FEA4101F7D151B1B3
:10838000914202D14FF0004105E002D24FF00101CD
:1083900001E06FF0010103EBC450284430BC00F051
:1083A000F5B82DE9FE4F81EA030404F0004421F002
:1083B000004100944FF0000B23F0004350EA010409
:1083C0005ED052EA03045BD0C3F30A54C1F30A55EA
:1083D0002C44A4F2F3340194A0FB0254C1F3130122
:1083E00041F48011C3F3130343F4801301FB0244EF
:1083F00000FB034E840A970A44EA815447EA8357F4
:10840000A4FB076802958D0A05FB07854FEA932CAC
:1084100004FB0C542705029D4FEA065847EA16371D
:10842000B5EB08056EEB070C870E920E47EA811735
:1084300042EA8312A7FB0201B6EB0B0164EB0004D6
:108440002B0D43EA0C335E1844EB1C50DA465146C0
:10845000E7FB0201C5F313044FEA0B3343EA14535D
:108460004FEA0432019C43EA0603A4F10C0402948F
:10847000009CCDE900B400F0CFF803B0BDE8F08F68
:1084800000200146F9E70EB540F233410291002188
:10849000CDE900110A460B4600F0BEF803B000BD5E
:1084A00000F0004230F000400AD0C10D01F56071CB
:1084B000C0F3160042EA0151C20840071143704759
:1084C00000200146704701F0004330B421F0004124
:1084D00050EA010206D00A0DA2F56072C1F3130141
:1084E000002A02DC30BC00207047440F44EAC1047B
:1084F000C100E01830BC00EBC25000F047B830B506
:108500000B46014600202022012409E021FA02F551
:108510009D4205D303FA02F5491B04FA02F52844EB
:10852000151EA2F10102F1DC30BD2DE9F05F054618
:10853000002092469B4688460646814640241BE022
:108540002846414647462246FFF75AFE53465A46BA
:10855000C01A914110D311461846224600F002FA83
:108560002D1A67EB01084F4622460120002100F03A
:10857000F9F917EB00094E41201EA4F10104DFDCDC
:10858000484631462A464346BDE8F09F0029A8BF29
:108590007047401C490008BF20F00100704710B42C
:1085A000B0FA80FC00FA0CF050EA010404BF10BCE1
:1085B000704749B1CCF1200421FA04F411FA0CF10E
:1085C00018BF012121430843A3EB0C01CB1D4FEA47
:1085D00000614FEA102042BF002010BC704700EB42
:1085E000C35010440029A4BF10BC7047401C490070
:1085F00008BF20F0010010BC704710B5141E73F1C5
:10860000000408DA401C41F1000192185B411A4352
:1086100001D120F0010010BD2DE9F04D92469B469E
:1086200011B1B1FA81F202E0B0FA80F22032904644
:1086300000F098F904460F4640EA0A0041EA0B01AF
:1086400053465A46084313D0114653EA010019D045
:10865000C8F140025046FFF7D3FD05460E4650468E
:108660005946424600F07EF9084305D0012004E057
:1086700020463946BDE8F08D0020054346EAE07605
:108680002C4337430A986305E40AA0EB0800002254
:10869000FD0A44EA47540A3002D500200146E9E7C2
:1086A000010510196941DDE9084500196941BDE876
:1086B000F04DA2E72DE9FE4F804681EA0300C00F8E
:1086C0000C46009021F0004123F00045B8EB020079
:1086D000A94105D24046214690461C460B4602461B
:1086E00023F00040104347D0270DC7F30A00C3F31F
:1086F0000A510290401A019040286BDAC3F313002C
:1087000040F4801B0098924620B10023D2EB030A6C
:1087100063EB0B0B01985946C0F14002504600F044
:1087200021F906460D4650465946019A00F029F9AE
:1087300010EB08006141002487EA115284EAE773D4
:108740001A4340D0009A62B3019A012A4FEA0752B5
:1087500015DC001B61EB02014FF0004202EA0752F8
:10876000CDE90042001C41F5801132462B46FFF74F
:1087700053FF03B0BDE8F08F40462146F9E7001BE8
:1087800061EB0201001C41F5801300185B412018C9
:10879000A2F5001747EB030140EAD570B6196D4109
:1087A00011E06D084FEA360645EAC0754FEA0752F8
:1087B000001B61EB0201001C41F5801149084FEAE2
:1087C00030000019514132462B4603B0BDE8F04F4E
:1087D000FFF713BF0098012240000023D0EB0202F4
:1087E00063EBE073009821464FEAE074B8EB0000B9
:1087F00061EB0401E9E783F000435BE781F00041AE
:1088000058E72DE9F04D81EA030404F0004B21F014
:10881000004514464FF0000A23F0004150EA0502DB
:1088200020D054EA01021DD0C5F30A570246C5F311
:108830001303C1F31300C1F30A5640F4801543F447
:108840008013A7EB0608101BD64608F2FD3873EB21
:10885000050002D308F1010801E092185B41B8F16C
:10886000000F03DA00200146BDE8F08D00204FF430
:108870008011064684460EE0171B73EB050705D3EF
:10888000121B63EB050306434CEA010C49084FEA4F
:10889000300092185B4150EA0107EDD152EA030023
:1088A00012D082EA040083EA0501084305D0101BB8
:1088B000AB4106D20122002306E000224FF0004324
:1088C00002E06FF0010253101AEB06004CEB085166
:1088D00010EB0A0041EB0B01BDE8F04DFFF78DBE38
:1088E000C1F30A52C1F3130140F2FF3341F4801186
:1088F0009A4202DA00200146704740F233439A421E
:10890000A2F2334202DC5242FFF77ABC00F02AB8EE
:1089100030B5041E71F1000404DB4FF00044404206
:1089200064EB0101141E73F1000405DB1C464FF0DB
:108930000043524263EB0403994208BF904230BDAA
:10894000064C074D06E0E06840F0010394E807009C
:1089500098471034AC42F6D3FFF7EEFB0C0A01083F
:108960002C0A0108202A04DB203A00FA02F1002038
:1089700070479140C2F1200320FA03F3194390405D
:108980007047202A06DBCB17203A41FA02F043EA6F
:10899000E07306E041FA02F3D040C2F120029140B8
:1089A00008431946704770B58C1810F8015B15F034
:1089B000070301D110F8013B2A1106D110F8012B51
:1089C00003E010F8016B01F8016B5B1EF9D12B0776
:1089D00005D40023521E0DD401F8013BFAE710F82C
:1089E000013BCB1A921C03E013F8015B01F8015B19
:1089F000521EF9D5A142D8D3002070BD70B50446EF
:108A000000688168C943C90717D1816821F0010155
:108A1000816001F05FFE05460AE000BF01F05AFEEA
:108A2000401B022804D920688068C043C00706D0D4
:108A300020688068C043C007F0D0002070BDA06AE5
:108A400040F01000A062E06A40F00100E062012006
:108A500070BD0000F8B500260446009600688168E5
:108A6000C943C9072DD0816841F0010181601648D2
:108A700016490068B0FBF1F000E0401E00900028AD
:108A8000FBD101F027FE054616E000BF01F022FEF3
:108A9000401B022810D920688068C043C0070BD053
:108AA000A06A40F01000A062E06A40F00100E062BD
:108AB00084F824600120F8BD20688068C043C007A6
:108AC000E4D10020F8BD00008400002040420F00E7
:108AD00070B5174C0025A1886088814206D000B18E
:108AE0006580608800F036FB6088A08004F0E8FBB9
:108AF000012630B904F0D6FB70B1022004F0E4FA8C
:108B000050B1207810B1608820B101E0267070BDAE
:108B1000608070BD257070BD04F0ACFB0028F0D102
:108B2000044800780028F6D160880028F0D170BD94
:108B30006C04002065030020002000F00BBB000047
:108B400010B500F021FF074800210170417000F0CE
:108B500035FB03F0FFFC04F051FDBDE8104004F0CC
:108B600040BD0000D80100200B4810B50021017065
:108B70004170416942680A60816982680A60826A5C
:108B8000052111808A0100F12C01C068FFF748FB24
:108B9000BDE8104003F0DEBCD801002010B508216C
:108BA000042000F071FE0149486010BDB8030020A8
:108BB0002DE9F0472E4DA868401CA86003F088FB03
:108BC0002870D5E9020143F698221144884202D95F
:108BD000012004F0C9FD0024254EDFF89890264FAF
:108BE0001036A046305D2978884232D1A868E86006
:108BF000002004F0B9FD305D6978084257F8240080
:108C000014D0401C47F82400962824D399F800007B
:108C1000102807D0112807D01548583050F82400E4
:108C2000804718E01548F9E71548F7E708B904F058
:108C3000CCFC99F8000008B904F010FA99F800008B
:108C4000102810D0112810D00948383050F82400CE
:108C5000804747F82480641CE4B2082CC2D32878EB
:108C60006870BDE8F0870748F0E70748EEE70000C6
:108C70007404002065030020C43100209803002004
:108C8000E003002078030020C003002010B50F206F
:108C900003F034FCBDE8104004F0B2BA70B5134CD8
:108CA0000A256088B0FBF5F105FB110008B903F057
:108CB000DDFF6088B0FBF5F105FB1100062801D14E
:108CC00003F0C8FF6088B0FBF5F105FB1100052833
:108CD00001D104F045F8608842F21071884201D257
:108CE000401C00E00020608070BD00000C050020EA
:108CF00010B50021032000F0DDFD094C012160804A
:108D0000032000F0D7FDA0800221032000F0D2FD57
:108D1000E0800421032000F0CDFD208110BD000083
:108D2000680300202DE9F041934D42F210710026B6
:108D30006868401C6860884200D96E6028798F4C52
:108D4000C00727D004F0B8F848B12078012140F0DE
:108D500008002070084604F017FD04F07BFC05F0C5
:108D6000E7F8012805D005F0E3F8032808D0BDE8AE
:108D7000F08169680520B1FBF0F200FB1210C0BB66
:108D80002078410703D440F00400207031E020F047
:108D90000400FAE72078002120F00800207001206C
:108DA00004F0F2FC04F056FC03F044FA38B100F091
:108DB00067FE1128DBD0BDE8F04104F085BD04F06A
:108DC00041FA6F4FDFF8BC816F4C98B3012004F07B
:108DD0007BF90028CBD12878401CC0B22870062827
:108DE0000BD2C10705D0012803D9BDE8F04103F03B
:108DF0006DBBBDE8F04103F01FBB05F067F82068CC
:108E000098F8001004F066F998F80000062802D1DE
:108E1000396860884880022004F056F958B13968F2
:108E200020880880207803F087FF03F005FB00F01E
:108E300007F909E00AE000F029F9142060802078A1
:108E400003F07AFF03F0F8FA2E7090E704F038FA96
:108E500068B16088401E608003F0EEFA60880028E8
:108E600085D100F0EDF8386840886080C1E704F0F3
:108E700019FAE8B398F80000032804D008280ED0A7
:108E80000D281AD03FE06088401C608003F0D4FABF
:108E9000608841F27071884235D3668033E0608823
:108EA000401E608003F0C8FA608860BB00F014F9CF
:108EB000364800684088608023E06088344D401C5C
:108EC0006080287803F0E4F9D8B1324E28786788BA
:108ED000316800EB800001EB00122F49087802EBAB
:108EE000800333F84E3CBB420BD8132819D000E066
:108EF00020E0401CC0B2087002EB800030F8500C3B
:108F0000208003F099FA03F0E5FE00289DD00220AE
:108F100004F0DAF8002898D0BDE8F041022004F00F
:108F2000CBB800F0D9F82878316800EB800001EB6D
:108F30000010E3E704F09EF928B160880028E6D02D
:108F4000401E60800EE004F0C9F90028DED02878C9
:108F5000401CC0B22870042807D2C00702D003F01A
:108F60005DFAD4E703F068FAD1E7012004F0C8FC09
:108F700003F062FA2E70CAE7EC04002064030020BC
:108F80004403002065030020E8010020F0010020D8
:108F9000D8010020E4010020D9010020014902206D
:108FA000087070476403002000B5012004F084F8C5
:108FB00004F048F900280CD104F082F90C4910B1F2
:108FC0000878401E04E004F06DF918B10878801E9E
:108FD000087000BD04F04EF910B10878C01EF7E724
:108FE00004F07CF90028F4D00878001FF0E70000B6
:108FF0006503002000B5012004F05EF804F022F9BA
:109000000E4910B10878C01C04E004F059F918B1F9
:109010000878801C087000BD04F044F910B108788D
:10902000401CF7E704F026F90028F4D104F056F9C3
:109030000028F0D00878401EECE70000650300200F
:1090400000B5012004F038F804F0FCF80E4910B126
:109050000878801C04E004F033F918B10878401C4B
:10906000087000BD04F01EF90028FAD104F002F9DE
:1090700010B10878401EF3E704F030F90028F0D072
:109080000878801EECE700006503002000B5012091
:1090900004F012F804F0D6F80E4910B10878401C1C
:1090A00008E004F00DF9002805D104F0FBF818B130
:1090B0000878401E087000BD04F0DCF810B1087894
:1090C000801EF7E704F00AF90028F4D00878C01EE3
:1090D000F0E700006503002000B5012003F0ECFF7D
:1090E00004F0B0F80D4910B10878001D04E004F058
:1090F000E7F818B10878C01C087000BD04F0D2F879
:1091000010B10878801CF7E704F0B4F810B10878C3
:10911000401CF1E75DF804EB04F0E0B865030020C3
:10912000012000F001B80000032801D801490870AF
:10913000704700006A040020FFF7FEFC044801F0BD
:10914000EEFBFFF7C5FC142006F0E0FAF6E700009E
:109150002010002010B504460421064802F054FBFC
:10916000044800688463BDE810400421014802F00F
:10917000F1BA00002C100020FEE7000030B5ADF57C
:10918000017D0D4604464FF400720B496846FFF717
:1091900047F80020694608E014F8012B82EA102203
:1091A00031F8122082EA002080B26D1EADB2F3D2F7
:1091B0000DF5017D30BD00000407010870B5324B8C
:1091C0005869008803F06BF810B958695968016054
:1091D0009869008803F063F820B19869408803F02B
:1091E00065F810B9986999680160D969152000245B
:1091F0000880196A04200880586A0480996A0888DF
:10920000401E082801D3052008809C704FF4A072EE
:10921000DC70987800EB8001D86800EB0110D978F9
:1092200030F8210003F03BF8D8B19878D96800EB0A
:10923000800001EB0010D97800EB8100408803F03A
:1092400035F870B1D87898B19978DD6801EB810173
:1092500005EB011101EB80014D8831F8021C8D42B4
:1092600006D8D868BDE8704007492C31FEF7D8BF52
:10927000401CC0B2D8701428CBD39878401CC0B220
:1092800098700428C4D370BDD801002010B50822FE
:10929000064B002133F81140844201D1012010BD5A
:1092A000491C89B29142F5D3002010BDFC04002076
:1092B000044800214268118001704170012004F0CF
:1092C0001FBB0000B8030020014900200870704750
:1092D000EC040020012803D0022803D1FFF720BFAF
:1092E00004F023BE7047C0B200F096B800F0A6B8F4
:1092F000014610B5000A11F0FF010BD001290DD075
:1093000002290ED104280CD204F070FBBDE81040F5
:1093100000F0AABA002004F0F3FAF7E704F042FBE9
:10932000F4E710BD10B538B103F0B2FF002807D044
:10933000BDE8104003F06EBFBDE8104003F060BF11
:1093400010BD000070B5204E204C142560B10128DE
:1093500015D002281ED003281BD1012004F0D0FA1A
:10936000BDE8704003F068B803F084FF002810D116
:10937000FFF740FE306821680160002007E003F03D
:1093800079FF002805D0FFF781FE30680088208033
:10939000658070BD03F010FF20B1BDE87040002073
:1093A00004F0AEBA03F014FF18B1BDE8704004F049
:1093B000F9BA03F019FF0028EBD005480078BDE8A2
:1093C000704004F013BB000044030020E8010020BB
:1093D000D8010020014800F06FBE0000A015002059
:1093E000014800F069BE00005C15002030B590F81F
:1093F00040500124AC40C56B6C60046863604368F6
:10940000102B036803D099600068C26030BD9A6079
:109410000068C16030BD0000074910B5088003F046
:109420008BFC03F03FFF002804D0BDE81040022071
:1094300003F03ABE10BD0000E801002010B504465C
:1094400003F03EFF002801D10148448010BD000018
:10945000E801002070470000074840680168CA68BA
:1094600042F01002CA6001684A6942F001024A6192
:109470004022024902F032BDD001002038310020E4
:1094800010B586B00446142211496846FEF7C8FE9E
:109490004FF4E130042C0FD0012C0FD0022C0BD054
:1094A000032C09D0052C07D0601E04280ED868466E
:1094B00000EB840050F8040C06B010BD05490220F2
:1094C000C9680880034810308068F5E70020F3E79A
:1094D000D0060108AC01002010B50021032000F0E7
:1094E000D3F90A4C01212060032000F0CDF9E0609F
:1094F0000120FFF7C5FF0021042000F0C5F96060DE
:109500000121042000F0C0F9A06010BDAC010020D2
:1095100010B50446800703D5FF21052004F08EF91D
:10952000E00705D0FF21BDE81040042004F086B913
:1095300010BD10B50446400703D50021072004F0F4
:1095400023F9A00703D5FF21072004F077F9E007EE
:1095500005D0FF21BDE81040062004F06FB910BD12
:1095600010B5FF21052004F069F9FF21BDE8104086
:10957000042004F063B970B50446642802D94FF0A2
:10958000640400E002D34FF0010101E04FF000015C
:109590004FF0070004F0F8F80A25B4FBF5F0B0FB33
:1095A000F5F105FB1101072004F048F9B4FBF5F0D3
:1095B00005FB1041BDE87040062004F03FB970B5CE
:1095C00004464FF47A70B4FBF0F00A25B0FBF5F1D5
:1095D00005FB1101002004F031F96420B4FBF0F028
:1095E000B0FBF5F105FB1101012004F027F9B4FBF4
:1095F000F5F000F00A01022004F020F9B4FBF5F0C8
:1096000005FB1041BDE87040032004F017B910B508
:1096100004464521002004F0E9F8C4F303210120A9
:1096200004F00CF9C4F30311022004F007F904F06C
:109630000F01BDE81040032004F000B970B50546E5
:109640000A24B0FBF4F0B0FBF4F104FB110100209C
:1096500004F0F4F8B5FBF4F004FB1051BDE87040E1
:10966000012004F0EBB810B504465021052004F0A9
:10967000BDF80A20B4FBF0F100FB1141BDE8104039
:10968000042004F0DBB870B50446642802D94FF01A
:10969000640400E002D34FF0010101E04FF000014B
:1096A0004FF0070004F070F80A25B4FBF5F0B0FBAA
:1096B000F5F105FB1101072004F0C0F8B4FBF5F04B
:1096C00005FB1041BDE87040062004F0B7B870B546
:1096D00005460A24B0FBF4F0B0FBF4F104FB1101E1
:1096E000022004F0ABF8B5FBF4F004FB1051BDE828
:1096F0007040032004F0A2B870B50446642802D973
:109700004FF0640400E002D34FF0010101E04FF09C
:1097100000014FF0070004F037F80A250A2C01D2A7
:10972000FF2105E0B4FBF5F0B0FBF5F105FB1101FD
:10973000072004F083F8B4FBF5F005FB1041BDE809
:109740007040062004F07AB870B505460A24B0FBD4
:10975000F4F0B0FBF4F104FB1101052004F06EF805
:10976000B5FBF4F004FB1051BDE87040042004F098
:1097700065B872B6FEE70000064A0021D1610649CD
:109780000A6942F002020A614861086940F040003B
:10979000086170473016002000200240044B002270
:1097A000DA61044A136943F00103136101807047D1
:1097B000301600200020024014480022C168CB0669
:1097C000134904D5CA6942F00202CA611022C36873
:1097D0005B0705D5CB6943F00103CB6142F004027E
:1097E000C369DB0707D0CB6943F00403CB61C169D0
:1097F00021F00101C161A2F58071013901D0C2607F
:109800007047C16921F00101C16170470020024029
:109810003016002070B5054600F05CFF0646114C7E
:1098200009E0681C07D025B100F054FF801BA84256
:1098300001D9032070BDE068C007F2D1E06880065E
:1098400001D52020E060E068C00605D4E069C007CB
:1098500002D1E068400703D5FFF7AEFF012070BDDD
:10986000002070BD0020024010B503F025FB002849
:1098700006D0044914200880BDE8104002F0DCBD89
:1098800010BD0000E8010020032802D0042805D004
:109890000AE0B1F5397F07D2044802E0102903D865
:1098A000034800EB4100704700207047E43100207E
:1098B000AC370020032802D0042805D00AE0B1F517
:1098C000397F07D2044802E0102903D8034830F852
:1098D0001100704700207047E4310020AC370020B1
:1098E00070B5104C104D114800F0CAFA05210F4810
:1098F00000F028FA0D4800F047F9FEF7C4FD4FF0DC
:1099000066320B4BFEF74DFDFEF7DDFD01462046AE
:10991000FEF703FD2946FEF706FDBDE87040054948
:10992000FEF7A9BC3D0AB73F04E78C3B6C0F002053
:1099300066664A3F0000C84130B500231A4601253B
:1099400005FA02F4044206D05B1CDBB2994202D154
:10995000521CD0B230BD521CD2B2102AF0D300201B
:1099600030BD0000024610B5002001465FF0010442
:1099700004FA01F3134201D0401CC0B2491CC9B221
:109980001029F5D310BD000000B570210320FFF7AA
:109990007BFF2C49086080210320FFF775FF2A49CF
:1099A000086082210320FFF76FFF284908604FF409
:1099B00080710320FFF768FF25490860002103201C
:1099C000FFF762FF2349086001210320FFF75CFFD6
:1099D0002149086002210320FFF756FF1F49086054
:1099E00004210320FFF750FF1D49086008210420CF
:1099F000FFF74AFF1B49086009210420FFF744FFD5
:109A0000194908600A210420FFF73EFF1749086042
:109A10000B210420FFF738FF154908600C210420B2
:109A2000FFF732FF134908600E210420FFF72CFFD7
:109A30001149086010210420FFF726FF0F49086034
:109A400000BD000044030020EC010020F0010020D4
:109A5000E4010020F4010020F8010020FC010020B6
:109A600000020020480300204C0300205003002087
:109A700054030020580300205C03002060030020F2
:109A8000014800787047000065030020F8B5002405
:109A9000009490F824202546012A12D0012280F853
:109AA00024204A681F23072A0DD20668776B521EAE
:109AB00002EB820293409F430B6893401F437763FE
:109AC00019E00220F8BD06680D2A0AD2376BD21FB2
:109AD00002EB820293409F430B6893401F4337631E
:109AE00009E0F76A0D3A02EB820293409F430B684C
:109AF00093401F43F7620A68072306680A2A0AD3BD
:109B0000F7680A3A02EB420293409F438B68934006
:109B10001F43F76008E0376902EB420293409F431E
:109B20008B6893401F4337610A68102A01D0112ABD
:109B300020D1124B02689A4217D193681B0219D4A4
:109B4000936843F4000393600968102912D10C490B
:109B50000C4A0968B1FBF2F101EB8101490000E018
:109B6000491E00910029FBD104E0816A41F02001E7
:109B70008162012480F824502046F8BD0024014071
:109B80008400002040420F000068C06C7047000055
:109B90002DE9F04104004FF000057FD0A06A0026B7
:109BA00028B9E66284F82460204600F081F8204657
:109BB000FEF724FFA16AC90600D420B1A06A40F0D4
:109BC0001000A0626AE0A16A21F4885141F002010C
:109BD000A162334923688B42E16904D1B1F5402F7A
:109BE00001D14FF40021277B4FF4807C41EA4702EA
:109BF00061680A43A168614508D0012906D00021A7
:109C000094F814E0BEF1010F02D00AE06146F7E7D4
:109C1000C7B1A76A47F02007A762E76A47F00107C4
:109C2000E7625F6827F469470F435F6023689968BC
:109C30001C4F394011439960A16861450BD001293F
:109C400009D00CE0DFF860E0A7690EEB47370F435F
:109C500047F40061E5E7218A0D05A5F58015216827
:109C6000CB6A23F470032B43CB62216889680F4BC6
:109C70001940914208D1E662A16A21F0020141F047
:109C80000101A162BDE8F081A06A20F0020040F06D
:109C90001000A062E06A40F00100E0620120F1E7FC
:109CA000003C0140FDF7E1FF00E0FFFFFE0E1FFF5B
:109CB00000B585B0002100910191029103911C4BE8
:109CC00002681C4803219A4215D1826942F400724D
:109CD0008261826902F400720492826942F0080291
:109CE0008261806900F0080004900220CDE9000143
:109CF0006946114817E0114B9A4216D1826942F425
:109D000080628261826902F480620492826942F018
:109D100004028261806900F0040004906020CDE9B3
:109D200000016946064800F0CFFB05B000BD000009
:109D30000024014000100240000C014000280140B6
:109D4000000801402DE9F84300270D46044600971E
:109D500000F0C0FC804620688168C90508D5A06A6B
:109D600040F02000A06284F824700120BDE8F88350
:109D70004168C90503D4C06A10F4700F2AD00220CC
:109D800000F0A6FE3B490968B1FBF0F620680369C4
:109D900039490B424FEA61014FEAA1121FD1C36852
:109DA0004FEA611C13EA0C0F19D103690B4225D14C
:109DB000C068104222D1142023E0681C0AD02DB1C3
:109DC00000F088FCA0EB0800A84203D920680068D6
:109DD000800725D5206800688007EED52DE003694F
:109DE0000B4202D1C168114206D0026923490A42DE
:109DF00006D1C068084203D1542002E0292000E0C7
:109E0000FC204643009816E0681C11D02DB100F0EC
:109E100061FCA0EB0800A8420AD90098B04207D222
:109E2000A06A40F00400A06284F8247003209DE73B
:109E30000098401C0090B042E6D321686FF01200F9
:109E40000860A06A40F40070A06220688068C0F3D7
:109E5000424007280CD1207B50B9A06A20F48070C2
:109E6000A062A06AC00403D4A06A40F00100A0620E
:109E700000207BE78400002024499224499224009A
:109E800070B5044690F8240001280DD0012084F814
:109E900024002046FEF7DEFD02004FF0000005D052
:109EA00084F82400104670BD022070BDA16A40F203
:109EB0000123994341F48071A1621F4D23681F491A
:109EC000AB4218D10E6816F4702F14D0A66A46F46F
:109ED0008016A6620E68760505D5A66A26F4005699
:109EE00046F48056A662A66AF6040AD5E66A26F00B
:109EF0000606E66206E0A66A26F48016A6625E689A
:109F0000E9E7E06284F824006FF00200186020683E
:109F10008368C3F34243072B05D1A84208D10968DF
:109F200011F4702F04D0816841F480118160B9E789
:109F3000816841F4A001F9E70028014004240140B0
:109F400010B590F821100022022905D00421816368
:109F500080F82020012010BD01680B6823F00E035B
:109F60000B6001680B6823F001030B6090F8403030
:109F7000C46B012101FA03F3636080F8211080F8BB
:109F80002020104610BD00002DE9F05F90F8211050
:109F90000024022903D004218163012485E00168A3
:109FA0000A6822F00E020A6001680A6822F00102C3
:109FB0000A603F4E3E4FB215DFF8F4C0DFF8F09074
:109FC000DFF8ECA0DFF8E8B0DFF8E4E00168783F04
:109FD00013011502ACF1640CA9F15009AAF13C0A75
:109FE000ABF1280BAEF1140E4FF48018B14227D913
:109FF000B9420ED0614512D049451DD0514518D007
:10A00000594518D0714501D1424615E0294EB1425B
:10A0100001D1012210E0274E1436B14201D11022A5
:10A020000AE0244E2836B14206D0224A3C32914200
:10A0300001D11A4600E02A461E49091F0A602BE09A
:10A04000B94213D0614517D0494522D051451DD0A2
:10A0500059451DD0714501D142461AE0B14202D1A5
:10A060004FF0807215E0134EB14201D1012210E091
:10A07000104E1436B14201D110220AE00D4E28369E
:10A08000B14206D00B4A3C32914201D11A4600E05F
:10A090002A46074980394A60012180F821100021B1
:10A0A00080F82010416B01B188472046BDE8F09F41
:10A0B00080000240080402402DE9F05FC16B0A688D
:10A0C00001680B68046C4FF0040808FA04F8844D2A
:10A0D000844E854FDFF814C2DFF81492DFF814A223
:10A0E000DFF814B2DFF814E218EA020F65D05FEA75
:10A0F000437862D50A68920603D40A6822F0040203
:10A100000A60DFF8F0814FF48062016808F11408FA
:10A1100013011402414524D9A9420DD0B1420FD0F8
:10A12000B9421AD0614515D0494515D0514501D1E4
:10A13000120312E0594501D104220EE0714501D10C
:10A1400040220AE06D4D1435A94206D06B4A2832F0
:10A15000914201D11A4600E022466749091F0A6070
:10A1600029E0A94213D0B14215D0B94220D06145AF
:10A170001BD049451BD0514502D14FF4800217E056
:10A18000414502D14FF0806212E0594501D10422CD
:10A190000EE0714501D140220AE0584D1435A94224
:10A1A00006D0564A2832914201D11A4600E0224692
:10A1B0004B4908394A60C16A71E04FF0020808FA59
:10A1C00004F818EA020F70D05FEA83786DD50A6848
:10A1D000920606D40A6822F00A020A60012180F879
:10A1E0002110DFF810814FF40072016808F11408A3
:10A1F00013011402414524D9A9420DD0B1420FD018
:10A20000B9421AD0614515D0494515D0514501D103
:10A21000120312E0594501D102220EE0714501D12D
:10A2200020220AE0354D1435A94206D0334A28329F
:10A23000914201D11A4600E022462F49091F0A60C7
:10A2400029E0A94213D0B14215D0B94220D06145CE
:10A250001BD049451BD0514502D14FF4001217E0E5
:10A26000414502D14FF0007212E0594501D102225E
:10A270000EE0714501D120220AE0204D1435A9429B
:10A2800006D01E4A2832914201D11A4600E02246E9
:10A29000134908394A60002180F82010816A00299A
:10A2A0001CD0BDE8F05F0847FFE70825A540154230
:10A2B00014D01A0712D50A6822F00E020A6090F82C
:10A2C0004020C36B012101FA02F25A60816380F8D9
:10A2D0002110002180F82010016BE0E7BDE8F09F1D
:10A2E000080002401C0002403000024044000240CE
:10A2F000580002406C000240080402401C04024066
:10A3000030B560B11A4B026814219A4209D2194B38
:10A310001344B3FBF1F18900016417490AE00120FD
:10A3200030BD134B5B421344B3FBF1F18900016470
:10A330000F490839C163022180F82110136843F6E0
:10A34000F0718B43F0E901142143D0E902452C431D
:10A35000214304692143446921438469214319430A
:10A36000116000214163012242770177084630BD28
:10A3700008040240F8FFFDBF0000024070B504462B
:10A3800090F82000002501280CD0012084F820003E
:10A3900094F821600020012E06D084F820000225C8
:10A3A000284670BD022070BD022684F82160A0639B
:10A3B0002068066826F0010606602046FFF716F8BA
:10A3C000E06A00282068016802D041F00E0106E032
:10A3D00021F0040101602068016841F00A01016078
:10A3E0002068016841F001010160D9E7064810B515
:10A3F0004FF0FF31C16000220261C160C26000F015
:10A40000F5FA002010BD0000001002400348016969
:10A4100041F08001016100207047000000200240EF
:10A420002DE9F05F07461C4888460024017E15464A
:10A430001E46012909D00121814601764CF2503A8D
:10A440005046FFF7E7F918B122E00220BDE8F09F7F
:10A45000012F02D0022F00D00427D346DFF83CA002
:10A46000220128463146FDF7CBFE81B208EB4400BD
:10A47000FFF794F95846FFF7CDF9DAF8102022F0EB
:10A480000102CAF8102018B9641CE4B2BC42E7D338
:10A49000002289F81820D9E7301600200020024059
:10A4A000064900200A69120607D5054A4A60054A8E
:10A4B0004A600969090600D5012070470020024062
:10A4C00023016745AB89EFCD2DE9F84FDFF8C8913F
:10A4D000002409F1040A0AF1040B23460F270BF1AB
:10A4E000040ED1E00125A54006EA0502AA4276D174
:10A4F000DFF8A8C14E68A6EB0C0866452BD00DDC32
:10A50000032E34D005DC36B3012E19D0022E2FD104
:10A510001BE0112E16D0122E2AD119E0B8F5881F93
:10A5200019D006DCB8F5803F15D0B8F5801F1FD1D3
:10A5300011E0B8F5001F0ED0B8F5041F18D10AE0DD
:10A54000CB6815E0CB681B1D12E0CB6808330FE029
:10A55000CB680C330CE08B682BB1012B4FF0080358
:10A5600003D0456104E0042302E0056100E000231C
:10A57000FF2A01D8064601E000F104064FEA8405EF
:10A5800001D9A5F12005D6F8008007FA05FC28EAD4
:10A590000C0803FA05F548EA0508C6F800804D687E
:10A5A000ED0070D53E4DAE6946F00106AE61AD6975
:10A5B00024F0030605F0010500953A4D06EB050C65
:10A5C000DCF80850A607360F07FA06F825EA080552
:10A5D000DFF8D480404503D14FF0000825E052E079
:10A5E000DFF8C880404502D14FF001081DE0DFF8D8
:10A5F000C080404502D14FF0020816E0DFF8B48079
:10A60000404502D14FF003080FE0DFF8AC80404531
:10A6100002D14FF0040808E0DFF8A080404502D1E5
:10A620004FF0050801E04FF0060808FA06F848EA7E
:10A630000508CCF808804D68D9F80060ED034D4658
:10A6400001D5164300E096432E604D68DAF80060AD
:10A65000AD03554601D5164300E096432E604D6884
:10A66000DBF80060ED025D4601D5164300E096433D
:10A670002E604D68DEF80060AD02754601D51643C8
:10A6800000E096432E60641C0A681646E2407FF4A0
:10A6900029AFBDE8F88F0000000401400000111050
:10A6A000001002400000014000080140000C014081
:10A6B000001001400014014000180140001C01403E
:10A6C0008068084000D0012070470AB101617047DE
:10A6D0000904FBE70148806870470000780000200B
:10A6E00070B5040025D094F83D00002520B984F809
:10A6F0003C50204600F0B8F8242084F83D00206843
:10A70000016821F0010101602068016841F4004105
:10A7100001602068016821F40041016000F06EFBD7
:10A720004D4A6168914201D84C4900E04C49884249
:10A7300001D2012070BD4B492368B0FBF1F15E6886
:10A7400026F03F060E435E606368934206D94FF4DD
:10A75000967359434FF47A73B1FBF3F12368491CA4
:10A760001E6A26F03F06314319626168914210D893
:10A770004900401EB0FBF1F2521CC2F30B02042A46
:10A7800001D2042022E0B0FBF1F0401CC0F30B002A
:10A790001CE0A268F2B301EBC10303EB0116431EF8
:10A7A000B3FBF6F35B1C43F480431B0549D092B323
:10A7B00001EBC10202EB0111401EB0FBF1F0401CA5
:10A7C000C0F30B0040F4804040F400402168CA69A7
:10A7D0004CF6FF739A431043C861D4E90710014354
:10A7E0002068026822F0C00211430160D4E903012D
:10A7F00001432068826848F2FF339A431143816025
:10A80000D4E9050108432168CA6822F0FF02104319
:10A81000C86001E00EE016E02068016841F0010127
:10A8200001602564202084F83D00256384F83E50B3
:10A83000002070BD01EB4106431EB3FBF6F35B1C29
:10A84000B3E70120C2E701EB4101401EB0FBF1F08C
:10A85000401CC0F30B00B7E7A086010080841E00F7
:10A8600000093D0040420F0010B586B00021009164
:10A8700001910291039100680F4988421AD10F4C4F
:10A88000A06940F00800A061A069694600F00800D6
:10A890000490C020009012200190032003900848EB
:10A8A000FFF712FEE06940F40010E061E06900F497
:10A8B0000010049006B010BD00540040001002408B
:10A8C000000C014070B5040011D021684CF6CC405A
:10A8D0000860216845F255500860D4E900014160E4
:10A8E0002168A0688860FFF7F5FE05460DE00120AD
:10A8F00070BD00BFFFF7EEFE401B272805D920687A
:10A90000C068800701D0032070BD2068C068800740
:10A91000F0D121684AF6AA200860002070BD0068C6
:10A920004AF6AA21016000207047000002488168B1
:10A93000027811448160704778000020074810B504
:10A94000016841F010010160032000F0AFF80F2012
:10A9500000F006F800F04CF8002010BD0020024086
:10A9600030B505461C4887B0816941F400618161BA
:10A97000806906A900F40060009001A800F01EFAAA
:10A9800000F04CFA1549164AB0FBF1F11548491E82
:10A990000260416040F2E7320021C0E9032181609A
:10A9A000816100F051FC040012D10E4800F0C4FC9B
:10A9B00004000DD1192000F04CF8102D07D2002210
:10A9C0002946192000F052F80748056000E00124EC
:10A9D00007B0204630BD00000010024040420F008A
:10A9E000002C0140E41500207C000020704700008E
:10A9F0000F4808B5816941F001018161816901F069
:10AA000001010091C16941F08051C161C06900221A
:10AA100000F0805000900F21901E00F027F80548AC
:10AA2000416821F0E06141F00071416008BD000023
:10AA30000010024000000140002809DB00F01F0266
:10AA4000012191404009800000F1E020C0F880120F
:10AA50007047002809DB00F01F02012191404009E6
:10AA6000800000F1E020C0F800117047F0B40E4BF8
:10AA70001B680C46C3F30223C3F10705042D00D95C
:10AA80000425191D072901D2002300E0DB1E012641
:10AA900006FA05F1491E214099409E40761E164057
:10AAA0003143F0BC03F066BA0CED00E0064900F05B
:10AAB000070208684FF6FF03184040EA0220034AE5
:10AAC00010430860704700000CED00E00000FA053C
:10AAD00010B52CA401461DCC86B08DE81D002DA01C
:10AAE0002D4C00680490002004292FD00BDC012994
:10AAF0002FD0022928D100F091F96168C1F381318A
:10AB0000491C49001EE0082920D010291CD1616889
:10AB10002268D20118D5C1F38342C9031DF802008F
:10AB200009D5616804AAC1F34041515C1B4AB2FBDC
:10AB3000F1F1484301E01A4948436168490203D4EE
:10AB400040000321B0FBF1F006B010BD00F076F933
:10AB5000FAE7226AC2F30121012903D1920701D544
:10AB6000C803F1E7022905D1626A920702D549F6C6
:10AB70004040E9E70329E7D121688903E4D54FF292
:10AB80002440E1E702030405060708090A0B0C0D3F
:10AB90000E0F1010010200000010024000127A0097
:10ABA00000093D002DE9F84305460078354CC00703
:10ABB00054D0E0690026C00008D4E06940F080501D
:10ABC000E061E069012600F0805000902E480168A5
:10ABD000C90512D40168804641F480710160FFF715
:10ABE00079FD074605E000BFFFF774FDC01B642830
:10ABF00023D8D8F80000C005F6D5206A10F44070BC
:10AC000021D0A98801F4407181421CD0206A1F49DB
:10AC1000012220F440700A6000220A602062C0070E
:10AC200011D0FFF757FD074641F2883808E000BF12
:10AC3000FFF750FDC11B414502D90320BDE8F88351
:10AC4000206A8007F4D5206A696820F440700843C0
:10AC500020621EB1E06920F08050E0612878800712
:10AC600005D56068A96820F44040084360602878F2
:10AC7000C00605D56068696920F4800008436060FB
:10AC80000020DBE700100240007000404004424218
:10AC90002DE9F0470F46050061D0434E306800F0C3
:10ACA0000700B84209D2306820F00700384330600E
:10ACB000306800F00700B84251D128683B4C81074A
:10ACC00012D5400703D5606840F4E06060602878E2
:10ACD000000703D5606840F4605060606068A96850
:10ACE00020F0F000084360602878C00728D068682A
:10ACF000012810D02168022810D0890700292EDAF7
:10AD0000616821F0030101436160FFF7E3FC8046C5
:10AD100041F288390DE021688903EFE78901EDE709
:10AD2000FFF7D8FCA0EB0801494502D90320BDE894
:10AD3000F0876068696800F00C00B0EB810FEFD11C
:10AD4000306800F00700B8420BD9306820F00700E7
:10AD500038433060306800F00700B84201D001206D
:10AD6000E5E72878400705D56068E96820F4E060E9
:10AD7000084360602878000706D56068296920F4D8
:10AD8000605040EAC100606000F058F86168084A0D
:10AD9000C1F30311515CC8400649086006480068C9
:10ADA000FFF7DEFD0020C2E7002002400010024055
:10ADB000B8040108840000207C0000200F220260FB
:10ADC0000C4A536803F003034360536803F0F00335
:10ADD0008360536803F4E063C36052684FF4E06338
:10ADE00003EAD20202610448006800F0070008602C
:10ADF000704700000010024000200240044805494E
:10AE000000684968044AC1F30221515CC840704798
:10AE10008400002000100240C804010804480549CD
:10AE200000684968044AC1F3C221515CC8407047B8
:10AE30008400002000100240C804010812A185B05F
:10AE40000FC98DE80F0014A0144A006804905168DF
:10AE5000134801F00C03042B10D0082B0ED1C1F3C2
:10AE60008343C9031DF803000AD5516804AAC1F33E
:10AE70004041515C0A4A5043B0FBF1F005B07047C5
:10AE800008494843FAE700000203040506070809D9
:10AE90000A0B0C0D0E0F10100102000000100240F2
:10AEA00000127A0000093D002DE9F84F040070D02F
:10AEB0002078C04DC00749D06868C0F381000128E0
:10AEC00007D06868C0F38100022809D16868C00310
:10AED00006D52868800339D560680028E7D035E0BA
:10AEE0006068B0F5803F0BD010B1B0F5A02F11D045
:10AEF000286820F480302860286820F4802002E050
:10AF0000286840F480302860606890B1FFF7E2FB69
:10AF100006460AE0286840F480202860F0E700BF79
:10AF2000FFF7D8FB801B642873D828688003F7D507
:10AF30000CE0FFF7CFFB064605E000BFFFF7CAFBBA
:10AF4000801B6428F0D828688003F7D420789A4EB4
:10AF500080074FF001094FF0000839D5686810F0FC
:10AF60000C0F07D06868C0F38100022809D1686817
:10AF7000C00306D42868800714D52069012808D1A9
:10AF800010E02069B0B1C6F80090FFF7A3FB0746B8
:10AF900005E00AE1FFF79EFBC01B0228C4D8286821
:10AFA0008007F7D52868616920F0F80040EAC10001
:10AFB00028600DE0C6F80080FFF78CFB074604E030
:10AFC000FFF788FBC01B022823D828688007F7D426
:10AFD000207800072CD57948A169D9B1C0F8009034
:10AFE000FFF778FB074604E0FFF774FBC01B02285D
:10AFF0000FD8686A8007F7D571484FF4FA51006896
:10B00000B0FBF1F0009000BF0098411E0091FAD211
:10B010000EE080E0C0F80080FFF75CFB074604E02C
:10B02000FFF758FBC01B022875D8686A8007F7D461
:10B030002078400760D5E8690027C00008D4E86997
:10B0400040F08050E861E869012700F080500090EE
:10B050005C480168C90513D40168834641F48071D6
:10B060000160FFF737FB824606E000BFFFF732FBC7
:10B07000A0EB0A0064284ED8DBF80000C005F5D527
:10B08000E06801280AD008B1052813D0286A20F00A
:10B0900001002862286A20F0040002E0286A40F0DB
:10B0A00001002862E06841F2883B98B1FFF712FB8B
:10B0B00082460BE0286A40F004002862EEE700BFF9
:10B0C000FFF708FBA0EB0A0159455AD8286A800708
:10B0D000F6D50CE0FFF7FEFA824605E0FFF7FAFA34
:10B0E000A0EB0A0159454CD8286A8007F6D41FB155
:10B0F000E86920F08050E861E06988B36968C1F3CD
:10B100008101022944D00228C6F8608004D0FFF7EC
:10B11000E1FA044638E034E0FFF7DCFA074604E0E1
:10B12000FFF7D8FAC01B02282BD828688001F7D473
:10B13000206AB0F5803F05D16868A16820F400302E
:10B1400008436860D4E908010843696821F4741170
:10B1500008436860C6F86090FFF7BCFA044606E052
:10B1600025E000BFFFF7B6FA001B022809D82868BF
:10B170008001F7D51BE000BFFFF7ACFA001B0228E7
:10B1800002D90320BDE8F88F28688001F4D40EE0CE
:10B190000128F7D06868226A00F48031914204D116
:10B1A000616A00F47010884201D00120EAE70020B3
:10B1B000E8E70000001002400000424280044242E2
:10B1C00084000020007000407047704770B590F810
:10B1D0003C20012A2CD0012480F83C40022280F837
:10B1E0003D2003685A689D6822F070060A68324361
:10B1F0005A60104B02689A420ED00F4B9A420BD005
:10B20000B2F1804F08D00D4B9A4205D00C4B9A42B8
:10B2100002D00C4B9A4204D1496825F080031943AF
:10B22000916080F83D40002180F83C10084670BDD8
:10B23000022070BD002C0140003401400004004099
:10B2400000080040000C004010B5040003D094F842
:10B250003D0010B107E0012010BD002084F83C0043
:10B26000204600F01FF8022084F83D00211D2068D0
:10B2700002F060F8012084F8460084F83E0084F86B
:10B280003F0084F8400084F8410084F8420084F8CC
:10B29000430084F8440084F8450084F83D00002011
:10B2A00010BD000008B501681F48B1F1804F0BD0F8
:10B2B0001E4A914210D1C16941F00201C161C069C9
:10B2C00000F00200009008BDC16941F00101C161B8
:10B2D000C06900F00100F5E7154A91420ED1C1693D
:10B2E00041F00401C161C069002200F00400009037
:10B2F00005211E20FFF7BAFB1E2010E00D4A9142E7
:10B30000E1D1C16941F00801C161C069002200F0CA
:10B310000800009005213220FFF7A8FB3220BDE88D
:10B320000840FFF796BB00000010024000040040F8
:10B3300000080040000C004090F83D10012901D0A9
:10B3400001207047022180F83D100168CA6842F070
:10B350000102CA6000680E4988420ED00D49884239
:10B360000BD0B0F1804F08D00B49884205D00B4973
:10B37000884202D00A49884204D1816801F007015D
:10B38000062903D0016841F00101016000207047E7
:10B39000002C01400034014000040040000800403F
:10B3A000000C004070B5044690F83C00012817D00E
:10B3B000012584F83C50022084F83D002068826812
:10B3C00022F0770222F47F4282600868502830D051
:10B3D0000DDC20284DD005DC98B310283BD148E087
:10B3E000022070BD302844D0402834D139E0602894
:10B3F00028D0702806D0B0F5805F2CD0B0F5005F63
:10B4000029D10AE0CB68D1E90121206801F0E5FFEC
:10B410002068816841F0770109E0CB68D1E901211A
:10B42000206801F0DAFF2068816841F48041816082
:10B4300011E0CA684968206802F0A4F85021206829
:10B4400007E016E0CA684968206802F0ACF860219D
:10B45000206801F0CCFF84F83D50002084F83C00C7
:10B4600070BDCA684968206802F08CF840212068E5
:10B47000EFE7226801461046EBE7704770B50446D7
:10B48000006801694FF00005C943890715D4C168F8
:10B49000C943890711D4E91E016101202077206882
:10B4A00080698007204602D0FFF7E7FF04E000F044
:10B4B000BDF8204600F04CF9257720680169C943A2
:10B4C000490717D4C168C943490713D46FF0040171
:10B4D0000161022020772068806910F4407F2046B7
:10B4E00002D0FFF7CAFF04E000F0A0F8204600F009
:10B4F0002FF9257720680169C943090716D4C16867
:10B50000C943090712D46FF00801016104202077B4
:10B510002068C0698007204602D0FFF7AEFF04E034
:10B5200000F084F8204600F013F9257720680169BF
:10B53000C943C90617D4C168C943C90613D46FF0FB
:10B5400010010161082020772068C06910F4407F55
:10B55000204602D0FFF791FF04E000F067F8204694
:10B5600000F0F6F8257720680169C943C90708D1BA
:10B57000C168C943C90704D1891E0161204600F092
:10B580009BF920680169C943090609D4C168C94308
:10B59000090605D46FF0800101612046FFF714FE13
:10B5A00020680169C943490609D4C168C9434906ED
:10B5B00005D46FF040010161204600F093F9206846
:10B5C0000169C94389060BD4C168C943890607D4F8
:10B5D0006FF0200101612046BDE87040FFF7F5BD26
:10B5E00070BD000000B585B000210091019102916D
:10B5F00003910068B0F1804F11D10A48816941F090
:10B60000040181618069694600F004000490032010
:10B6100000900220019003900348FEF755FF05B00B
:10B6200000BD00000010024000080140704770B5E6
:10B63000044690F83C000D4601280AD0012084F809
:10B640003C0042B1042A18D0082A2AD00C2A4DD135
:10B6500039E0022070BD206801F0D2FE20688169C7
:10B6600041F0080181612068816921F00401816154
:10B67000206881692A69114311E0206801F0F0FE19
:10B680002068816941F4006181612068816921F449
:10B6900080618161206881692A6941EA02218161B2
:10B6A00024E0206801F012FF2068C16941F0080120
:10B6B000C1612068C16921F00401C1612068C169CC
:10B6C0002A69114311E0206801F034FF2068C16944
:10B6D00041F40061C1612068C16921F48061C161E8
:10B6E0002068C1692A6941EA0221C161002084F809
:10B6F0003C0070BD10B5040003D094F83D0010B1BB
:10B7000007E0012010BD002084F83C00204600F036
:10B710001EF8022084F83D00211D206801F00AFE79
:10B72000012084F8460084F83E0084F83F0084F845
:10B73000400084F8410084F8420084F8430084F813
:10B74000440084F8450084F83D00002010BD704797
:10B750007047000010B50446022249B104290ED0FA
:10B76000082913D094F84100012816D0012010BDFB
:10B7700094F83E000128F9D184F83E200FE094F8B7
:10B780003F000128F2D184F83F2008E094F84000FF
:10B790000128EBD184F8402001E084F84120012207
:10B7A000206801F00DFE13492068134A884201D039
:10B7B000904203D1436C43F40043436420688842C1
:10B7C0000DD090420BD0B0F1804F08D00B49884289
:10B7D00005D00B49884202D00A49884204D18168C9
:10B7E00001F00701062903D0016841F00101016061
:10B7F000002010BD002C0140003401400004004036
:10B8000000080040000C004030B5044600680D0000
:10B8100006D0042D08D0082D38D00C2D08D139E0E1
:10B82000C16821F0020102E0C16821F00401C16099
:10B8300000222946206801F0C3FD1D4B41F2111181
:10B8400020688A10984202D01A4B984209D1036AA4
:10B850000B4206D1036A134203D1436C23F4004325
:10B8600043642068036A0B4206D1016A114203D186
:10B87000016821F00101016001207DB1042D10D08B
:10B88000082D11D084F84100002030BDC16821F09E
:10B890000801CCE7C16821F01001C8E784F83E0038
:10B8A000F2E784F83F00EFE784F84000ECE700009F
:10B8B000002C01400034014010B5044600680749DF
:10B8C000884201D1FFF732F805492068884203D148
:10B8D000BDE8104004F0FEB810BD0000002C01408F
:10B8E000000800407047704710B504460068416981
:10B8F00094F83D20C1F3C011212A0BD151B1416907
:10B9000021F080014161606B08B1FEF719FB204610
:10B9100002F043F92068416994F83E20C1F3801198
:10B92000222A0BD151B1416921F040014161A06B44
:10B9300008B1FEF705FB204602F017F9002010BD04
:10B9400070470000F8B5026804461068D168536972
:10B9500010F00F0F4FF0000553D003F0010601F473
:10B96000907737435FD0C20705D0CA0503D5226C54
:10B9700042F001022264420705D5DA0703D0226CA7
:10B9800042F002022264820705D5DA0703D0226C56
:10B9900042F004022264020707D501F0200232437C
:10B9A00003D0226C42F008022264226C002A34D0B8
:10B9B000800604D5880602D5204602F0F7F82068F4
:10B9C0004069216CC0F38010090700D430B32046D1
:10B9D00002F0CBF82068416949061BD5416921F086
:10B9E00040014161A06BA8B158494163A06BFEF7CB
:10B9F000CBFA002811D0A06B416B01B0BDE8F0403C
:10BA0000084783060FD58B060DD52046BDE8F840C4
:10BA100002F0CCB82046FFF793FFF8BD2046FFF7B1
:10BA20008FFF2564F8BD266B2023012E52D1C60658
:10BA300050D5CE064ED5106850680090506940062B
:10BA40002AD5A16B086840680004000CEAD0A68DD6
:10BA50008642E7D9E0858869202818D0D06820F48C
:10BA60008070D0602068416921F001014161206847
:10BA7000416921F04001416184F83E30256320682E
:10BA8000C16821F01001C160A06BFEF759FAA08DCA
:10BA9000E18D401A81B219E0A08DE18D401A81B28A
:10BAA000E08D0028BED00029BCD0D06820F4907072
:10BAB000D0602068426922F00102426184F83E3081
:10BAC00025632068C26822F01002C2602046FFF79A
:10BAD0000AFFF8BD05062BD50D0629D594F83D00C3
:10BAE0002128F6D1A068B0F5805F01D12069B0B1FE
:10BAF000206A411C2162216800784860E08C401E69
:10BB00000004000CE084E4D12068C16821F08001C9
:10BB1000C1602068C16841F04001C160F8BD206A81
:10BB20000088C0F308005060206A801C2062E5E7AE
:10BB30004006F3D54806F1D5D168204621F04001F2
:10BB4000D16084F83D3000F026FBF8BD9DDA000896
:10BB500070B5040004D094F83D00002510B106E053
:10BB6000012070BD84F83C50204600F023F82420CA
:10BB700084F83D002068C16821F40051C16020466E
:10BB800002F08CF82068016921F49041016120687D
:10BB9000416921F02A0141612068C16841F40051E6
:10BBA000C1602564202084F83D0084F83E00002018
:10BBB00070BD00002DE9F04786B000240094019488
:10BBC00002940394054603688848874F06150221AE
:10BBD0000322DFF81CC24FF400694FF0800ABB4219
:10BBE00037D1C36943F40023C361C36903F400235D
:10BBF0000493836943F0100383618069CDE9006198
:10BC000000F01000CDE90320694666466046FEF765
:10BC10005BFCCDE90094694630460294FEF754FC83
:10BC2000754E7448C6E90004C6E9024A346174617D
:10BC3000B4613046F461FEF763FB08B1FDF799FD8E
:10BC4000AE630022062134207562FEF70FFF342018
:10BC500031E0DFF8A8810427434531D1C36943F4BB
:10BC60008013C361C36903F480130493836943F0B1
:10BC700010038361836903F010030493836943F025
:10BC8000200383618069039200F020000490B802D1
:10BC9000CDE9000169466046FEF716FCCDE9007467
:10BCA000694657480294FEF70FFC00220521352013
:10BCB000FEF7DCFE3520FEF7CCFE06B0BDE8F087CF
:10BCC000DFF840C1DFF84081634526D1836943F442
:10BCD00080438361836903F480430493836943F061
:10BCE000040383618069039200F0040004904FF420
:10BCF0000070CDE9000169464046FEF7E5FBCDE95D
:10BD00000064694640460294FEF7DEFB00220621ED
:10BD10002520FEF7ABFE2520CDE7DFF8F0C0634518
:10BD200025D1C36943F40033C361C36903F400330D
:10BD30000493836943F0040383618069CDE9007152
:10BD400000F00400CDE9032069464046FEF7BCFB45
:10BD50000820CDE90004694640460294FEF7B4FB92
:10BD6000002205212620FEF781FE2620A3E7284F8A
:10BD7000BB42A2D1C36943F48023C361C36903F406
:10BD800080230493836943F0080383618069CDE9CC
:10BD9000006100F00800CDE903201E4E69463046E0
:10BDA000FEF792FBCDE90094694630460294FEF717
:10BDB0008BFB114E18484436C6E90004C6E9024A16
:10BDC00034617461B4613046F461FEF799FA08B1E8
:10BDD000FDF7CFFCAE630022052127207562FEF738
:10BDE00045FE272067E70000004C0040001002409D
:10BDF00000100140300402405C150020005000405B
:10BE00000014014000380140000801400044004097
:10BE100000480040000C0140300002402DE9F84F7E
:10BE2000044690F83E009A4616460D46202853D107
:10BE3000FDB1F6B194F83C0001284DD0012084F802
:10BE40003C0000272764222084F83E002763FEF789
:10BE500041FCA6858146E685A0684FF480584045A0
:10BE600001D1206940B12E465FF0000584F83C7096
:10BE700027E00120BDE8F88F0026F7E74B460022B7
:10BE800020212046CDF800A001F0B7FF08B1032023
:10BE9000F0E726B1A06840451BD038B108E0206823
:10BEA0004068C0F3080025F8020B07E0206980B164
:10BEB0002068406800F07F0006F8010BE08D401E0E
:10BEC000E085E08D0028D9D1202084F83E000020B4
:10BED000D0E720684068EFE70220CBE790F83E30DB
:10BEE000202B0ED159B152B190F83C30012B08D023
:10BEF000012380F83C300023036301F02BBF0120B5
:10BF000070470220704790F83E30202B0ED159B177
:10BF100052B190F83C30012B08D0012380F83C301E
:10BF20000023036301F04EBF0120704702207047D9
:10BF30002DE9F04106460068624901270025624C60
:10BF4000884226D16088010418D4604942040978E7
:10BF500004D50A290ED140F400402EE00D292AD044
:10BF6000C0F30D02594B401C643B80B29954608071
:10BF7000632800D96580608800040AD5277060882E
:10BF80005249C0F30D02643901F53C70FCF748F9E1
:10BF900065804F49306888422DD1E0884B490204C2
:10BFA00001F158011CD401F1A8024304127809D50B
:10BFB0000A2A11D103E040F480406080DBE740F4BE
:10BFC000004028E00D2A24D0C0F30D03401C80B2AD
:10BFD000CA54E080632800D9E580E08800040AD5CF
:10BFE000277008786070E088C0F30D01374858303A
:10BFF000FCF72FF9E5803749306888422BD1A088BB
:10C0000001041DD434494204097809D50A2913D101
:10C0100003E040F48040E080DFE740F400402CE0A3
:10C020000D2928D0C0F30D022B4B401CA83B80B239
:10C030009954A080632800D9A580A08800040AD55F
:10C040002770A0882449C0F30D02A83901F5BC70FF
:10C05000FCF7E6F8A5802149306888422BD1208979
:10C0600001041FD41C49420401F1BC01097809D51F
:10C070000A2913D103E040F48040A080DDE740F4BA
:10C0800000401CE00D2918D0C0F30D02124B401CDB
:10C09000143380B299542081632800D925812089E6
:10C0A000000408D527702089C0F30D010A48143018
:10C0B000FCF7CFF82581BDE8F08140F48040208175
:10C0C000EDE70000004400406C0000200812002052
:10C0D00000480040004C0040C413002000500040C5
:10C0E000704700002DE9F843044690F83D001F46D4
:10C0F00016460D4620284CD1C5B1BEB194F83C007F
:10C10000012846D0012084F83C004FF00008C4F814
:10C110004080212084F83D00FEF7DCFAA6848146A9
:10C12000E684A068B0F5805F03D004E00120BDE89C
:10C13000F883206928B12E465FF0000584F83C8022
:10C140000EE00026FAE78021204601F056FEA0B955
:10C15000AEB116F8010B21684860E08C401EE08407
:10C16000E08C4B464FF0000200970028EBD14FF0D7
:10C170004001204601F041FE30B10320D7E735F8F9
:10C18000020BC0F30800E6E7202084F83D00002001
:10C19000CDE70220CBE77047FEE7000010B5A0B165
:10C1A000012816D02149032823D0612826D06228EF
:10C1B0002AD063282ED0702832D0712818D1B1F837
:10C1C000E200BDE81040FDF791B8BDE8104000F076
:10C1D00023BD174C20680068C16821F40051C1607C
:10C1E00000F060FC20680068C16841F40051C16043
:10C1F00010BDC888BDE81040FDF76CB8B1F8C200AA
:10C20000BDE81040FDF774B8B1F8C400BDE81040B7
:10C21000FDF798B8B1F8C600BDE81040FDF782B848
:10C22000B1F8E000BDE81040FDF75DB8E431002052
:10C23000A401002000B589B020216846FCF709F868
:10C24000FDF74EFBFCF72CF902460B4609A16846A8
:10C2500001F07CFE6846FCF707F8C1B2684601F0C1
:10C2600001FD0A4800680088002800D0012009B0BC
:10C2700000BD0000CEC2B6C8B2C9D1F9D6B5A3BAC6
:10C2800025302E3366726E200A000000480300201D
:10C29000401E032801D80120704700207047143841
:10C2A000502801D8012070470020704741F25C718E
:10C2B0001438884201D80120704700207047FCF7ED
:10C2C000E5FCFCF775FC142003F020FAF9E7000008
:10C2D0002DE9F0410D4800210D4E057801700C4606
:10C2E0005FF0010706EBC400818856F83400FEF7C2
:10C2F000E7F918B907FA04F02843C5B2641CE4B2A0
:10C30000042CEFD32846BDE8F08100006D0000202A
:10C310008C0400202DE9F041044615460E46C0B2BB
:10C32000FDF7EAF9240C3C27B4FBF7F06421B0FBDD
:10C33000F1F201FB1200FDF781F9B4FBF7F007FB06
:10C340001040FDF7C4F93DB12846FDF78CF93046A1
:10C35000BDE8F04100F004B8FF20FDF7D9F8F6E79A
:10C3600010B5044600F00101042001F00DFA04F0BC
:10C370000201052001F008FA04F00401032001F095
:10C3800003FA04F00801012001F0FEF904F01001A5
:10C39000BDE81040022001F0F7B9000070B588B088
:10C3A00014460D46064620220F496846FBF738FF23
:10C3B00000F03EFF002815D003F0E0FC3046FDF70A
:10C3C000C3F92846FDF75FF9684600EB440030F8F2
:10C3D000020CFDF71CF90020FFF7C2FF01F03AF94B
:10C3E00003F0ECFC08B070BDE406010870B504462B
:10C3F000FF20FDF79EF8240C3C25B4FBF5F06421EA
:10C40000B0FBF1F201FB1200FDF718F9B4FBF5F0F7
:10C4100005FB1040BDE87040FDF759B910B500228A
:10C420004FF400410348FEF750F9BDE8104001F019
:10C43000A1B900000008014010B50122D1030E4847
:10C44000FEF743F900F00CFF002813D100F0F0FED6
:10C4500000280FD103F092FC094908480A780949DD
:10C4600000680978FFF756FF01F0F4F8BDE81040C6
:10C4700003F0A4BC10BD000000080140E80100204A
:10C48000D80100206403002070B50D46044600F07A
:10C49000E7FE002818D003F071FC2046FDF76BF88A
:10C4A0002846FDF78CF8FDF75BF8052C0AD0062C22
:10C4B00008D00020FFF754FF01F0CCF8BDE8704031
:10C4C00003F07CBC1020F5E770BD000010B503F050
:10C4D00055FC084906480A78074900680978FFF7BB
:10C4E00085FF01F0B7F8BDE8104003F067BC00001D
:10C4F000E8010020D80100206403002070B5044644
:10C50000134DC00701D0012200E00022022128467D
:10C51000FEF7DBF8A00701D5012200E0002204218C
:10C520002846FEF7D2F8600701D5012200E000227C
:10C5300008212846FEF7C9F8200701D5012200E0AE
:10C5400000222846BDE870400121FEF7BEB8000079
:10C550000010014040F2E3220149024800F0E2BC31
:10C56000E4310020007900083EB500211148009117
:10C5700001910F4A029102600124816004730175E8
:10C580004FF460220461C2614160FDF701FB08B114
:10C59000FDF7EFF80920CDE9000407200290694675
:10C5A0000448FDF773FA002801D0FDF7E2F83EBD1C
:10C5B000002401406C0F00203EB500241148009477
:10C5C000019402940E49846001600473047501258E
:10C5D00005614FF460214460C161FDF7D9FA08B1EB
:10C5E000FDF7C7F80520CDE9000569460294054826
:10C5F000FDF74CFA002801D0FDF7BBF83EBD000066
:10C60000002801409C0F0020114808B5416941F005
:10C6100001014161416901F001010091416941F06D
:10C62000020141614069002200F0020000900521F2
:10C630000D20FEF71BFA0D20FEF70BFA0022052154
:10C640003A20FEF713FABDE808403A20FEF701BA97
:10C650000010024010B5A4B01C221C496846FBF72C
:10C66000DFFD0021684603F05DF8194C17491C22D4
:10C6700020601C3107A8FBF7D3FD002107A803F0B9
:10C6800051F8124960601C2238310EA8FBF7C8FD32
:10C6900000210EA803F046F80C49A0601C2254317A
:10C6A00015A8FBF7BDFD002115A803F03BF80749CD
:10C6B000E0601C2270311CA8FBF7B2FD00211CA811
:10C6C00003F030F8206124B010BD00002C040108F4
:10C6D000580000202DE9F04F85B000243A4800941E
:10C6E000019402940394816941F010018161816990
:10C6F00001F010010491816941F0040181618169B7
:10C7000001F004010491816941F0080181618169AE
:10C7100001F008010491816941F020018161806983
:10C72000DFF8A89000F0200042F24F0504900022AC
:10C7300029464846FDF7C9FFDFF894A04DF23407BB
:10C74000002239465046FDF7C0FFDFF888B04FF4AD
:10C750001848002241465846FDF7B7FF00950226CB
:10C7600001250396CDE9015469464846FDF7ACFE24
:10C770003020CDE90004694648460294FDF7A4FE46
:10C7800000970396CDE9015469465046FDF79CFE9B
:10C790004FF460708DE8310069464846FDF794FE1D
:10C7A00028028DE8310069465846FDF78DFECDF828
:10C7B00000800396CDE9015469465846FDF784FE92
:10C7C00005B0BDE8F08F00000010024000100140ED
:10C7D000000C0140000801400D4810B50B490160F4
:10C7E0000C49416000214FF480428160C0E903128E
:10C7F00041618161C1610162FDF772FF002803D0D0
:10C80000BDE81040FCF7B5BF10BD0000005400406B
:10C81000CC0F0020A0860100094810B5074901602F
:10C820000221416040F6FF718160FEF74BF800285D
:10C8300003D0BDE81040FCF79CBF10BD00300040A5
:10C840002010002010B58EB000240794089409949D
:10C850000A940B941C2168460C94FBF7FAFC2248BE
:10C860004FF0804101602321C0E9011440F2F3112F
:10C87000C0E903148461FEF7E7FC08B1FCF779FF17
:10C880004FF48050079007A91748FEF78BFD08B1B9
:10C89000FCF76FFF1448FEF72DFF08B1FCF769FFA6
:10C8A0000B940BA910480C94FEF790FC08B1FCF710
:10C8B00060FF6020CDE9000402200290002269465A
:10C8C00004940948FEF7B3FE08B1FCF752FF0422B6
:10C8D00069460548FEF7ABFE08B1FCF74AFF02487F
:10C8E000FEF780FE0EB010BD2C10002010B586B0F3
:10C8F000002417480094019402940394049413496B
:10C900000594016040F60F61C0E901142321C0E9DC
:10C9100003148461FEF798FC08B1FCF72AFF4FF47A
:10C920008050009069460A48FEF73CFD08B1FCF7CC
:10C9300020FF049404A906480594FEF747FC00284C
:10C9400001D0FCF716FF06B010BD00000004004047
:10C950007410002010B586B000241748009401948C
:10C9600002940394049413490594016040F60F6106
:10C97000C0E901142321C0E9031480218161FEF77D
:10C9800063FC08B1FCF7F5FE4FF480500090694657
:10C990000948FEF707FD08B1FCF7EBFE049404A973
:10C9A00005480594FEF712FC002801D0FCF7E1FED3
:10C9B00006B010BD00080040BC10002010B586B0C5
:10C9C000002417480094019402940394049413499A
:10C9D0000594016040F60F61C0E9011440F2E731AF
:10C9E000C0E903148461FEF72FFC08B1FCF7C1FE17
:10C9F0004FF48050009069460948FEF7D3FC08B117
:10CA0000FCF7B7FE049404A905480594FEF7DEFB85
:10CA1000002801D0FCF7ADFE06B010BD000C0040B0
:10CA20000411002010B50420FCF72AFD0B490A4A26
:10CA3000C1E90020002088600C22C860C1E904021E
:10CA40008861C8610846FFF783F8002803D0BDE875
:10CA50001040FCF78EBE10BD004C0040801300203B
:10CA600010B50520FCF70CFD0D490C4AC1E900206A
:10CA7000002088600C22C860C1E904028861C86196
:10CA80000846FFF765F808B1FCF773FE0449012278
:10CA9000BDE8104044310248FFF735BA005000406D
:10CAA0003C14002010B50120FCF7EAFC0D490C4AAB
:10CAB000C1E90020002088600C22C860C1E904029E
:10CAC0008861C8610846FFF743F808B1FCF751FEDA
:10CAD00004490122BDE8104014390248FFF713BA97
:10CAE000003801406011002010B50220FCF7C8FC9E
:10CAF0000D490C4AC1E90020002088600C22C86062
:10CB0000C1E904028861C8610846FFF721F808B14D
:10CB1000FCF72FFE04490122BDE8104014390248F9
:10CB2000FFF7F1B9004400401C12002010B50320AB
:10CB3000FCF7A6FC0D490C4AC1E9002000208860E2
:10CB40000C22C860C1E904028861C8610846FEF78A
:10CB5000FFFF08B1FCF70DFE04490122BDE81040BB
:10CB600044310248FFF7CFB900480040C41200200A
:10CB70004FF4803000F05EFAFCF710FA012002F06A
:10CB8000C5FD4FF4FA7400BFFCF7CCF8204602F064
:10CB9000BDFDF9E7FEE70000074840680168CA6884
:10CBA00042F01002CA6001684A6942F001024A611B
:10CBB00080220249FFF792B90C050020CE370020F1
:10CBC00010B540F2E3220849084800F09DF904221C
:10CBD0000121032000F01AFA15220021BDE81040BF
:10CBE000032000F013BA0000E431002000790008AF
:10CBF00010B502F07BF8074841684A1C42600A29D8
:10CC000006D900214160BDE81040012003F068B85A
:10CC100010BD0000F4040020084808B50068AA21EF
:10CC200000220180012000904FF4E133104602F011
:10CC30001DF8BDE8084001F01BBE0000AC0100205B
:10CC4000FFF7AAFFFCF708FCFCF728F8052002F024
:10CC50005DFDF9E70EB5044A07CA8DE80700062115
:10CC6000684600F01FF90EBD040901080EB5044A1C
:10CC700007CA8DE807000621684600F013F90EBDCB
:10CC80001C09010838B5104CA068411CA1600021A6
:10CC9000142807D9A16049220C490D48FBF7C0FAB6
:10CCA00000F07AF809488021C01EFBF7D2FA6068CC
:10CCB00001680A6849680091BDE83840034980224C
:10CCC000C91EFFF70BB900000C050020D13700206A
:10CCD00078310020044801784078814201D1012058
:10CCE00070470020704700000C0500200EB50FA310
:10CCF0000ECB8DE80E00010E8DF80310010C8DF89F
:10CD00000410010A8DF805108DF8060005210DF1BB
:10CD10000200FCF733FA010A8DF807108DF80800BD
:10CD20000A21684600F0BEF80EBD000002050800AA
:10CD30000000000000030000642800D964200149BD
:10CD4000487070470C05002001460448C1EBC10142
:10CD500001EB410100680088484370470002002051
:10CD60000C4910B508784A78904202D9A0F1010028
:10CD700002E005D200F1010008704FF0010401E06B
:10CD80004FF00004C0B2FFF7DFFFFFF7AFFF204610
:10CD900010BD00000C0500202DE9F04FD3B04FF47A
:10CDA00080710EA8FBF755FA3B484288018856BAB5
:10CDB000426849BA12BA22F0FF08C27948EA02086A
:10CDC000D0F8162012BA22F0FF07427E17430597CB
:10CDD000428B90F8344055BA428F53BA828FC08F3D
:10CDE00052BA47BA0A20B7FBF0FC00FB1C7EB7FB27
:10CDF000F0FCB2FBF0F7B2FBF0FB00FB1727B3FB34
:10CE0000F0F2099700FB1237B5FBF0F2B3FBF0F933
:10CE100000FB125A6422B8FBF2F3CDE9069702FB3D
:10CE20001389B8FBF2F8B6FBF0F200FB1267B1FB16
:10CE3000F0F200FB1213B1FBF0F2B5FBF0F5B6FB1C
:10CE4000F0F60197099F0BA8CDF80C90CDF828B00B
:10CE500080E88050DDE9067907A8CDF818A080E8C1
:10CE60009002059F0096CDE904750C490EA8CDF8F7
:10CE7000088001F06BF824B10948006801880C4370
:10CE800004800EA8FBF7F0F9C1B20EA800F0EAFE8C
:10CE900053B0BDE8F08F0000783100208809010808
:10CEA000480300200A46014602484FF6FF734068D7
:10CEB000FFF718B90C0500200848007802280BD0AD
:10CEC000032809D0072807D0082805D00C2803D04C
:10CED0000D2801D000207047012070476503002015
:10CEE000FEE710B5FBF740FEBDE81040012000F062
:10CEF00007BDFFF791FEFBF723FEFFF779FE6420E5
:10CF000002F004FCF9E7000010B5002306E000BFC2
:10CF100030F8024B21F813405B1C9BB29342F7D3CD
:10CF200010BD00002DE9F05FA0F1006415468A46AF
:10CF30008346B4F5802F4FD2FDF7B2FAE70AC4F367
:10CF40004906C6F58064A54200D82C46DFF88C90CF
:10CF50004FF0006000EBC72080464FF480621F490D
:10CF6000FFF7D2FF00204FF6FF7105E0331839F8C4
:10CF700013208A4202D1401CA042F7D3A04223D200
:10CF80004046FCF7F9FB0020494605E03AF810203E
:10CF90008319401C21F81320A042F7D340464FF4D8
:10CFA00080620E4900F01CF8A54211D0281B0AEB44
:10CFB000440A0BEB440B002685B24FF480647F1CBF
:10CFC000A542C5D82C46C3E7224651465846E9E754
:10CFD000BDE8F05FFDF71ABABDE8F09F1805002024
:10CFE0002DE9F04116460F46054600240AE000BF31
:10CFF00037F81420002329460120FDF711FA641C9C
:10D00000A4B2AD1CB442F3D3BDE8F081032808D02C
:10D01000042805D1102903D8044800BF20F81120A6
:10D020007047B1F5397FFBD20148F7E7AC370020F4
:10D03000E43100200349020C4B681A80896808809B
:10D04000FFF788BAAC010020122801D300207047F6
:10D05000014908700120704765030020114830B471
:10D0600081780023491C81700146C4780278896860
:10D07000944202D08370C270416044680C1B962CAD
:10D080000CD8807808280BD3022A04D0042A07D1B0
:10D0900030BCFFF726BF30BC00F05EBC837041603F
:10D0A00030BC70477404002002494A7802434A7039
:10D0B000704700006503002002494A7882434A70A5
:10D0C0007047000065030020014949780840704717
:10D0D0006503002082B2000C062907D0012907D180
:10D0E000044909680A804880FFF734BA0249F8E722
:10D0F00070470000EC010020F001002002490148C7
:10D10000086070470400FA050CED00E010B55020EF
:10D1100080F31188BFF34F8FBFF36F8F03F0BAF81E
:10D1200018B104494FF080500860002080F3118846
:10D1300010BD000004ED00E030B595B02821684630
:10D14000FBF787F814210AA8FBF783F818210FA82A
:10D15000FBF77FF80A20009001201021CDE904019F
:10D1600006A90224002581E831004FF4E01009905F
:10D170006846FDF799FE08B172B6FEE70AA90F20CE
:10D1800081E831004FF48060CDE90D0501210AA846
:10D19000FDF77EFD08B172B6FEE74FF480401190B6
:10D1A0000F940FA8FDF7FEFC002801D072B6FEE731
:10D1B00015B030BD7047000004480078401E0428B8
:10D1C00001D801207047002070470000650300204F
:10D1D00004480078801F042801D8012070470020EF
:10D1E0007047000065030020044800780B380428CD
:10D1F00001D801207047002070470000650300201F
:10D2000010B500F0BBFB00226321BDE810400320F5
:10D21000FFF7FCBE10B5FBF7D1FF0122632103200D
:10D22000FFF7F4FEBDE81040002000F069BB0000ED
:10D2300003480078112801D0002070470120704772
:10D240006503002005480078012805D0062803D092
:10D250000B2801D000207047012070476503002093
:10D2600003480078102801D0002070470120704743
:10D270006503002005480078042805D0092803D05C
:10D280000E2801D000207047012070476503002060
:10D290000348007808B10020704701207047000063
:10D2A0006503002005480078032805D0082803D02E
:10D2B0000D2801D000207047012070476503002031
:10D2C00005480078022805D0072803D00C2801D093
:10D2D0000020704701207047650300200548007852
:10D2E000052805D00A2803D00F2801D00020704758
:10D2F00001207047650300200148FEF7BFB8000019
:10D30000E41500200148FEF7B9B80000BC10002069
:10D31000074810B500680169C90704D06FF0010122
:10D32000016102F0D7FBBDE810400148FEF7A6B846
:10D3300004110020F0B502681C4B1D4D1D4E1E4F00
:10D340001E4C4FF0804C984209D0A04207D0604557
:10D3500005D0A84203D0B04201D0B84204D122F097
:10D36000700E4A6842EA0E02984209D0A04207D0E5
:10D37000604505D0A84203D0B04201D0B84203D1E5
:10D3800022F44075CA682A434D6922F080022A437C
:10D3900002608A68C2620A688262984201D0A04232
:10D3A00001D10969016301214161F0BD002C0140F7
:10D3B0000004004000080040000C00400034014020
:10D3C00010B501F01F030121046A99408C430462E7
:10D3D000016A9A401143016210BD10B5846842EAA7
:10D3E000032224F47F440A432243826010BD8268F2
:10D3F00022F070020A4342F007018160704700008A
:10D40000F0B5026A22F001020262036A426884698E
:10D41000124E24F073050C682C4323F002058B6830
:10D420002B430D4DA84201D0B04205D123F008078F
:10D43000CB683B4323F00403A84201D0B04205D19E
:10D440004D6922F4407215438A692A43426084611F
:10D45000496841630362F0BD002C01400034014083
:10D46000F0B5026A22F010020262026A436884691F
:10D470000D6824F4E64444EA05248D6822F0200275
:10D4800042EA05120F4D104EA84201D0B04206D11B
:10D49000CF6822F0800242EA071222F04002A8423E
:10D4A00001D0B04207D14D6923F4406343EA8503BC
:10D4B0008D6943EA85034360846149688163026240
:10D4C000F0BD0000002C014000340140F0B5026ABC
:10D4D00022F480720262026A4368C46922F4007214
:10D4E00024F073050C68124E2C438D6842EA052225
:10D4F0000E4DA84201D0B04206D1CF6822F400629E
:10D5000042EA072222F48062A84201D0B04207D149
:10D510004D6923F4405343EA05138D6943EA05132B
:10D520004360C4614968C1630262F0BD002C0140E0
:10D530000034014030B5026A22F480520262046A6B
:10D540004268C3690D6823F4E64343EA05238D6806
:10D5500024F4005444EA0534084DA84202D0084D92
:10D56000A84204D14D6922F4804242EA8512426009
:10D57000C36149680164046230BD0000002C0140B1
:10D580000034014010B5036A046A24F00104046207
:10D59000846924F0F00444EA021423F00A020A43E6
:10D5A0008461026210BD10B5036A23F010030362A8
:10D5B0008369046A23F4704343EA023224F0A0032F
:10D5C00043EA01118261016210BD10B5122000F022
:10D5D000F1F8C82000F04CF9BDE81040102000F030
:10D5E000E9B810B50A2000F043F9802000F0E2F815
:10D5F000BDE81040102000F0DDB8000010B5144C5C
:10D60000012211032046FDF760F80122D1032046D4
:10D61000FDF75BF8012291032046FDF756F84FF421
:10D62000FA6000F025F9522000F0C4F8302000F034
:10D63000C1F8002000F0BEF80A2000F0BBF802207C
:10D6400000F0B8F8BDE81040062000F0B3B80000C4
:10D65000000C014008231A460149002000F058B888
:10D66000010400202DE9F0470F46054600244FF441
:10D670000049104E4FF4804818E0E80701D001221D
:10D6800000E0002249463046FDF71FF86D080022F1
:10D6900041463046FDF719F8032000F0E9F8012271
:10D6A00041463046FDF711F8641CE4B2BC42E4D3B5
:10D6B000BDE8F087000C01402DE9F0470F46054614
:10D6C00000244FF40049114E4FF4804819E0280619
:10D6D00001D5012200E0002249463046FCF7F5FF63
:10D6E0006806050E002241463046FCF7EEFF032097
:10D6F00000F0BEF8012241463046FCF7E6FF641C0C
:10D70000E4B2BC42E3D3BDE8F0870000000C014066
:10D710002DE9F047DFF84C8016460D4604464FF4DD
:10D7200080579946002239464046FCF7CEFF032138
:10D73000A020FFF7C1FFA006000E0621FFF7BCFFE7
:10D74000002406E015F8010B4946FFF78BFF641C27
:10D75000E4B2B442F6D339464046BDE8F047012270
:10D76000FCF7B3BF000C014001490870704700008E
:10D77000000400200348002140F8011F4160FFF72A
:10D7800069BF000000040020094A0428135C07D286
:10D7900011B143F0080101E003F0F70111547047A3
:10D7A00011B143F08001F9E703F07F01F6E70000D3
:10D7B0000104002070B50C4D06464FF48054002241
:10D7C00021462846FCF781FF04218020FFF774FFE3
:10D7D00008213046FFF770FF21462846BDE870401B
:10D7E0000122FCF772BF0000000C014070B5124B23
:10D7F00004281A5C04D203F1420402F0080503E095
:10D800000D4C02F080051C34FF2911D05FF000029E
:10D8100004EB420676788E4202D114F812601E5450
:10D82000521CD2B2132AF3D3195C2943195470BD88
:10D8300000211954F8E70000010400200B4A10B53C
:10D84000145C042804D202F1120304F0080403E07B
:10D85000064B04F080040833FF2905D0595C1154AD
:10D86000C9B22143115410BD0021F8E70104002082
:10D87000C0EB0010400000BF401EFCD2704700000B
:10D880000E4908B50878492807D8342803D14878C4
:10D890000B4981F83400FFF77FFA40210748FAF777
:10D8A000D8FC0848406801680A6849680091BDE8EA
:10D8B000084040220149FEF711BB0000383100202A
:10D8C00078310020D001002010B5FBF767F9112056
:10D8D000FFF7BAFB094C60680088FCF743F820703A
:10D8E0000121617060680088FCF726F802466178C3
:10D8F0002078BDE81040FEF751BD0000B8030020BD
:10D9000010B500284FF0010019D0FFF7CDFB022021
:10D91000FFF7D2FB0120FFF797FB0A4801680A488E
:10D920000068006808600949086009490220087019
:10D93000084900200870BDE81040FEF77DBDFFF7E4
:10D94000BBFBE4E744030020EC010020E8010020D9
:10D9500064030020D801002010B5FBF7C9F910209E
:10D96000FFF772FB044A0120107091785170BDE8F6
:10D970001040FEF789BD0000680300200549002023
:10D980000870054908700549087005490870FEF7D8
:10D9900045BD0000D8010020D90100206603002009
:10D9A0006503002010B50220FFF786FB0620FFF775
:10D9B0004BFB09480168094800680068086008498D
:10D9C0000860084902200870074900200870BDE877
:10D9D0001040FEF731BD000044030020F00100209C
:10D9E000E801002064030020D801002010B504469F
:10D9F000FEF74EFC002825D00220FFF75DFB124801
:10DA000004700B20FFF720FB104904EB84000A6828
:10DA100002EB001232F8503C0D4A126813800023CA
:10DA20005380096801EB00110A4831F8502C02803C
:10DA300031F8021C4180084902200870BDE81040FE
:10DA4000FEF7FABC10BD0000D8010020E401002060
:10DA500044030020E80100206403002038B50B4C8B
:10DA600020680168C943C9060BD40168406800906A
:10DA70002046FDF739FFA06B00684068C0B2FFF791
:10DA8000FFFEBDE838400148FDF75CBF8013002071
:10DA90000148FDF757BF00003C14002010B5406A54
:10DAA0000021C185C184FDF74BFF10BD70B5446AEC
:10DAB0002068406994F83D10C0F3C010002521296A
:10DAC00004D118B1E584204600F067F82068406969
:10DAD00094F83E10C0F38010222904D118B1E585D6
