:020000040800F2
:10800000003B0020DD810008C1C2000871B40008F7
:10801000D1BF0008D58900083DD20008000000004B
:108020000000000000000000000000004581000882
:10803000958C0008000000008981000889C40008B0
:10804000F7810008F7810008F7810008F781000830
:10805000F7810008F7810008F7810008F781000820
:10806000F7810008F7810008F7810008F781000810
:10807000F7810008158C0008F7810008F7810008D7
:10808000F7810008F7810008F7810008F7810008F0
:10809000F7810008F7810008F7810008F7810008E0
:1080A000F781000859C60008F7810008F781000829
:1080B000F7810008F781000865C60008F78100080D
:1080C000F7810008F7810008F7810008F7810008B0
:1080D000F781000879D10008A5D10008B1D10008C6
:1080E000F7810008F7810008F7810008F781000890
:1080F000F7810008F7810008F7810008F781000880
:10810000F7810008F781000871C60008F7810008B0
:1081100075CD0008A9CD0008F7810008F781000897
:10812000F7810008F7810008218C0008F78100081A
:10813000DFF80CD000F0B6F80048004715DD000865
:10814000003B0020224B19680868B0E8F00F80F36C
:108150000988BFF36F8F4FF0000080F311884EF055
:108160000D0E70470000000006480068006880F3AC
:10817000088862B661B6BFF34F8FBFF36F8F00DF21
:1081800000BF00BF08ED00E0EFF30980BFF36F8F81
:108190000F4B1A6820E9F00F106008B54FF050003F
:1081A00080F31188BFF34F8FBFF36F8F06F098FCF9
:1081B0004FF0000080F31188BDE808401968086896
:1081C000B0E8F00F80F30988BFF36F8F704700BFEE
:1081D000A8000020EFF305807047000006488047A4
:1081E00006480047FEE7FEE7FEE7FEE7FEE7FEE79C
:1081F000FEE7FEE7FEE7FEE731C500083181000833
:10820000202A04DB203A21FA02F00021704721FAEB
:1082100002F3D040C2F12002914008431946704752
:1082200040EA01039B0703D009E008C9121F08C0F8
:10823000042AFAD203E011F8013B00F8013B521E78
:10824000F9D27047D2B201E000F8012B491EFBD2EF
:1082500070470022F6E710B513460A460446194651
:10826000FFF7F0FF204610BD421C10F8011B00294B
:10827000FBD1801A704730B50B4601460020202202
:10828000012409E021FA02F59D4205D303FA02F523
:10829000491B04FA02F52844151EA2F10102F1DC83
:1082A00030BD0000064C074D06E0E06840F00103D9
:1082B00094E8070098471034AC42F6D3FFF73CFF30
:1082C000A0F50008C0F5000870B58C1810F8015B27
:1082D00015F0070301D110F8013B2A1106D110F85F
:1082E000012B03E010F8016B01F8016B5B1EF9D163
:1082F0002B0705D40023521E0DD401F8013BFAE7E9
:1083000010F8013BCB1A921C03E013F8015B01F853
:10831000015B521EF9D5A142D8D3002070BD0000E8
:1083200070B5044600688168C943C90717D18168E0
:1083300021F00101816001F0A3FB05460AE000BFC6
:1083400001F09EFB401B022804D920688068C043CE
:10835000C00706D020688068C043C007F0D0002066
:1083600070BDA06A40F01000A062E06A40F0010019
:10837000E062012070BD000070B5244C4FF44876D7
:10838000A1886088814207D0B04200D966806088A9
:1083900000F00EFB6088A08004F042F9002530B99F
:1083A00004F030F9A8B1022004F060F888B1207818
:1083B0000028608805D040B1102808D910386080A6
:1083C00070BDB04201D21030F9E7257070BD6580F4
:1083D00070BD04F0FFF850B120780028608801D00B
:1083E00080B9F2E7B04209D30120207070BD08487F
:1083F00000780028608803D0B042F7D20830DEE76A
:108400000028F3D00828E2D90838D8E784030020F0
:10841000B1020020002000F0CBBA000010B500F03F
:10842000F9FD064800214170817000F0F5FA04F072
:1084300091FABDE8104004F081BA0000F801002074
:1084400008480021417081708169D0F806200A60D7
:10845000C169D0F80A200A6000F120019022006969
:10846000FFF7DEBEF801002010B50821042000F05F
:108470007DFD0149886010BD040300202DE9F0470F
:1084800003F06CF8224D0024DFF88890224E28700B
:10849000AF1CA046385D297888422AD1012069782E
:1084A000A040084256F8240014D0401C46F824008E
:1084B0000F2820D399F80000102807D0112807D0E2
:1084C00013484C3050F82400804714E01348F9E773
:1084D0001348F7E708B904F028FA99F800001028C3
:1084E00011D0112811D00A4810F12C0050F82400A6
:1084F000804746F82480641CE4B2082CCAD328784C
:108500006870BDE8F0870748F0E70748EEE700002D
:108510008C030020B102002080300020E402002003
:1085200030030020C4020020100300207047000028
:1085300010B50D4C28216088B0FBF1F201FB120050
:1085400018B103F081FE18B104E003F0ABFD01E0C7
:1085500003F09CFD608842F21071884201D2401CF9
:1085600000E00020608010BD1804002010B500213C
:10857000032000F011FD064C0121A070032000F043
:108580000BFDE0700221032000F006FD207110BDFC
:10859000B40200202DE9F0478D4D42F21071002603
:1085A0006868401C6860884200D96E602879894CF0
:1085B000C00728D003F070FE48B12078012140F0B8
:1085C00008002070084604F093FA04F0F5F904F06E
:1085D00039FE012805D004F035FE032809D0BDE896
:1085E000F08769680520B1FBF0F200FB121000284B
:1085F00005D12078410703D440F00400207092E0B8
:1086000020F00400FAE72078002120F00800207014
:10861000012004F06DFA04F0CFF902F075FF38B1D3
:1086200000F024FD1128DAD0BDE8F04704F0E4BAE8
:1086300003F0C2FF684FDFF8A481694CB0B301209A
:1086400003F014FF0028CAD12878401CC0B228705B
:108650000228C4D9A946072805D2C00763D0BDE8BF
:10866000F04703F08BB904F0BDFD98F80000062830
:1086700002D1396860884880022003F0F7FE594D26
:1086800048B13968208808802078287003F0A6F85F
:1086900000F004F907E000F027F91420608020784A
:1086A000287003F09BF889F8006098E7FFE703F073
:1086B000B7FF58B16088401E608003F08FF8608873
:1086C00000288CD100F0EAF8386849E003F09AFFFE
:1086D000C8B398F80000032829D0082834D00D2802
:1086E000E3D16088404D401C6080287802F016FF7E
:1086F000C8B13E4E28783E4A316800EB400001EB9D
:1087000000111078678801EB800333F82E3CBB42E0
:1087100009D80B2827D0401CC0B2107001EB800094
:1087200030F8300C2080BDE8F04703F057B860887F
:10873000401C608003F052F8608841F270718842FA
:10874000B3D366804BE717E06088401E608003F07B
:1087500045F860880028A8D100F0ECF825480068AA
:1087600040886080DFE700F0E5F82878316800EBAA
:10877000400001EB0010D3E703F02CFF70B16088DC
:1087800010B1401E608018E0022003F06FFE002848
:108790008BD0BDE8F047022003F060BE03F04EFF2F
:1087A0000028CFD02878401CC0B22870042807D2F7
:1087B000C00702D003F010F8E6E703F00FF8E3E794
:1087C000012004F033FA03F009F82E70DCE7000012
:1087D000F8030020B0020020A8020020B10200200F
:1087E0000C020020F8010020F901002008020020FE
:1087F000FA0100201402002001490220087070478D
:10880000B002002000B5012003F028FE03F0D4FEE2
:1088100000280CD103F004FF0C4910B10878401E69
:1088200004E003F0EFFE18B10878801E087000BD68
:1088300003F0D0FE10B10878C01EF7E703F0FEFE8B
:108840000028F4D00878001FF0E70000B1020020F3
:1088500000B5012003F002FE03F0AEFE0E4910B198
:108860000878C01C04E003F0DBFE18B10878801C17
:10887000087000BD03F0C6FE10B10878401CF7E791
:1088800003F0A8FE0028F4D103F0D8FE0028F0D0B1
:108890000878401EECE70000B102002000B501207E
:1088A00003F0DCFD03F088FE0E4910B10878801C4F
:1088B00004E003F0B5FE18B10878401C087000BD54
:1088C00003F0A0FE0028FAD103F084FE10B108786E
:1088D000401EF3E703F0B2FE0028F0D00878801EB7
:1088E000ECE70000B102002000B5012003F0B6FD66
:1088F00003F062FE0E4910B10878401C08E003F056
:108900008FFE002805D103F07DFE18B10878401EC7
:10891000087000BD03F05EFE10B10878801EF7E716
:1089200003F08CFE0028F4D00878C01EF0E70000A9
:10893000B102002000B5012003F090FD03F03CFEE1
:108940000D4910B10878001D04E003F069FE18B16C
:108950000878C01C087000BD03F054FE10B1087800
:10896000801CF7E703F036FE10B10878401CF1E7F1
:108970005DF804EB03F062BEB1020020012000F0BC
:1089800001B80000032801D80149087070470000B1
:1089900083030020FFF73EFD044801F096F9FFF73E
:1089A000EBFC142005F08CFCF6E70000F80E00202C
:1089B00010B50421064802F093F805490120096822
:1089C0008863BDE810400421014802F02FB8000080
:1089D000040F0020FEE7000030B5ADF5017D0D4627
:1089E00004464FF400720B496846FFF719FC00205B
:1089F000694608E014F8012B82EA102231F81220AF
:108A000082EA002080B26D1EADB2F3D20DF5017D79
:108A100030BD000098F200082B4B10B59869008813
:108A200002F083FD18B99869D3F806100160D8697F
:108A3000008802F07AFD20B1D869408802F07CFD00
:108A400018B9D869D3F80A1001600022DA701A71D7
:108A5000D878196900EB400001EB0010197930F863
:108A6000210002F062FDD8B1D878196900EB40000E
:108A700001EB0010197900EB8100408802F05CFDE9
:108A800070B11879A0B1D9781C6901EB410104EBF0
:108A9000011101EB80014C8831F8021C8C4207D88F
:108AA000094918699022BDE810402031FFF7B8BB92
:108AB000401CC0B218710C28CAD3D878401CC0B270
:108AC000D8700328C3D310BDF801002010B50822C8
:108AD000064B002133F81140844201D1012010BD22
:108AE000491C89B29142F5D3002010BD0804002032
:108AF000044800218268118001704170012004F057
:108B000095B8000004030020014900200870704758
:108B1000F8030020012803D0022803D1FFF72EBF5D
:108B200004F08DBB7047C0B200F096B800F0A6B854
:108B3000014610B5000A11F0FF010BD001290DD03C
:108B400002290ED103280CD204F0DEF8BDE8104053
:108B500000F0FCB9002004F069F8F7E704F0B6F87B
:108B6000F4E710BD10B538B103F042FD002807D07E
:108B7000BDE8104003F00FBDBDE8104003F0FEBC9F
:108B800010BD000070B5204E204C142560B10128A6
:108B900015D002281ED003281BD1012004F046F86E
:108BA000BDE8704002F01ABE03F014FD002810D199
:108BB000FFF74EFE306821680160002007E003F0F7
:108BC00009FD002805D0FFF78FFE3068008820805F
:108BD000658070BD03F0AEFC20B1BDE870400020A0
:108BE00004F024B803F0B2FC18B1BDE8704004F002
:108BF0006DB803F0B7FC0028EBD005480078BDE85D
:108C0000704004F081B80000A80200200C0200208F
:108C1000F9010020014800F025BC00007814002074
:108C2000014800F01FBC00003414002030B590F85B
:108C300040500124AC40C56B6C60046863604368BD
:108C4000102B036803D099600068C26030BD9A6041
:108C50000068C16030BD0000074910B508801439B4
:108C6000087003F0CFFC002804D0BDE810400220BB
:108C700003F0ECBB10BD00000C02002010B5044650
:108C800003F0CEFC002801D10148448010BD000053
:108C90000C02002070474FF4FA7204E00021491CD6
:108CA00089B29142FBD3401E80B2F7D270470000D8
:108CB00010B586B00446142211496846FFF7B0FA91
:108CC0004FF4E130042C0FD0012C0FD0022C0BD02C
:108CD000032C09D0052C07D0601E04280ED8684646
:108CE00000EB840050F8040C06B010BD05490220CA
:108CF000C9680880034810308068F5E70020F3E772
:108D000084F20008CC01002010B50021032000F0FF
:108D10002DF90D4C01212060032000F027F9E060BF
:108D20000120FFF7C5FF0021042000F01FF960605B
:108D30000121042000F01AF9A060FFF795FBBDE8BF
:108D40001040FFF713BC0000CC01002010B5044612
:108D5000800703D5FF21052003F01AFFE00705D0A7
:108D6000FF21BDE81040042003F012BF10BD10B574
:108D70000446400703D50021072003F0B9FEA007F1
:108D800003D5FF21072003F003FFE00705D0FF21F3
:108D9000BDE81040062003F0FBBE10BD70B50546CF
:108DA0000A24B0FBF4F0B0FBF4F104FB1101002045
:108DB00003F0EEFEB5FBF4F004FB1051BDE870408B
:108DC000012003F0E5BE10B504460821052003F09C
:108DD000C1FE0A20B4FBF0F100FB1141BDE81040D8
:108DE000042003F0D5BE70B505460A24B0FBF4F0AC
:108DF000B0FBF4F104FB1101022003F0C9FEB5FB46
:108E0000F4F004FB1051BDE87040032003F0C0BE35
:108E100070B50446642802D94FF0640400E002D320
:108E20004FF0010101E04FF000014FF0070003F0A7
:108E30005FFE0A25B4FBF5F0B0FBF5F105FB11016F
:108E4000072003F0A5FEB4FBF5F005FB1041BDE8DB
:108E50007040062003F09CBE72B6FEE7064A002171
:108E6000D16106490A6942F002020A614861086953
:108E700040F04000086170470815002000200240C3
:108E8000044B0022DA61044A136943F001031361C1
:108E9000018070470815002000200240144800227D
:108EA000C168CB06134904D5CA6942F00202CA61FF
:108EB0001022C3685B0705D5CB6943F00103CB6182
:108EC00042F00402C369DB0707D0CB6943F0040317
:108ED000CB61C16921F00101C161A2F58071013945
:108EE00001D0C2607047C16921F00101C1617047C2
:108EF000002002400815002070B5054600F0C0FDB6
:108F00000646114C09E0681C07D025B100F0B8FDF9
:108F1000801BA84201D9032070BDE068C007F2D1D0
:108F2000E068800601D52020E060E068C00605D436
:108F3000E069C00702D1E068400703D5FFF7AEFF44
:108F4000012070BD002070BD0020024010B503F06C
:108F5000A3F9002806D0044914200880BDE8104079
:108F600002F03CBC10BD00000C020020032802D01F
:108F7000042805D00AE0B1F5397F07D2044802E0A1
:108F8000082903D8034800EB4100704700207047D0
:108F9000A030002068360020032802D0042805D025
:108FA0000AE0B1F5397F07D2044802E0082903D866
:108FB000034830F81100704700207047A0300020AF
:108FC0006836002030B500231A46012505FA02F460
:108FD000044206D05B1CDBB2994202D1521CD0B2D3
:108FE00030BD521CD2B2102AF0D3002030BD000098
:108FF000024610B5002001465FF0010404FA01F3B7
:10900000134201D0401CC0B2491CC9B21029F5D38B
:1090100010BD000000B570210320FFF7A7FF0E4927
:10902000086080210320FFF7A1FF0C49086082211E
:109030000320FFF79BFF0A4908604FF4807103206B
:10904000FFF794FF0749086008210420FFF78EFF0F
:109050000549086000BD0000A802002010020020A1
:109060001402002008020020AC0200200148007811
:1090700070470000B1020020F8B50024009490F879
:1090800024202546012A12D0012280F824204A6893
:109090001F23072A0DD20668776B521E02EB82024D
:1090A00093409F430B6893401F43776319E002206E
:1090B000F8BD06680D2A0AD2376BD21F02EB820276
:1090C00093409F430B6893401F43376309E0F76A5F
:1090D0000D3A02EB820293409F430B6893401F437B
:1090E000F7620A68072306680A2A0AD3F7680A3A69
:1090F00002EB420293409F438B6893401F43F7600B
:1091000008E0376902EB420293409F438B6893402B
:109110001F4337610A68102A01D0112A20D1124B4F
:1091200002689A4217D193681B0219D4936843F4DA
:10913000000393600968102912D10C490C4A096890
:10914000B1FBF2F101EB8101490000E0491E009101
:109150000029FBD104E0816A41F0200181620124F1
:1091600080F824502046F8BD00240140A4000020CF
:1091700040420F002DE9F04104004FF000057FD080
:10918000A06A002628B9E66284F82460204600F030
:1091900081F82046FFF7C4F8A16AC90600D420B1BF
:1091A000A06A40F01000A0626AE0A16A21F4885130
:1091B00041F00201A162334923688B42E16904D185
:1091C000B1F5402F01D14FF40021277B4FF4807C73
:1091D00041EA470261680A43A168614508D0012954
:1091E00006D0002194F814E0BEF1010F02D00AE08D
:1091F0006146F7E7C7B1A76A47F02007A762E76AA9
:1092000047F00107E7625F6827F469470F435F6033
:10921000236899681C4F394011439960A1686145E2
:109220000BD0012909D00CE0DFF860E0A7690EEB54
:1092300047370F4347F40061E5E7218A0D05A5F59F
:1092400080152168CB6A23F470032B43CB6221681D
:1092500089680F4B1940914208D1E662A16A21F05A
:10926000020141F00101A162BDE8F081A06A20F095
:10927000020040F01000A062E06A40F00100E062ED
:109280000120F1E7003C0140FDF7E1FF00E0FFFFB6
:10929000FE0E1FFF00B585B00021009101910291E3
:1092A000039100680E49884218D10E48816941F443
:1092B00080618161816901F480610491816941F07B
:1092C000040181618069694600F004000490602017
:1092D000009003200190044800F0CCFA05B000BDD6
:1092E00000280140001002400008014010B590F82D
:1092F00021100022022905D00421816380F820205A
:10930000012010BD01680B6823F00E030B6001689B
:109310000B6823F001030B6090F84030C46B01210F
:1093200001FA03F3636080F8211080F820201046D2
:1093300010BD00002DE9F05F90F8211000240229F3
:1093400003D004218163012485E001680A6822F0CA
:109350000E020A6001680A6822F001020A603F4EAC
:109360003E4FB215DFF8F4C0DFF8F090DFF8ECA064
:10937000DFF8E8B0DFF8E4E00168783F1301150298
:10938000ACF1640CA9F15009AAF13C0AABF1280B2D
:10939000AEF1140E4FF48018B14227D9B9420ED065
:1093A000614512D049451DD0514518D0594518D0B6
:1093B000714501D1424615E0294EB14201D1012249
:1093C00010E0274E1436B14201D110220AE0244E9B
:1093D0002836B14206D0224A3C32914201D11A4687
:1093E00000E02A461E49091F0A602BE0B94213D04B
:1093F000614517D0494522D051451DD059451DD052
:10940000714501D142461AE0B14202D14FF080725B
:1094100015E0134EB14201D1012210E0104E143676
:10942000B14201D110220AE00D4E2836B14206D0D9
:109430000B4A3C32914201D11A4600E02A460749C4
:1094400080394A60012180F82110002180F8201025
:10945000416B01B188472046BDE8F09F8000024083
:10946000080402402DE9F05FC16B0A6801680B68CF
:10947000046C4FF0040808FA04F8844D844E854FBC
:10948000DFF814C2DFF81492DFF814A2DFF814B288
:10949000DFF814E218EA020F65D05FEA437862D57C
:1094A0000A68920603D40A6822F004020A60DFF810
:1094B000F0814FF48062016808F11408130114026E
:1094C000414524D9A9420DD0B1420FD0B9421AD09A
:1094D000614515D0494515D0514501D1120312E01F
:1094E000594501D104220EE0714501D140220AE024
:1094F0006D4D1435A94206D06B4A2832914201D1F4
:109500001A4600E022466749091F0A6029E0A9427D
:1095100013D0B14215D0B94220D061451BD0494586
:109520001BD0514502D14FF4800217E0414502D1D2
:109530004FF0806212E0594501D104220EE07145DE
:1095400001D140220AE0584D1435A94206D0564AAE
:109550002832914201D11A4600E022464B4908398F
:109560004A60C16A71E04FF0020808FA04F818EA8C
:10957000020F70D05FEA83786DD50A68920606D430
:109580000A6822F00A020A60012180F82110DFF83F
:1095900010814FF40072016808F1140813011402DD
:1095A000414524D9A9420DD0B1420FD0B9421AD0B9
:1095B000614515D0494515D0514501D1120312E03E
:1095C000594501D102220EE0714501D120220AE065
:1095D000354D1435A94206D0334A2832914201D183
:1095E0001A4600E022462F49091F0A6029E0A942D5
:1095F00013D0B14215D0B94220D061451BD04945A6
:109600001BD0514502D14FF4001217E0414502D161
:109610004FF0007212E0594501D102220EE071456F
:1096200001D120220AE0204D1435A94206D01E4A5D
:109630002832914201D11A4600E0224613490839E6
:109640004A60002180F82010816A00291CD0BDE802
:10965000F05F0847FFE70825A540154214D01A0718
:1096600012D50A6822F00E020A6090F84020C36BFF
:10967000012101FA02F25A60816380F82110002171
:1096800080F82010016BE0E7BDE8F09F0800024081
:109690001C000240300002404400024058000240DA
:1096A0006C000240080402401C04024030B560B166
:1096B0001A4B026814219A4209D2194B1344B3FB86
:1096C000F1F18900016417490AE0012030BD134B14
:1096D0005B421344B3FBF1F1890001640F4908397F
:1096E000C163022180F82110136843F6F0718B43A7
:1096F000F0E901142143D0E902452C4321430469D8
:1097000021434469214384692143194311600021A5
:109710004163012242770177084630BD08040240C8
:10972000F8FFFDBF0000024070B5044690F820002D
:10973000002501280CD0012084F8200094F8216035
:109740000020012E06D084F820000225284670BD96
:10975000022070BD022684F82160A063206806689C
:1097600026F0010606602046FFF760FAE06A00284E
:109770002068016802D041F00E0106E021F00401EA
:1097800001602068016841F00A01016020680168F9
:1097900041F001010160D9E7064810B54FF0FF31F3
:1097A000C16000220261C160C26000F0F5FA0020D1
:1097B00010BD0000001002400348016941F0800123
:1097C0000161002070470000002002402DE9F05F99
:1097D00007461C4888460024017E15461E4601297E
:1097E00009D00121814601764CF2503A5046FFF7EC
:1097F00083FB18B122E00220BDE8F09F012F02D0C8
:10980000022F00D00427D346DFF83CA022012846CF
:109810003146FEF7F5FC81B208EB4400FFF730FB60
:109820005846FFF769FBDAF8102022F00102CAF867
:10983000102018B9641CE4B2BC42E7D3002289F8B6
:109840001820D9E708150020002002400649002012
:109850000A69120607D5054A4A60054A4A6009693D
:10986000090600D50120704700200240230167450A
:10987000AB89EFCD2DE9F84FDFF8C891002409F14D
:10988000040A0AF1040B23460F270BF1040ED1E062
:109890000125A54006EA0502AA4276D1DFF8A8C153
:1098A0004E68A6EB0C0866452BD00DDC032E34D099
:1098B00005DC36B3012E19D0022E2FD11BE0112E5C
:1098C00016D0122E2AD119E0B8F5881F19D006DC5F
:1098D000B8F5803F15D0B8F5801F1FD111E0B8F55D
:1098E000001F0ED0B8F5041F18D10AE0CB6815E0B0
:1098F000CB681B1D12E0CB6808330FE0CB680C333C
:109900000CE08B682BB1012B4FF0080303D04561AD
:1099100004E0042302E0056100E00023FF2A01D8EF
:10992000064601E000F104064FEA840501D9A5F1DD
:109930002005D6F8008007FA05FC28EA0C0803FA8F
:1099400005F548EA0508C6F800804D68ED0070D5B9
:109950003E4DAE6946F00106AE61AD6924F00306E6
:1099600005F0010500953A4D06EB050CDCF80850B2
:10997000A607360F07FA06F825EA0805DFF8D480AF
:10998000404503D14FF0000825E052E0DFF8C880E1
:10999000404502D14FF001081DE0DFF8C08040458E
:1099A00002D14FF0020816E0DFF8B480404502D142
:1099B0004FF003080FE0DFF8AC80404502D14FF0D4
:1099C000040808E0DFF8A080404502D14FF0050808
:1099D00001E04FF0060808FA06F848EA0508CCF856
:1099E00008804D68D9F80060ED034D4601D5164357
:1099F00000E096432E604D68DAF80060AD035546EE
:109A000001D5164300E096432E604D68DBF80060F8
:109A1000ED025D4601D5164300E096432E604D6889
:109A2000DEF80060AD02754601D5164300E09643AE
:109A30002E60641C0A681646E2407FF429AFBDE838
:109A4000F88F0000000401400000111000100240D7
:109A50000000014000080140000C014000100140DE
:109A60000014014000180140001C014080680840BB
:109A700000D0012070470AB1016170470904FBE77B
:109A800001488068704700009800002070B504000D
:109A900025D094F83D00002520B984F83C5020469C
:109AA00000F0B8F8242084F83D002068016821F017
:109AB000010101602068016841F4004101602068F3
:109AC000016821F40041016000F004FB4D4A616827
:109AD000914201D84C4900E04C49884201D2012012
:109AE00070BD4B492368B0FBF1F15E6826F03F067C
:109AF0000E435E606368934206D94FF496735943F0
:109B00004FF47A73B1FBF3F12368491C1E6A26F007
:109B10003F06314319626168914210D84900401EE6
:109B2000B0FBF1F2521CC2F30B02042A01D2042052
:109B300022E0B0FBF1F0401CC0F30B001CE0A26877
:109B4000F2B301EBC10303EB0116431EB3FBF6F3C3
:109B50005B1C43F480431B0549D092B301EBC10267
:109B600002EB0111401EB0FBF1F0401CC0F30B00F2
:109B700040F4804040F400402168CA694CF6FF730D
:109B80009A431043C861D4E9071001432068026872
:109B900022F0C00211430160D4E9030101432068AF
:109BA000826848F2FF339A4311438160D4E905018A
:109BB00008432168CA6822F0FF021043C86001E030
:109BC0000EE016E02068016841F0010101602564A3
:109BD000202084F83D00256384F83E50002070BDAD
:109BE00001EB4106431EB3FBF6F35B1CB3E7012018
:109BF000C2E701EB4101401EB0FBF1F0401CC0F395
:109C00000B00B7E7A086010080841E0000093D001C
:109C100040420F0010B586B00021009101910291E1
:109C2000039100680F4988421AD10F4CA06940F097
:109C30000800A061A069694600F008000490C020F7
:109C4000009012200190032003900848FFF712FEB5
:109C5000E06940F40010E061E06900F40010049055
:109C600006B010BD0054004000100240000C01403E
:109C700070B5040011D021684CF6CC400860216812
:109C800045F255500860D4E9000141602168A068A0
:109C90008860FFF7F5FE05460DE0012070BD00BFAE
:109CA000FFF7EEFE401B272805D92068C068800713
:109CB00001D0032070BD2068C0688007F0D1216802
:109CC0004AF6AA200860002070BD00684AF6AA2162
:109CD000016000207047000002488168027811444A
:109CE0008160704798000020074810B5016841F076
:109CF00010010160032000F0AFF80F2000F006F81B
:109D000000F04CF8002010BD0020024030B50546A0
:109D10001C4887B0816941F400618161806906A9AE
:109D200000F40060009001A800F0B4F900F0E2F93E
:109D30001549164AB0FBF1F11548491E0260416011
:109D400040F2E7320021C0E903218160816100F027
:109D5000E7FB040012D10E4800F05AFC04000DD1BC
:109D6000192000F04CF8102D07D2002229461920A6
:109D700000F052F80748056000E0012407B02046D3
:109D800030BD00000010024040420F00002C014096
:109D9000BC1400209C000020704700000F4808B54C
:109DA000816941F001018161816901F00101009146
:109DB000C16941F08051C161C069002200F080504A
:109DC00000900F21901E00F027F80548416821F00F
:109DD000E06141F00071416008BD000000100240E8
:109DE00000000140002809DB00F01F020121914022
:109DF0004009800000F1E020C0F880127047002880
:109E000009DB00F01F02012191404009800000F1B0
:109E1000E020C0F800117047F0B40E4B1B680C46F0
:109E2000C3F30223C3F10705042D00D90425191D2E
:109E3000072901D2002300E0DB1E012606FA05F106
:109E4000491E214099409E40761E16403143F0BC89
:109E500003F032BA0CED00E0064900F00702086892
:109E60004FF6FF03184040EA0220034A10430860FF
:109E7000704700000CED00E00000FA052DE9F84302
:109E800005460078354CC00754D0E0690026C00074
:109E900008D4E06940F08050E061E069012600F0FC
:109EA000805000902E480168C90512D40168804690
:109EB00041F480710160FFF7E3FD074605E000BF54
:109EC000FFF7DEFDC01B642823D8D8F80000C005CA
:109ED000F6D5206A10F4407021D0A98801F44071B1
:109EE00081421CD0206A1F49012220F440700A6080
:109EF00000220A602062C00711D0FFF7C1FD0746AB
:109F000041F2883808E000BFFFF7BAFDC11B4145A8
:109F100002D90320BDE8F883206A8007F4D5206ABF
:109F2000696820F44070084320621EB1E06920F0A7
:109F30008050E0612878800705D56068A96820F422
:109F40004040084360602878C00605D560686969AC
:109F500020F48000084360600020DBE7001002402E
:109F600000700040400442422DE9F0470F460500D2
:109F700061D0434E306800F00700B84209D2306823
:109F800020F0070038433060306800F00700B84226
:109F900051D128683B4C810712D5400703D5606832
:109FA00040F4E06060602878000703D5606840F402
:109FB000605060606068A96820F0F000084360604D
:109FC0002878C00728D06868012810D021680228A6
:109FD00010D0890700292EDA616821F003010143BE
:109FE0006160FFF74DFD804641F288390DE0216840
:109FF0008903EFE78901EDE7FFF742FDA0EB0801D8
:10A00000494502D90320BDE8F0876068696800F01F
:10A010000C00B0EB810FEFD1306800F00700B842C0
:10A020000BD9306820F0070038433060306800F00A
:10A030000700B84201D00120E5E72878400705D5A0
:10A040006068E96820F4E0600843606028780007F1
:10A0500006D56068296920F4605040EAC10060605C
:10A0600000F058F86168084AC1F30311515CC84018
:10A070000649086006480068FFF748FE0020C2E76E
:10A0800000200240001002406CF00008A4000020F4
:10A090009C0000200F2202600C4A536803F0030367
:10A0A0004360536803F0F0038360536803F4E06394
:10A0B000C36052684FF4E06303EAD20202610448CD
:10A0C000006800F0070008607047000000100240C0
:10A0D000002002400448054900684968044AC1F369
:10A0E0000221515CC8407047A400002000100240CB
:10A0F0007CF000080448054900684968044AC1F337
:10A10000C221515CC8407047A400002000100240EA
:10A110007CF0000812A185B00FC98DE80F0014A0D3
:10A12000144A006804905168134801F00C03042B92
:10A1300010D0082B0ED1C1F38343C9031DF80300CF
:10A140000AD5516804AAC1F34041515C0A4A504300
:10A15000B0FBF1F005B0704708494843FAE700004A
:10A1600002030405060708090A0B0C0D0E0F101058
:10A17000010200000010024000127A0000093D00B8
:10A180002DE9F84F040070D02078C04DC00749D0A9
:10A190006868C0F38100012807D06868C0F38100B7
:10A1A000022809D16868C00306D52868800339D51C
:10A1B00060680028E7D035E06068B0F5803F0BD0DC
:10A1C00010B1B0F5A02F11D0286820F4803028609D
:10A1D000286820F4802002E0286840F4803028605D
:10A1E000606890B1FFF74CFC06460AE0286840F42E
:10A1F00080202860F0E700BFFFF742FC801B642846
:10A2000073D828688003F7D50CE0FFF739FC0646C1
:10A2100005E000BFFFF734FC801B6428F0D82868F5
:10A220008003F7D420789A4E80074FF001094FF051
:10A23000000839D5686810F00C0F07D06868C0F3C3
:10A240008100022809D16868C00306D42868800705
:10A2500014D52069012808D110E02069B0B1C6F8F2
:10A260000090FFF70DFC074605E00AE1FFF708FC48
:10A27000C01B0228C4D828688007F7D52868616900
:10A2800020F0F80040EAC10028600DE0C6F8008028
:10A29000FFF7F6FB074604E0FFF7F2FBC01B0228BE
:10A2A00023D828688007F7D4207800072CD5794870
:10A2B000A169D9B1C0F80090FFF7E2FB074604E0BE
:10A2C000FFF7DEFBC01B02280FD8686A8007F7D5AE
:10A2D00071484FF4FA510068B0FBF1F0009000BFF4
:10A2E0000098411E0091FAD20EE080E0C0F8008094
:10A2F000FFF7C6FB074604E0FFF7C2FBC01B0228BE
:10A3000075D8686A8007F7D42078400760D5E86977
:10A310000027C00008D4E86940F08050E861E8698F
:10A32000012700F0805000905C480168C90513D4F3
:10A330000168834641F480710160FFF7A1FB82460A
:10A3400006E000BFFFF79CFBA0EB0A0064284ED894
:10A35000DBF80000C005F5D5E06801280AD008B197
:10A36000052813D0286A20F001002862286A20F00E
:10A37000040002E0286A40F001002862E06841F22F
:10A38000883B98B1FFF77CFB82460BE0286A40F0DF
:10A3900004002862EEE700BFFFF772FBA0EB0A01A2
:10A3A00059455AD8286A8007F6D50CE0FFF768FBB4
:10A3B000824605E0FFF764FBA0EB0A0159454CD843
:10A3C000286A8007F6D41FB1E86920F08050E86160
:10A3D000E06988B36968C1F38101022944D0022889
:10A3E000C6F8608004D0FFF74BFB044638E034E049
:10A3F000FFF746FB074604E0FFF742FBC01B0228BD
:10A400002BD828688001F7D4206AB0F5803F05D1A9
:10A410006868A16820F4003008436860D4E9080146
:10A420000843696821F4741108436860C6F86090B5
:10A43000FFF726FB044606E025E000BFFFF720FB00
:10A44000001B022809D828688001F7D51BE000BF4F
:10A45000FFF716FB001B022802D90320BDE8F88F86
:10A4600028688001F4D40EE00128F7D06868226AD9
:10A4700000F48031914204D1616A00F47010884286
:10A4800001D00120EAE70020E8E7000000100240C8
:10A490000000424280044242A400002000700040BC
:10A4A0007047704770B590F83C20012A2CD00124E9
:10A4B00080F83C40022280F83D2003685A689D687D
:10A4C00022F070060A6832435A60104B02689A42C2
:10A4D0000ED00F4B9A420BD0B2F1804F08D00D4BEB
:10A4E0009A4205D00C4B9A4202D00C4B9A4204D1AE
:10A4F000496825F080031943916080F83D400021B0
:10A5000080F83C10084670BD022070BD002C014050
:10A51000003401400004004000080040000C0040EE
:10A5200010B5040003D094F83D0010B107E00120FD
:10A5300010BD002084F83C00204600F01FF80220E7
:10A5400084F83D00211D206802F0A4F8012084F861
:10A55000460084F83E0084F83F0084F8400084F808
:10A56000410084F8420084F8430084F8440084F8F1
:10A57000450084F83D00002010BD000008B50168CA
:10A580001F48B1F1804F0BD01E4A914210D1C169D2
:10A5900041F00201C161C06900F00200009008BDF5
:10A5A000C16941F00101C161C06900F00100F5E736
:10A5B000154A91420ED1C16941F00401C161C069DF
:10A5C000002200F00400009005211E20FFF724FC6B
:10A5D0001E2010E00D4A9142E1D1C16941F008010D
:10A5E000C161C069002200F00800009005213220FE
:10A5F000FFF712FC3220BDE80840FFF700BC000066
:10A60000001002400004004000080040000C004020
:10A6100090F83D10012901D001207047022180F8F7
:10A620003D100168CA6842F00102CA6000680E4924
:10A6300088420ED00D4988420BD0B0F1804F08D02F
:10A640000B49884205D00B49884202D00A4988420A
:10A6500004D1816801F00701062903D0016841F0A7
:10A660000101016000207047002C014000340140CE
:10A670000004004000080040000C004070B5044693
:10A6800090F83C00012817D0012584F83C500220A6
:10A6900084F83D002068826822F0770222F47F422D
:10A6A00082600868502830D00DDC20284DD005DCB1
:10A6B00098B310283BD148E0022070BD302844D028
:10A6C000402834D139E0602828D0702806D0B0F571
:10A6D000805F2CD0B0F5005F29D10AE0CB68D1E9CA
:10A6E0000121206802F029F82068816841F0770193
:10A6F00009E0CB68D1E90121206802F01EF820684A
:10A70000816841F48041816011E0CA68496820682D
:10A7100002F0E8F85021206807E016E0CA684968AE
:10A72000206802F0F0F86021206802F010F884F848
:10A730003D50002084F83C0070BDCA68496820681C
:10A7400002F0D0F840212068EFE722680146104669
:10A75000EBE7704770B50446006801694FF00005EB
:10A76000C943890715D4C168C943890711D4E91EB3
:10A77000016101202077206880698007204602D08F
:10A78000FFF7E7FF04E000F0BDF8204600F04CF9C9
:10A79000257720680169C943490717D4C168C943AF
:10A7A000490713D46FF0040101610220207720686B
:10A7B000806910F4407F204602D0FFF7CAFF04E012
:10A7C00000F0A0F8204600F02FF9257720680169F5
:10A7D000C943090716D4C168C943090712D46FF0E9
:10A7E00008010161042020772068C06980072046A5
:10A7F00002D0FFF7AEFF04E000F084F8204600F03E
:10A8000013F9257720680169C943C90617D4C168BF
:10A81000C943C90613D46FF01001016108202077E5
:10A820002068C06910F4407F204602D0FFF791FFF6
:10A8300004E000F067F8204600F0F6F8257720687D
:10A840000169C943C90708D1C168C943C90704D10F
:10A85000891E0161204600F09BF920680169C94307
:10A86000090609D4C168C943090605D46FF08001FF
:10A8700001612046FFF714FE20680169C9434906BB
:10A8800009D4C168C943490605D46FF0400101618C
:10A89000204600F093F920680169C94389060BD46A
:10A8A000C168C943890607D46FF0200101612046C1
:10A8B000BDE87040FFF7F5BD70BD000000B585B084
:10A8C000002100910191029103910068B0F1804F45
:10A8D00011D10A48816941F00401816180696946AA
:10A8E00000F00400049003200090022001900390E7
:10A8F0000348FEF7BFFF05B000BD00000010024096
:10A9000000080140704770B5044690F83C000D46C1
:10A9100001280AD0012084F83C0042B1042A18D052
:10A92000082A2AD00C2A4DD139E0022070BD2068B7
:10A9300001F016FF2068816941F0080181612068FB
:10A94000816921F004018161206881692A691143CC
:10A9500011E0206801F034FF2068816941F4006152
:10A9600081612068816921F4806181612068816949
:10A970002A6941EA0221816124E0206801F056FF42
:10A980002068C16941F00801C1612068C16921F0F6
:10A990000401C1612068C1692A69114311E020687E
:10A9A00001F078FF2068C16941F40061C16120684D
:10A9B000C16921F48061C1612068C1692A6941EAE5
:10A9C0000221C161002084F83C0070BD10B5040074
:10A9D00003D094F83D0010B107E0012010BD002025
:10A9E00084F83C00204600F01EF8022084F83D0068
:10A9F000211D206801F04EFE012084F8460084F8F5
:10AA00003E0084F83F0084F8400084F8410084F858
:10AA1000420084F8430084F8440084F8450084F838
:10AA20003D00002010BD70477047000010B504467F
:10AA3000022249B104290ED0082913D094F841000C
:10AA4000012816D0012010BD94F83E000128F9D14C
:10AA500084F83E200FE094F83F000128F2D184F8FA
:10AA60003F2008E094F840000128EBD184F8402012
:10AA700001E084F841200122206801F051FE1349D1
:10AA80002068134A884201D0904203D1436C43F4BA
:10AA900000434364206888420DD090420BD0B0F14F
:10AAA000804F08D00B49884205D00B49884202D01C
:10AAB0000A49884204D1816801F00701062903D0C0
:10AAC000016841F001010160002010BD002C01402F
:10AAD000003401400004004000080040000C004029
:10AAE00030B5044600680D0006D0042D08D0082DAE
:10AAF00038D00C2D08D139E0C16821F0020102E004
:10AB0000C16821F00401C16000222946206801F0DB
:10AB100007FE1D4B41F2111120688A10984202D0A5
:10AB20001A4B984209D1036A0B4206D1036A1342B9
:10AB300003D1436C23F4004343642068036A0B424F
:10AB400006D1016A114203D1016821F001010160BF
:10AB500001207DB1042D10D0082D11D084F84100C2
:10AB6000002030BDC16821F00801CCE7C16821F0A8
:10AB70001001C8E784F83E00F2E784F83F00EFE7F1
:10AB800084F84000ECE70000002C01400034014054
:10AB900010B5044600680749884201D1FFF79CF8C8
:10ABA00005492068884203D1BDE8104003F06CBD20
:10ABB00010BD0000002C01400008004070477047A5
:10ABC00010B504460068416994F83D20C1F3C011F6
:10ABD000212A0BD151B1416921F080014161606BA3
:10ABE00008B1FEF783FB204602F063F92068416953
:10ABF00094F83E20C1F38011222A0BD151B1416952
:10AC000021F040014161A06B08B1FEF76FFB2046C7
:10AC100002F037F9002010BD70470000F8B5026857
:10AC200004461068D168536910F00F0F4FF000050B
:10AC300053D003F0010601F4907737435FD0C20789
:10AC400005D0CA0503D5226C42F0010222644207F6
:10AC500005D5DA0703D0226C42F002022264820793
:10AC600005D5DA0703D0226C42F004022264020701
:10AC700007D501F02002324303D0226C42F00802D3
:10AC80002264226C002A34D0800604D5880602D5BE
:10AC9000204602F017F920684069216CC0F380104B
:10ACA000090700D430B3204602F0EBF82068416970
:10ACB00049061BD5416921F040014161A06BA8B153
:10ACC00058494163A06BFEF735FB002811D0A06BFB
:10ACD000416B01B0BDE8F040084783060FD58B06F5
:10ACE0000DD52046BDE8F84002F0ECB82046FFF74D
:10ACF00093FFF8BD2046FFF78FFF2564F8BD266B54
:10AD00002023012E52D1C60650D5CE064ED510684E
:10AD100050680090506940062AD5A16B08684068C9
:10AD20000004000CEAD0A68D8642E7D9E085886948
:10AD3000202818D0D06820F48070D0602068416945
:10AD400021F0010141612068416921F04001416128
:10AD500084F83E3025632068C16821F01001C1608D
:10AD6000A06BFEF7C3FAA08DE18D401A81B219E005
:10AD7000A08DE18D401A81B2E08D0028BED000295F
:10AD8000BCD0D06820F49070D0602068426922F076
:10AD90000102426184F83E3025632068C26822F0D7
:10ADA0001002C2602046FFF70AFFF8BD05062BD54A
:10ADB0000D0629D594F83D002128F6D1A068B0F5FC
:10ADC000805F01D12069B0B1206A411C21622168F5
:10ADD00000784860E08C401E0004000CE084E4D160
:10ADE0002068C16821F08001C1602068C16841F01D
:10ADF0004001C160F8BD206A0088C0F308005060BF
:10AE0000206A801C2062E5E74006F3D54806F1D5AC
:10AE1000D168204621F04001D16084F83D3000F037
:10AE200026FBF8BDB5CD000870B5040004D094F839
:10AE30003D00002510B106E0012070BD84F83C50B3
:10AE4000204600F023F8242084F83D002068C168E3
:10AE500021F40051C160204602F0ACF8206801697D
:10AE600021F4904101612068416921F02A0141618A
:10AE70002068C16841F40051C1602564202084F835
:10AE80003D0084F83E00002070BD00002DE9F04731
:10AE900086B000240094019402940394054603684C
:10AEA0008848874F061502210322DFF81CC24FF4A1
:10AEB00000694FF0800ABB4237D1C36943F40023D5
:10AEC000C361C36903F400230493836943F010034F
:10AED00083618069CDE9006100F01000CDE90320B5
:10AEE000694666466046FEF7C5FCCDE900946946B2
:10AEF00030460294FEF7BEFC754E7448C6E9000465
:10AF0000C6E9024A34617461B4613046F461FEF707
:10AF1000CDFB08B1FDF7A0FFAE630022062134206F
:10AF20007562FEF779FF342031E0DFF8A88104274D
:10AF3000434531D1C36943F48013C361C36903F44A
:10AF400080130493836943F010038361836903F0E2
:10AF500010030493836943F02003836180690392A3
:10AF600000F020000490B802CDE900016946604677
:10AF7000FEF780FCCDE90074694657480294FEF75D
:10AF800079FC002205213520FEF746FF3520FEF72B
:10AF900036FF06B0BDE8F087DFF840C1DFF840813A
:10AFA000634526D1836943F480438361836903F455
:10AFB00080430493836943F00403836180690392AF
:10AFC00000F0040004904FF40070CDE900016946E0
:10AFD0004046FEF74FFCCDE90064694640460294C6
:10AFE000FEF748FC002206212520FEF715FF25204C
:10AFF000CDE7DFF8F0C0634525D1C36943F40033E2
:10B00000C361C36903F400330493836943F0040309
:10B0100083618069CDE9007100F00400CDE903206F
:10B0200069464046FEF726FC0820CDE90004694643
:10B0300040460294FEF71EFC002205212620FEF762
:10B04000EBFE2620A3E7284FBB42A2D1C36943F4FD
:10B050008023C361C36903F480230493836943F0AD
:10B06000080383618069CDE9006100F00800CDE943
:10B0700003201E4E69463046FEF7FCFBCDE90094E6
:10B08000694630460294FEF7F5FB114E18484436E7
:10B09000C6E90004C6E9024A34617461B46130460D
:10B0A000F461FEF703FB08B1FDF7D6FEAE630022A4
:10B0B000052127207562FEF7AFFE272067E7000015
:10B0C000004C0040001002400010014030040240DB
:10B0D00034140020005000400014014000380140AA
:10B0E000000801400044004000480040000C0140BE
:10B0F000300002402DE9F84F044690F83E009A4691
:10B1000016460D46202853D1FDB1F6B194F83C0007
:10B1100001284DD0012084F83C000027276422201C
:10B1200084F83E002763FEF7ABFCA6858146E685E2
:10B13000A0684FF48058404501D1206940B12E46A7
:10B140005FF0000584F83C7027E00120BDE8F88F2F
:10B150000026F7E74B46002220212046CDF800A02C
:10B1600001F0D7FF08B10320F0E726B1A068404501
:10B170001BD038B108E020684068C0F3080025F80B
:10B18000020B07E0206980B12068406800F07F0072
:10B1900006F8010BE08D401EE085E08D0028D9D136
:10B1A000202084F83E000020D0E720684068EFE7C8
:10B1B0000220CBE790F83E30202B0ED159B152B18E
:10B1C00090F83C30012B08D0012380F83C3000235C
:10B1D000036301F04BBF012070470220704790F8D5
:10B1E0003E30202B0ED159B152B190F83C30012B9A
:10B1F00008D0012380F83C300023036301F06EBFC8
:10B2000001207047022070472DE9F0410646006892
:10B21000624901270025624C884226D160880104DA
:10B2200018D460494204097804D50A290ED140F4A3
:10B2300000402EE00D292AD0C0F30D02594B401CCE
:10B24000643B80B299546080632800D9658060882F
:10B2500000040AD5277060885249C0F30D02643992
:10B2600001F53C70FCF7DCFF65804F49306888428F
:10B270002DD1E0884B49020401F158011CD401F1A1
:10B28000A8024304127809D50A2A11D103E040F438
:10B2900080406080DBE740F4004028E00D2A24D0A5
:10B2A000C0F30D03401C80B2CA54E080632800D96B
:10B2B000E580E08800040AD5277008786070E0888F
:10B2C000C0F30D0137485830FCF7C3FFE58037491C
:10B2D000306888422BD1A08801041DD4344942042F
:10B2E000097809D50A2913D103E040F48040E080B1
:10B2F000DFE740F400402CE00D2928D0C0F30D0218
:10B300002B4B401CA83B80B29954A080632800D9E5
:10B31000A580A08800040AD52770A0882449C0F31E
:10B320000D02A83901F5BC70FCF77AFFA580214910
:10B33000306888422BD1208901041FD41C49420463
:10B3400001F1BC01097809D50A2913D103E040F4C1
:10B350008040A080DDE740F400401CE00D2918D0BB
:10B36000C0F30D02124B401C143380B2995420815B
:10B37000632800D925812089000408D527702089F9
:10B38000C0F30D010A481430FCF763FF2581BDE8C6
:10B39000F08140F480402081EDE70000004400404F
:10B3A0008C000020E010002000480040004C0040CD
:10B3B0009C12002000500040704700002DE9F84327
:10B3C000044690F83D001F4616460D4620284CD1F5
:10B3D000C5B1BEB194F83C00012846D0012084F8E4
:10B3E0003C004FF00008C4F84080212084F83D0064
:10B3F000FEF746FBA6848146E684A068B0F5805F30
:10B4000003D004E00120BDE8F883206928B12E466E
:10B410005FF0000584F83C800EE00026FAE780210A
:10B42000204601F076FEA0B9AEB116F8010B2168F6
:10B430004860E08C401EE084E08C4B464FF00002F8
:10B4400000970028EBD14FF04001204601F061FE4B
:10B4500030B10320D7E735F8020BC0F30800E6E768
:10B46000202084F83D000020CDE70220CBE7704784
:10B47000FEE7000010B5A0B1012816D0204903282E
:10B4800023D0042826D0052829D006282CD07028BF
:10B490002FD0712818D1B1F8E200BDE81040FDF7B7
:10B4A00045BBBDE8104000F0D5BD164C20680068D3
:10B4B000C16821F40051C16000F014FD20680068EB
:10B4C000C16841F40051C16010BDC888BDE810409A
:10B4D000FDF720BB0889BDE81040FDF729BB48896E
:10B4E000BDE81040FDF74EBB8889BDE81040FDF770
:10B4F00039BBB1F8E000BDE81040FDF714BB000017
:10B50000A0300020C4010020034800680088002803
:10B5100000D0012070470000AC020020401E02282D
:10B5200001D801207047002070471438502801D8F6
:10B53000012070470020704741F25C711438884246
:10B5400001D80120704700207047FCF7EFFFFCF79F
:10B5500095FFC82002F0B4FEF9E700002DE9F041A4
:10B560000F4800210F4E057801700C465FF001076F
:10B5700006EBC400818856F83400FEF777FA18B954
:10B5800007FA04F02843C5B2641CE4B2042CEFD3DC
:10B590000548007808B905F008052846BDE8F0819F
:10B5A0008D00002098030020B10200202DE9F04119
:10B5B000044615460E46C0B2FDF72AFC240C3C2773
:10B5C000B4FBF7F06421B0FBF1F201FB1200FDF7D0
:10B5D000E5FBB4FBF7F007FB1040FDF704FC3DB1C1
:10B5E0002846FDF7F0FB3046BDE8F04100F004B816
:10B5F000FF20FDF7ABFBF6E710B5044600F00101B4
:10B60000042001F075FA04F00201052001F070FA3F
:10B6100004F00401012001F06BFA04F0080101209C
:10B6200001F066FA04F01001BDE81040022001F0BC
:10B630005FBA00002DE9F05F8146594C16460F466F
:10B6400000204FF02A0800BF04F80080401CC0B260
:10B650001428F9D3DFF84CB14FF00A0A84F814A08B
:10B660004FF6FF7315224E49DBF80400FFF7A6FEE4
:10B67000142001F001FE002020252554401CC0B2FA
:10B680001428FAD384F8008084F8138084F814A076
:10B690004FF6FF7315224249DBF80400FFF78EFED8
:10B6A000142001F0E9FD00202554401CC0B21428EC
:10B6B000FAD35046B9FBF0F1B9FBF0F284F8008000
:10B6C00084F8138084F814A03031A1710AFB129120
:10B6D0003031E171B7FBF0F130312173B7FBF0F19C
:10B6E0000AFB1170303060734FF6FF7315222C493E
:10B6F000D946DBF80400FFF761FE142001F0BCFD21
:10B7000000202554401CC0B21428FAD384F80080CD
:10B7100084F8138084F814A04520207172205746C5
:10B720006071B6FBF7F03030E071B6FBF7F00AFB62
:10B730001060303020724FF6FF7A534615221849B8
:10B740004E46D9F80400FFF739FE142001F094FDAD
:10B7500000202554401CC0B21428FAD384F800807D
:10B7600084F8138027754546534615220C497068A6
:10B77000FFF724FE142001F07FFD00202554401C1B
:10B78000C0B21428FAD327756775A775E7755346B5
:10B790007068BDE8F05F18220149FFF70FBE000096
:10B7A000683000200403002070B50446FF20FDF738
:10B7B000DEFA240C3C25B4FBF5F06421B0FBF1F279
:10B7C00001FB1200FDF7EAFAB4FBF5F005FB1040AF
:10B7D000BDE87040FDF707BB01F082B910B501224A
:10B7E000D1030748FEF747F9074906480A78074991
:10B7F00000680978FFF7DAFEBDE8104001F0DCB818
:10B80000000801400C020020F9010020B0020020D5
:10B810002DE9F05F0746574C0E4600204FF02A08EE
:10B8200004F80080401CC0B21428F9D3DFF848B1F6
:10B830004FF00A0A84F814A04FF6FF7315224D4901
:10B84000DBF80800FFF7BAFD142001F009FD002025
:10B8500020252554401CC0B21428FAD384F8008057
:10B8600084F81380C14684F814A04FF6FF731522A4
:10B870004049D846DBF80800FFF7A0FD142001F08E
:10B88000EFFC00202554401CC0B21428FAD35046C7
:10B89000B7FBF0F184F8009084F8139084F814A0BA
:10B8A0003031A171B7FBF0F10AFB11703030E0715B
:10B8B0004FF6FF7315222F49C346D8F80800FFF74B
:10B8C0007DFD142001F0CCFC00202554401CC0B2AA
:10B8D0001428FAD36421B6FBF1F084F8009084F8C0
:10B8E000139084F814A030306071B6FBF1F001FBC6
:10B8F00010605746B0FBF7F03030E071B6FBF7F060
:10B900000AFB1060C846303020724FF6FF794B4674
:10B91000152218495E46DBF80800FFF74FFD14209A
:10B9200001F09EFC00202554401CC0B21428FAD31C
:10B9300084F8008084F81380277545464B4615220D
:10B940000C49B068FFF73AFD142001F089FC002093
:10B950002554401CC0B21428FAD327756775A77503
:10B96000E7754B46B068BDE8F05F18220149FFF764
:10B9700025BD000050300020B402002004490348D7
:10B980000A78044900680978FFF70EBF0C0200200E
:10B99000F9010020B002002070B50446134DC00725
:10B9A00001D0012200E0002202212846FEF763F8C0
:10B9B000A00701D5012200E0002204212846FEF75D
:10B9C0005AF8600701D5012200E00022082128462C
:10B9D000FEF751F8200701D5012200E00022284699
:10B9E000BDE870400121FEF746B80000001001409C
:10B9F000704700003EB50024114800940194029461
:10BA00000E498460016004730475012505614FF4DB
:10BA100060214460C161FDF7ADFB08B1FDF71CFA80
:10BA20000520CDE90005694602940548FDF724FB91
:10BA3000002801D0FDF710FA3EBD000000280140AB
:10BA4000740E0020114808B5416941F001014161BF
:10BA5000416901F001010091416941F00201416138
:10BA60004069002200F00200009005210D20FEF741
:10BA7000D3F90D20FEF7C3F9002205213A20FEF785
:10BA8000CBF9BDE808403A20FEF7B9B900100240F2
:10BA900010B5A4B01C221C496846FCF7C1FB00216C
:10BAA000684602F019FC194C17491C2220601C3111
:10BAB00007A8FCF7B5FB002107A802F00DFC12490E
:10BAC00060601C2238310EA8FCF7AAFB00210EA8EA
:10BAD00002F002FC0C49A0601C22543115A8FCF7AE
:10BAE0009FFB002115A802F0F7FB0749E0601C222C
:10BAF00070311CA8FCF794FB00211CA802F0ECFBA1
:10BB0000206124B010BD0000E0EF000878000020A4
:10BB10002DE9F04F85B000243A4800940194029436
:10BB20000394816941F010018161816901F0100184
:10BB30000491816941F004018161816901F004018E
:10BB40000491816941F008018161816901F0080176
:10BB50000491816941F0200181618069DFF8A8903A
:10BB600000F0200042F24F0504900022294648468A
:10BB7000FDF781FFDFF894A04DF23407002239462B
:10BB80005046FDF778FFDFF888B04FF418480022E0
:10BB900041465846FDF76FFF0095022601250396A2
:10BBA000CDE9015469464846FDF764FE3020CDE9F1
:10BBB0000004694648460294FDF75CFE0097039630
:10BBC000CDE9015469465046FDF754FE4FF46070CC
:10BBD0008DE8310069464846FDF74CFE28028DE8A5
:10BBE000310069465846FDF745FECDF800800396C2
:10BBF000CDE9015469465846FDF73CFE05B0BDE865
:10BC0000F08F00000010024000100140000C0140C5
:10BC1000000801400D4810B50B4901600C49416016
:10BC200000214FF480428160C0E9031241618161CB
:10BC3000C1610162FDF72AFF002803D0BDE8104072
:10BC4000FDF70AB910BD000000540040A40E00200A
:10BC5000A0860100094810B5074901600221416032
:10BC600040F6FF718160FEF703F8002803D0BDE8BD
:10BC70001040FDF7F1B810BD00300040F80E002074
:10BC800010B58EB000240794089409940A940B947C
:10BC90001C2168460C94FCF7DCFA23484FF08041E5
:10BCA000016040F26711C0E9011440F2E731C0E9D8
:10BCB00003148461FEF734FC08B1FDF7CDF84FF4AE
:10BCC0008050079007A91848FEF7D8FC08B1FDF787
:10BCD000C3F81548FEF77AFE08B1FDF7BDF80B94DE
:10BCE0000BA911480C94FEF7DDFB08B1FDF7B4F881
:10BCF0006020CDE9000402200290002269460494ED
:10BD00000948FEF700FE08B1FDF7A6F804226946CF
:10BD10000548FEF7F8FD08B1FDF79EF80248FEF76A
:10BD2000CDFD0EB010BD0000040F002010B586B090
:10BD30000024174800940194029403940494134936
:10BD4000059401602321C0E9011440F2F311C0E918
:10BD500003148461FEF7E4FB08B1FDF77DF84FF4AE
:10BD60008050009069460A48FEF788FC08B1FDF74C
:10BD700073F8049404A906480594FEF793FB002881
:10BD800001D0FDF769F806B010BD000000040040C6
:10BD90004C0F002010B586B0002417480094019481
:10BDA00002940394049413490594016040F60F61D2
:10BDB000C0E901142321C0E9031480218161FEF749
:10BDC000AFFB08B1FDF748F84FF48050009069468A
:10BDD0000948FEF753FC08B1FDF73EF8049404A9A6
:10BDE00005480594FEF75EFB002801D0FDF734F806
:10BDF00006B010BD00080040940F002010B586B0BA
:10BE00000024174800940194029403940494134965
:10BE10000594016040F60F61C0E901143121C0E9C9
:10BE200003148461FEF77CFB08B1FDF715F84FF4AD
:10BE30008050009069460A48FEF720FC08B1FDF7E3
:10BE40000BF8049404A906480594FEF72BFB002880
:10BE500001D0FDF701F806B010BD0000000C004055
:10BE6000DC0F002010B50420FCF722FF0B490A4A22
:10BE7000C1E90020002088600C22C860C1E90402EA
:10BE80008861C8610846FEF7CFFF002803D0BDE8EF
:10BE90001040FCF7E1BF10BD004C004058120020DC
:10BEA00010B50520FCF704FF0D490C4AC1E900203C
:10BEB000002088600C22C860C1E904028861C86162
:10BEC0000846FEF7B1FF08B1FCF7C6FF044901229E
:10BED000BDE8104044310248FFF781B900500040EE
:10BEE0001413002010B50120FCF7E2FE0D490C4AA6
:10BEF000C1E90020002088600C22C860C1E904026A
:10BF00008861C8610846FEF78FFF08B1FCF7A4FFFF
:10BF100004490122BDE8104014390248FFF75FB917
:10BF2000003801403810002010B50220FCF7C0FE98
:10BF30000E480D490C2201604FF4E13141600021AF
:10BF40008160C160C0E904128161C161FEF76CFFCC
:10BF500008B1FCF781FF05490122BDE81040143902
:10BF60000248FFF73CB9000000440040F4100020F4
:10BF700010B50320FCF79CFE0D490C4AC1E90020D6
:10BF8000002088600C22C860C1E904028861C86191
:10BF90000846FEF749FF08B1FCF75EFF044901229D
:10BFA000BDE8104044310248FFF719B9004800408D
:10BFB0009C1100204FF4803000F034FAFCF71CFC98
:10BFC0004FF4FA74FCF7E6FA204602F079F9F9E743
:10BFD000FEE70000074840680168CA6842F01002A6
:10BFE000CA6001684A6942F001024A61802202493E
:10BFF000FFF7E0B8180400207A36002010B540F2B0
:10C00000E3220849084800F071F903220121104693
:10C0100000F0EEF90322BDE810400021104600F0C8
:10C02000E7B90000A0300020007C000810B501F046
:10C0300051FC074841684A1C42600A2906D9002180
:10C040004160BDE81040012002F024BC10BD00009A
:10C0500000040020084808B50068AA2100220180D9
:10C06000012000904FF4E133104601F0F3FBBDE8EE
:10C07000084001F0F1B90000CC010020FFF7AAFF51
:10C08000FCF756FA322002F01BF9F9E70EB5044A24
:10C0900007CA8DE807000621684600F0F3F80EBDD8
:10C0A00098F400080EB5044A07CA8DE80700062177
:10C0B000684600F0E7F80EBDB0F400082DE9F04F37
:10C0C000D5B04FF480710EA8FCF7C3F8474830F89C
:10C0D000031F4EBA4188427E4DBA416809BA21F029
:10C0E000FF04C1790C43D0F8161009BA21F0FF0102
:10C0F00011435391418B90F834804BBA418FB8F182
:10C10000000F4ABA818FC08F49BA47BA07D0384862
:10C110000068B0F800C04CF0080CA0F800C00A207D
:10C12000B7FBF0FC00FB1C7CB7FBF0F70997B1FBF9
:10C13000F0F7B1FBF0FB00FB171EB2FBF0F1B2FB16
:10C14000F0FA00FB1121B3FBF0F200FB1237CDF83F
:10C150001CC0B3FBF0FC6422B4FBF2F3B4FBF2F9B5
:10C16000039702FB1347CDE90497B5FBF0F2CDF836
:10C1700048C1DDF81CC0099F00FB1253CDE90C7CBF
:10C18000B5FBF0F4B6FBF0F2039FCDE90ABECDE9B2
:10C1900008A100FB1265B6FBF0F2CDE90678DDE9F7
:10C1A0000407CDE90043DDE952C90DF1080A2B4629
:10C1B0008AE881120F490EA801F06AF80EA8FCF770
:10C1C00053F8C1B20EA800F0D9FE80210748FCF751
:10C1D00040F80948406801680A684968009180226F
:10C1E0000249FEF7E7FF55B0BDE8F08F7A36002030
:10C1F000AC0200201CF50008180400200EB50FA3A7
:10C200000ECB8DE80E00010E8DF80310010C8DF899
:10C210000410010A8DF805108DF8060005210DF1B6
:10C220000200FCF7D9FB010A8DF807108DF8080011
:10C230000A21684600F026F80EBD0000020508003D
:10C24000000000000003000010B50C490C4A0878FB
:10C250001278904202D14FF0000010BD02D9A0F137
:10C26000010001E000F101000870C0B2C0EBC000A5
:10C2700000EB4000FFF7C2FF012010BD18040020B2
:10C28000F80100200A46014602484FF6FF73406855
:10C29000FFF794B8180400200848007802280BD053
:10C2A000032809D0072807D0082805D00C2803D078
:10C2B0000D2801D00020704701207047B1020020F6
:10C2C000FEE710B5FCF7BCF8BDE81040012000F017
:10C2D000ADBCFFF7BFFEFCF7A1F800F04FF9FFF788
:10C2E000A5FE642001F0ECFFF9E7000010B5002383
:10C2F00006E000BF30F8024B21F813405B1C9BB2F4
:10C300009342F7D310BD00002DE9F05FA0F1006467
:10C3100015468A468346B4F5802F4FD2FDF796FA2C
:10C32000E70AC4F34906C6F58064A54200D82C4646
:10C33000DFF88C904FF0006000EBC72080464FF490
:10C3400080621F49FFF7D2FF00204FF6FF7105E022
:10C35000331839F813208A4202D1401CA042F7D387
:10C36000A04223D24046FCF779FD0020494605E073
:10C370003AF810208319401C21F81320A042F7D36B
:10C3800040464FF480620E4900F01CF8A54211D0DF
:10C39000281B0AEB440A0BEB440B002685B24FF432
:10C3A00080647F1CA542C5D82C46C3E7224651466F
:10C3B0005846E9E7BDE8F05FFDF7FEB9BDE8F09F3C
:10C3C000200400202DE9F04116460F4605460024C2
:10C3D0000AE000BF37F81420002329460120FDF7AA
:10C3E000F5F9641CA4B2AD1CB442F3D3BDE8F081EE
:10C3F000032808D0042805D1082903D8044800BF21
:10C4000020F811207047B1F5397FFBD20148F7E7DA
:10C4100068360020A03000200149896808807047F4
:10C42000040300200349020C4B681A8089680880C5
:10C43000FFF7DEBACC010020122801D3002070479C
:10C440000149087001207047B102002002494A7872
:10C4500002434A7070470000B102002002494A7846
:10C4600082434A7070470000B102002001494978B8
:10C4700008407047B1020020024901480860704737
:10C480000400FA050CED00E010B5502080F311888F
:10C49000BFF34F8FBFF36F8F02F0D6FC18B1044982
:10C4A0004FF080500860002080F3118810BD00001C
:10C4B00004ED00E030B595B028216846FBF7C9FED1
:10C4C00014210AA8FBF7C5FE18210FA8FBF7C1FE2F
:10C4D0000A20009001201021CDE9040106A90224C0
:10C4E000002581E831004FF4E01009906846FDF71F
:10C4F00047FE08B172B6FEE70AA90F2081E83100B5
:10C500004FF48060CDE90D0501210AA8FDF72CFD4F
:10C5100008B172B6FEE74FF4804011900F940FA857
:10C52000FDF7ACFC002801D072B6FEE715B030BDB7
:10C530007047000004480078401E042801D80120FC
:10C540007047002070470000B102002004480078C6
:10C55000801F042801D80120704700207047000088
:10C56000B1020020044800780B38042801D80120CB
:10C570007047002070470000B102002010B500F0A5
:10C5800091FB002206210320FFF732FFBDE8104097
:10C590000820FFF701BA10B5FCF73EFA0122062188
:10C5A0000320FFF725FF002000F040FBBDE810400E
:10C5B0000F20FFF7F1B9000005480078012805D0E9
:10C5C000062803D00B2801D00020704701207047B7
:10C5D000B102002005480078042805D0092803D0BE
:10C5E0000E2801D00020704701207047B1020020C2
:10C5F0000348007808B10020704701207047000010
:10C60000B102002005480078032805D0082803D08F
:10C610000D2801D00020704701207047B102002092
:10C6200005480078022805D0072803D00C2801D03F
:10C630000020704701207047B102002005480078B3
:10C64000052805D00A2803D00F2801D00020704704
:10C6500001207047B10200200148FEF77BB80000BE
:10C66000BC1400200148FEF775B80000940F0020AC
:10C67000074810B500680169C90704D06FF00101CF
:10C68000016102F001F8BDE810400148FEF762B810
:10C69000DC0F0020F0B502681C4B1D4D1D4E1E4FD7
:10C6A0001E4C4FF0804C984209D0A04207D0604504
:10C6B00005D0A84203D0B04201D0B84204D122F044
:10C6C000700E4A6842EA0E02984209D0A04207D092
:10C6D000604505D0A84203D0B04201D0B84203D192
:10C6E00022F44075CA682A434D6922F080022A4329
:10C6F00002608A68C2620A688262984201D0A042DF
:10C7000001D10969016301214161F0BD002C0140A3
:10C710000004004000080040000C004000340140CC
:10C7200010B501F01F030121046A99408C43046293
:10C73000016A9A401143016210BD10B5846842EA53
:10C74000032224F47F440A432243826010BD82689E
:10C7500022F070020A4342F0070181607047000036
:10C76000F0B5026A22F001020262036A426884693B
:10C77000124E24F073050C682C4323F002058B68DD
:10C780002B430D4DA84201D0B04205D123F008073C
:10C79000CB683B4323F00403A84201D0B04205D14B
:10C7A0004D6922F4407215438A692A4342608461CC
:10C7B000496841630362F0BD002C01400034014030
:10C7C000F0B5026A22F010020262026A43688469CC
:10C7D0000D6824F4E64444EA05248D6822F0200222
:10C7E00042EA05120F4D104EA84201D0B04206D1C8
:10C7F000CF6822F0800242EA071222F04002A842EB
:10C8000001D0B04207D14D6923F4406343EA850368
:10C810008D6943EA850343608461496881630262EC
:10C82000F0BD0000002C014000340140F0B5026A68
:10C8300022F480720262026A4368C46922F40072C0
:10C8400024F073050C68124E2C438D6842EA0522D1
:10C850000E4DA84201D0B04206D1CF6822F400624A
:10C8600042EA072222F48062A84201D0B04207D1F6
:10C870004D6923F4405343EA05138D6943EA0513D8
:10C880004360C4614968C1630262F0BD002C01408D
:10C890000034014030B5026A22F480520262046A18
:10C8A0004268C3690D6823F4E64343EA05238D68B3
:10C8B00024F4005444EA0534084DA84202D0084D3F
:10C8C000A84204D14D6922F4804242EA85124260B6
:10C8D000C36149680164046230BD0000002C01405E
:10C8E0000034014010B5036A046A24F001040462B4
:10C8F000846924F0F00444EA021423F00A020A4393
:10C900008461026210BD10B5036A23F01003036254
:10C910008369046A23F4704343EA023224F0A003DB
:10C9200043EA01118261016210BD10B5122000F0CE
:10C93000F5F8BDE81040102000F0F0B810B5012067
:10C94000FCF7A9F9802000F0E9F8BDE810401020BC
:10C9500000F0E4B810B5174C012211032046FDF792
:10C960008AF80122D1032046FDF785F801229103C0
:10C970002046FDF780F800BF00BF00BF00BF00BF2A
:10C9800000BF00BF00BF0120FCF785F9522000F076
:10C99000C5F8302000F0C2F8002000F0BFF80A20EF
:10C9A00000F0BCF8022000F0B9F8BDE81040062005
:10C9B00000F0B4B8000C014010B50122D1030548C5
:10C9C000FDF759F80823BDE810401A460249002037
:10C9D00000F05AB800080140500300202DE9F0474C
:10C9E0000F46054600244FF40049104E4FF480488E
:10C9F00018E0E80701D0012200E000224946304655
:10CA0000FDF739F86D08002241463046FDF733F84E
:10CA10000320FCF740F9012241463046FDF72BF890
:10CA2000641CE4B2BC42E4D3BDE8F087000C0140D2
:10CA30002DE9F0470F46054600244FF40049114EFA
:10CA40004FF4804819E0280601D5012200E00022B9
:10CA500049463046FDF70FF86806050E00224146AC
:10CA60003046FDF708F80320FCF715F9012241468E
:10CA70003046FDF700F8641CE4B2BC42E3D3BDE8E5
:10CA8000F0870000000C01402DE9F047DFF84C80F2
:10CA900016460D4604464FF4805799460022394603
:10CAA0004046FCF7E8FF0321A020FFF7C1FFA006E6
:10CAB000000E0621FFF7BCFF002406E015F8010B6D
:10CAC0004946FFF78BFF641CE4B2B442F6D3394603
:10CAD0004046BDE8F0470122FCF7CDBF000C014005
:10CAE0000248002101604160FFF766BF500300204B
:10CAF000094A0428135C07D211B143F0080101E090
:10CB000003F0F7011154704711B143F08001F9E7C8
:10CB100003F07F01F6E700005003002070B50C4DD4
:10CB200006464FF48054002221462846FCF7A3FF16
:10CB300004218020FFF77CFF08213046FFF778FFB3
:10CB400021462846BDE870400122FCF794BF000052
:10CB5000000C014010B50D4A00240428135C0AD2D1
:10CB600003F00803FF290FD002F1270409E0115C4C
:10CB70001943115410BD03F08003FF2904D0034C66
:10CB80001C34615C1154F2E71454F0E750030020A8
:10CB900010B50D4A00240428135C0AD203F00803E0
:10CBA000FF290FD002F1120409E0115C194311545E
:10CBB00010BD03F08003FF2904D0034C0834615CEE
:10CBC0001154F2E71454F0E75003002008B5402157
:10CBD0000748FBF73EFB0748406801680A68496858
:10CBE0000091BDE8084040220149FEF7E3BA000089
:10CBF00010300020F001002010B51120FFF71CFCC0
:10CC0000094CA0680088FCF7F3F9207001216170DD
:10CC1000A0680088FCF7D6F9024661782078BDE864
:10CC20001040FEF707BD0000040300200021104A59
:10CC300010B5002811704FF0010016D0FFF706FC68
:10CC40000220FFF70BFC0120FFF7F6FB0948016803
:10CC5000094800680068086008490860084906201B
:10CC60000870BDE81040FEF7B9BDFFF7F7FBE7E736
:10CC7000F9010020A8020020100200200C02002070
:10CC8000B002002010B51020FFF7D6FB044A0120A7
:10CC9000107091785170BDE81040FEF7B9BD0000EA
:10CCA000B4020020054900200870054908700549B4
:10CCB000087005490870FFF713BF0000F901002054
:10CCC000FA010020B2020020B102002010B50220BB
:10CCD000FFF7C4FB0620FFF7AFFB074801680748D2
:10CCE0000068006808600649086006490620087068
:10CCF000BDE81040FEF772BDA8020020140200201B
:10CD00000C020020B002002010B50446FEF706FC1D
:10CD1000002824D00220FFF7A1FB114804700B204B
:10CD2000FFF78AFB0F4904EB44000A6802EB00128C
:10CD300032F8303C0C4A1268138000235380096893
:10CD400001EB0011094831F8302D0280C98D418076
:10CD5000074906200870BDE81040FEF73FBD10BD32
:10CD6000F901002008020020A80200200C02002087
:10CD7000B002002038B50B4C20680168C943C906D1
:10CD80000BD40168406800902046FDF719FFA06BA6
:10CD900000684068C0B2FFF719FFBDE8384001489D
:10CDA000FDF73CBF581200200148FDF737BF0000D7
:10CDB0001413002010B5406A0021C185C184FDF71D
:10CDC0002BFF10BD70B5446A2068406994F83D108F
:10CDD000C0F3C0100025212904D118B1E5842046F4
:10CDE00000F067F82068406994F83E10C0F38010A6
:10CDF000222904D118B1E585204600F042F8206CC4
:10CE000040F0100020642046FDF706FF70BD10B50D
:10CE10000146406A0968096889061BD40021C1855A
:10CE20000168CA6822F48072CA6001684A6922F007
:10CE300001024A6101684A6922F040024A612021E8
:10CE400080F83E10016B012904D10168CA6822F004
:10CE50001002CA60016B012902D0FEF7D5F910BD9E
:10CE6000818DFDF7ACFE10BD10B5406A016B012944
:10CE700002D0FEF7A1FA10BD818D4908FDF79FFE93
:10CE800010BD0168CA6822F49072CA6001684A69DC
:10CE900022F001024A61016B012904D10168CA68CC
:10CEA00022F01002CA60202180F83E1000210163A8
:10CEB00070470168CA6822F0C002CA60202180F869
:10CEC0003D10704708B590F83E10222901D002208D
:10CED00008BD82684FF480539A4201D1016921B1A3
:10CEE000816A9A421BD04AB10AE00268816A52689C
:10CEF000C2F308020A80816A891C08E0026972B1E3
:10CF00000268526802F07F020A70816A491C8162DD
:10CF1000C18D491E0904090CC18503D019E00268BE
:10CF20005268F1E70168CA6822F02002CA6001680D
:10CF3000CA6822F48072CA6001684A6922F001025C
:10CF40004A61202180F83E10016B012903D0FEF7D1
:10CF50005BF9002008BD002101630168CA6822F066
:10CF60001002CA6001680A68D20602D50A684968D8
:10CF70000091818DFDF723FEEBE7000070B50C46B4
:10CF800005464FF480710948FBF763F922462946AC
:10CF90000648FBF745F9064822464FF6FF734068FE
:10CFA000BDE870400149FEF709BA0000102F0020CB
:10CFB000F001002070B5044600680169E26821F4C0
:10CFC0004051114301612169A06808436169084328
:10CFD0002168CA6841F20C639A430243CA60206820
:10CFE0004169A26921F44071114341611E492068E1
:10CFF000884202D1FDF77EF801E0FDF76BF800EB07
:10D00000C00101EB0012606864218000B2FBF0F304
:10D01000B3FBF1F36FF018067343B2FBF0F5B2FB0C
:10D02000F0F605EB8305322303EB0515B5FBF1F5AF
:10D03000B6FBF1F605F0F00505EB0615B2FBF0F6D0
:10D04000B2FBF0F0B0FBF1F06FF01802504306EBCA
:10D05000800003EB0010B0FBF1F0216800F00F003E
:10D060002844886070BD00000038014038B58162F6
:10D0700082850025134604460564222084F83E007C
:10D08000A26B13489062A26B1248D062A26B124846
:10D090001063A06B0A4645632168A06B091DFCF76D
:10D0A00043FB206801684168009184F83C50C168E6
:10D0B00041F48071C1602068416941F00101416122
:10D0C0002068416941F040014161002038BD000005
:10D0D0000FCE000869CE0008C5CD000881628285A8
:10D0E000C28500210164222280F83E2080F83C1095
:10D0F0000168CA6842F48072CA6001684A6942F0F5
:10D1000001024A610068C16841F02001C16000204D
:10D1100070472DE9F041984617460E460446069D95
:10D120001DE0681C1BD02DB1FCF7AAFCA0EB080089
:10D13000A84214D92068C16821F4D071C160206868
:10D14000416921F001014161202084F83D0084F80B
:10D150003E00002084F83C000320BDE8F0812068F8
:10D16000006836EA000004D00020B842D9D0002080
:10D17000F3E70120F9E7000010B5094C2068C0680A
:10D18000800601D501F086FA2068C068000601D546
:10D1900001F086FABDE810403420FCF723BE000001
:10D1A000581200200148FDF739BD0000F41000209E
:10D1B00038B50B4C20680168C943C9060BD4016817
:10D1C000406800902046FDF7FBFCA06B00684068BB
:10D1D000C0B2FEF773FFBDE838400148FDF71EBD41
:10D1E0009C110020134800B5134A0378A2F11401E2
:10D1F0001088052B02D88969088000BD0A2B04D845
:10D20000C96908805088488000BD0F2BFCD8487839
:10D21000FEF784F90028F7D010884A780B6902EBF2
:10D220004202897803EB021202EB810121F8340CEF
:10D2300000BD0000B10200200C020020FEE701202A
:10D2400000F006B801480078704700008203002013
:10D25000032801D8014908707047000082030020AC
:10D26000044900220B685A6209684A6A8242FCD368
:10D2700070470000BC140020044900220B685A6269
:10D2800009684A6A8242FCD370470000BC1400203F
:10D290000FB4084B10B504A902AA039800F02CF8AB
:10D2A000044602A9002000F0D1F8204610BC5DF829
:10D2B00014FB00004DD400080907090E002804DB08
:10D2C00000F1E02080F80014704700F00F0000F13A
:10D2D000E02080F8141D704702E008C8121F08C142
:10D2E000002AFAD170477047002001E001C1121FE7
:10D2F000002AFBD1704700002DE9FF4F89B09B4603
:10D300000446002506E025280BD05A460B99904785
:10D31000641C6D1C20780028F5D10DB02846BDE8AE
:10D32000F08F0027B8460122474900E0074314F870
:10D33000013F203B02FA03F00842F7D120782E2863
:10D3400019D114F8010F47F004072A280ED06FF006
:10D350002F022078A0F1300109290CD808EB8801B0
:10D3600002EB410100EB0108641CF2E70A98641C1F
:10D3700050F8048B0A9020780028CED0642808D07A
:10D38000692806D075281ED05A460B9990476D1C07
:10D3900058E00A994FF00A0901C90A91002802DAF7
:10D3A00040422D2102E0390504D52B218DF82010B3
:10D3B000012103E0F90704D02021F7E78A4608AEEF
:10D3C0000DE00021FAE70A994FF00A0901C90A9114
:10D3D000F7E74946FAF74FFF303106F8011D0028FC
:10D3E000F7D1ADEB060000F12009780701D44FF02A
:10D3F0000108C84502DDA8EB090000E000208046D6
:10D40000002706E008A85A46C05D0B9990476D1C9E
:10D410007F1C5745F6DB04E030205A460B999047B5
:10D420006D1CB8F10001A8F10108F5DC05E016F863
:10D43000010B5A460B9990476D1CB9F10001A9F1F7
:10D440000109F4DC641C65E7092801000A68531C23
:10D450000B6010707047000070B5064D00242878EE
:10D46000012802D00624204670BD2869804700208C
:10D470002870F8E71801002070B50C4609880025CF
:10D4800005292FD1417840F2CF760A0281781143E5
:10D49000C278491C1302027989B21A43531EB3425F
:10D4A00020D200232380012300F8013B2688761C2C
:10D4B0002680560703D003EBD203DEB201E0C2F3AD
:10D4C000C70600F8016B23885B1C2380002300F053
:10D4D00013FB18B101F0CCF8054604E02088304475
:10D4E000208000E00325284670BD70B50C460988F1
:10D4F000002505292FD1417840F2CF760A028178A4
:10D500001143C278491C1302027989B21A43531E8F
:10D51000B34220D200232380022300F8013B23885A
:10D520005B1C2380530704D0012303EBD203DEB23C
:10D5300001E0C2F3C70600F8016B23885B1C23805F
:10D5400000F0E0FA18B101F093F8054604E02088F5
:10D550003044208000E00325284670BD70B50C469D
:10D5600009880026052923D1417805790A028178A6
:10D5700011436A1EFE2A1BD800222280032200F8D3
:10D58000012B22880023521C22806A0000F8012B04
:10D590002288521C22802A4600F000FB18B101F0BC
:10D5A00067F8064605E0208800EB4500208000E093
:10D5B0000326304670BD70B50C4609880026052943
:10D5C00025D1417805790A0281781143C27845EA6C
:10D5D00002256A1E7C2A1AD200222280042200F828
:10D5E000012B2288521C22806A0000F8012B22881D
:10D5F000521C22802A4600F023FB18B101F038F8B3
:10D60000064605E0208800EB4500208000E0032668
:10D61000304670BD2DE9F0410446088800270D46CC
:10D620000A2842D3607826790102A078227A08433A
:10D63000401C1FFA80F8E07846EA00266079731EE5
:10D640000102A0790843401C81B2E0797C2B42EAB8
:10D650000022607A28D83AB3792A25D8B0EB420F55
:10D6600022D1012304F10A0000F098FA98B90021B0
:10D670002980172121702988601C491C298071008C
:10D6800000F8011B29880023491C298032464146A5
:10D6900000F084FA18B100F0EBFF074605E0288897
:10D6A00000EB4600288000E003273846BDE8F08103
:10D6B00070B5064C0D4606492288401CFAF7B0FDAD
:10D6C0002088401C2880002070BD0000140100202C
:10D6D000F026002038B50988002405290BD14178AF
:10D6E0000A0281781143491C027989B21AB9C278B9
:10D6F000FF2A03D012B10324204638BD00228DF842
:10D700000120C078FF280CD08DF8002001231A4694
:10D71000684600F0F1F90028EED000F0A9FF0446B9
:10D72000EAE701208DF80000F0E710B50988002431
:10D73000052902D00324204610BD417801230A02A6
:10D740008178C01C11431A4600F028FA0028F2D054
:10D7500000F08EFF0446EEE72DE9F0410D46098802
:10D760000024052926D9417843790A02817811439A
:10D77000491C8EB2C178027942EA0122510704D0D5
:10D78000012101EBD201C9B201E0C2F3C701571E6A
:10D79000B7F5F66F0ED299420CD101233146801DA8
:10D7A00000F0AAF918B100F063FF044603E0052079
:10D7B000288000E003242046BDE8F08170B50D46C6
:10D7C0000988002406291CD341780A028178114374
:10D7D000C278130202791A434379561EB6F59F7F29
:10D7E0000FD85606360E9E420BD10123801D00F045
:10D7F000D5F918B100F03CFF044603E0052028806D
:10D8000000E00324204670BD2DE9F0410D46C178AB
:10D810000379867843EA0123417900240A02817959
:10D820001143C2791702027A3A43062E01D1012B25
:10D8300002D00320BDE8F0810123093000F068F92F
:10D8400020B100F015FF04462046F3E709202880A8
:10D85000FAE700002DE9F0411D46069B17460646F3
:10D8600029B1F72903D8134C084621710EB10225BE
:10D870001BE011492161114961611149E1601149C0
:10D88000A1610021E16110492162104961621049E2
:10D89000A1622A46394600F07BF8050005D101F067
:10D8A0005BF928B16671012020702846BDE8F0813F
:10D8B0000325FAE718010020B9DA0008DDDA0008CC
:10D8C0003DDA0008D9D90008EDEB000895EC000816
:10D8D00055EC000838B52D4C207808B1062038BD2D
:10D8E000684601F02BF901284DD19DF8000070B376
:10D8F000012802D0022846D111E000F003FA234AA1
:10D90000A369921D911CC81F984700BB60782179BC
:10D91000884200D0D8B9022001F026F933E000F0A7
:10D92000F1F9A0680121194B0278A270E170002181
:10D9300013F12C0313F831506DB1954208D103EB6C
:10D94000C1014A681149891D9047E07003E01AE05F
:10D95000491C1029EEDB6078A8B1E07870B1002195
:10D96000E180A17841F08002A1680A70E288521C2F
:10D9700092B2E2808854E088401CE080D4E902132F
:10D98000E28820799847002038BD00001801002067
:10D9900070B5084600241546012181F3108808223D
:10D9A000294601F0F9F801280DD1B5F5964F01D9B6
:10D9B000232003E007496800B1FBF0F080B201F0DA
:10D9C00013F9012800D00324002080F3108820469A
:10D9D00070BD0000A07F17002DE9F041074600252B
:10D9E00016468846012080F31088124CA088FF2834
:10D9F00001D9AFF30080A08804280FD3A1880E4876
:10DA000000F0E8FE50B10C4800783870A088C01EC5
:10DA100030800948401CC8F8000000E005250020BF
:10DA200080F31088A088C1B20348FFF7A7FA284600
:10DA3000BDE8F08108010020F02500202DE9F0412B
:10DA4000154602460026012080F31088184C6078A5
:10DA5000012807D00526002080F31088607801286F
:10DA60001ED022E0491E0127A160084667800A7087
:10DA7000618829446180618800F096FE61880D4AC2
:10DA80005318491C61801870010A60880244401CC8
:10DA90006080117027700121002000F0FBFEDAE7A2
:10DAA000ED1CE9B20348FFF769FA3046BDE8F081A2
:10DAB00008010020F025002010B5012080F3108817
:10DAC0000548002444702146012000F0E3FE00F0E8
:10DAD00019FF84F3108810BD0801002010B5012043
