:020000040800F2
:10800000D03E0020DD81000861D9000801C90008C8
:10801000B1D400089D9100081DED0008000000008B
:108020000000000000000000000000004581000882
:10803000019500080000000089810008B1DD0008FA
:10804000F7810008F7810008F7810008F781000830
:10805000F7810008F7810008F7810008F781000820
:10806000F7810008F7810008F7810008F781000810
:10807000F78100088D940008F7810008F781000857
:10808000F7810008F7810008F7810008F7810008F0
:10809000F7810008F7810008F7810008F7810008E0
:1080A000F7810008E9DF0008F7810008F781000880
:1080B000F7810008F7810008F5DF0008F781000864
:1080C000F7810008F7810008F7810008F7810008B0
:1080D000F78100083DEC000875EC000881EC000811
:1080E000F7810008F7810008F7810008F781000890
:1080F000F7810008F7810008F7810008F781000880
:10810000F7810008F781000801E00008F781000806
:1081100011E8000871E8000825E00008F781000870
:10812000F7810008F781000899940008F78100089A
:10813000DFF80CD000F038FC00480047D5030108F8
:10814000D03E0020224B19680868B0E8F00F80F399
:108150000988BFF36F8F4FF0000080F311884EF055
:108160000D0E70470000000006480068006880F3AC
:10817000088862B661B6BFF34F8FBFF36F8F00DF21
:1081800000BF00BF08ED00E0EFF30980BFF36F8F81
:108190000F4B1A6820E9F00F106008B54FF050003F
:1081A00080F31188BFF34F8FBFF36F8F09F06CF826
:1081B0004FF0000080F31188BDE808401968086896
:1081C000B0E8F00F80F30988BFF36F8F704700BFEE
:1081D00030000020EFF3058070470000064880471C
:1081E00006480047FEE7FEE7FEE7FEE7FEE7FEE79C
:1081F000FEE7FEE7FEE7FEE759DE000831810008F2
:10820000202A04DB203A21FA02F00021704721FAEB
:1082100002F3D040C2F12002914008431946704752
:1082200040EA01039B0703D009E008C9121F08C0F8
:10823000042AFAD203E011F8013B00F8013B521E78
:10824000F9D27047D2B201E000F8012B491EFBD2EF
:1082500070470022F6E710B513460A460446194651
:10826000FFF7F0FF204610BD421C10F8011B00294B
:10827000FBD1801A704780EA010210B502F000437A
:10828000400022D04A001FD0010E01EB1261C0F362
:108290005600C2F3560240F4000042F40002A0FB74
:1082A000022000047F39140400D0401C50EA124020
:1082B00001D44000491EC2B20C0604EBD010401C91
:1082C0004008802A02D003E0002010BD20F0010009
:1082D000002900DA0020184310BD30B480EA010202
:1082E00002F0004530F0004221F0004013D090B180
:1082F000C30DD40DC2F31601C0F31600E41A41F405
:10830000000140F400027D34914201D3641C00E07E
:108310004900002C02DA30BC002070474FF4000006
:108320000023914201D3891A034340084FEA4101D7
:10833000F7D151B1914202D14FF0004105E002D294
:108340004FF0010101E06FF0010103EBC45028443C
:1083500030BC00F024BA2DE9FE4F804681EA0300CC
:10836000C00F0C46009021F0004123F00045B8EB0F
:108370000200A94105D24046214690461C460B46C4
:10838000024623F00040104347D0270DC7F30A00F0
:10839000C3F30A510290401A019040286BDAC3F3EC
:1083A000130040F4801B0098924620B10023D2EBCA
:1083B000030A63EB0B0B01985946C0F1400250468B
:1083C00000F0CCF906460D4650465946019A00F099
:1083D000D4F910EB08006141002487EA115284EAC5
:1083E000E7731A4340D0009A62B3019A012A4FEA18
:1083F000075215DC001B61EB02014FF0004202EA5C
:108400000752CDE90042001C41F5801132462B464F
:1084100000F00BFA03B0BDE8F08F40462146F9E7C3
:10842000001B61EB0201001C41F5801300185B4149
:108430002018A2F5001747EB030140EAD570B619E2
:108440006D4111E06D084FEA360645EAC0754FEA06
:108450000752001B61EB0201001C41F58011490825
:108460004FEA30000019514132462B4603B0BDE8B7
:10847000F04F00F0CBB90098012240000023D0EB70
:10848000020263EBE073009821464FEAE074B8EB18
:10849000000061EB0401E9E783F000435BE781F052
:1084A000004158E72DE9FE4F81EA030404F000443F
:1084B00021F0004100944FF0000B23F0004350EAFC
:1084C00001045ED052EA03045BD0C3F30A54C1F343
:1084D0000A552C44A4F2F3340194A0FB0254C1F3D6
:1084E000130141F48011C3F3130343F4801301FB20
:1084F000024400FB034E840A970A44EA815447EA87
:108500008357A4FB076802958D0A05FB07854FEA90
:10851000932C04FB0C542705029D4FEA065847EAAA
:108520001637B5EB08056EEB070C870E920E47EA7F
:10853000811742EA8312A7FB0201B6EB0B0164EB41
:1085400000042B0D43EA0C335E1844EB1C50DA4652
:108550005146E7FB0201C5F313044FEA0B3343EA2C
:1085600014534FEA0432019C43EA0603A4F10C04BD
:108570000294009CCDE900B400F057F903B0BDE8C7
:10858000F08F00200146F9E72DE9F04D81EA030460
:1085900004F0004B21F0004514464FF0000A23F090
:1085A000004150EA050220D054EA01021DD0C5F373
:1085B0000A570246C5F31303C1F31300C1F30A5669
:1085C00040F4801543F48013A7EB0608101BD64631
:1085D00008F2FD3873EB050002D308F1010801E051
:1085E00092185B41B8F1000F03DA00200146BDE8A4
:1085F000F08D00204FF48011064684460EE0171BD4
:1086000073EB050705D3121B63EB050306434CEA26
:10861000010C49084FEA300092185B4150EA01070B
:10862000EDD152EA030012D082EA040083EA050188
:10863000084305D0101BAB4106D20122002306E0FF
:1086400000224FF0004302E06FF0010253101AEBDA
:1086500006004CEB085110EB0A0041EB0B01BDE8A2
:10866000F04D00F0D3B896230022114600F0A0B8D8
:1086700000F0004230F000400AD0C10D01F56071F9
:10868000C0F3160042EA0151C20840071143704787
:1086900000200146704701F0004330B421F0004152
:1086A00050EA010206D00A0DA2F56072C1F313016F
:1086B000002A02DC30BC00207047440F44EAC104A9
:1086C000C100E01830BC00EBC25000F068B830B513
:1086D0000B46014600202022012409E021FA02F580
:1086E0009D4205D303FA02F5491B04FA02F528441A
:1086F000151EA2F10102F1DC30BD2DE9F05F054647
:10870000002092469B4688460646814640241BE050
:108710002846414647462246FFF772FD53465A46D1
:10872000C01A914110D311461846224600F016F89F
:108730002D1A67EB01084F4622460120002100F068
:108740000DF817EB00094E41201EA4F10104DFDCF7
:10875000484631462A464346BDE8F09F202A04DBBE
:10876000203A00FA02F1002070479140C2F1200344
:1087700020FA03F3194390407047202A06DBCB17F9
:10878000203A41FA02F043EAE07306E041FA02F3CC
:10879000D040C2F120029140084319467047002999
:1087A000A8BF7047401C490008BF20F00100704777
:1087B00010B4B0FA80FC00FA0CF050EA010404BFD7
:1087C00010BC704749B1CCF1200421FA04F411FA2D
:1087D0000CF118BF012121430843A3EB0C01CB1D71
:1087E0004FEA00614FEA102042BF002010BC7047E2
:1087F00000EBC35010440029A4BF10BC7047401CBC
:10880000490008BF20F0010010BC704710B5141ECD
:1088100073F1000408DA401C41F1000192185B4139
:108820001A4301D120F0010010BD2DE9F04D924610
:108830009B4611B1B1FA81F202E0B0FA80F2203227
:108840009046FFF78BFF04460F4640EA0A0041EAD4
:108850000B0153465A46084313D0114653EA010010
:1088600019D0C8F140025046FFF7CAFC05460E4633
:10887000504659464246FFF771FF084305D0012094
:1088800004E020463946BDE8F08D0020054346EA65
:10889000E0762C4337430A986305E40AA0EB08000E
:1088A0000022FD0A44EA47540A3002D5002001465E
:1088B000E9E7010510196941DDE908450019694139
:1088C000BDE8F04DA2E770B521F0004303430CD0A2
:1088D000C1F30A550024D5EB040564EB0403D61755
:1088E000AD1AB34102DB0020014670BD201841EBF8
:1088F000025170BD0EB5C10F80EAE0700844CA078E
:10890000002140F233438DE80E000A460B46FFF784
:108910008CFF03B000BDC1F30A52C1F3130140F252
:10892000FF3341F480119A4202DA00200146704779
:1089300040F233439A42A2F2334202DC5242FFF742
:108940005FBCFFF70BBF000030B5041E71F10004DF
:1089500004DB4FF00044404264EB0101141E73F14C
:10896000000405DB1C464FF00043524263EB040356
:108970008B4208BF824230BD30B5041E71F1000445
:1089800004DB4FF00044404264EB0101141E73F11C
:10899000000405DB1C464FF00043524263EB040326
:1089A000994208BF904230BD064C074D06E0E06892
:1089B00040F0010394E8070098471034AC42F6D326
:1089C000FFF7BAFB8C1D0108AC1D010870B58C18AF
:1089D00010F8015B15F0070301D110F8013B2A11D3
:1089E00006D110F8012B03E010F8016B01F8016BC0
:1089F0005B1EF9D12B0705D40023521E0DD401F8BC
:108A0000013BFAE710F8013BCB1A921C03E013F884
:108A1000015B01F8015B521EF9D5A142D8D30020B9
:108A200070BD000070B5044600688168C943C9077D
:108A300017D1816821F00101816002F0A9F8054693
:108A40000AE000BF02F0A4F8401B022804D9206805
:108A50008068C043C00706D020688068C043C00754
:108A6000F0D0002070BDA06A40F01000A062E06A63
:108A700040F00100E062012070BD0000F8B5002662
:108A80000446009600688168C943C9072DD08168F3
:108A900041F001018160164816490068B0FBF1F011
:108AA00000E0401E00900028FBD102F071F805465E
:108AB00016E000BF02F06CF8401B022810D92068B5
:108AC0008068C043C0070BD0A06A40F01000A062CD
:108AD000E06A40F00100E06284F824600120F8BD03
:108AE00020688068C043C007E4D10020F8BD0000C2
:108AF0002C00002040420F0002484178491C417080
:108B000070470000AC06002070B5174C0025A18806
:108B10006088814206D000B16580608800F02CFB3F
:108B20006088A08005F044FA012630B905F032FAD9
:108B300070B1022005F00AF950B1207810B16088B8
:108B400020B101E0267070BD608070BD257070BDE1
:108B500005F008FA0028F0D1044800780028F6D182
:108B600060880028F0D170BD28060020ED040020A8
:108B700010B5002000F000FB064C01221021204619
:108B800002F001F820460122BDE81040202101F04A
:108B9000FABF0000000C014010B504F05BF900F0D2
:108BA000C1FF064800210170417000F03FFB05F055
:108BB000C1FBBDE8104005F0ADBB00008001002006
:108BC0000C4810B5002101704170416942680A608B
:108BD000816982680A60C2690521118000F1200163
:108BE0004FF44872C068FFF71BFBBDE8104004F06B
:108BF0003BB900008001002010B50821042000F0DE
:108C00001DFF0149C86010BD4805002010B503F0E4
:108C1000A9FF114C60712178814218D1A079401CC4
:108C2000C0B2A071022815D32079AA2803D0BDE8CC
:108C3000104000F01BB800290CD005F044FB607810
:108C4000217808436070BDE8104004F0D7B8207068
:108C50000020A07110BD00003006002010B50F20CC
:108C600004F0CCF8BDE8104005F01CB92DE9F04740
:108C70002C4DE868401CE86029699631884202D989
:108C8000012005F00DFC0024264EDFF89C90274FB4
:108C90001436A046305D2978884238D1E8682861CA
:108CA000002005F0FDFB305D6978884257F824000C
:108CB00014D1401C47F8240096282AD399F80000C4
:108CC000102807D0112807D016485C3050F824002F
:108CD00080471EE01648F9E71648F7E708B905F09F
:108CE000F2FA99F8000010280BD011280BD00D488B
:108CF00010F13C0050F82400804799F8000020B1A2
:108D000005E00D48F6E70D48F4E704F0E3FF47F807
:108D10002480641CE4B2082CBCD328786870BDE8B9
:108D2000F087000030060020ED040020C43300204E
:108D3000280500209805002008050020780500205F
:108D400010B51A4CE068401CE060B0F5967F04D97D
:108D5000A07840F08000A07009E03C21B0FBF1F267
:108D600001FB120119B93C2801D304F0D5FDA088FC
:108D7000C10708D004F0CCFCA08842F210718842F0
:108D800010D2401C0FE00A21B0FBF1F201FB1200EF
:108D900028B120780028EFD004F0ECFBECE704F0D9
:108DA000F5FBE9E70020A08010BD0000E4060020EC
:108DB00010B50021032000F057FE1C4C01216080FB
:108DC000032000F051FEA080032805D90322A280D1
:108DD0000121104604F04AFF0221032000F044FE66
:108DE000E080072805D90722E2800221032004F051
:108DF0003DFF0421032000F037FE2081082805D91B
:108E0000082222810421032004F030FF05210320E1
:108E100000F02AFE6081012807D901226281052124
:108E2000BDE81040032004F021BF10BDF004002075
:108E300010B5074C2078AA2803D0BDE8104000F0F8
:108E40000FB805F053F805F02DF80020207010BD84
:108E5000340600200149022008707047EC0400200D
:108E600070B505F08DF800285CD105F071F8002888
:108E700058D12D4DA868401CA86005F061FF00F096
:108E800027F9287A294CC0070FD004F055FD002897
:108E900048D02078012140F008002070084605F0F5
:108EA00043FBBDE8704005F071BA2078002120F046
:108EB00008002070012005F037FB05F067FA03F089
:108EC00077FD18B1BDE8704000F04EBD002068612C
:108ED00000F0AAFE112801D100F02CFA05F02AF8C2
:108EE00018B1BDE8704003F0DDBD05F061F818B1C0
:108EF000BDE8704000F06AB805F04CF818B1BDE864
:108F0000704004F057BD05F02DF818B1BDE8704071
:108F100004F028BD05F05AF8002803D0BDE87040E1
:108F200004F01ABF70BD0000AC060020EC04002065
:108F300000B5012004F002FF04F0FCFF00280CD172
:108F400005F036F80C4910B10878401E04E005F031
:108F500021F818B10878801E087000BD05F002F8ED
:108F600010B10878C01EF7E705F030F80028F4D0FB
:108F70000878001FF0E70000ED04002010B5012084
:108F800004F0DCFE04F0D6FF0F4910B10878C01CD5
:108F900014E005F00DF810B10878801C0EE004F024
:108FA000F9FF10B10878401C08E004F0DBFF00284E
:108FB00009D105F00BF810B10878401E0870BDE823
:108FC000104000F0ABB910BDED04002000B5012049
:108FD00004F0B4FE04F0AEFF0E4910B10878801C16
:108FE00004E004F0E5FF18B10878401C087000BDEB
:108FF00004F0D0FF0028FAD104F0B4FF10B10878D3
:10900000401EF3E704F0E2FF0028F0D00878801E4D
:10901000ECE70000ED04002000B5012004F08EFE16
:1090200004F088FF0E4910B10878401C08E004F0F5
:10903000BFFF002805D104F0ADFF18B10878401E2D
:10904000087000BD04F08EFF10B10878801EF7E7AD
:1090500004F0BCFF0028F4D00878C01EF0E7000040
:10906000ED04002000B5012004F068FE04F062FF6A
:109070000D4910B10878001D04E004F099FF18B103
:109080000878C01C087000BD04F084FF10B1087897
:10909000801CF7E704F066FF10B10878401CF1E788
:1090A0005DF804EB04F092BFED040020012000F015
:1090B00007B8000001480078704700002206002031
:1090C000032801D8014908707047000022060020DB
:1090D00010B5FFF7EFFF1F4C01280CD0FFF7EAFF98
:1090E000032827D0FFF7E6FF022820782FD020F0B2
:1090F0000100207010BD1848016911B182689142C9
:1091000001D9816801618268D10705D12178CB0737
:109110000DD021F0010121700169511A0C290FD9DC
:10912000002181600846FFF7CBFF207805E041F081
:109130000101F0E72078C10706D020F0010020707F
:10914000BDE8104003F0C6BD40F00100F7E740F075
:109150000100CEE7EC040020AC060020FFF708FD7C
:10916000044801F03AFEFFF7CFFC142007F066FC3C
:10917000F6E70000D811002010B504460421064887
:1091800002F00AFE044800688463BDE81040042130
:10919000014802F0A7BD0000E4110020FEE7000036
:1091A00030B5ADF5017D0D4604464FF400720B4914
:1091B0006846FFF735F80020694608E014F8012BEF
:1091C00082EA102231F8122082EA002080B26D1E5D
:1091D000ADB2F3D20DF5017D30BD0000401A01089B
:1091E00010B500F0A7F802490020486110BD00004A
:1091F000AC060020002170B101280ED002280CD04E
:1092000004280CD00F280CD010280AD0112808D020
:10921000062808D04021084670470121FBE70221BB
:10922000F9E70421F7E70821F5E7000070B5314BB5
:109230005869008803F07DFC10B9586959680160CD
:109240009869008803F075FC20B19869408803F0A4
:1092500077FC10B9986999680160D8690188491E3E
:10926000082901D30521018000249C704FF4487225
:10927000DC70987800EBC00101EB0010D96801EBBD
:10928000C000D97830F8210003F053FCF8B1987889
:1092900000EBC00101EB0010D96801EBC000D978E8
:1092A00000EB8100408803F04BFC80B1D878A8B176
:1092B000997801EBC10505EB0111DD6805EBC101F2
:1092C00001EB80014D8831F8021C8D4206D8D86828
:1092D000BDE8704007492031FEF7A2BF401CC0B274
:1092E000D8703228C5D39878401CC0B29870042832
:1092F000BED370BD8001002010B50822064B0021AE
:1093000033F81140844201D1012010BD491C89B2BB
:109310009142F5D3002010BDD40600200148816899
:1093200081617047AC0600200149002048707047F9
:10933000AC06002010B500F01BF80A4C0020E168D4
:10934000088009492070607009680880A07804F0DE
:10935000ABFC0649E0780880A2884A80BDE810404E
:1093600000F0B6B848050020C40400209001002099
:1093700002480021C160817070470000E4060020AF
:109380000149002008707047AC060020012803D076
:10939000022803D1FFF78ABE05F0C1BC7047C0B2F6
:1093A00000F096B800F0A0B8014610B5000A11F020
:1093B000FF010BD001290DD002290ED104280CD2B7
:1093C00005F0ECF9BDE8104000F028BB002005F0E6
:1093D0006BF9F7E705F0BEF9F4E710BD10B538B149
:1093E00004F0CEFD002807D0BDE8104004F06EBDAB
:1093F000BDE8104004F056BD10BD000070B5204E11
:10940000204C142560B1012815D002281ED0032855
:109410001BD1012005F048F9BDE8704003F05ABCAB
:1094200004F0A0FD002810D1FFF7A8FD30682168E6
:109430000160002007E004F095FD002805D0FFF74B
:10944000EBFD306800882080658070BD04F006FD6B
:1094500020B1BDE87040002005F026B904F00AFDF7
:1094600018B1BDE8704005F075B904F00FFD002893
:10947000EBD005480078BDE8704005F08FB90000DA
:10948000C00400209001002080010020014800F06D
:10949000E1BF0000A0170020014800F0DBBF000082
:1094A0005C17002030B590F840500124AC40C56BEB
:1094B0006C60046863604368102B036803D0996094
:1094C0000068C26030BD9A600068C16030BD0000B5
:1094D000044910B5088004F005F9BDE810400220E9
:1094E00004F024BC9001002010B5044604F060FD97
:1094F000002801D10148448010BD000090010020E7
:10950000704700000B4810B540680168CA6842F017
:109510001002CA6001684A6942F001024A614022B1
:10952000054902F0B4FC05480068016821F0040117
:10953000016010BD78010020383300205C17002046
:1095400010B586B00446142211496846FEF768FE3D
:109550004FF4E130042C0FD0012C0FD0022C0BD093
:10956000032C09D0052C07D0601E04280ED86846AD
:1095700000EB840050F8040C06B010BD0549022031
:10958000C9680880034810308068F5E70020F3E7D9
:109590002C1A01085401002010B50021032000F00E
:1095A0004DFA0A4C01212060032000F047FAE060E8
:1095B0000120FFF7C5FF0021042000F03FFA6060A2
:1095C0000121042000F03AFAA06010BD54010020EF
:1095D00010B50446800703D5FF21052004F0FEFFE7
:1095E000E00705D0FF21BDE81040042004F0F6BFDD
:1095F00010BD10B50446400703D50021072004F034
:1096000093FFA00703D5FF21072004F0E7FFE00741
:1096100005D0FF21BDE81040062004F0DFBF10BDDB
:1096200010B5FF21052004F0D9FFFF21BDE810404F
:10963000042004F0D3BF70B50446642802D94FF06B
:10964000640400E002D34FF0010101E04FF000019B
:109650004FF0070004F068FF0A25B4FBF5F0B0FBFB
:10966000F5F105FB1101072004F0B8FFB4FBF5F09C
:1096700005FB1041BDE87040062004F0AFBF70B597
:1096800004464FF47A70B4FBF0F00A25B0FBF5F114
:1096900005FB1101002004F0A1FF6420B4FBF0F0F1
:1096A000B0FBF5F105FB1101012004F097FFB4FBBD
:1096B000F5F0B0FBF5F105FB1101022004F08EFF7F
:1096C000B4FBF5F005FB1041BDE87040032004F049
:1096D00085BF10B504464521002004F057FFC4F3B0
:1096E0000321012004F07AFFC4F30311022004F0E7
:1096F00075FF04F00F01BDE81040032004F06EBFB9
:1097000070B505460A24B0FBF4F0B0FBF4F104FB9D
:109710001101002004F062FFB5FBF4F004FB1051CE
:10972000BDE87040012004F059BF10B50446502137
:10973000052004F02BFF0A20B4FBF0F100FB1141DF
:10974000BDE81040042004F049BF70B50446642809
:1097500002D94FF0640400E002D34FF0010101E0B0
:109760004FF000014FF0070004F0DEFE0A25B4FBC5
:10977000F5F0B0FBF5F105FB1101072004F02EFF19
:10978000B4FBF5F005FB1041BDE87040062004F085
:1097900025BF70B505460A24B0FBF4F0B0FBF4F128
:1097A00004FB1101022004F019FFB5FBF4F004FBE7
:1097B0001051BDE87040032004F010BF70B504469E
:1097C000642802D94FF0640400E002D34FF0010195
:1097D00001E04FF000014FF0070004F0A5FE0A255C
:1097E0000A2C01D2FF2105E0B4FBF5F0B0FBF5F146
:1097F00005FB1101072004F0F1FEB4FBF5F005FBB9
:109800001041BDE87040062004F0E8BE70B5054682
:109810000A24B0FBF4F0B0FBF4F104FB11010520C5
:1098200004F0DCFEB5FBF4F004FB1051BDE8704021
:10983000042004F0D3BE72B6FEE7000070B50D4EF2
:109840000546304607F06EFB002812D10A4C20690D
:1098500040F0020020616561206940F04000206115
:10986000304607F05FFB012803D0206920F002009A
:10987000206170BDFFFF5F0000200240044B00220A
:10988000DA61044A136943F00103136101807047F0
:10989000301800200020024014480022C168CB0686
:1098A000134904D5CA6942F00202CA611022C36892
:1098B0005B0705D5CB6943F00103CB6142F004029D
:1098C000C369DB0707D0CB6943F00403CB61C169EF
:1098D00021F00101C161A2F58071013901D0C2609E
:1098E0007047C16921F00101C16170470020024049
:1098F0003018002070B5054601F04AF90646114CB3
:1099000009E0681C07D025B101F042F9801BA8428C
:1099100001D9032070BDE068C007F2D1E06880067D
:1099200001D52020E060E068C00605D4E069C007EA
:1099300002D1E068400703D5FFF7AEFF012070BDFC
:10994000002070BD0020024010B5064CE068008881
:1099500000F0D6F820706178814201D90120607052
:1099600010BD00004805002010B5C0B000F05CF943
:10997000112802D004F070FE34E004F0D1FA88B36C
:1099800003F00CF870BB1A4CA178A068401A782834
:1099900014D94FF480716846FEF75BFC627815A11C
:1099A000684605F013FA6846FEF75EFCC1B26846E9
:1099B00005F046F800206070207AA070606910B150
:1099C000A168884204D9A0686061A17801B9A0703B
:1099D0006169A068401A282804D96078401C60702A
:1099E000FFF7FEFB40B0BDE8104005F087B900006E
:1099F000AC060020B9CAD5CFBBD6B8B4BCC6CAB174
:109A0000B3ACB9FD31D0A1CAB12CC7E5B3FDBCC61A
:109A1000CAFDC6F73A0925640A00000010B503F034
:109A20008BFF002806D0044914200880BDE81040B0
:109A300003F050B910BD000090010020032802D0AF
:109A4000042805D00AE0B1F5397F07D2044802E0C6
:109A5000102903D8034800EB4100704700207047ED
:109A6000E4330020AC390020032802D0042805D0BC
:109A70000AE0B1F5397F07D2044802E0102903D883
:109A8000034830F81100704700207047E43300208D
:109A9000AC39002070B5092003F018FA0C4C20688E
:109AA00000F020F9206800F079FB0721206800F021
:109AB000D7FA206800F000FA800503D5206800F08E
:109AC000FDF905462846BDE8704000F0B9B8000031
:109AD0002406002030B500231A46012505FA02F4B9
:109AE000044206D05B1CDBB2994202D1521CD0B2B8
:109AF00030BD521CD2B2102AF0D3002030BD00007D
:109B0000024610B5002001465FF0010404FA01F39B
:109B1000134201D0401CC0B2491CC9B21029F5D370
:109B200010BD000000B570210320FFF787FF2C490E
:109B3000086080210320FFF781FF2A490860822105
:109B40000320FFF77BFF284908604FF48071032052
:109B5000FFF774FF2549086000210320FFF76EFF1F
:109B60002349086001210320FFF768FF21490860AD
:109B700002210320FFF762FF1F4908600421032030
:109B8000FFF75CFF1D49086008210420FFF756FF1E
:109B90001B49086009210420FFF750FF194908609C
:109BA0000A210420FFF74AFF174908600B2104200F
:109BB000FFF744FF154908600C210420FFF73EFF22
:109BC000134908600E210420FFF738FF114908608F
:109BD00010210420FFF732FF0F49086000BD00008C
:109BE000C004002094010020980100208C01002076
:109BF000E0040020E4040020E80400209C01002090
:109C0000C4040020C8040020CC040020D00400209C
:109C1000D4040020D8040020DC040020014880780F
:109C200070470000E40600200148007870470000FB
:109C3000ED0400200148C07870470000AC06002009
:109C40002DE9F041FEF70FFDFEF712FD4FF06638EB
:109C500042461C4BFEF726FCFEF71DFD0546FEF7AF
:109C600007FD4246184BFEF71AFC184E07460C46F5
:109C700031462846FEF7FFFAFEF7FAFC3A4623463D
:109C8000FEF782FCFEF707FD3146FEF726FBFEF7E6
:109C9000EFFC06F0F1F900220D4BFEF775FC0D4AC2
:109CA0000D4BFEF758FB02460B4600200B49FEF712
:109CB0006BFC42460A4BFEF7EFFBBDE8F041FEF7B6
:109CC000EABC000066664A3F66660A400000204122
:109CD00000DCAE4083DBB5DCE1796B3F0000F03F98
:109CE00066127140F8B500250446009590F82400EE
:109CF000012808D0012084F824002046FEF792FEB7
:109D0000060002D053E00220F8BDA06A20F488507B
:109D100040F00200A062022001F04AF926490968D9
:109D2000B1FBF0F0400000E0401E00900028FBD1A5
:109D30002046FEF7A3FE2068816841F0080181609B
:109D400000F026FF074608E000F022FFC01B0A28AB
:109D500003D920688068000715D420688068000750
:109D6000F2D42068816841F00401816000F010FFA6
:109D7000074612E000F00CFFC01B0A280DD920682E
:109D80008068400709D5A06A20F0020040F010006A
:109D9000A06284F824500120F8BD20688068400744
:109DA000E8D4A06A20F0020040F00100A06284F82C
:109DB00024503046F8BD00002C000020F8B50024E7
:109DC000009490F824202546012A12D0012280F820
:109DD00024204A681F23072A0DD20668776B521E7B
:109DE00002EB820293409F430B6893401F437763CB
:109DF00019E00220F8BD06680D2A0AD2376BD21F7F
:109E000002EB820293409F430B6893401F433763EA
:109E100009E0F76A0D3A02EB820293409F430B6818
:109E200093401F43F7620A68072306680A2A0AD389
:109E3000F7680A3A02EB420293409F438B689340D3
:109E40001F43F76008E0376902EB420293409F43EB
:109E50008B6893401F4337610A68102A01D0112A8A
:109E600020D1124B02689A4217D193681B0219D471
:109E7000936843F4000393600968102912D10C49D8
:109E80000C4A0968B1FBF2F101EB8101490000E0E5
:109E9000491E00910029FBD104E0816A41F02001B4
:109EA0008162012480F824502046F8BD002401403E
:109EB0002C00002040420F00806A70470068C06C90
:109EC000704700002DE9F04104004FF000057FD0FD
:109ED000A06A002628B9E66284F82460204600F0D3
:109EE00081F82046FEF79EFDA16AC90600D420B184
:109EF000A06A40F01000A0626AE0A16A21F48851D3
:109F000041F00201A162334923688B42E16904D127
:109F1000B1F5402F01D14FF40021277B4FF4807C15
:109F200041EA470261680A43A168614508D00129F6
:109F300006D0002194F814E0BEF1010F02D00AE02F
:109F40006146F7E7C7B1A76A47F02007A762E76A4B
:109F500047F00107E7625F6827F469470F435F60D6
:109F6000236899681C4F394011439960A168614585
:109F70000BD0012909D00CE0DFF860E0A7690EEBF7
:109F800047370F4347F40061E5E7218A0D05A5F542
:109F900080152168CB6A23F470032B43CB622168C0
:109FA00089680F4B1940914208D1E662A16A21F0FD
:109FB000020141F00101A162BDE8F081A06A20F038
:109FC000020040F01000A062E06A40F00100E06290
:109FD0000120F1E7003C0140FDF7E1FF00E0FFFF59
:109FE000FE0E1FFF10B586B0002100910191029175
:109FF000039100681649884227D11648816941F4C7
:10A0000080618161816901F480610491816941F01D
:10A0100004018161816901F004010491816941F0C9
:10A02000080181618069032400F008000490602029
:10A03000CDE900046946084800F0A4FC0220CDE9FF
:10A0400000046946054800F09DFC06B010BD000004
:10A05000002801400010024000080140000C0140AF
:10A060002DE9F84300270D460446009700F090FDC7
:10A07000804620688168C90508D5A06A40F02000A4
:10A08000A06284F824700120BDE8F8834168C90506
:10A0900003D4C06A10F4700F2AD0022000F088FFA9
:10A0A0003B490968B1FBF0F62068036939490B4266
:10A0B0004FEA61014FEAA1121FD1C3684FEA611C48
:10A0C00013EA0C0F19D103690B4225D1C068104265
:10A0D00022D1142023E0681C0AD02DB100F058FDD5
:10A0E000A0EB0800A84203D920680068800725D5A6
:10A0F000206800688007EED52DE003690B4202D18D
:10A10000C168114206D0026923490A4206D1C068DB
:10A11000084203D1542002E0292000E0FC204643FD
:10A12000009816E0681C11D02DB100F031FDA0EBB5
:10A130000800A8420AD90098B04207D2A06A40F0AD
:10A140000400A06284F8247003209DE70098401C5E
:10A150000090B042E6D321686FF012000860A06A58
:10A1600040F40070A06220688068C0F34240072875
:10A170000CD1207B50B9A06A20F48070A062A06A44
:10A18000C00403D4A06A40F00100A06200207BE775
:10A190002C000020244992244992240070B50446E2
:10A1A00090F8240001280DD0012084F824002046D6
:10A1B000FEF764FC02004FF0000005D084F8240094
:10A1C000104670BD022070BDA16A40F20123994380
:10A1D00041F48071A1621F4D23681F49AB4218D121
:10A1E0000E6816F4702F14D0A66A46F48016A66284
:10A1F0000E68760505D5A66A26F4005646F4805604
:10A20000A662A66AF6040AD5E66A26F00606E662A3
:10A2100006E0A66A26F48016A6625E68E9E7E062B8
:10A2200084F824006FF00200186020688368C3F38C
:10A230004243072B05D1A84208D1096811F4702FB9
:10A2400004D0816841F480118160B9E7816841F4EC
:10A25000A001F9E7002801400424014010B590F85E
:10A2600021100022022905D00421816380F82020DA
:10A27000012010BD01680B6823F00E030B6001681C
:10A280000B6823F001030B6090F84030C46B012190
:10A2900001FA03F3636080F8211080F82020104653
:10A2A00010BD00002DE9F05F90F821100024022974
:10A2B00003D004218163012485E001680A6822F04B
:10A2C0000E020A6001680A6822F001020A603F4E2D
:10A2D0003E4FB215DFF8F4C0DFF8F090DFF8ECA0E5
:10A2E000DFF8E8B0DFF8E4E00168783F1301150219
:10A2F000ACF1640CA9F15009AAF13C0AABF1280BAE
:10A30000AEF1140E4FF48018B14227D9B9420ED0E5
:10A31000614512D049451DD0514518D0594518D036
:10A32000714501D1424615E0294EB14201D10122C9
:10A3300010E0274E1436B14201D110220AE0244E1B
:10A340002836B14206D0224A3C32914201D11A4607
:10A3500000E02A461E49091F0A602BE0B94213D0CB
:10A36000614517D0494522D051451DD059451DD0D2
:10A37000714501D142461AE0B14202D14FF08072DC
:10A3800015E0134EB14201D1012210E0104E1436F7
:10A39000B14201D110220AE00D4E2836B14206D05A
:10A3A0000B4A3C32914201D11A4600E02A46074945
:10A3B00080394A60012180F82110002180F82010A6
:10A3C000416B01B188472046BDE8F09F8000024004
:10A3D0000804024010B5D0B101680A6822F00102F9
:10A3E0000A60026800211160026851600268916091
:10A3F0000268D160144C02681423A24209D2134CA3
:10A400002244B2FBF3F292000264114A0AE00120F6
:10A4100010BD0D4C64422244B2FBF3F29200026480
:10A42000094A083AC26390F8403001229A40C36B4F
:10A430005A608162C16201634163816380F82110C7
:10A4400080F82010002010BD08040240F8FFFDBF76
:10A45000000002402DE9F05FC16B0A6801680B68DB
:10A46000046C4FF0040808FA04F8844D844E854FBC
:10A47000DFF814C2DFF81492DFF814A2DFF814B288
:10A48000DFF814E218EA020F65D05FEA437862D57C
:10A490000A68920603D40A6822F004020A60DFF810
:10A4A000F0814FF48062016808F11408130114026E
:10A4B000414524D9A9420DD0B1420FD0B9421AD09A
:10A4C000614515D0494515D0514501D1120312E01F
:10A4D000594501D104220EE0714501D140220AE024
:10A4E0006D4D1435A94206D06B4A2832914201D1F4
:10A4F0001A4600E022466749091F0A6029E0A9427E
:10A5000013D0B14215D0B94220D061451BD0494586
:10A510001BD0514502D14FF4800217E0414502D1D2
:10A520004FF0806212E0594501D104220EE07145DE
:10A5300001D140220AE0584D1435A94206D0564AAE
:10A540002832914201D11A4600E022464B4908398F
:10A550004A60C16A71E04FF0020808FA04F818EA8C
:10A56000020F70D05FEA83786DD50A68920606D430
:10A570000A6822F00A020A60012180F82110DFF83F
:10A5800010814FF40072016808F1140813011402DD
:10A59000414524D9A9420DD0B1420FD0B9421AD0B9
:10A5A000614515D0494515D0514501D1120312E03E
:10A5B000594501D102220EE0714501D120220AE065
:10A5C000354D1435A94206D0334A2832914201D183
:10A5D0001A4600E022462F49091F0A6029E0A942D5
:10A5E00013D0B14215D0B94220D061451BD04945A6
:10A5F0001BD0514502D14FF4001217E0414502D162
:10A600004FF0007212E0594501D102220EE071456F
:10A6100001D120220AE0204D1435A94206D01E4A5D
:10A620002832914201D11A4600E0224613490839E6
:10A630004A60002180F82010816A00291CD0BDE802
:10A64000F05F0847FFE70825A540154214D01A0718
:10A6500012D50A6822F00E020A6090F84020C36BFF
:10A66000012101FA02F25A60816380F82110002171
:10A6700080F82010016BE0E7BDE8F09F0800024081
:10A680001C000240300002404400024058000240DA
:10A690006C000240080402401C04024030B560B166
:10A6A0001A4B026814219A4209D2194B1344B3FB86
:10A6B000F1F18900016417490AE0012030BD134B14
:10A6C0005B421344B3FBF1F1890001640F4908397F
:10A6D000C163022180F82110136843F6F0718B43A7
:10A6E000F0E901142143D0E902452C4321430469D8
:10A6F00021434469214384692143194311600021A6
:10A700004163012242770177084630BD08040240C8
:10A71000F8FFFDBF0000024070B5044690F820002D
:10A72000002501280CD0012084F8200094F8216035
:10A730000020012E06D084F820000225284670BD96
:10A74000022070BD022684F82160A063206806689C
:10A7500026F0010606602046FEF7A4FEE06A002807
:10A760002068016802D041F00E0106E021F00401EA
:10A7700001602068016841F00A01016020680168F9
:10A7800041F001010160D9E7064810B54FF0FF31F3
:10A79000C16000220261C160C26000F085FB002040
:10A7A00010BD0000001002400348016941F0800123
:10A7B0000161002070470000002002402DE9F05F99
:10A7C00007461C4888460024017E15461E4601297E
:10A7D00009D00121814601764CF2503A5046FFF7EC
:10A7E00089F818B122E00220BDE8F09F012F02D0C5
:10A7F000022F00D00427D346DFF83CA022012846D0
:10A800003146FDF7FDFC81B208EB4400FFF736F856
:10A810005846FFF76FF8DAF8102022F00102CAF864
:10A82000102018B9641CE4B2BC42E7D3002289F8B6
:10A830001820D9E7301800200020024006490020E7
:10A840000A69120607D5054A4A60054A4A6009693D
:10A85000090600D50120704700200240230167450A
:10A86000AB89EFCD2DE9F04300233E4F0F2574E077
:10A8700001229A400A406ED023F00304E619D6F86C
:10A8800008809C074FEA147C05FA0CF909EA0804D1
:10A89000DFF8D480404502D14FF0000824E0DFF813
:10A8A000CC80404502D14FF001081DE0DFF8C080A8
:10A8B000404502D14FF0020816E0DFF8B88040456D
:10A8C00002D14FF003080FE0DFF8AC80404502D121
:10A8D0004FF0040808E0DFF8A480404502D14FF0B3
:10A8E000050801E04FF0060808FA0CF8A04515D15C
:10A8F000D6F808C02CEA090CC6F808C0204E346807
:10A9000094433460341D266896432660241D2668CF
:10A9100096432660241D266896432660FF2A01D8A8
:10A92000064601E000F104064FEA830401D9A4F1D0
:10A930002004D6F800C005FA04F82CEA080C4FF001
:10A94000040808FA04F84CEA080CC6F800C0C46809
:10A9500024EA0204C46003F1010331FA03F287D14F
:10A96000BDE8F0830000014000080140000C0140F8
:10A97000001001400014014000180140001C01407B
:10A98000000401402DE9F84FDFF8C891002409F1D7
:10A99000040A0AF1040B23460F270BF1040ED1E041
:10A9A0000125A54006EA0502AA4276D1DFF8A8C132
:10A9B0004E68A6EB0C0866452BD00DDC032E34D078
:10A9C00005DC36B3012E19D0022E2FD11BE0112E3B
:10A9D00016D0122E2AD119E0B8F5881F19D006DC3E
:10A9E000B8F5803F15D0B8F5801F1FD111E0B8F53C
:10A9F000001F0ED0B8F5041F18D10AE0CB6815E08F
:10AA0000CB681B1D12E0CB6808330FE0CB680C331A
:10AA10000CE08B682BB1012B4FF0080303D045618C
:10AA200004E0042302E0056100E00023FF2A01D8CE
:10AA3000064601E000F104064FEA840501D9A5F1BC
:10AA40002005D6F8008007FA05FC28EA0C0803FA6E
:10AA500005F548EA0508C6F800804D68ED0070D598
:10AA60003E4DAE6946F00106AE61AD6924F00306C5
:10AA700005F0010500953A4D06EB050CDCF8085091
:10AA8000A607360F07FA06F825EA0805DFF8D4808E
:10AA9000404503D14FF0000825E052E0DFF8C880C0
:10AAA000404502D14FF001081DE0DFF8C08040456D
:10AAB00002D14FF0020816E0DFF8B480404502D121
:10AAC0004FF003080FE0DFF8AC80404502D14FF0B3
:10AAD000040808E0DFF8A080404502D14FF00508E7
:10AAE00001E04FF0060808FA06F848EA0508CCF835
:10AAF00008804D68D9F80060ED034D4601D5164336
:10AB000000E096432E604D68DAF80060AD035546CC
:10AB100001D5164300E096432E604D68DBF80060D7
:10AB2000ED025D4601D5164300E096432E604D6868
:10AB3000DEF80060AD02754601D5164300E096438D
:10AB40002E60641C0A681646E2407FF429AFBDE817
:10AB5000F88F0000000401400000111000100240B6
:10AB60000000014000080140000C014000100140BD
:10AB70000014014000180140001C0140806808409A
:10AB800000D0012070470AB1016170470904FBE75A
:10AB900001488068704700002000002070B5040064
:10ABA00025D094F83D00002520B984F83C5020467B
:10ABB00000F0B8F8242084F83D002068016821F0F6
:10ABC000010101602068016841F4004101602068D2
:10ABD000016821F40041016000F080FB4D4A61688A
:10ABE000914201D84C4900E04C49884201D20120F1
:10ABF00070BD4B492368B0FBF1F15E6826F03F065B
:10AC00000E435E606368934206D94FF496735943CE
:10AC10004FF47A73B1FBF3F12368491C1E6A26F0E6
:10AC20003F06314319626168914210D84900401EC5
:10AC3000B0FBF1F2521CC2F30B02042A01D2042031
:10AC400022E0B0FBF1F0401CC0F30B001CE0A26856
:10AC5000F2B301EBC10303EB0116431EB3FBF6F3A2
:10AC60005B1C43F480431B0549D092B301EBC10246
:10AC700002EB0111401EB0FBF1F0401CC0F30B00D1
:10AC800040F4804040F400402168CA694CF6FF73EC
:10AC90009A431043C861D4E9071001432068026851
:10ACA00022F0C00211430160D4E90301014320688E
:10ACB000826848F2FF339A4311438160D4E9050169
:10ACC00008432168CA6822F0FF021043C86001E00F
:10ACD0000EE016E02068016841F001010160256482
:10ACE000202084F83D00256384F83E50002070BD8C
:10ACF00001EB4106431EB3FBF6F35B1CB3E70120F7
:10AD0000C2E701EB4101401EB0FBF1F0401CC0F373
:10AD10000B00B7E7A086010080841E0000093D00FB
:10AD200040420F0010B586B00021009101910291C0
:10AD3000039100680F4988421AD10F4CA06940F076
:10AD40000800A061A069694600F008000490C020D6
:10AD5000009012200190032003900848FFF712FE94
:10AD6000E06940F40010E061E06900F40010049034
:10AD700006B010BD0054004000100240000C01401D
:10AD800070B5040011D021684CF6CC4008602168F1
:10AD900045F255500860D4E9000141602168A0687F
:10ADA0008860FFF7F5FE05460DE0012070BD00BF8D
:10ADB000FFF7EEFE401B272805D92068C0688007F2
:10ADC00001D0032070BD2068C0688007F0D12168E1
:10ADD0004AF6AA200860002070BD00684AF6AA2141
:10ADE0000160002070470000024881680278114429
:10ADF0008160704720000020074810B5016841F0CD
:10AE000010010160032000F0C1F80F2000F006F8E7
:10AE100000F04CF8002010BD0020024030B505467F
:10AE20001C4887B0816941F400618161806906A98D
:10AE300000F40060009001A800F030FA00F05EFA23
:10AE40001549164AB0FBF1F11548491E02604160F0
:10AE500040F2E7320021C0E903218160816100F006
:10AE600063FC040012D10E4800F0EAFC04000DD18E
:10AE7000192000F05DF8102D07D200222946192074
:10AE800000F064F80748056000E0012407B02046A0
:10AE900030BD00000010024040420F00002C014075
:10AEA000E417002024000020704700000F4808B578
:10AEB000816941F001018161816901F00101009125
:10AEC000C16941F08051C161C069002200F0805029
:10AED00000900F21901E00F039F80548416821F0DC
:10AEE000E06141F00071416008BD000000100240C7
:10AEF00000000140002809DB00F01F020121914001
:10AF00004009800000F1E020C0F88012704700285E
:10AF10000DDB00F01F02012191404009800000F18B
:10AF2000E020C0F88011BFF34F8FBFF36F8F7047E1
:10AF3000002809DB00F01F02012191404009800038
:10AF400000F1E020C0F8001170470000F0B40E4B93
:10AF50001B680C46C3F30223C3F10705042D00D977
:10AF60000425191D072901D2002300E0DB1E01265C
:10AF700006FA05F1491E214099409E40761E164072
:10AF80003143F0BC03F036BF0CED00E0064900F0A1
:10AF9000070208684FF6FF03184040EA0220034A00
:10AFA00010430860704700000CED00E00000FA0557
:10AFB00010B52CA401461DCC86B08DE81D002DA037
:10AFC0002D4C00680490002004292FD00BDC0129AF
:10AFD0002FD0022928D100F091F96168C1F38131A5
:10AFE000491C49001EE0082920D010291CD16168A5
:10AFF0002268D20118D5C1F38342C9031DF80200AB
:10B0000009D5616804AAC1F34041515C1B4AB2FBF7
:10B01000F1F1484301E01A4948436168490203D409
:10B0200040000321B0FBF1F006B010BD00F076F94E
:10B03000FAE7226AC2F30121012903D1920701D55F
:10B04000C803F1E7022905D1626A920702D549F6E1
:10B050004040E9E70329E7D121688903E4D54FF2AD
:10B060002440E1E702030405060708090A0B0C0D5A
:10B070000E0F1010010200000010024000127A00B2
:10B0800000093D002DE9F84305460078354CC0071E
:10B0900054D0E0690026C00008D4E06940F0805038
:10B0A000E061E069012600F0805000902E480168C0
:10B0B000C90512D40168804641F480710160FFF730
:10B0C00067FD074605E000BFFFF762FDC01B64286F
:10B0D00023D8D8F80000C005F6D5206A10F44070D7
:10B0E00021D0A98801F4407181421CD0206A1F49F7
:10B0F000012220F440700A6000220A602062C0072A
:10B1000011D0FFF745FD074641F2883808E000BF3F
:10B11000FFF73EFDC11B414502D90320BDE8F8837E
:10B12000206A8007F4D5206A696820F440700843DB
:10B1300020621EB1E06920F08050E061287880072D
:10B1400005D56068A96820F440400843606028780D
:10B15000C00605D56068696920F480000843606016
:10B160000020DBE700100240007000404004424233
:10B170002DE9F0470F46050061D0434E306800F0DE
:10B180000700B84209D2306820F007003843306029
:10B19000306800F00700B84251D128683B4C810765
:10B1A00012D5400703D5606840F4E06060602878FD
:10B1B000000703D5606840F4605060606068A9686B
:10B1C00020F0F000084360602878C00728D0686845
:10B1D000012810D02168022810D0890700292EDA12
:10B1E000616821F0030101436160FFF7D1FC8046F3
:10B1F00041F288390DE021688903EFE78901EDE725
:10B20000FFF7C6FCA0EB0801494502D90320BDE8C1
:10B21000F0876068696800F00C00B0EB810FEFD137
:10B22000306800F00700B8420BD9306820F0070002
:10B2300038433060306800F00700B84201D0012088
:10B24000E5E72878400705D56068E96820F4E06004
:10B25000084360602878000706D56068296920F4F3
:10B26000605040EAC100606000F058F86168084A28
:10B27000C1F30311515CC8400649086006480068E4
:10B28000FFF7CCFD0020C2E7002002400010024082
:10B29000141801082C000020240000200F22026056
:10B2A0000C4A536803F003034360536803F0F00350
:10B2B0008360536803F4E063C36052684FF4E06353
:10B2C00003EAD20202610448006800F00700086047
:10B2D0007047000000100240002002400448054969
:10B2E00000684968044AC1F30221515CC8407047B4
:10B2F0002C000020001002402418010804480549D1
:10B3000000684968044AC1F3C221515CC8407047D3
:10B310002C000020001002402418010812A185B062
:10B320000FC98DE80F0014A0144A006804905168FA
:10B33000134801F00C03042B10D0082B0ED1C1F3DD
:10B340008343C9031DF803000AD5516804AAC1F359
:10B350004041515C0A4A5043B0FBF1F005B07047E0
:10B3600008494843FAE700000203040506070809F4
:10B370000A0B0C0D0E0F101001020000001002400D
:10B3800000127A0000093D002DE9F84F040070D04A
:10B390002078C04DC00749D06868C0F381000128FB
:10B3A00007D06868C0F38100022809D16868C0032B
:10B3B00006D52868800339D560680028E7D035E0D5
:10B3C0006068B0F5803F0BD010B1B0F5A02F11D060
:10B3D000286820F480302860286820F4802002E06B
:10B3E000286840F480302860606890B1FFF7D0FB97
:10B3F00006460AE0286840F480202860F0E700BF95
:10B40000FFF7C6FB801B642873D828688003F7D534
:10B410000CE0FFF7BDFB064605E000BFFFF7B8FBF9
:10B42000801B6428F0D828688003F7D420789A4ECF
:10B4300080074FF001094FF0000839D5686810F017
:10B440000C0F07D06868C0F38100022809D1686832
:10B45000C00306D42868800714D52069012808D1C4
:10B4600010E02069B0B1C6F80090FFF791FB0746E5
:10B4700005E00AE1FFF78CFBC01B0228C4D828684E
:10B480008007F7D52868616920F0F80040EAC1001C
:10B4900028600DE0C6F80080FFF77AFB074604E05D
:10B4A000FFF776FBC01B022823D828688007F7D453
:10B4B000207800072CD57948A169D9B1C0F800904F
:10B4C000FFF766FB074604E0FFF762FBC01B02289C
:10B4D0000FD8686A8007F7D571484FF4FA510068B1
:10B4E000B0FBF1F0009000BF0098411E0091FAD22D
:10B4F0000EE080E0C0F80080FFF74AFB074604E05A
:10B50000FFF746FBC01B022875D8686A8007F7D48E
:10B510002078400760D5E8690027C00008D4E869B2
:10B5200040F08050E861E869012700F08050009009
:10B530005C480168C90513D40168834641F48071F1
:10B540000160FFF725FB824606E000BFFFF720FB06
:10B55000A0EB0A0064284ED8DBF80000C005F5D542
:10B56000E06801280AD008B1052813D0286A20F025
:10B5700001002862286A20F0040002E0286A40F0F6
:10B5800001002862E06841F2883B98B1FFF700FBB8
:10B5900082460BE0286A40F004002862EEE700BF14
:10B5A000FFF7F6FAA0EB0A0159455AD8286A800736
:10B5B000F6D50CE0FFF7ECFA824605E0FFF7E8FA73
:10B5C000A0EB0A0159454CD8286A8007F6D41FB170
:10B5D000E86920F08050E861E06988B36968C1F3E8
:10B5E0008101022944D00228C6F8608004D0FFF708
:10B5F000CFFA044638E034E0FFF7CAFA074604E021
:10B60000FFF7C6FAC01B02282BD828688001F7D4A0
:10B61000206AB0F5803F05D16868A16820F4003049
:10B6200008436860D4E908010843696821F474118B
:10B6300008436860C6F86090FFF7AAFA044606E07F
:10B6400025E000BFFFF7A4FA001B022809D82868EC
:10B650008001F7D51BE000BFFFF79AFA001B022814
:10B6600002D90320BDE8F88F28688001F4D40EE0E9
:10B670000128F7D06868226A00F48031914204D131
:10B68000616A00F47010884201D00120EAE70020CE
:10B69000E8E70000001002400000424280044242FD
:10B6A0002C000020007000407047704770B590F883
:10B6B0003C20012A2CD0012480F83C40022280F852
:10B6C0003D2003685A689D6822F070060A6832437C
:10B6D0005A60104B02689A420ED00F4B9A420BD020
:10B6E000B2F1804F08D00D4B9A4205D00C4B9A42D4
:10B6F00002D00C4B9A4204D1496825F080031943CB
:10B70000916080F83D40002180F83C10084670BDF3
:10B71000022070BD002C01400034014000040040B4
:10B7200000080040000C004010B5040003D094F85D
:10B730003D0010B107E0012010BD002084F83C005E
:10B74000204600F01FF8022084F83D00211D2068EB
:10B7500002F06EFC012084F8460084F83E0084F874
:10B760003F0084F8400084F8410084F8420084F8E7
:10B77000430084F8440084F8450084F83D0000202C
:10B7800010BD000008B501682848B1F1804F0BD00A
:10B79000274A914210D1C16941F00201C161C069DB
:10B7A00000F00200009008BDC16941F00101C161D3
:10B7B000C06900F00100F5E71E4A91420ED1C1694F
:10B7C00041F00401C161C069002200F00400009052
:10B7D00005211E20FFF7BAFB1E2022E0164A9142E7
:10B7E0000ED1C16941F00801C161C069002200F0B9
:10B7F0000800009005213220FFF7A8FB322010E05E
:10B800000E4A9142CFD1C16941F01001C161C069B6
:10B81000002200F01000009005213620FFF796FB73
:10B820003620BDE80840FFF783BB0000001002404F
:10B830000004004000080040000C004000100040E0
:10B8400090F83D10012901D001207047022180F8B5
:10B850003D100168CA6842F00102CA6000680E49E2
:10B8600088420ED00D4988420BD0B0F1804F08D0ED
:10B870000B49884205D00B49884202D00A498842C8
:10B8800004D1816801F00701062903D0016841F065
:10B890000101016000207047002C0140003401408C
:10B8A0000004004000080040000C00400168CA6825
:10B8B00022F00102CA6001680A6A41F211131A42B9
:10B8C00007D10A6A9B101A4203D10A6822F00102CA
:10B8D0000A60012180F83D100020704770B50446D1
:10B8E00090F83C00012817D0012584F83C50022034
:10B8F00084F83D002068826822F0770222F47F42BB
:10B9000082600868502830D00DDC20284DD005DC3E
:10B9100098B310283BD148E0022070BD302844D0B5
:10B92000402834D139E0602828D0702806D0B0F5FE
:10B93000805F2CD0B0F5005F29D10AE0CB68D1E957
:10B940000121206802F0C7FB2068816841F077017F
:10B9500009E0CB68D1E90121206802F0BCFB206836
:10B96000816841F48041816011E0CA6849682068BB
:10B9700002F086FC5021206807E016E0CA6849689A
:10B98000206802F08EFC6021206802F0AEFB84F893
:10B990003D50002084F83C0070BDCA6849682068AA
:10B9A00002F06EFC40212068EFE722680146104655
:10B9B000EBE7704770B50446006801694FF0000579
:10B9C000C943890715D4C168C943890711D4E91E41
:10B9D000016101202077206880698007204602D01D
:10B9E000FFF7E7FF04E000F0BDF8204600F078F92B
:10B9F000257720680169C943490717D4C168C9433D
:10BA0000490713D46FF004010161022020772068F8
:10BA1000806910F4407F204602D0FFF7CAFF04E09F
:10BA200000F0A0F8204600F05BF925772068016956
:10BA3000C943090716D4C168C943090712D46FF076
:10BA400008010161042020772068C0698007204632
:10BA500002D0FFF7AEFF04E000F084F8204600F0CB
:10BA60003FF9257720680169C943C90617D4C16821
:10BA7000C943C90613D46FF0100101610820207773
:10BA80002068C06910F4407F204602D0FFF791FF84
:10BA900004E000F067F8204600F022F925772068DE
:10BAA0000169C943C90708D1C168C943C90704D19D
:10BAB000891E0161204600F0C7F920680169C94369
:10BAC000090609D4C168C943090605D46FF080018D
:10BAD00001612046FFF7E8FD20680169C943490676
:10BAE00009D4C168C943490605D46FF0400101611A
:10BAF000204600F0CBF920680169C94389060BD4C0
:10BB0000C168C943890607D46FF02001016120464E
:10BB1000BDE87040FFF7C9BD70BD000000B585B03D
:10BB2000002100910191029103910068B0F1804FD2
:10BB300011D10A48816941F0040181618069694637
:10BB400000F0040004900320009002200190039074
:10BB50000348FEF717FF05B000BD000000100240CB
:10BB600000080140704770B50D46040003D094F8FA
:10BB70003D0010B107E0012070BD002084F83C00BA
:10BB8000204600F01BF8022084F83D00211D2068AB
:10BB900002F04EFA2068016821F00801016054F8B3
:10BBA000460B016829430160012004F81F09E07574
:10BBB0002076E0762077A075002070BD704770B5C4
:10BBC000044690F83C000D4601280AD0012084F874
:10BBD0003C0042B1042A18D0082A2AD00C2A4DD1A0
:10BBE00039E0022070BD206802F088FA206881697F
:10BBF00041F0080181612068816921F004018161BF
:10BC0000206881692A69114311E0206802F0A6FAD0
:10BC10002068816941F4006181612068816921F4B3
:10BC200080618161206881692A6941EA022181611C
:10BC300024E0206802F0C8FA2068C16941F00801D8
:10BC4000C1612068C16921F00401C1612068C16936
:10BC50002A69114311E0206802F0EAFA2068C169FC
:10BC600041F40061C1612068C16921F48061C16152
:10BC70002068C1692A6941EA0221C161002084F873
:10BC80003C0070BD10B5040003D094F83D0010B125
:10BC900007E0012010BD002084F83C00204600F0A1
:10BCA0001EF8022084F83D00211D206802F0C0F932
:10BCB000012084F8460084F83E0084F83F0084F8B0
:10BCC000400084F8410084F8420084F8430084F87E
:10BCD000440084F8450084F83D00002010BD704702
:10BCE0007047000010B50446022249B104290ED065
:10BCF000082913D094F84100012816D0012010BD66
:10BD000094F83E000128F9D184F83E200FE094F821
:10BD10003F000128F2D184F83F2008E094F8400069
:10BD20000128EBD184F8402001E084F84120012271
:10BD3000206802F0C3F913492068134A884201D0F1
:10BD4000904203D1436C43F400434364206888422B
:10BD50000DD090420BD0B0F1804F08D00B498842F3
:10BD600005D00B49884202D00A49884204D1816833
:10BD700001F00701062903D0016841F001010160CB
:10BD8000002010BD002C01400034014000040040A0
:10BD900000080040000C004030B5044600680D006B
:10BDA00006D0042D08D0082D38D00C2D08D139E04C
:10BDB000C16821F0020102E0C16821F00401C16004
:10BDC00000222946206802F079F91D4B41F2111139
:10BDD00020688A10984202D01A4B984209D1036A0F
:10BDE0000B4206D1036A134203D1436C23F4004390
:10BDF00043642068036A0B4206D1016A114203D1F1
:10BE0000016821F00101016001207DB1042D10D0F5
:10BE1000082D11D084F84100002030BDC16821F008
:10BE20000801CCE7C16821F01001C8E784F83E00A2
:10BE3000F2E784F83F00EFE784F84000ECE7000009
:10BE4000002C01400034014010B5044600680B4945
:10BE5000884201D1FEF7C8FF09492068884201D114
:10BE600004F0D0FF07492068884206D102F05EFA4C
:10BE7000BDE810400448FFF719BD10BD002C01407B
:10BE8000000800400010004004130020704738B53F
:10BE9000044690F83E0020281CD181B17AB194F874
:10BEA0003C00012816D0012084F83C002063204685
:10BEB00002F03EFE002803D1216B012901D00120B0
:10BEC00038BD21680A684A680092CA6842F01002C8
:10BED000CA6038BD022038BD704710B504460068FE
:10BEE000416994F83D20C1F3C011212A0BD151B111
:10BEF000416921F080014161606B08B1FEF7AEF944
:10BF0000204602F039FD2068416994F83E20C1F3D3
:10BF10008011222A0BD151B1416921F040014161C8
:10BF2000A06B08B1FEF79AF9204602F00DFD002043
:10BF300010BD10B5040014D0242084F83D00206802
:10BF4000C16821F40051C160204600F081F9002051
:10BF5000206484F83D0084F83E0044F8300F2073DC
:10BF600010BD012010BD00007CB5054600208DF8F5
:10BF700004002C682068C04300071CD41348844286
:10BF80000AD1861531461248FCF763F920686068CB
:10BF900032460F4900900BE00E4884420CD14021FC
:10BFA0000D48FCF756F9206860680B494022009064
:10BFB000284600F047FB7CBD2068606800900122A5
:10BFC00001A9284600F053FB7CBD0000004800405A
:10BFD000CE390020004C004038330020F8B502680C
:10BFE00004461068D168536910F00F0F4FF0000538
:10BFF00053D003F0010601F49077374360D0C207B5
:10C0000005D0CA0503D5226C42F001022264420722
:10C0100005D5DA0703D0226C42F0020222648207BF
:10C0200005D5DA0703D0226C42F00402226402072D
:10C0300007D501F02002324303D0226C42F00802FF
:10C040002264226C002A3AD0800604D5880602D5E4
:10C05000204602F09AFC20684069216CC0F38010F1
:10C06000090700D438B3204602F06EFC206841690D
:10C0700049061BD5416921F040014161A06BA8B17F
:10C0800059494163A06BFEF70DF9002817D0A06B4A
:10C09000416B01B0BDE8F0400847830610D58B0620
:10C0A0000ED52046BDE8F84002F06FBC2046BDE842
:10C0B000F840FFF759BF2046FFF756FF2564F8BD4B
:10C0C000266B2023012E52D1C60650D5CE064ED562
:10C0D000106850680090506940062AD5A16B086826
:10C0E00040680004000CEAD0A68D8642E7D9E085BE
:10C0F0008869202818D0D06820F48070D06020682B
:10C10000416921F0010141612068416921F040014C
:10C11000416184F83E3025632068C16821F0100138
:10C12000C160A06BFEF79AF8A08DE18D401A81B234
:10C1300019E0A08DE18D401A81B2E08D0028BED0BB
:10C140000029BCD0D06820F49070D060206842698B
:10C1500022F00102426184F83E3025632068C26803
:10C1600022F01002C2602046FFF7B6FEF8BD0506B9
:10C170002BD50D0629D594F83D002128F6D1A068CD
:10C18000B0F5805F01D12069B0B1206A411C216205
:10C19000216800784860E08C401E0004000CE084B8
:10C1A000E4D12068C16821F08001C1602068C168C5
:10C1B00041F04001C160F8BD206A0088C0F308006A
:10C1C0005060206A801C2062E5E74006F3D54806EF
:10C1D000F1D5D168204621F04001D16084F83D308E
:10C1E00000F08DFBF8BD00007DE8000870B504008C
:10C1F00004D094F83D00002510B106E0012070BD88
:10C2000084F83C50204600F089F8242084F83D0052
:10C210002068C16821F40051C160204602F02CFC66
:10C220002068016921F4904101612068416921F091
:10C230002A0141612068C16841F40051C160256450
:10C24000202084F83D0084F83E00002070BD0000EE
:10C2500070B50446274D0368274A28484FF44061CB
:10C26000AB420AD1D36923F40023D361FEF7FAFA73
:10C27000A06BFEF7AFF8342037E0214DAB420CD174
:10C28000D16921F48011D1619914FEF7EBFA0421F0
:10C290001C48FEF7E7FA352027E01B4D1B48AB4250
:10C2A00009D1916921F4804191614FF4C061FEF799
:10C2B000D9FA252019E0164DAB4208D1D16921F4F5
:10C2C0000031D1610C21FEF7CDFA26200DE0114896
:10C2D00083420ED1D06920F48020D0610E48FEF751
:10C2E000C1FAA06BFEF776F82720BDE87040FEF794
:10C2F0000EBE70BD004C0040001002400010014016
:10C300000050004000140140003801400008014086
:10C310000044004000480040000C01402DE9F04777
:10C3200086B00024009401940294039405460368A7
:10C330008848874F061502210322DFF81CC24FF4FC
:10C3400000694FF0800ABB4237D1C36943F4002330
:10C35000C361C36903F400230493836943F01003AA
:10C3600083618069CDE9006100F01000CDE9032010
:10C37000694666466046FEF705FBCDE900946946CE
:10C3800030460294FEF7FEFA754E7448C6E9000482
:10C39000C6E9024A34617461B4613046F461FEF763
:10C3A0007DF908B1FDF747FAAE630022062134207B
:10C3B0007562FEF7CBFD342031E0DFF8A881042759
:10C3C000434531D1C36943F48013C361C36903F4A6
:10C3D00080130493836943F010038361836903F03E
:10C3E00010030493836943F02003836180690392FF
:10C3F00000F020000490B802CDE9000169466046D3
:10C40000FEF7C0FACDE90074694657480294FEF77A
:10C41000B9FA002205213520FEF798FD3520FEF7F8
:10C4200087FD06B0BDE8F087DFF840C1DFF8408146
:10C43000634526D1836943F480438361836903F4B0
:10C4400080430493836943F004038361806903920A
:10C4500000F0040004904FF40070CDE9000169463B
:10C460004046FEF78FFACDE90064694640460294E3
:10C47000FEF788FA002206212520FEF767FD252019
:10C48000CDE7DFF8F0C0634525D1C36943F400333D
:10C49000C361C36903F400330493836943F0040365
:10C4A00083618069CDE9007100F00400CDE90320CB
:10C4B00069464046FEF766FA0820CDE90004694661
:10C4C00040460294FEF75EFA002205212620FEF780
:10C4D0003DFD2620A3E7284FBB42A2D1C36943F408
:10C4E0008023C361C36903F480230493836943F009
:10C4F000080383618069CDE9006100F00800CDE99F
:10C5000003201E4E69463046FEF73CFACDE9009402
:10C51000694630460294FEF735FA114E1848443603
:10C52000C6E90004C6E9024A34617461B461304668
:10C53000F461FEF7B3F808B1FDF77DF9AE630022B0
:10C54000052127207562FEF701FD272067E700001F
:10C55000004C004000100240001001403004024036
:10C560005C170020005000400014014000380140DA
:10C57000000801400044004000480040000C014019
:10C58000300002402DE9F84F044690F83E009A46EC
:10C5900016460D46202853D1FDB1F6B194F83C0063
:10C5A00001284DD0012084F83C0000272764222078
:10C5B00084F83E002763FEF7EBFAA6858146E68500
:10C5C000A0684FF48058404501D1206940B12E4603
:10C5D0005FF0000584F83C7027E00120BDE8F88F8B
:10C5E0000026F7E74B46002220212046CDF800A088
:10C5F00002F0F1FA08B10320F0E726B1A068404547
:10C600001BD038B108E020684068C0F3080025F866
:10C61000020B07E0206980B12068406800F07F00CD
:10C6200006F8010BE08D401EE085E08D0028D9D191
:10C63000202084F83E000020D0E720684068EFE723
:10C640000220CBE790F83E30202B0ED159B152B1E9
:10C6500090F83C30012B08D0012380F83C300023B7
:10C66000036302F065BA012070470220704790F81A
:10C670003E30202B0ED159B152B190F83C30012BF5
:10C6800008D0012380F83C300023036302F088BA0D
:10C6900001207047022070472DE9F04106460068EE
:10C6A000624901270025624C884226D16088010436
:10C6B00018D460494204097804D50A290ED140F4FF
:10C6C00000402EE00D292AD0C0F30D02594B401C2A
:10C6D000643B80B299546080632800D9658060888B
:10C6E00000040AD5277060885249C0F30D026439EE
:10C6F00001F53C70FBF794FD65804F493068884236
:10C700002DD1E0884B49020401F158011CD401F1FC
:10C71000A8024304127809D50A2A11D103E040F493
:10C7200080406080DBE740F4004028E00D2A24D000
:10C73000C0F30D03401C80B2CA54E080632800D9C6
:10C74000E580E08800040AD5277008786070E088EA
:10C75000C0F30D0137485830FBF77BFDE5803749C2
:10C76000306888422BD1A08801041DD4344942048A
:10C77000097809D50A2913D103E040F48040E0800C
:10C78000DFE740F400402CE00D2928D0C0F30D0273
:10C790002B4B401CA83B80B29954A080632800D941
:10C7A000A580A08800040AD52770A0882449C0F37A
:10C7B0000D02A83901F5BC70FBF732FDA5802149B7
:10C7C000306888422BD1208901041FD41C494204BF
:10C7D00001F1BC01097809D50A2913D103E040F41D
:10C7E0008040A080DDE740F400401CE00D2918D017
:10C7F000C0F30D02124B401C143380B299542081B7
:10C80000632800D925812089000408D52770208954
:10C81000C0F30D010A481430FBF71BFD2581BDE86C
:10C82000F08140F480402081EDE7000000440040AA
:10C83000140000200814002000480040004C004074
:10C84000C415002000500040704700002DE9F84357
:10C85000044690F83D001F4616460D4620284CD150
:10C86000C5B1BEB194F83C00012846D0012084F83F
:10C870003C004FF00008C4F84080212084F83D00BF
:10C88000FEF786F9A6848146E684A068B0F5805F4D
:10C8900003D004E00120BDE8F883206928B12E46CA
:10C8A0005FF0000584F83C800EE00026FAE7802166
:10C8B000204602F090F9A0B9AEB116F8010B21683C
:10C8C0004860E08C401EE084E08C4B464FF0000254
:10C8D00000970028EBD14FF04001204602F07BF991
:10C8E00030B10320D7E735F8020BC0F30800E6E7C4
:10C8F000202084F83D000020CDE70220CBE77047E0
:10C90000FEE7000010B5A0B1012816D02149032888
:10C9100023D0612826D062282AD063282ED0702800
:10C9200032D0712818D1B1F8E200BDE81040FCF710
:10C9300039BDBDE8104000F0FFBD174C206800680D
:10C94000C16821F40051C16000F03EFD206800681C
:10C95000C16841F40051C16010BDC888BDE81040F5
:10C96000FCF714BDB1F8C200BDE81040FCF71CBDD7
:10C97000B1F8C400BDE81040FCF740BDB1F8C600F6
:10C98000BDE81040FCF72ABDB1F8E000BDE810405A
:10C99000FCF705BDE43300204C010020034840783B
:10C9A000032801D30120704700207047AC06002007
:10C9B00030B589B020216846FBF74BFCFDF72EF916
:10C9C00004462D48007810B1FBF74DFE01E0FDF75D
:10C9D00061F80546FBF74CFE02460B4627A1684668
:10C9E00002F0F4F96846FBF73FFCC1B2684602F07A
:10C9F00027F82848854202DB44F0100425E0264948
:10CA000026488D424FEAC4610EDB002902DA64F049
:10CA100010018CB28168092901D2491C0CE0FDF794
:10CA200009F990B902200EE0002902DA64F0100141
:10CA30008CB2816811B1491E816006E0FDF7FAF8F9
:10CA4000022802D1002001F03FF91548016808884A
:10CA5000A04202D000B124B10C8054B1012009B031
:10CA600030BDFCF749F8FFF799FF0028F6D1FCF735
:10CA7000B7FB0020F3E7000078010020BBFACFE409
:10CA8000CEC2B6C8A3BA25302E336620A1E3432018
:10CA90000A0000000000B44200008C42480500205B
:10CAA000C404002070B5012001F050F900282FD1F6
:10CAB000184C2078401CC0B2207006280BD2C10749
:10CAC00005D0012803D9BDE8704000F07FB9BDE86A
:10CAD000704000F0FFB8104D28780A2801D800F007
:10CAE000E8FC28780D4D0E4E062802D13168688882
:10CAF0004880022001F01AF93168288808802878D7
:10CB000000F0F0FD00F0E6F8FCF760FA002020707D
:10CB100070BD0000AC060020ED0400209001002054
:10CB2000C0040020401E032801D8012070470020C7
:10CB300070471438502801D80120704700207047F2
:10CB400041F25C711438884201D8012070470020FE
:10CB50007047FCF783F8FCF759F8142003F06EFFD8
:10CB6000F9E700002DE9F0410D4800210D4E057850
:10CB700001700C465FF0010706EBC400818856F88F
:10CB80003400FDF7FBFF18B907FA04F02843C5B2DB
:10CB9000641CE4B2042CEFD32846BDE8F081000009
:10CBA000150000204C0600202DE9F04104461546F2
:10CBB0000E46C0B2FCF702FE240C3C27B4FBF7F093
:10CBC0006421B0FBF1F201FB1200FCF799FDB4FB0C
:10CBD000F7F007FB1040FCF7DCFD3DB12846FCF701
:10CBE000A4FD3046BDE8F04100F004B8FF20FCF79A
:10CBF000EFFCF6E710B5044600F00101042001F057
:10CC000093FC04F00201052001F08EFC04F0040105
:10CC1000032001F089FC04F00801012001F084FCEC
:10CC200004F01001BDE81040022001F07DBC0000BE
:10CC300070B514460D46064601F072F900281ED064
:10CC4000FCF782FE0122D1030D48FDF79CFF04F0A2
:10CC500043FA3046FCF7DAFD2846FCF776FD094832
:10CC600000EB440030F8020CFCF733FD0020FFF726
:10CC7000C1FF01F08BFBBDE8704004F04DBA70BD00
:10CC8000000801405805002070B50446FF20FCF75D
:10CC9000B0FC240C3C25B4FBF5F06421B0FBF1F2B0
:10CCA00001FB1200FCF72CFDB4FBF5F005FB104076
:10CCB000BDE87040FCF76DBD10B500224FF4004197
:10CCC0000348FDF760FFBDE8104001F013BC000011
:10CCD0000008014010B50122D1030E48FDF753FFB3
:10CCE00001F036F9002813D101F01AF900280FD10C
:10CCF00004F0F2F9094908480A78094900680978F6
:10CD0000FFF752FF01F042FBBDE8104004F004BA07
:10CD100010BD0000000801409001002080010020AB
:10CD2000EC04002070B50D46044601F011F900280E
:10CD30001CD00122D1030E48FDF725FF04F0CCF9E9
:10CD40002046FCF778FC2846FCF799FCFCF768FCC9
:10CD5000042C09D05FF00000FFF74CFF01F016FB38
:10CD6000BDE8704004F0D8B91020F5E770BD0000B0
:10CD70000008014070B5044604F0AEF90021072018
:10CD800001F0D2FB4121072001F000FC21460620E2
:10CD900001F024FC0C4C3C2564216088B0FBF5F0CC
:10CDA000B0FBF1F201FB1200FCF7AAFC6088B0FBBB
:10CDB000F5F105FB1100FCF7ECFC01F0E7FABDE82A
:10CDC000704004F0A9B900009001002010B504F0F3
:10CDD00083F9084906480A78074900680978FFF787
:10CDE00053FF01F0D3FABDE8104004F095B90000FC
:10CDF0009001002080010020EC04002070B5044662
:10CE0000134DC00701D0012200E00022082128466E
:10CE1000FDF7B9FEA00701D5012200E000220421A0
:10CE20002846FDF7B0FE600701D5012200E0002290
:10CE300002212846FDF7A7FE200701D5012200E0C8
:10CE400000222846BDE870400121FDF79CBE00008D
:10CE50000010014040F2E3220149024800F084BE84
:10CE6000E43300200079000840F2E322014902483F
:10CE700000F088BEE4330020007900083EB50024AD
:10CE800011480094019402940E4984600160047377
:10CE90000475012505614FF460214460C161FDF70F
:10CEA00011F808B1FCF7C7FC0520CDE9000569467B
:10CEB00002940548FCF782FF002801D0FCF7BBFC78
:10CEC0003EBD000000280140541100200EB5694607
:10CED0000090012001900720029002480068FCF7B2
:10CEE0006DFF0EBD24060020114808B5416941F0D0
:10CEF00001014161416901F001010091416941F085
:10CF0000020141614069002200F002000090052109
:10CF10000D20FEF71BF80D20FEF70AF80022052170
:10CF20003A20FEF713F8BDE808403A20FEF700B8B3
:10CF30000010024010B5A4B01C221C496846FBF743
:10CF40006FF90021684603F085FD194C17491C2232
:10CF500020601C3107A8FBF763F9002107A803F044
:10CF600079FD124960601C2238310EA8FBF758F990
:10CF700000210EA803F06EFD0C49A0601C22543164
:10CF800015A8FBF74DF9002115A803F063FD07492B
:10CF9000E0601C2270311CA8FBF742F900211CA89C
:10CFA00003F058FD206124B010BD0000881701086F
:10CFB000000000202DE9F04F85B000243548009492
:10CFC000019402940394816941F0100181618169A7
:10CFD00001F010010491816941F0200181618169B2
:10CFE00001F020010491816941F0040181618169AE
:10CFF00001F004010491816941F0080181618069B7
:10D00000DFF8949000F00800049000224F21484679
:10D01000FDF7B9FDDFF884A04DF234070022394650
:10D020005046FDF7B0FDDFF878B04FF4104800220D
:10D0300041465846FDF7A7FD4F2001250226CDE9C0
:10D040000005CDE9024669464846FDF79BFC4FF4D2
:10D050006C708DE8310069464846FDF793FC0097F7
:10D060000396CDE9015469465046FDF78BFC280232
:10D070008DE8310069465846FDF784FCCDF8008004
:10D080000396CDE9015469465846FDF77BFC05B08F
:10D09000BDE8F08F0010024000100140000C01407C
:10D0A000000801400D4810B50B4901600C49416072
:10D0B00000214FF480428160C0E903124161816127
:10D0C000C1610162FDF76AFD002803D0BDE8104090
:10D0D000FCF7B1BB10BD00000054004084110020DB
:10D0E000A0860100094810B507490160022141608E
:10D0F00040F6FF718160FDF743FE002803D0BDE8D4
:10D100001040FCF798BB10BD00300040D811002043
:10D1100010B58EB000240794089409940A940B94D7
:10D120001C2168460C94FBF794F822484FF080418C
:10D1300001602321C0E9011440F2F311C0E9031496
:10D140008461FEF7F1FA08B1FCF775FB4FF48050EB
:10D15000079007A91748FEF7C1FB08B1FCF76BFB66
:10D160001448FEF78FFD08B1FCF765FB0B940BA983
:10D1700010480C94FEF79AFA08B1FCF75CFB6020AB
:10D18000CDE9000402200290002269460494094877
:10D19000FEF715FD08B1FCF74EFB04226946054871
:10D1A000FEF70DFD08B1FCF746FB0248FEF7B6FCA2
:10D1B0000EB010BDE411002010B586B00024174851
:10D1C000009401940294039404941349059401601B
:10D1D00040F60F61C0E901142321C0E90314846102
:10D1E000FEF7A2FA08B1FCF726FB4FF4805000903E
:10D1F00069460A48FEF772FB08B1FCF71CFB049471
:10D2000004A906480594FEF751FA002801D0FCF75E
:10D2100012FB06B010BD0000000400402C120020DC
:10D2200010B586B00024174800940194029403942A
:10D23000049413490594016040F60F61C0E901149C
:10D240002321C0E903148461FEF76EFA08B1FCF7EC
:10D25000F2FA4FF48050009069460A48FEF73EFB10
:10D2600008B1FCF7E8FA049404A906480594FEF70F
:10D270001DFA002801D0FCF7DEFA06B010BD000050
:10D28000000800407412002010B586B00024174832
:10D29000009401940294039404941349059401604A
:10D2A00040F60F61C0E9011440F2E731C0E9031410
:10D2B0008461FEF739FA08B1FCF7BDFA4FF48050EB
:10D2C000009069460948FEF709FB08B1FCF7B3FA7C
:10D2D000049404A905480594FEF7E8F9002801D054
:10D2E000FCF7A9FA06B010BD000C0040BC120020EB
:10D2F0001CB500241348009411490194016040F6C4
:10D300000F61C0E9011440F2E7318461C160FEF7AA
:10D310000BFA08B1FCF78FFA08210A48FEF723FC44
:10D3200008B1FCF788FA1020CDE9000469460548E9
:10D33000FEF7BCF9002801D0FCF77DFA1CBD000007
:10D34000001000400413002010B50420FCF7F8F88A
:10D350000B490A4AC1E90020002088600C22C860FD
:10D36000C1E904028861C8610846FEF73FFF002852
:10D3700003D0BDE81040FCF75EBA10BD004C004081
:10D380008015002010B50520FCF7DAF80D490C4A8D
:10D39000C1E90020002088600C22C860C1E90402B5
:10D3A0008861C8610846FEF721FF08B1FCF743FA1F
:10D3B00004490122BDE8104044310248FFF757B943
:10D3C000005000403C16002010B50120FCF7B8F8D2
:10D3D0000D490C4AC1E90020002088600C22C86079
:10D3E000C1E904028861C8610846FEF7FFFE08B182
:10D3F000FCF721FA04490122BDE810401439024823
:10D40000FFF735B9003801406013002010B5022045
:10D41000FCF796F80D490C4AC1E90020002088600D
:10D420000C22C860C1E904028861C8610846FEF7A1
:10D43000DDFE08B1FCF7FFF904490122BDE8104008
:10D4400014390248FFF713B9004400401C140020AF
:10D4500010B50320FCF774F80B490A4AC1E9002013
:10D46000002088600C22C860C1E904028861C8619C
:10D470000846FEF7BBFE002803D0BDE81040FCF7CD
:10D48000DAB910BD00480040C41400204FF001106C
:10D4900000F000FCFBF7DEFC012003F0CFFA4FF4B4
:10D4A000FA7400BFFBF7C4FC204603F0C7FAF9E7A3
:10D4B000FEE710B5FFF7D8FC012010BD0C4810B5F1
:10D4C00080680168CA6842F01002CA6001684A694F
:10D4D00042F001024A614FF480720649FEF7D7FC20
:10D4E00005480068016821F00401016010BD0000DA
:10D4F000E4060020CE390020A017002040F2E322ED
:10D500000149024800F030BBE433002000790008F4
:10D5100010B502F097FB074841684A1C42600A298F
:10D5200006D900214160BDE81040012003F086BD0E
:10D5300010BD0000CC060020084808B50068AA21EC
:10D5400000220180012000904FF4E133104602F0E8
:10D5500039FBBDE8084002F037B900005401002053
:10D56000FFF7ACFFFBF7CEFFFBF7EAFB642003F00D
:10D5700065FAF9E70EB5044A07CA8DE807000621E7
:10D58000684600F0BFF90EBD401C01080EB5044A04
:10D5900007CA8DE807000621684600F0B3F90EBD02
:10D5A000581C010830B5C1B005464FF4807168467B
:10D5B000FAF74FFE164C6178081DA84203D00A46C0
:10D5C0002B4614A110E0A01CFBF7EAFD61190246EE
:10D5D00031F8020C40BA904212D011F8010C11F847
:10D5E000021C00EA012316A1684601F0EFFB684621
:10D5F000FAF73AFEC1B2684601F022FA41B030BDF6
:10D600004922E11C1A48FAF70BFE00F0C3F8F5E7CF
:10D61000CE3900205B4552524F525D09BDD3CAD569
:10D62000B3A4B6C8B4EDCEF33A09CAD5B5BD3A092C
:10D630002564202020CAB5BCCA3A0925640A000026
:10D640005B4552524F525D09637263D0A3D1E9B476
:10D65000EDCEF33A09BCC6CBE3B5C3B5BD3A092557
:10D6600064202020CAD5B5BDB5C43A0925640A0096
:10D6700078330020044801784078814201D10120AC
:10D680007047002070470000E40600200EB50FA38D
:10D690000ECB8DE80E00010E8DF80310010C8DF8F5
:10D6A0000410010A8DF805108DF8060005210DF112
:10D6B0000200FBF775FD010A8DF807108DF80800D0
:10D6C0000A21684600F01EF90EBD000002050800A0
:10D6D000000000000003000001484078704700008F
:10D6E000E4060020642800D9642002494870022022
:10D6F00000F01CBBE406002001460448C1EBC10158
:10D7000001EB410100680088484370479C010020FC
:10D7100030B589B0012520216846FAF79AFD154CED
:10D7200020786178884202D9A0F1010002E003D29A
:10D7300000F10100207001E04FF00005C0B250EA96
:10D74000050114D0FFF7D8FFFFF7A0FF7DB12078C7
:10D75000FFF7D2FF0246237807A1684601F036FBA7
:10D760006846FAF781FDC1B2684601F069F909B06F
:10D77000284630BDE4060020C9E8D6C3D7AACBD9D5
:10D78000203A202564202020B9A6C2CA3A20256468
:10D79000200A00002DE9F04F574CD3B00020E06084
:10D7A000A0784FF4807120F08000A0700EA8FAF7E6
:10D7B00050FD524E3088717E45BA708890FA90FCC8
:10D7C000706800BA20F0FF08F07948EA0008D6F83F
:10D7D000160000BA20F0FF0040EA010E708B43BA39
:10D7E00096F834004E90708F42BAB08F41BAF08FE5
:10D7F00046BA0A20B6FBF0F700FB1767B6FBF0F657
:10D800000A96B1FBF0F6B1FBF0FA00FB1619B2FB79
:10D81000F0F100FB1126CDE908A9B3FBF0F1B2FB52
:10D82000F0F900FB113A6421B8FBF1F201FB128B15
:10D83000B8FBF1F1BCFBF0F200FB12C80796B3FB9A
:10D84000F0F6B5FBF0F200FB1253BCFBF0FCB5FBAD
:10D85000F0F208A8CDF83CA1CDF81890049690E815
:10D8600040060D970AA806AF80E84006DDE94E6045
:10D87000DDE9069A87E84106049E02A8059680E83D
:10D880000248CDE900C81E490EA801F09FFA0EA873
:10D89000FAF7EAFCC1B20EA801F0D2F8A07820F0A5
:10D8A0006F00A0704E9818B12069022802D2401C67
:10D8B000206105E04E98FBF79DFCA1780143A17023
:10D8C0006069B5F5487F09D3092801D2401C07E0FB
:10D8D000FCF7B0F9002804D101200AE020B1401E75
:10D8E000606153B0BDE8F08FFCF7A4F90128F8D1CE
:10D8F000002000F0E9F9F4E7E40600207833002086
:10D90000081D01080A46014602484FF6FF73806869
:10D91000FEF79CBFE406002010B50648FEF709FBA1
:10D9200008B1FBF788FFFFF793FDBDE81040FFF754
:10D93000C5BD0000C41400200848007802280BD0A0
:10D94000032809D0072807D0082805D00C2803D0C1
:10D950000D2801D00020704701207047ED04002001
:10D96000FEE70000094810B581688069081A782828
:10D9700001D900F097FA022000F0E8F9002804D05D
:10D98000BDE81040022000F0D9B910BDAC0600205F
:10D9900010B5FBF715F9BDE81040012000F084BE7A
:10D9A000FFF7CAFDFBF7F8F8FFF7B2FD642003F0BC
:10D9B00045F8F9E72DE9F0416448654C0025027807
:10D9C0006088411C89B2032A04D0082A09D00D2A94
:10D9D00014D04CE041F270706180814247D3658081
:10D9E00045E0401E6080FFF775F96088A8BBFBF733
:10D9F00039FB584800684088608038E0564E6180A6
:10DA00003078FFF78FF840B33078DFF8508100EBC3
:10DA1000C00101EB0011D8F80000B4F802C000EB1F
:10DA2000C1074F48017807EB810333F8C62C6245E4
:10DA30001DD8312903D033F8C23C93420ED2FBF7F4
:10DA400011FB307800EBC00101EB0011D8F80000A9
:10DA500000EBC10030F8C80C208008E0491CC9B2B6
:10DA6000017007EB810010F8C80CFBF731FDFFF7E0
:10DA700001FE30B1022000F069F910B1022000F07F
:10DA80005DF9384C0526E0780028E0691CD0401C80
:10DA9000E061012805D0B0FBF6F106FB110010B1E2
:10DAA00040E00A2500E00525FFF716FE05F1140108
:10DAB000884237D3207928442071FFF70DFE401BA0
:10DAC000C0B2FBF705FD2DE060B3FFF705FE64284B
:10DAD00002D32571E56102E0E069012814D0E06914
