:020000040800F2
:10800000203B0020DD810008D5C30008F9B6000838
:1080100095C00008058A000835D40008000000005B
:108020000000000000000000000000004581000882
:10803000E18C0008000000008981000801C60008EA
:10804000F7810008F7810008F7810008F781000830
:10805000F7810008F7810008F7810008F781000820
:10806000F7810008F7810008F7810008F781000810
:10807000F7810008618C0008F7810008F78100088B
:10808000F7810008F7810008F7810008F7810008F0
:10809000F7810008F7810008F7810008F7810008E0
:1080A000F781000809C80008F7810008F781000877
:1080B000F7810008F781000815C80008F78100085B
:1080C000F7810008F7810008F7810008F7810008B0
:1080D000F78100086DD3000899D30008A5D30008E4
:1080E000F7810008F7810008F7810008F781000890
:1080F000F7810008F7810008F7810008F781000880
:10810000F7810008F781000821C80008F7810008FE
:1081100069CF00089DCF0008F7810008F7810008AB
:10812000F7810008F78100086D8C0008F7810008CE
:10813000DFF80CD000F0B6F800480047DDDE00089C
:10814000203B0020224B19680868B0E8F00F80F34C
:108150000988BFF36F8F4FF0000080F311884EF055
:108160000D0E70470000000006480068006880F3AC
:10817000088862B661B6BFF34F8FBFF36F8F00DF21
:1081800000BF00BF08ED00E0EFF30980BFF36F8F81
:108190000F4B1A6820E9F00F106008B54FF050003F
:1081A00080F31188BFF34F8FBFF36F8F06F0AAFDE6
:1081B0004FF0000080F31188BDE808401968086896
:1081C000B0E8F00F80F30988BFF36F8F704700BFEE
:1081D00088000020EFF305807047000006488047C4
:1081E00006480047FEE7FEE7FEE7FEE7FEE7FEE79C
:1081F000FEE7FEE7FEE7FEE7A9C6000831810008BA
:10820000202A04DB203A21FA02F00021704721FAEB
:1082100002F3D040C2F12002914008431946704752
:1082200040EA01039B0703D009E008C9121F08C0F8
:10823000042AFAD203E011F8013B00F8013B521E78
:10824000F9D27047D2B201E000F8012B491EFBD2EF
:1082500070470022F6E710B513460A460446194651
:10826000FFF7F0FF204610BD421C10F8011B00294B
:10827000FBD1801A704730B50B4601460020202202
:10828000012409E021FA02F59D4205D303FA02F523
:10829000491B04FA02F52844151EA2F10102F1DC83
:1082A00030BD0000064C074D06E0E06840F00103D9
:1082B00094E8070098471034AC42F6D3FFF73CFF30
:1082C000E4F7000804F8000870B58C1810F8015B9A
:1082D00015F0070301D110F8013B2A1106D110F85F
:1082E000012B03E010F8016B01F8016B5B1EF9D163
:1082F0002B0705D40023521E0DD401F8013BFAE7E9
:1083000010F8013BCB1A921C03E013F8015B01F853
:10831000015B521EF9D5A142D8D3002070BD0000E8
:1083200070B5044600688168C943C90717D18168E0
:1083300021F00101816001F0E7FC05460AE000BF81
:1083400001F0E2FC401B022804D920688068C04389
:10835000C00706D020688068C043C007F0D0002066
:1083600070BDA06A40F01000A062E06A40F0010019
:10837000E062012070BD000070B5174C0025A18897
:108380006088814206D000B16580608800F028FBDB
:108390006088A08004F01CFA012630B904F00AFAC3
:1083A00070B1022004F00AF950B1207810B1608851
:1083B00020B101E0267070BD608070BD257070BD79
:1083C00004F0E0F90028F0D1044800780028F6D144
:1083D00060880028F0D170BDBA030020B5020020EB
:1083E000002000F0FDBA000010B500F0F1FE0748D3
:1083F00000210170417000F027FB03F053FB04F0F3
:1084000081FBBDE8104004F071BB0000D8010020E2
:108410000B4810B5002101704170416942680A6043
:10842000816982680A60826A0521118000F12C014D
:108430009022C068FFF7F4FEBDE8104003F032BBA5
:10844000D801002010B50821042000F06DFE01497C
:10845000486010BD080300202DE9F047264DA868AC
:10846000401CA86003F0C0F90024DFF89090244E6F
:10847000287005F10C07A046385D297888422CD178
:108480006978084256F8240014D0401C46F82400AD
:10849000962824D399F80000102807D0112807D077
:1084A0001548543050F82400804718E01548F9E783
:1084B0001548F7E708B904F010FB99F8000008B96F
:1084C00004F046F899F80000102810D0112810D0B8
:1084D0000948343050F82400804746F82480641C52
:1084E000E4B2082CC8D328786870BDE8F087074844
:1084F000F0E70748EEE70000C0030020B5020020C7
:1085000090300020E802002030030020C802002044
:108510001003002010B50F2003F098FA04F0C5F8FE
:10852000BDE8104004F0F4B870B5134C0A2560881B
:10853000B0FBF5F105FB110008B903F017FE6088E8
:10854000B0FBF5F105FB1100062801D103F002FE96
:108550006088B0FBF5F105FB1100052801D103F09F
:10856000FFFE608842F21071884201D2401C00E098
:108570000020608070BD00005404002010B5002170
:10858000032000F0E7FD094C01216080032000F08A
:10859000E1FDA0800221032000F0DCFDE080042149
:1085A000032000F0D7FD208110BD0000B80200209C
:1085B0002DE9F041934D42F2107100266868401C8D
:1085C0006860884200D96E6028798F4CC00727D038
:1085D00003F0ECFE48B12078012140F00800207043
:1085E000084604F065FB04F0B9FA04F027FF0128FF
:1085F00005D004F023FF032808D0BDE8F0816968A6
:108600000520B1FBF0F200FB1210C0BB207841073F
:1086100003D440F00400207031E020F00400FAE7B9
:108620002078002120F008002070012004F040FB99
:1086300004F094FA03F0AEF838B100F045FE1128CA
:10864000DBD0BDE8F04104F0C7BB04F083F86F4F06
:10865000DFF8BC816F4C98B3012003F0AFFF002816
:10866000CBD12878401CC0B2287006280BD2C10795
:1086700005D0012803D9BDE8F04103F09FB9BDE85A
:10868000F04103F059B904F0A7FE206898F80010F3
:1086900003F09AFF98F80000062802D13968608834
:1086A0004880022003F08AFF58B13968208808808A
:1086B000207803F041FE03F03FF900F007F909E0EC
:1086C0000AE000F029F914206080207803F034FEDD
:1086D00003F032F92E7090E704F07AF868B1608800
:1086E000401E608003F028F96088002885D100F0E2
:1086F000EDF8386840886080C1E704F05BF8E8B3C3
:1087000098F80000032804D008280ED00D281AD0AD
:108710003FE06088401C608003F00EF9608841F201
:108720007071884235D3668033E06088401E608077
:1087300003F002F9608860BB00F014F93648006865
:108740004088608023E06088344D401C6080287839
:1087500003F02AF8D8B1324E28786788316800EBE8
:10876000400001EB00122F49087802EB800333F838
:108770002E3CBB420BD80B2819D000E020E0401C57
:10878000C0B2087002EB800030F8300C208003F09B
:10879000D3F803F09FFD00289DD0022003F00EFFC8
:1087A000002898D0BDE8F041022003F0FFBE00F0A1
:1087B000D9F82878316800EB400001EB0010E3E7BE
:1087C00003F0E0FF28B160880028E6D0401E6080FA
:1087D0000EE004F00BF80028DED02878401CC0B270
:1087E0002870042807D2C00702D003F0A3F8D4E70A
:1087F00003F0A2F8D1E7012004F00AFB03F09CF893
:108800002E70CAE734040020B40200209402002035
:10881000B5020020E8010020F0010020D80100206E
:10882000E4010020D90100200149022008707047AE
:10883000B402002000B5012003F0B8FE03F08AFF67
:1088400000280CD103F0C4FF0C4910B10878401E79
:1088500004E003F0AFFF18B10878801E087000BD77
:1088600003F090FF10B10878C01EF7E703F0BEFFD9
:108870000028F4D00878001FF0E70000B5020020BF
:1088800000B5012003F092FE03F064FF0E4910B121
:108890000878C01C04E003F09BFF18B10878801C26
:1088A000087000BD03F086FF10B10878401CF7E7A0
:1088B00003F068FF0028F4D103F098FF0028F0D0FF
:1088C0000878401EECE70000B502002000B501204A
:1088D00003F06CFE03F03EFF0E4910B10878801CD7
:1088E00004E003F075FF18B10878401C087000BD63
:1088F00003F060FF0028FAD103F044FF10B10878BC
:10890000401EF3E703F072FF0028F0D00878801EC5
:10891000ECE70000B502002000B5012003F046FEA0
:1089200003F018FF0E4910B10878401C08E003F06E
:108930004FFF002805D103F03DFF18B10878401E15
:10894000087000BD03F01EFF10B10878801EF7E725
:1089500003F04CFF0028F4D00878C01EF0E70000B8
:10896000B502002000B5012003F020FE03F0F2FE66
:108970000D4910B10878001D04E003F029FF18B17B
:108980000878C01C087000BD03F014FF10B108780F
:10899000801CF7E703F0F6FE10B10878401CF1E701
:1089A0005DF804EB03F022BFB5020020012000F0C7
:1089B00001B80000032801D8014908707047000081
:1089C000B9030020FFF70CFD044801F0C2FAFFF7DD
:1089D000D3FC142005F070FDF6E70000380F0020EE
:1089E00010B504460421064802F0BEF904480068A8
:1089F0008463BDE810400421014802F05BB9000027
:108A0000440F0020FEE7000030B5ADF5017D0D46B6
:108A100004464FF400720B496846FFF701FC002042
:108A2000694608E014F8012B82EA102231F812207E
:108A300082EA002080B26D1EADB2F3D20DF5017D49
:108A400030BD0000DCF40008324B10B558690088D6
:108A500002F0B1FE10B95869596801609869008840
:108A600002F0A9FE20B19869408802F0ABFE10B96F
:108A7000986999680160D969152000220880196AEF
:108A800004200880586A0280996A0888401E0828D5
:108A900001D3052008809A70DA70987800EB4001C5
:108AA000D86800EB0110D97830F8210002F083FE7D
:108AB000D8B19878D96800EB400001EB0010D97864
:108AC00000EB8100408802F07DFE70B1D878A0B143
:108AD0009978DC6801EB410104EB011101EB8001A5
:108AE0004C8831F8021C8C4207D80A49D868902279
:108AF000BDE810402C31FFF793BB401CC0B2D870CA
:108B00000C28CAD39878401CC0B298700328C3D3ED
:108B100010BD0000D801002010B50822064B00212E
:108B200033F81140844201D1012010BD491C89B2A3
:108B30009142F5D3002010BD4404002004480021D8
:108B40004268118001704170012004F061B9000099
:108B500008030020014900200870704734040020F9
:108B6000012803D0022803D1FFF720BF04F063BC23
:108B70007047C0B200F096B800F0A6B8014610B534
:108B8000000A11F0FF010BD001290DD002290ED1EE
:108B900003280CD204F0B2F9BDE8104000F0B4BADA
:108BA000002004F035F9F7E704F084F9F4E710BD8C
:108BB00010B538B103F0F4FD002807D0BDE810402F
:108BC00003F0B0BDBDE8104003F0A2BD10BD000031
:108BD00070B5204E204C142560B1012815D0022814
:108BE0001ED003281BD1012004F012F9BDE870400B
:108BF00002F0A2BE03F0C6FD002810D1FFF740FE30
:108C0000306821680160002007E003F0BBFD002808
:108C100005D0FFF781FE306800882080658070BD38
:108C200003F052FD20B1BDE87040002004F0F0B820
:108C300003F056FD18B1BDE8704004F03BB903F0F5
:108C40005BFD0028EBD005480078BDE8704004F0DB
:108C500055B9000094020020E8010020D80100204E
:108C6000014800F043BD0000B8140020014800F0A6
:108C70003DBD00007414002030B590F84050012430
:108C8000AC40C56B6C60046863604368102B03687C
:108C900003D099600068C26030BD9A600068C1600E
:108CA00030BD0000074910B5088003F045FB03F014
:108CB00081FD002804D0BDE81040022003F06EBC06
:108CC00010BD0000E801002010B5044603F080FD4F
:108CD000002801D10148448010BD0000E8010020B7
:108CE00070470000074840680168CA6842F01002F7
:108CF000CA6001684A6942F001024A6140220249A1
:108D000002F09CBBD00100205030002010B586B08E
:108D10000446142211496846FFF782FA4FF4E13005
:108D2000042C0FD0012C0FD0022C0BD0032C09D017
:108D3000052C07D0601E04280ED8684600EB84007E
:108D400050F8040C06B010BD05490220C96808801F
:108D5000034810308068F5E70020F3E7A8F4000826
:108D6000AC01002010B50021032000F0DDF90A4C11
:108D700001212060032000F0D7F9E0600120FFF717
:108D8000C5FF0021042000F0CFF96060012104201C
:108D900000F0CAF9A06010BDAC01002010B5044677
:108DA000800703D5FF21052003F0DCFFE00705D095
:108DB000FF21BDE81040042003F0D4BF10BD10B562
:108DC0000446400703D50021072003F071FFA007E8
:108DD00003D5FF21072003F0C5FFE00705D0FF21E1
:108DE000BDE81040062003F0BDBF10BD10B5FF2147
:108DF000052003F0B7FFFF21BDE81040042003F079
:108E0000B1BF70B50446642802D94FF0640400E095
:108E100002D34FF0010101E04FF000014FF00700D5
:108E200003F046FF0A25B4FBF5F0B0FBF5F105FBB6
:108E30001101072003F096FFB4FBF5F005FB10418C
:108E4000BDE87040062003F08DBF70B504464FF4B6
:108E50007A70B4FBF0F00A25B0FBF5F105FB1101C7
:108E6000002003F07FFF6420B4FBF0F0B0FBF5F1CD
:108E700005FB1101012003F075FFB4FBF5F000F0D4
:108E80000A01022003F06EFFB4FBF5F005FB104170
:108E9000BDE87040032003F065BF10B504464521CE
:108EA000002003F037FFC4F30321012003F05AFF31
:108EB000C4F30311022003F055FF04F00F01BDE8D5
:108EC0001040032003F04EBF70B505460A24B0FBE6
:108ED000F4F0B0FBF4F104FB1101002003F042FFB9
:108EE000B5FBF4F004FB1051BDE87040012003F025
:108EF00039BF10B504465021052003F00BFF0A20AE
:108F0000B4FBF0F100FB1141BDE81040042003F078
:108F100029BF70B50446642802D94FF0640400E00C
:108F200002D34FF0010101E04FF000014FF00700C4
:108F300003F0BEFE0A25B4FBF5F0B0FBF5F105FB2E
:108F40001101072003F00EFFB4FBF5F005FB104103
:108F5000BDE87040062003F005BF70B505460A2441
:108F6000B0FBF4F0B0FBF4F104FB1101022003F0BC
:108F7000F9FEB5FBF4F004FB1051BDE8704003208E
:108F800003F0F0BE70B50446642802D94FF06404C3
:108F900000E002D34FF0010101E04FF000014FF07B
:108FA000070003F085FE0A25B4FBF5F0B0FBF5F1F0
:108FB00005FB1101072003F0D5FEB4FBF5F005FB1E
:108FC0001041BDE87040062003F0CCBE70B50546E8
:108FD0000A24B0FBF4F0B0FBF4F104FB110105200E
:108FE00003F0C0FEB5FBF4F004FB1051BDE8704087
:108FF000042003F0B7BE72B6FEE7000070B50D4E58
:109000000546304605F0CCFC002812D10A4C2069F8
:1090100040F0020020616561206940F0400020615D
:10902000304605F0BDFC012803D0206920F0020085
:10903000206170BDFFFF5F0000200240044B002252
:10904000DA61044A136943F0010313610180704738
:10905000481500200020024014480022C168CB06B9
:10906000134904D5CA6942F00202CA611022C368DA
:109070005B0705D5CB6943F00103CB6142F00402E5
:10908000C369DB0707D0CB6943F00403CB61C16937
:1090900021F00101C161A2F58071013901D0C260E6
:1090A0007047C16921F00101C16170470020024091
:1090B0004815002070B5054600F026FE0646114C06
:1090C00009E0681C07D025B100F01EFE801BA842F5
:1090D00001D9032070BDE068C007F2D1E0688006C6
:1090E00001D52020E060E068C00605D4E069C00733
:1090F00002D1E068400703D5FFF7AEFF012070BD45
:10910000002070BD0020024010B503F04FF9002888
:1091100006D0044914200880BDE8104002F00CBCC1
:1091200010BD0000E8010020032802D0042805D06B
:109130000AE0B1F5397F07D2044802E0102903D8CC
:10914000034800EB4100704700207047B03000201A
:1091500078360020032802D0042805D00AE0B1F5B3
:10916000397F07D2044802E0102903D8034830F8B9
:109170001100704700207047B03000207836002082
:1091800030B500231A46012505FA02F4044206D040
:109190005B1CDBB2994202D1521CD0B230BD521CD2
:1091A000D2B2102AF0D3002030BD0000024610B524
:1091B000002001465FF0010404FA01F3134201D0DC
:1091C000401CC0B2491CC9B21029F5D310BD000023
:1091D00000B570210320FFF7A7FF2C49086080210C
:1091E0000320FFF7A1FF2A49086082210320FFF72F
:1091F0009BFF284908604FF480710320FFF794FF1C
:109200002549086000210320FFF78EFF23490860ED
:1092100001210320FFF788FF214908600221032074
:10922000FFF782FF1F49086004210320FFF77CFF3E
:109230001D49086008210420FFF776FF1B490860DC
:1092400009210420FFF770FF194908600A21042052
:10925000FFF76AFF174908600B210420FFF764FF3E
:10926000154908600C210420FFF75EFF13490860D0
:109270000E210420FFF758FF114908601021042037
:10928000FFF752FF0F49086000BD00009402002064
:10929000EC010020F0010020E4010020F401002096
:1092A000F8010020FC0100200002002098020020AC
:1092B0009C020020A0020020A4020020A80200209E
:1092C000AC020020B0020020014800787047000086
:1092D000B502002070B50025084E2C4606EBC400F0
:1092E000818856F8340000F005FDA0402843641C36
:1092F000E4B2C5B2022CF1D3284670BD480000206C
:10930000F8B50024009490F824202546012A12D0B4
:10931000012280F824204A681F23072A0DD20668FC
:10932000776B521E02EB820293409F430B6893407F
:109330001F43776319E00220F8BD06680D2A0AD2A0
:10934000376BD21F02EB820293409F430B6893401E
:109350001F43376309E0F76A0D3A02EB820293403C
:109360009F430B6893401F43F7620A680723066810
:109370000A2A0AD3F7680A3A02EB420293409F4353
:109380008B6893401F43F76008E0376902EB4202A5
:1093900093409F438B6893401F4337610A68102AAC
:1093A00001D0112A20D1124B02689A4217D193683A
:1093B0001B0219D4936843F40003936009681029D1
:1093C00012D10C490C4A0968B1FBF2F101EB8101A1
:1093D000490000E0491E00910029FBD104E0816AA8
:1093E00041F020018162012480F824502046F8BD1C
:1093F000002401408400002040420F002DE9F0418C
:1094000004004FF000057FD0A06A002628B9E6626C
:1094100084F82460204600F081F82046FEF780FFA3
:10942000A16AC90600D420B1A06A40F01000A06271
:109430006AE0A16A21F4885141F00201A162334936
:1094400023688B42E16904D1B1F5402F01D14FF47B
:109450000021277B4FF4807C41EA470261680A4380
:10946000A168614508D0012906D0002194F814E0D4
:10947000BEF1010F02D00AE06146F7E7C7B1A76A63
:1094800047F02007A762E76A47F00107E7625F68D5
:1094900027F469470F435F60236899681C4F394080
:1094A00011439960A16861450BD0012909D00CE0F6
:1094B000DFF860E0A7690EEB47370F4347F4006120
:1094C000E5E7218A0D05A5F580152168CB6A23F40F
:1094D00070032B43CB62216889680F4B194091427E
:1094E00008D1E662A16A21F0020141F00101A16206
:1094F000BDE8F081A06A20F0020040F01000A062F8
:10950000E06A40F00100E0620120F1E7003C014028
:10951000FDF7E1FF00E0FFFFFE0E1FFF00B585B085
:109520000021009101910291039100680E49884247
:1095300018D10E48816941F480618161816901F42B
:1095400080610491816941F004018161806969460B
:1095500000F0040004906020009003200190044873
:1095600000F0CCFA05B000BD002801400010024018
:109570000008014010B590F821100022022905D002
:109580000421816380F82020012010BD01680B6850
:1095900023F00E030B6001680B6823F001030B60DE
:1095A00090F84030C46B012101FA03F3636080F846
:1095B000211080F82020104610BD00002DE9F05F3A
:1095C00090F821100024022903D004218163012492
:1095D00085E001680A6822F00E020A6001680A68E4
:1095E00022F001020A603F4E3E4FB215DFF8F4C090
:1095F000DFF8F090DFF8ECA0DFF8E8B0DFF8E4E0A7
:109600000168783F13011502ACF1640CA9F150090F
:10961000AAF13C0AABF1280BAEF1140E4FF48018FE
:10962000B14227D9B9420ED0614512D049451DD06B
:10963000514518D0594518D0714501D1424615E021
:10964000294EB14201D1012210E0274E1436B14219
:1096500001D110220AE0244E2836B14206D0224A17
:109660003C32914201D11A4600E02A461E49091FA8
:109670000A602BE0B94213D0614517D0494522D08A
:1096800051451DD059451DD0714501D142461AE0C2
:10969000B14202D14FF0807215E0134EB14201D1B8
:1096A000012210E0104E1436B14201D110220AE01E
:1096B0000D4E2836B14206D00B4A3C32914201D1C0
:1096C0001A4600E02A46074980394A60012180F89D
:1096D0002110002180F82010416B01B188472046FD
:1096E000BDE8F09F80000240080402402DE9F05FD1
:1096F000C16B0A6801680B68046C4FF0040808FA33
:1097000004F8844D844E854FDFF814C2DFF81492BC
:10971000DFF814A2DFF814B2DFF814E218EA020F3F
:1097200065D05FEA437862D50A68920603D40A6876
:1097300022F004020A60DFF8F0814FF480620168D1
:1097400008F1140813011402414524D9A9420DD08F
:10975000B1420FD0B9421AD0614515D0494515D054
:10976000514501D1120312E0594501D104220EE006
:10977000714501D140220AE06D4D1435A94206D051
:109780006B4A2832914201D11A4600E022466749CD
:10979000091F0A6029E0A94213D0B14215D0B9428D
:1097A00020D061451BD049451BD0514502D14FF413
:1097B000800217E0414502D14FF0806212E0594526
:1097C00001D104220EE0714501D140220AE0584D3A
:1097D0001435A94206D0564A2832914201D11A4680
:1097E00000E022464B4908394A60C16A71E04FF0F7
:1097F000020808FA04F818EA020F70D05FEA8378CA
:109800006DD50A68920606D40A6822F00A020A6038
:10981000012180F82110DFF810814FF400720168F7
:1098200008F1140813011402414524D9A9420DD0AE
:10983000B1420FD0B9421AD0614515D0494515D073
:10984000514501D1120312E0594501D102220EE027
:10985000714501D120220AE0354D1435A94206D0C8
:10986000334A2832914201D11A4600E022462F495C
:10987000091F0A6029E0A94213D0B14215D0B942AC
:1098800020D061451BD049451BD0514502D14FF432
:10989000001217E0414502D14FF0007212E0594525
:1098A00001D102220EE0714501D120220AE0204DB3
:1098B0001435A94206D01E4A2832914201D11A46D7
:1098C00000E02246134908394A60002180F8201040
:1098D000816A00291CD0BDE8F05F0847FFE7082532
:1098E000A540154214D01A0712D50A6822F00E02BC
:1098F0000A6090F84020C36B012101FA02F25A601D
:10990000816380F82110002180F82010016BE0E7CE
:10991000BDE8F09F080002401C00024030000240F9
:1099200044000240580002406C000240080402401B
:109930001C04024030B560B11A4B026814219A42EF
:1099400009D2194B1344B3FBF1F1890001641749A3
:109950000AE0012030BD134B5B421344B3FBF1F12D
:10996000890001640F490839C163022180F8211080
:10997000136843F6F0718B43F0E901142143D0E9F9
:1099800002452C43214304692143446921438469EE
:10999000214319431160002141630122427701777D
:1099A000084630BD08040240F8FFFDBF0000024039
:1099B00070B5044690F82000002501280CD0012045
:1099C00084F8200094F821600020012E06D084F84D
:1099D00020000225284670BD022070BD022684F8B2
:1099E0002160A0632068066826F001060660204614
:1099F000FFF742F9E06A00282068016802D041F0D0
:109A00000E0106E021F0040101602068016841F0C8
:109A10000A0101602068016841F001010160D9E795
:109A2000064810B54FF0FF31C16000220261C160ED
:109A3000C26000F0F5FA002010BD000000100240E6
:109A40000348016941F08001016100207047000076
:109A5000002002402DE9F05F07461C48884600249C
:109A6000017E15461E46012909D001218146017655
:109A70004CF2503A5046FFF71DFB18B122E002208D
:109A8000BDE8F09F012F02D0022F00D00427D3465B
:109A9000DFF83CA0220128463146FEF7B1FB81B237
:109AA00008EB4400FFF7CAFA5846FFF703FBDAF861
:109AB000102022F00102CAF8102018B9641CE4B288
:109AC000BC42E7D3002289F81820D9E748150020C6
:109AD00000200240064900200A69120607D5054AFF
:109AE0004A60054A4A600969090600D501207047A5
:109AF0000020024023016745AB89EFCD2DE9F84FE7
:109B0000DFF8C891002409F1040A0AF1040B234686
:109B10000F270BF1040ED1E00125A54006EA05024E
:109B2000AA4276D1DFF8A8C14E68A6EB0C086645BC
:109B30002BD00DDC032E34D005DC36B3012E19D02A
:109B4000022E2FD11BE0112E16D0122E2AD119E091
:109B5000B8F5881F19D006DCB8F5803F15D0B8F5E8
:109B6000801F1FD111E0B8F5001F0ED0B8F5041FFB
:109B700018D10AE0CB6815E0CB681B1D12E0CB685A
:109B800008330FE0CB680C330CE08B682BB1012B52
:109B90004FF0080303D0456104E0042302E00561AF
:109BA00000E00023FF2A01D8064601E000F1040688
:109BB0004FEA840501D9A5F12005D6F8008007FAFF
:109BC00005FC28EA0C0803FA05F548EA0508C6F87A
:109BD00000804D68ED0070D53E4DAE6946F001063F
:109BE000AE61AD6924F0030605F0010500953A4D1C
:109BF00006EB050CDCF80850A607360F07FA06F846
:109C000025EA0805DFF8D480404503D14FF000086D
:109C100025E052E0DFF8C880404502D14FF001084E
:109C20001DE0DFF8C080404502D14FF0020816E089
:109C3000DFF8B480404502D14FF003080FE0DFF8B1
:109C4000AC80404502D14FF0040808E0DFF8A08066
:109C5000404502D14FF0050801E04FF0060808FA30
:109C600006F848EA0508CCF808804D68D9F8006085
:109C7000ED034D4601D5164300E096432E604D6836
:109C8000DAF80060AD03554601D5164300E096436F
:109C90002E604D68DBF80060ED025D4601D516438D
:109CA00000E096432E604D68DEF80060AD02754618
:109CB00001D5164300E096432E60641C0A681646E0
:109CC000E2407FF429AFBDE8F88F000000040140B6
:109CD0000000111000100240000001400008014087
:109CE000000C014000100140001401400018014028
:109CF000001C01408068084000D0012070470AB174
:109D0000016170470904FBE7014880687047000063
:109D10007800002070B5040025D094F83D0000259F
:109D200020B984F83C50204600F0B8F8242084F88C
:109D30003D002068016821F0010101602068016890
:109D400041F4004101602068016821F40041016094
:109D500000F004FB4D4A6168914201D84C4900E093
:109D60004C49884201D2012070BD4B492368B0FBA9
:109D7000F1F15E6826F03F060E435E606368934231
:109D800006D94FF4967359434FF47A73B1FBF3F14C
:109D90002368491C1E6A26F03F0631431962616838
:109DA000914210D84900401EB0FBF1F2521CC2F3A0
:109DB0000B02042A01D2042022E0B0FBF1F0401C87
:109DC000C0F30B001CE0A268F2B301EBC10303EB8C
:109DD0000116431EB3FBF6F35B1C43F480431B05E3
:109DE00049D092B301EBC10202EB0111401EB0FB5E
:109DF000F1F0401CC0F30B0040F4804040F4004000
:109E00002168CA694CF6FF739A431043C861D4E9CC
:109E1000071001432068026822F0C002114301606C
:109E2000D4E9030101432068826848F2FF339A4372
:109E300011438160D4E9050108432168CA6822F012
:109E4000FF021043C86001E00EE016E020680168E0
:109E500041F0010101602564202084F83D00256364
:109E600084F83E50002070BD01EB4106431EB3FB59
:109E7000F6F35B1CB3E70120C2E701EB4101401E92
:109E8000B0FBF1F0401CC0F30B00B7E7A086010067
:109E900080841E0000093D0040420F0010B586B0CE
:109EA0000021009101910291039100680F498842BD
:109EB0001AD10F4CA06940F00800A061A069694662
:109EC00000F008000490C0200090122001900320B0
:109ED00003900848FFF712FEE06940F40010E061CB
:109EE000E06900F40010049006B010BD005400407A
:109EF00000100240000C014070B5040011D0216830
:109F00004CF6CC400860216845F255500860D4E911
:109F1000000141602168A0688860FFF7F5FE0546F2
:109F20000DE0012070BD00BFFFF7EEFE401B2728AB
:109F300005D92068C068800701D0032070BD206863
:109F4000C0688007F0D121684AF6AA200860002086
:109F500070BD00684AF6AA21016000207047000029
:109F600002488168027811448160704778000020BF
:109F7000074810B5016841F010010160032000F0AE
:109F8000AFF80F2000F006F800F04CF8002010BDEC
:109F90000020024030B505461C4887B0816941F475
:109FA00000618161806906A900F40060009001A849
:109FB00000F0B4F900F0E2F91549164AB0FBF1F1EE
:109FC0001548491E0260416040F2E7320021C0E9B5
:109FD00003218160816100F0E7FB040012D10E488B
:109FE00000F05AFC04000DD1192000F04CF8102D9F
:109FF00007D200222946192000F052F807480560D0
:10A0000000E0012407B0204630BD000000100240EF
:10A0100040420F00002C0140FC1400207C00002076
:10A02000704700000F4808B5816941F00101816166
:10A03000816901F001010091C16941F08051C16164
:10A04000C069002200F0805000900F21901E00F0A7
:10A0500027F80548416821F0E06141F00071416056
:10A0600008BD00000010024000000140002809DB8C
:10A0700000F01F02012191404009800000F1E02022
:10A08000C0F880127047002809DB00F01F02012190
:10A0900091404009800000F1E020C0F800117047B5
:10A0A000F0B40E4B1B680C46C3F30223C3F1070543
:10A0B000042D00D90425191D072901D2002300E031
:10A0C000DB1E012606FA05F1491E214099409E40FB
:10A0D000761E16403143F0BC03F0D2B90CED00E01F
:10A0E000064900F0070208684FF6FF03184040EAEF
:10A0F0000220034A10430860704700000CED00E0A6
:10A100000000FA052DE9F84305460078354CC007F4
:10A1100054D0E0690026C00008D4E06940F08050C7
:10A12000E061E069012600F0805000902E4801684F
:10A13000C90512D40168804641F480710160FFF7BF
:10A14000E3FD074605E000BFFFF7DEFDC01B642806
:10A1500023D8D8F80000C005F6D5206A10F4407066
:10A1600021D0A98801F4407181421CD0206A1F4986
:10A17000012220F440700A6000220A602062C007B9
:10A1800011D0FFF7C1FD074641F2883808E000BF53
:10A19000FFF7BAFDC11B414502D90320BDE8F88392
:10A1A000206A8007F4D5206A696820F4407008436B
:10A1B00020621EB1E06920F08050E06128788007BD
:10A1C00005D56068A96820F440400843606028789D
:10A1D000C00605D56068696920F4800008436060A6
:10A1E0000020DBE7001002400070004040044242C3
:10A1F0002DE9F0470F46050061D0434E306800F06E
:10A200000700B84209D2306820F0070038433060B8
:10A21000306800F00700B84251D128683B4C8107F4
:10A2200012D5400703D5606840F4E060606028788C
:10A23000000703D5606840F4605060606068A968FA
:10A2400020F0F000084360602878C00728D06868D4
:10A25000012810D02168022810D0890700292EDAA1
:10A26000616821F0030101436160FFF74DFD804605
:10A2700041F288390DE021688903EFE78901EDE7B4
:10A28000FFF742FDA0EB0801494502D90320BDE8D4
:10A29000F0876068696800F00C00B0EB810FEFD1C7
:10A2A000306800F00700B8420BD9306820F0070092
:10A2B00038433060306800F00700B84201D0012018
:10A2C000E5E72878400705D56068E96820F4E06094
:10A2D000084360602878000706D56068296920F483
:10A2E000605040EAC100606000F058F86168084AB8
:10A2F000C1F30311515CC840064908600648006874
:10A30000FFF748FE0020C2E7002002400010024094
:10A3100090F20008840000207C0000200F220260E0
:10A320000C4A536803F003034360536803F0F003DF
:10A330008360536803F4E063C36052684FF4E063E2
:10A3400003EAD20202610448006800F007000860D6
:10A3500070470000001002400020024004480549F8
:10A3600000684968044AC1F30221515CC840704743
:10A370008400002000100240A0F2000804480549B3
:10A3800000684968044AC1F3C221515CC840704763
:10A390008400002000100240A0F2000812A185B045
:10A3A0000FC98DE80F0014A0144A0068049051688A
:10A3B000134801F00C03042B10D0082B0ED1C1F36D
:10A3C0008343C9031DF803000AD5516804AAC1F3E9
:10A3D0004041515C0A4A5043B0FBF1F005B0704770
:10A3E00008494843FAE70000020304050607080984
:10A3F0000A0B0C0D0E0F101001020000001002409D
:10A4000000127A0000093D002DE9F84F040070D0D9
:10A410002078C04DC00749D06868C0F3810001288A
:10A4200007D06868C0F38100022809D16868C003BA
:10A4300006D52868800339D560680028E7D035E064
:10A440006068B0F5803F0BD010B1B0F5A02F11D0EF
:10A45000286820F480302860286820F4802002E0FA
:10A46000286840F480302860606890B1FFF74CFCA9
:10A4700006460AE0286840F480202860F0E700BF24
:10A48000FFF742FC801B642873D828688003F7D547
:10A490000CE0FFF739FC064605E000BFFFF734FC8F
:10A4A000801B6428F0D828688003F7D420789A4E5F
:10A4B00080074FF001094FF0000839D5686810F0A7
:10A4C0000C0F07D06868C0F38100022809D16868C2
:10A4D000C00306D42868800714D52069012808D154
:10A4E00010E02069B0B1C6F80090FFF70DFC0746F8
:10A4F00005E00AE1FFF708FCC01B0228C4D8286861
:10A500008007F7D52868616920F0F80040EAC100AB
:10A5100028600DE0C6F80080FFF7F6FB074604E070
:10A52000FFF7F2FBC01B022823D828688007F7D466
:10A53000207800072CD57948A169D9B1C0F80090DE
:10A54000FFF7E2FB074604E0FFF7DEFBC01B022833
:10A550000FD8686A8007F7D571484FF4FA51006840
:10A56000B0FBF1F0009000BF0098411E0091FAD2BC
:10A570000EE080E0C0F80080FFF7C6FB074604E06D
:10A58000FFF7C2FBC01B022875D8686A8007F7D4A2
:10A590002078400760D5E8690027C00008D4E86942
:10A5A00040F08050E861E869012700F08050009099
:10A5B0005C480168C90513D40168834641F4807181
:10A5C0000160FFF7A1FB824606E000BFFFF79CFB9E
:10A5D000A0EB0A0064284ED8DBF80000C005F5D5D2
:10A5E000E06801280AD008B1052813D0286A20F0B5
:10A5F00001002862286A20F0040002E0286A40F086
:10A6000001002862E06841F2883B98B1FFF77CFBCB
:10A6100082460BE0286A40F004002862EEE700BFA3
:10A62000FFF772FBA0EB0A0159455AD8286A800748
:10A63000F6D50CE0FFF768FB824605E0FFF764FB08
:10A64000A0EB0A0159454CD8286A8007F6D41FB1FF
:10A65000E86920F08050E861E06988B36968C1F377
:10A660008101022944D00228C6F8608004D0FFF797
:10A670004BFB044638E034E0FFF746FB074604E0B6
:10A68000FFF742FBC01B02282BD828688001F7D4B3
:10A69000206AB0F5803F05D16868A16820F40030D9
:10A6A00008436860D4E908010843696821F474111B
:10A6B00008436860C6F86090FFF726FB044606E092
:10A6C00025E000BFFFF720FB001B022809D82868FF
:10A6D0008001F7D51BE000BFFFF716FB001B022827
:10A6E00002D90320BDE8F88F28688001F4D40EE079
:10A6F0000128F7D06868226A00F48031914204D1C1
:10A70000616A00F47010884201D00120EAE700205D
:10A71000E8E700000010024000004242800442428C
:10A7200084000020007000407047704770B590F8BA
:10A730003C20012A2CD0012480F83C40022280F8E1
:10A740003D2003685A689D6822F070060A6832430B
:10A750005A60104B02689A420ED00F4B9A420BD0AF
:10A76000B2F1804F08D00D4B9A4205D00C4B9A4263
:10A7700002D00C4B9A4204D1496825F0800319435A
:10A78000916080F83D40002180F83C10084670BD83
:10A79000022070BD002C0140003401400004004044
:10A7A00000080040000C004010B5040003D094F8ED
:10A7B0003D0010B107E0012010BD002084F83C00EE
:10A7C000204600F01FF8022084F83D00211D20687B
:10A7D00002F038F8012084F8460084F83E0084F83E
:10A7E0003F0084F8400084F8410084F8420084F877
:10A7F000430084F8440084F8450084F83D000020BC
:10A8000010BD000008B501681F48B1F1804F0BD0A2
:10A810001E4A914210D1C16941F00201C161C06973
:10A8200000F00200009008BDC16941F00101C16162
:10A83000C06900F00100F5E7154A91420ED1C169E7
:10A8400041F00401C161C069002200F004000090E1
:10A8500005211E20FFF724FC1E2010E00D4A914226
:10A86000E1D1C16941F00801C161C069002200F075
:10A870000800009005213220FFF712FC3220BDE8CD
:10A880000840FFF700BC0000001002400004004038
:10A8900000080040000C004090F83D10012901D054
:10A8A00001207047022180F83D100168CA6842F01B
:10A8B0000102CA6000680E4988420ED00D498842E4
:10A8C0000BD0B0F1804F08D00B49884205D00B491E
:10A8D000884202D00A49884204D1816801F0070108
:10A8E000062903D0016841F0010101600020704792
:10A8F000002C0140003401400004004000080040EA
:10A90000000C004070B5044690F83C00012817D0B8
:10A91000012584F83C50022084F83D0020688268BC
:10A9200022F0770222F47F4282600868502830D0FB
:10A930000DDC20284DD005DC98B310283BD148E031
:10A94000022070BD302844D0402834D139E060283E
:10A9500028D0702806D0B0F5805F2CD0B0F5005F0D
:10A9600029D10AE0CB68D1E90121206801F0BDFFBF
:10A970002068816841F0770109E0CB68D1E90121C5
:10A98000206801F0B2FF2068816841F48041816055
:10A9900011E0CA684968206802F07CF850212068FC
:10A9A00007E016E0CA684968206802F084F8602170
:10A9B000206801F0A4FF84F83D50002084F83C009A
:10A9C00070BDCA684968206802F064F840212068B8
:10A9D000EFE7226801461046EBE7704770B5044682
:10A9E000006801694FF00005C943890715D4C168A3
:10A9F000C943890711D4E91E01610120207720682D
:10AA000080698007204602D0FFF7E7FF04E000F0EE
:10AA1000BDF8204600F04CF9257720680169C9434C
:10AA2000490717D4C168C943490713D46FF004011B
:10AA30000161022020772068806910F4407F204661
:10AA400002D0FFF7CAFF04E000F0A0F8204600F0B3
:10AA50002FF9257720680169C943090716D4C16811
:10AA6000C943090712D46FF008010161042020775F
:10AA70002068C0698007204602D0FFF7AEFF04E0DF
:10AA800000F084F8204600F013F92577206801696A
:10AA9000C943C90617D4C168C943C90613D46FF0A6
:10AAA00010010161082020772068C06910F4407F00
:10AAB000204602D0FFF791FF04E000F067F820463F
:10AAC00000F0F6F8257720680169C943C90708D165
:10AAD000C168C943C90704D1891E0161204600F03D
:10AAE0009BF920680169C943090609D4C168C943B3
:10AAF000090605D46FF0800101612046FFF714FEBE
:10AB000020680169C943490609D4C168C943490697
:10AB100005D46FF040010161204600F093F92068F0
:10AB20000169C94389060BD4C168C943890607D4A2
:10AB30006FF0200101612046BDE87040FFF7F5BDD0
:10AB400070BD000000B585B0002100910191029117
:10AB500003910068B0F1804F11D10A48816941F03A
:10AB6000040181618069694600F0040004900320BB
:10AB700000900220019003900348FEF7BFFF05B04C
:10AB800000BD00000010024000080140704770B591
:10AB9000044690F83C000D4601280AD0012084F8B4
:10ABA0003C0042B1042A18D0082A2AD00C2A4DD1E0
:10ABB00039E0022070BD206801F0AAFE206881699A
:10ABC00041F0080181612068816921F004018161FF
:10ABD000206881692A69114311E0206801F0C8FEEC
:10ABE0002068816941F4006181612068816921F4F4
:10ABF00080618161206881692A6941EA022181615D
:10AC000024E0206801F0EAFE2068C16941F00801F3
:10AC1000C1612068C16921F00401C1612068C16976
:10AC20002A69114311E0206801F00CFF2068C16916
:10AC300041F40061C1612068C16921F48061C16192
:10AC40002068C1692A6941EA0221C161002084F8B3
:10AC50003C0070BD10B5040003D094F83D0010B165
:10AC600007E0012010BD002084F83C00204600F0E1
:10AC70001EF8022084F83D00211D206801F0E2FD4D
:10AC8000012084F8460084F83E0084F83F0084F8F0
:10AC9000400084F8410084F8420084F8430084F8BE
:10ACA000440084F8450084F83D00002010BD704742
:10ACB0007047000010B50446022249B104290ED0A5
:10ACC000082913D094F84100012816D0012010BDA6
:10ACD00094F83E000128F9D184F83E200FE094F862
:10ACE0003F000128F2D184F83F2008E094F84000AA
:10ACF0000128EBD184F8402001E084F841200122B2
:10AD0000206801F0E5FD13492068134A884201D00C
:10AD1000904203D1436C43F400434364206888426B
:10AD20000DD090420BD0B0F1804F08D00B49884233
:10AD300005D00B49884202D00A49884204D1816873
:10AD400001F00701062903D0016841F0010101600B
:10AD5000002010BD002C01400034014000040040E0
:10AD600000080040000C004030B5044600680D00AB
:10AD700006D0042D08D0082D38D00C2D08D139E08C
:10AD8000C16821F0020102E0C16821F00401C16044
:10AD900000222946206801F09BFD1D4B41F2111154
:10ADA00020688A10984202D01A4B984209D1036A4F
:10ADB0000B4206D1036A134203D1436C23F40043D0
:10ADC00043642068036A0B4206D1016A114203D131
:10ADD000016821F00101016001207DB1042D10D036
:10ADE000082D11D084F84100002030BDC16821F049
:10ADF0000801CCE7C16821F01001C8E784F83E00E3
:10AE0000F2E784F83F00EFE784F84000ECE7000049
:10AE1000002C01400034014010B504460068074989
:10AE2000884201D1FFF79CF805492068884203D188
:10AE3000BDE8104003F024BD10BD0000002C01400F
:10AE4000000800407047704710B50446006841692B
:10AE500094F83D20C1F3C011212A0BD151B14169B1
:10AE600021F080014161606B08B1FEF783FB204651
:10AE700002F019F92068416994F83E20C1F380116D
:10AE8000222A0BD151B1416921F040014161A06BEF
:10AE900008B1FEF76FFB204602F0EDF8002010BD70
:10AEA00070470000F8B5026804461068D16853691D
:10AEB00010F00F0F4FF0000553D003F0010601F41E
:10AEC000907737435FD0C20705D0CA0503D5226CFF
:10AED00042F001022264420705D5DA0703D0226C52
:10AEE00042F002022264820705D5DA0703D0226C01
:10AEF00042F004022264020707D501F02002324327
:10AF000003D0226C42F008022264226C002A34D062
:10AF1000800604D5880602D5204602F0CDF82068C8
:10AF20004069216CC0F38010090700D430B320467B
:10AF300002F0A1F82068416949061BD5416921F05A
:10AF400040014161A06BA8B158494163A06BFEF775
:10AF500035FB002811D0A06B416B01B0BDE8F0407B
:10AF6000084783060FD58B060DD52046BDE8F8406F
:10AF700002F0A2B82046FFF793FFF8BD2046FFF786
:10AF80008FFF2564F8BD266B2023012E52D1C60603
:10AF900050D5CE064ED510685068009050694006D6
:10AFA0002AD5A16B086840680004000CEAD0A68D81
:10AFB0008642E7D9E0858869202818D0D06820F437
:10AFC0008070D0602068416921F0010141612068F2
:10AFD000416921F04001416184F83E3025632068D9
:10AFE000C16821F01001C160A06BFEF7C3FAA08D0B
:10AFF000E18D401A81B219E0A08DE18D401A81B235
:10B00000E08D0028BED00029BCD0D06820F490701C
:10B01000D0602068426922F00102426184F83E302B
:10B0200025632068C26822F01002C2602046FFF744
:10B030000AFFF8BD05062BD50D0629D594F83D006D
:10B040002128F6D1A068B0F5805F01D12069B0B1A8
:10B05000206A411C2162216800784860E08C401E13
:10B060000004000CE084E4D12068C16821F0800174
:10B07000C1602068C16841F04001C160F8BD206A2C
:10B080000088C0F308005060206A801C2062E5E759
:10B090004006F3D54806F1D5D168204621F040019D
:10B0A000D16084F83D3000F026FBF8BDA9CF000840
:10B0B00070B5040004D094F83D00002510B106E0FE
:10B0C000012070BD84F83C50204600F023F8242075
:10B0D00084F83D002068C16821F40051C160204619
:10B0E00002F062F82068016921F490410161206852
:10B0F000416921F02A0141612068C16841F4005191
:10B10000C1602564202084F83D0084F83E000020C2
:10B1100070BD00002DE9F04786B000240094019432
:10B1200002940394054603688848874F0615022158
:10B130000322DFF81CC24FF400694FF0800ABB42C3
:10B1400037D1C36943F40023C361C36903F4002307
:10B150000493836943F0100383618069CDE9006142
:10B1600000F01000CDE90320694666466046FEF710
:10B17000C5FCCDE90094694630460294FEF7BEFC5A
:10B18000754E7448C6E90004C6E9024A3461746128
:10B19000B4613046F461FEF7CDFB08B1FDF72BFF3B
:10B1A000AE630022062134207562FEF779FF342059
:10B1B00031E0DFF8A8810427434531D1C36943F466
:10B1C0008013C361C36903F480130493836943F05C
:10B1D00010038361836903F010030493836943F0D0
:10B1E000200383618069039200F020000490B8027C
:10B1F000CDE9000169466046FEF780FCCDE90074A8
:10B20000694657480294FEF779FC00220521352053
:10B21000FEF746FF3520FEF736FF06B0BDE8F087A3
:10B22000DFF840C1DFF84081634526D1836943F4EC
:10B2300080438361836903F480430493836943F00B
:10B24000040383618069039200F0040004904FF4CA
:10B250000070CDE9000169464046FEF74FFCCDE99C
:10B260000064694640460294FEF748FC002206212D
:10B270002520FEF715FF2520CDE7DFF8F0C0634558
:10B2800025D1C36943F40033C361C36903F40033B8
:10B290000493836943F0040383618069CDE90071FD
:10B2A00000F00400CDE9032069464046FEF726FC85
:10B2B0000820CDE90004694640460294FEF71EFCD2
:10B2C000002205212620FEF7EBFE2620A3E7284FCB
:10B2D000BB42A2D1C36943F48023C361C36903F4B1
:10B2E00080230493836943F0080383618069CDE977
:10B2F000006100F00800CDE903201E4E694630468B
:10B30000FEF7FCFBCDE90094694630460294FEF757
:10B31000F5FB114E18484436C6E90004C6E9024A56
:10B3200034617461B4613046F461FEF703FB08B127
:10B33000FDF761FEAE630022052127207562FEF74E
:10B34000AFFE272067E70000004C004000100240DD
:10B3500000100140300402407414002000500040EE
:10B360000014014000380140000801400044004042
:10B3700000480040000C0140300002402DE9F84F29
:10B38000044690F83E009A4616460D46202853D1B2
:10B39000FDB1F6B194F83C0001284DD0012084F8AD
:10B3A0003C0000272764222084F83E002763FEF734
:10B3B000ABFCA6858146E685A0684FF480584045E1
:10B3C00001D1206940B12E465FF0000584F83C7041
:10B3D00027E00120BDE8F88F0026F7E74B46002262
:10B3E00020212046CDF800A001F08DFF08B10320F8
:10B3F000F0E726B1A06840451BD038B108E02068CE
:10B400004068C0F3080025F8020B07E0206980B10E
:10B410002068406800F07F0006F8010BE08D401EB8
:10B42000E085E08D0028D9D1202084F83E0000205E
:10B43000D0E720684068EFE70220CBE790F83E3085
:10B44000202B0ED159B152B190F83C30012B08D0CD
:10B45000012380F83C300023036301F001BF012089
:10B4600070470220704790F83E30202B0ED159B122
:10B4700052B190F83C30012B08D0012380F83C30C9
:10B480000023036301F024BF0120704702207047AE
:10B490002DE9F04106460068624901270025624C0B
:10B4A000884226D16088010418D460494204097892
:10B4B00004D50A290ED140F400402EE00D292AD0EF
:10B4C000C0F30D02594B401C643B80B2995460801C
:10B4D000632800D96580608800040AD527706088D9
:10B4E0005249C0F30D02643901F53C70FCF798FE37
:10B4F00065804F49306888422DD1E0884B4902046D
:10B5000001F158011CD401F1A8024304127809D5B5
:10B510000A2A11D103E040F480406080DBE740F468
:10B52000004028E00D2A24D0C0F30D03401C80B257
:10B53000CA54E080632800D9E580E08800040AD579
:10B54000277008786070E088C0F30D0137485830E4
:10B55000FCF77FFEE5803749306888422BD1A08810
:10B5600001041DD434494204097809D50A2913D1AC
:10B5700003E040F48040E080DFE740F400402CE04E
:10B580000D2928D0C0F30D022B4B401CA83B80B2E4
:10B590009954A080632800D9A580A08800040AD50A
:10B5A0002770A0882449C0F30D02A83901F5BC70AA
:10B5B000FCF736FEA5802149306888422BD12089CE
:10B5C00001041FD41C49420401F1BC01097809D5CA
:10B5D0000A2913D103E040F48040A080DDE740F465
:10B5E00000401CE00D2918D0C0F30D02124B401C86
:10B5F000143380B299542081632800D92581208991
:10B60000000408D527702089C0F30D010A481430C2
:10B61000FCF71FFE2581BDE8F08140F480402081C9
:10B62000EDE70000004400406C00002020110020E5
:10B6300000480040004C0040DC1200200050004058
:10B64000704700002DE9F843044690F83D001F467E
:10B6500016460D4620284CD1C5B1BEB194F83C0029
:10B66000012846D0012084F83C004FF00008C4F8BF
:10B670004080212084F83D00FEF746FBA6848146E9
:10B68000E684A068B0F5805F03D004E00120BDE847
:10B69000F883206928B12E465FF0000584F83C80CD
:10B6A0000EE00026FAE78021204601F02CFEA0B92A
:10B6B000AEB116F8010B21684860E08C401EE084B2
:10B6C000E08C4B464FF0000200970028EBD14FF082
:10B6D0004001204601F017FE30B10320D7E735F8CE
:10B6E000020BC0F30800E6E7202084F83D000020AC
:10B6F000CDE70220CBE77047FEE7000010B5A0B110
:10B70000012816D02149032823D0612826D0622899
:10B710002AD063282ED0702832D0712818D1B1F8E1
:10B72000E200BDE81040FDF727BABDE8104000F088
:10B73000F3BC174C20680068C16821F40051C16057
:10B7400000F030FC20680068C16841F40051C1601D
:10B7500010BDC888BDE81040FDF702BAB1F8C200BC
:10B76000BDE81040FDF70ABAB1F8C400BDE81040CA
:10B77000FDF72EBAB1F8C600BDE81040FDF718BAC3
:10B78000B1F8E000BDE81040FDF7F3B9B03000209B
:10B79000A4010020034800680088002800D0012090
:10B7A0007047000098020020401E022801D80120A6
:10B7B0007047002070471438502801D80120704786
:10B7C0000020704741F25C711438884201D8012092
:10B7D000704700207047FCF79DFEFCF73DFE1420EB
:10B7E00002F06AFEF9E700002DE9F0410D48002162
:10B7F0000D4E057801700C465FF0010706EBC400A2
:10B80000818856F83400FEF775FA18B907FA04F083
:10B810002843C5B2641CE4B2042CEFD32846BDE82B
:10B82000F08100006D000020D40300202DE9F041DC
:10B83000044615460E46C0B2FDF7A4FB240C3C2777
:10B84000B4FBF7F06421B0FBF1F201FB1200FDF74D
:10B850003BFBB4FBF7F007FB1040FDF77EFB3DB16F
:10B860002846FDF746FB3046BDE8F04100F004B83D
:10B87000FF20FDF793FAF6E710B5044600F001014A
:10B88000042001F015FA04F00201052001F010FA7D
:10B8900004F00401032001F00BFA04F00801012078
:10B8A00001F006FA04F01001BDE81040022001F09A
:10B8B000FFB9000070B588B014460D460646202238
:10B8C0000F496846FCF7ACFC00F03AFF002815D0A1
:10B8D00003F040F93046FDF779FB2846FDF719FBE8
:10B8E000684600EB440030F8020CFDF7D6FA002061
:10B8F000FFF7C2FF01F032F903F04CF908B070BD58
:10B90000BCF4000870B50446FF20FDF758FA240C7B
:10B910003C25B4FBF5F06421B0FBF1F201FB120011
:10B92000FDF7D2FAB4FBF5F005FB1040BDE870401E
:10B93000FDF713BB01F0B4B910B500F019FF0028F2
:10B9400013D100F0FDFE00280FD103F003F90849E0
:10B9500006480A78074900680978FFF767FF01F091
:10B96000FDF8BDE8104003F015B910BDE801002056
:10B97000D8010020B402002070B50D46044600F046
:10B98000F7FE002818D003F0E5F82046FDF739FA55
:10B990002846FDF75AFAFDF729FA052C0AD0062C9D
:10B9A00008D00020FFF768FF01F0D8F8BDE870402C
:10B9B00003F0F0B81020F5E770BD000010B503F0FB
:10B9C000C9F8084906480A78074900680978FFF766
:10B9D00099FF01F0C3F8BDE8104003F0DBB80000A8
:10B9E000E8010020D8010020B402002070B5FF203B
:10B9F000FDF7E5F90021084601F0B4F90021012026
:10BA000001F0B0F90021022001F0ACF9012103207E
:10BA100001F0A8F9FDF75EFC05460A24B0FBF4F03E
:10BA2000B0FBF4F104FB1101052001F09BF9B5FB1B
:10BA3000F4F004FB1051042001F094F90020FFF70A
:10BA40001BFFBDE8704001F089B8000070B50446E6
:10BA5000134DC00701D0012200E000220221284638
:10BA6000FEF74DF9A00701D5012200E000220421D4
:10BA70002846FEF744F9600701D5012200E00022C4
:10BA800008212846FEF73BF9200701D5012200E0F6
:10BA900000222846BDE870400121FEF730B90000C1
:10BAA0000010014040F2E3220149024800F0B4BC1A
:10BAB000B0300020007900083EB500241148009401
:10BAC000019402940E498460016004730475012599
:10BAD00005614FF460214460C161FDF78FFC08B13E
:10BAE000FDF789FA0520CDE900056946029405486D
:10BAF000FDF706FC002801D0FDF77DFA3EBD0000F1
:10BB000000280140B40E0020114808B5416941F0F9
:10BB100001014161416901F001010091416941F078
:10BB2000020141614069002200F0020000900521FD
:10BB30000D20FEF7B5FA0D20FEF7A5FA002205212B
:10BB40003A20FEF7ADFABDE808403A20FEF79BBA6E
:10BB50000010024010B5A4B01C221C496846FCF736
:10BB60005FFB0021684602F0B3FC194C17491C2208
:10BB700020601C3107A8FCF753FB002107A802F046
:10BB8000A7FC124960601C2238310EA8FCF748FB64
:10BB900000210EA802F09CFC0C49A0601C2254312C
:10BBA00015A8FCF73DFB002115A802F091FC074900
:10BBB000E0601C2270311CA8FCF732FB00211CA89D
:10BBC00002F086FC206124B010BD000004F20008E1
:10BBD000580000202DE9F04F85B000243A48009429
:10BBE000019402940394816941F01001816181699B
:10BBF00001F010010491816941F0040181618169C2
:10BC000001F004010491816941F0080181618169B9
:10BC100001F008010491816941F02001816180698E
:10BC2000DFF8A89000F0200042F24F0504900022B7
:10BC300029464846FEF763F8DFF894A04DF2340732
:10BC4000002239465046FEF75AF8DFF888B04FF424
:10BC50001848002241465846FEF751F80095022642
:10BC600001250396CDE9015469464846FDF746FF94
:10BC70003020CDE90004694648460294FDF73EFFB6
:10BC800000970396CDE9015469465046FDF736FF0B
:10BC90004FF460708DE8310069464846FDF72EFF8D
:10BCA00028028DE8310069465846FDF727FFCDF898
:10BCB00000800396CDE9015469465846FDF71EFF02
:10BCC00005B0BDE8F08F00000010024000100140F8
:10BCD000000C0140000801400D4810B50B490160FF
:10BCE0000C49416000214FF480428160C0E9031299
:10BCF00041618161C1610162FEF70CF8002803D047
:10BD0000BDE81040FDF777B910BD000000540040B9
:10BD1000E40E0020A0860100094810B50749016023
:10BD20000221416040F6FF718160FEF7E5F80028CE
:10BD300003D0BDE81040FDF75EB910BD00300040F3
:10BD4000380F002010B58EB0002407940894099491
:10BD50000A940B941C2168460C94FCF77AFA22484A
:10BD60004FF0804101602321C0E9011440F2F3113A
:10BD7000C0E903148461FEF717FD08B1FDF73BF934
:10BD80004FF48050079007A91748FEF7BBFD08B194
:10BD9000FDF731F91448FEF75DFF08B1FDF72BF907
:10BDA0000B940BA910480C94FEF7C0FC08B1FDF7EA
:10BDB00022F96020CDE900040220029000226946A9
:10BDC00004940948FEF7E3FE08B1FDF714F90422D4
:10BDD00069460548FEF7DBFE08B1FDF70CF902489D
:10BDE000FEF7B0FE0EB010BD440F002010B586B0B7
:10BDF0000024174800940194029403940494134976
:10BE00000594016040F60F61C0E901142321C0E9E7
:10BE100003148461FEF7C8FC08B1FDF7ECF84FF499
:10BE20008050009069460A48FEF76CFD08B1FDF7A6
:10BE3000E2F8049404A906480594FEF777FC00286C
:10BE400001D0FDF7D8F806B010BD00000004004096
:10BE50008C0F002010B586B0002417480094019480
:10BE600002940394049413490594016040F60F6111
:10BE7000C0E901142321C0E9031480218161FEF788
:10BE800093FC08B1FDF7B7F84FF480500090694675
:10BE90000948FEF737FD08B1FDF7ADF8049404A991
:10BEA00005480594FEF742FC002801D0FDF7A3F8F1
:10BEB00006B010BD00080040D40F002010B586B0B9
:10BEC00000241748009401940294039404941349A5
:10BED0000594016040F60F61C0E901143121C0E909
:10BEE00003148461FEF760FC08B1FDF784F84FF499
:10BEF0008050009069460A48FEF704FD08B1FDF73E
:10BF00007AF8049404A906480594FEF70FFC00286B
:10BF100001D0FDF770F806B010BD0000000C004025
:10BF20001C10002010B50420FCF7F0FE0B490A4A53
:10BF3000C1E90020002088600C22C860C1E9040229
:10BF40008861C8610846FFF7B3F8002803D0BDE850
:10BF50001040FDF750B810BD004C00409812002072
:10BF600010B50520FCF7D2FE0D490C4AC1E90020AE
:10BF7000002088600C22C860C1E904028861C861A1
:10BF80000846FFF795F808B1FDF735F80449012296
:10BF9000BDE8104044310248FFF765BA0050004048
:10BFA0005413002010B50120FCF7B0FE0D490C4AD7
:10BFB000C1E90020002088600C22C860C1E90402A9
:10BFC0008861C8610846FFF773F808B1FDF713F8F8
:10BFD00004490122BDE8104014390248FFF743BA72
:10BFE000003801407810002010B50220FCF78EFECA
:10BFF0000D490C4AC1E90020002088600C22C8606D
:10C00000C1E904028861C8610846FFF751F808B128
:10C01000FCF7F1FF04490122BDE810401439024841
:10C02000FFF721BA004400403411002010B503206E
:10C03000FCF76CFE0D490C4AC1E900200020886025
:10C040000C22C860C1E904028861C8610846FFF794
:10C050002FF808B1FCF7CFFF04490122BDE81040DA
:10C0600044310248FFF7FFB900480040DC110020CE
:10C070004FF4803000F058FAFCF7D6FB4FF47A60AA
:10C0800002F01AFA4FF4FA74FCF792FA204602F022
:10C0900013FAF9E7FEE70000074840680168CA683C
:10C0A00042F01002CA6001684A6942F001024A6126
:10C0B00080220249FFF7C2B9540400209A360020BA
:10C0C00010B540F2E3220849084800F097F904222D
:10C0D0000121032000F014FA15220021BDE81040D0
:10C0E000032000F00DBA0000B030002000790008F5
:10C0F00010B501F0D3FC074841684A1C42600A2988
:10C1000006D900214160BDE81040012002F0D4BCF6
:10C1100010BD00003C040020084808B50068AA21B2
:10C1200000220180012000904FF4E133104601F01D
:10C1300075FCBDE8084001F073BA0000AC010020B6
:10C14000FFF7AAFFFCF7CEFDFCF7EEF9052002F0A1
:10C15000B3F9F9E70EB5044A07CA8DE807000621CE
:10C16000684600F019F90EBDDCF600080EB5044A69
:10C1700007CA8DE807000621684600F00DF90EBDDC
:10C18000F4F600082DE9F04F4E49CFB08868421C04
:10C190008A60002114287DD94A4881604FF480715B
:10C1A0000EA8FCF756F8484830F8031F4EBA4188ED
:10C1B000427E4DBA416809BA21F0FF08C17948EAC8
:10C1C0000108D0F8161009BA21F0FF0111430291BD
:10C1D000428F418B53BA4CBA828F90F83410C08F83
:10C1E00052BA47BA41B13948D0F80090B9F80000C6
:10C1F00041EA000CA9F800C00A20B7FBF0FC00FBE4
:10C200001C7CB7FBF0F7CDE9037CB2FBF0F7B2FB87
:10C21000F0FA00FB1729B3FBF0F200FB123EB3FB70
:10C22000F0FBB4FBF0F200FB12436422B8FBF2F720
:10C23000B8FBF2FC02FB1787B5FBF0F2CDE900C7B3
:10C2400000FB1257B6FBF0F200FB1268B4FBF0F4EF
:10C25000B5FBF0F5B6FBF0F24E97DDE9037C07A8DD
:10C260000693CDF834C0CDF828A080E80248CDE987
:10C270000B979DE881100DF10809059489E881105C
:10C280004E9F4346CDE9005711490EA801F0E4F84E
:10C290000EA800E005E0FBF7E7FFC1B20EA800F032
:10C2A00067FF80210848FBF7D4FF06484068016813
:10C2B0000A68496800914FB08022BDE8F04F0249FA
:10C2C000FFF7BCB8540400209A36002098020020E2
:10C2D00060F70008044801784078814201D10120CC
:10C2E0007047002070470000540400200EB50FA3D3
:10C2F0000ECB8DE80E00010E8DF80310010C8DF8A9
:10C300000410010A8DF805108DF8060005210DF1C5
:10C310000200FCF779FB010A8DF807108DF8080080
:10C320000A21684600F038F80EBD0000020508003A
:10C330000000000000030000642800D964200149C7
:10C34000487070475404002001460448C1EBC10105
:10C3500001EB41010068008848437047000200205B
:10C360000C4910B508784A78904202D9A0F1010032
:10C3700002E005D200F1010008704FF0010401E075
:10C380004FF00004C0B2FFF7DFFFFFF7AFFF20461A
:10C3900010BD0000540400200A46014602484FF632
:10C3A000FF734068FFF74EB9540400200848007836
:10C3B00002280BD0032809D0072807D0082805D069
:10C3C0000C2803D00D2801D00020704701207047B1
:10C3D000B5020020FEE710B5FCF71AF8BDE81040E2
:10C3E000012000F015BDFFF797FEFBF7FDFFFFF7FB
:10C3F0007FFE642002F060F8F9E7000010B500232A
:10C4000006E000BF30F8024B21F813405B1C9BB2E2
:10C410009342F7D310BD00002DE9F05FA0F1006456
:10C4200015468A468346B4F5802F4FD2FDF752FB5E
:10C43000E70AC4F34906C6F58064A54200D82C4635
:10C44000DFF88C904FF0006000EBC72080464FF47F
:10C4500080621F49FFF7D2FF00204FF6FF7105E011
:10C46000331839F813208A4202D1401CA042F7D376
:10C47000A04223D24046FCF7C1FD0020494605E01A
:10C480003AF810208319401C21F81320A042F7D35A
:10C4900040464FF480620E4900F01CF8A54211D0CE
:10C4A000281B0AEB440A0BEB440B002685B24FF421
:10C4B00080647F1CA542C5D82C46C3E7224651465E
:10C4C0005846E9E7BDE8F05FFDF7BABABDE8F09F6E
:10C4D000600400202DE9F04116460F460546002471
:10C4E0000AE000BF37F81420002329460120FDF799
:10C4F000B1FA641CA4B2AD1CB442F3D3BDE8F08120
:10C50000032808D0042805D1102903D8044800BF07
:10C5100020F811207047B1F5397FFBD20148F7E7C9
:10C5200078360020B03000200349020C4B681A8096
:10C5300089680880FFF7B6BAAC010020122801D341
:10C54000002070470149087001207047B5020020A3
:10C55000114830B481780023491C81700146C478A9
:10C5600002788968944202D08370C2704160446846
:10C570000C1B962C0CD8807808280BD3022A04D0E8
:10C58000042A07D130BCFFF726BF30BC00F06CBCDA
:10C590008370416030BC7047C003002002494A7874
:10C5A00002434A7070470000B502002002494A78F1
:10C5B00082434A7070470000B50200200149497863
:10C5C00008407047B502002082B2000C062907D04F
:10C5D000012907D1044909680A804880FFF762BA37
:10C5E0000249F8E770470000EC010020F00100204C
:10C5F00002490148086070470400FA050CED00E0AC
:10C6000010B5502080F31188BFF34F8FBFF36F8FA9
:10C6100002F02CFD18B104494FF080500860002052
:10C6200080F3118810BD000004ED00E030B595B036
:10C6300028216846FBF70DFE14210AA8FBF709FE26
:10C6400018210FA8FBF705FE0A20009001201021F9
:10C65000CDE9040106A90224002581E831004FF448
:10C66000E01009906846FDF7CFFE08B172B6FEE70C
:10C670000AA90F2081E831004FF48060CDE90D0553
:10C6800001210AA8FDF7B4FD08B172B6FEE74FF428
:10C69000804011900F940FA8FDF734FD002801D0C1
:10C6A00072B6FEE715B030BD704710B500F0EAFA7B
:10C6B0004FF4FA64204601F0FFFEFFF797F9204699
:10C6C000BDE8104001F0F8BE04480078401E042880
:10C6D00001D801207047002070470000B5020020FB
:10C6E00004480078801F042801D8012070470020EA
:10C6F00070470000B5020020044800780B38042879
:10C7000001D801207047002070470000B5020020CA
:10C7100010B500F0BBFB00226321BDE810400320F0
:10C72000FFF7EEBE10B5FCF78FF90122632103205D
:10C73000FFF7E6FEBDE81040002000F069BB0000F6
:10C7400003480078112801D000207047012070476D
:10C75000B502002005480078012805D0062803D03E
:10C760000B2801D00020704701207047B50200203F
:10C7700003480078102801D000207047012070473E
:10C78000B502002005480078042805D0092803D008
:10C790000E2801D00020704701207047B50200200C
:10C7A0000348007808B1002070470120704700005E
:10C7B000B502002005480078032805D0082803D0DA
:10C7C0000D2801D00020704701207047B5020020DD
:10C7D00005480078022805D0072803D00C2801D08E
:10C7E0000020704701207047B502002005480078FE
:10C7F000052805D00A2803D00F2801D00020704753
:10C8000001207047B50200200148FEF7E7B800009C
:10C81000FC1400200148FEF7E1B80000D40F00200E
:10C82000074810B500680169C90704D06FF001011D
:10C83000016102F025F8BDE810400148FEF7CEB8CE
:10C840001C100020F0B502681C4B1D4D1D4E1E4FE4
:10C850001E4C4FF0804C984209D0A04207D0604552
:10C8600005D0A84203D0B04201D0B84204D122F092
:10C87000700E4A6842EA0E02984209D0A04207D0E0
:10C88000604505D0A84203D0B04201D0B84203D1E0
:10C8900022F44075CA682A434D6922F080022A4377
:10C8A00002608A68C2620A688262984201D0A0422D
:10C8B00001D10969016301214161F0BD002C0140F2
:10C8C0000004004000080040000C0040003401401B
:10C8D00010B501F01F030121046A99408C430462E2
:10C8E000016A9A401143016210BD10B5846842EAA2
:10C8F000032224F47F440A432243826010BD8268ED
:10C9000022F070020A4342F0070181607047000084
:10C91000F0B5026A22F001020262036A4268846989
:10C92000124E24F073050C682C4323F002058B682B
:10C930002B430D4DA84201D0B04205D123F008078A
:10C94000CB683B4323F00403A84201D0B04205D199
:10C950004D6922F4407215438A692A43426084611A
:10C96000496841630362F0BD002C0140003401407E
:10C97000F0B5026A22F010020262026A436884691A
:10C980000D6824F4E64444EA05248D6822F0200270
:10C9900042EA05120F4D104EA84201D0B04206D116
:10C9A000CF6822F0800242EA071222F04002A84239
:10C9B00001D0B04207D14D6923F4406343EA8503B7
:10C9C0008D6943EA8503436084614968816302623B
:10C9D000F0BD0000002C014000340140F0B5026AB7
:10C9E00022F480720262026A4368C46922F400720F
:10C9F00024F073050C68124E2C438D6842EA052220
:10CA00000E4DA84201D0B04206D1CF6822F4006298
:10CA100042EA072222F48062A84201D0B04207D144
:10CA20004D6923F4405343EA05138D6943EA051326
:10CA30004360C4614968C1630262F0BD002C0140DB
:10CA40000034014030B5026A22F480520262046A66
:10CA50004268C3690D6823F4E64343EA05238D6801
:10CA600024F4005444EA0534084DA84202D0084D8D
:10CA7000A84204D14D6922F4804242EA8512426004
:10CA8000C36149680164046230BD0000002C0140AC
:10CA90000034014010B5036A046A24F00104046202
:10CAA000846924F0F00444EA021423F00A020A43E1
:10CAB0008461026210BD10B5036A23F010030362A3
:10CAC0008369046A23F4704343EA023224F0A0032A
:10CAD00043EA01118261016210BD10B5122000F01D
:10CAE000FDF8BDE81040102000F0F8B810B50A209D
:10CAF00000F052F9C02000F0F1F8BDE8104010201D
:10CB000000F0ECB810B5144C012211032046FDF7DB
:10CB1000F6F80122D1032046FDF7F1F80122910336
:10CB20002046FDF7ECF84FF4FA6000F035F952209A
:10CB300000F0D4F8302000F0D1F8002000F0CEF85A
:10CB40000A2000F0CBF8022000F0C8F8BDE8104041
:10CB5000062000F0C3B80000000C014010B501220F
:10CB6000D1030548FDF7CBF80823BDE810401A466D
:10CB70000249002000F05AB800080140500300208C
:10CB80002DE9F0470F46054600244FF40049104EAA
:10CB90004FF4804818E0E80701D0012200E00022AD
:10CBA00049463046FDF7ABF86D0800224146304655
:10CBB000FDF7A5F8032000F0EFF8012241463046CA
:10CBC000FDF79DF8641CE4B2BC42E4D3BDE8F087F5
:10CBD000000C01402DE9F0470F46054600244FF4B4
:10CBE0000049114E4FF4804819E0280601D5012272
:10CBF00000E0002249463046FDF781F86806050E40
:10CC0000002241463046FDF77AF8032000F0C4F8D0
:10CC1000012241463046FDF772F8641CE4B2BC4282
:10CC2000E3D3BDE8F0870000000C01402DE9F04798
:10CC3000DFF84C8016460D4604464FF4805799465F
:10CC4000002239464046FDF75AF80321A020FFF79D
:10CC5000C1FFA006000E0621FFF7BCFF002406E07E
:10CC600015F8010B4946FFF78BFF641CE4B2B44290
:10CC7000F6D339464046BDE8F0470122FDF73FB8FC
:10CC8000000C014003A1054AD1E900011060516088
:10CC9000FFF764BFF7FFFFFFFFFF7FFF5003002098
:10CCA0000248002101604160FFF758BF5003002097
:10CCB000094A0428135C07D211B143F0080101E0CE
:10CCC00003F0F7011154704711B143F08001F9E707
:10CCD00003F07F01F6E700005003002070B50C4D13
:10CCE00006464FF48054002221462846FDF707F8F7
:10CCF00004218020FFF76EFF08213046FFF76AFF0E
:10CD000021462846BDE870400122FCF7F8BF00002C
:10CD1000000C014070B5124B04281A5C04D203F1D8
:10CD2000420402F0080503E00D4C02F080051C34BB
:10CD3000FF2911D05FF0000204EB420676788E42A4
:10CD400002D114F812601E54521CD2B2132AF3D32B
:10CD5000195C2943195470BD00211954F8E70000EB
:10CD6000500300200B4A10B5145C042804D202F1D1
:10CD7000120304F0080403E0064B04F080040833B7
:10CD8000FF2905D0595C1154C9B22143115410BD7B
:10CD90000021F8E75003002000EB400000BF401ED8
:10CDA000FCD2704708B50146094800F0E1F940217E
:10CDB0000748FBF74EFA0748406801680A68496867
:10CDC0000091BDE8084040220149FEF737BB000052
:10CDD00050300020D001002010B5FBF733FB1120AC
:10CDE000FFF7ACFB094C60680088FCF7DFF92070A6
:10CDF0000121617060680088FCF7C2F90246617821
:10CE00002078BDE81040FEF755BD00000803002063
:10CE100010B500284FF0010019D0FFF7BFFB02202A
:10CE2000FFF7C4FB0120FFF789FB0A4801680A48A5
:10CE30000068006808600949086009490220087014
:10CE4000084900200870BDE81040FEF775BDFFF7E7
:10CE5000ADFBE4E794020020EC010020E801002093
:10CE6000B4020020D801002010B5FBF787FB10208A
:10CE7000FFF764FB044A0120107091785170BDE8FF
:10CE80001040FEF779BD0000B802002005490020DF
:10CE90000870054908700549087005490870FFF7D2
:10CEA000FFBE0000D8010020D9010020B6020020FA
:10CEB000B502002010B50220FFF778FB0620FFF72F
:10CEC0003DFB094801680948006800680860084996
:10CED0000860084902200870074900200870BDE872
:10CEE0001040FEF729BD000094020020F001002050
:10CEF000E8010020B4020020D801002010B504464B
:10CF0000FEF752FC002824D00220FFF74FFB114807
:10CF100004700B20FFF712FB0F4904EB44000A6872
:10CF200002EB001232F8303C0C4A126813800023E6
:10CF30005380096801EB0011094831F8302D028057
:10CF4000C98D4180074902200870BDE81040FEF7F6
:10CF5000F3BC10BDD8010020E401002094020020A1
:10CF6000E8010020B402002038B50B4C20680168AD
:10CF7000C943C9060BD40168406800902046FDF7FC
:10CF800063FFA06B00684068C0B2FFF70BFFBDE80D
:10CF900038400148FDF786BF981200200148FDF790
:10CFA00081BF00005413002010B5406A0021C185E4
:10CFB000C184FDF775FF10BD70B5446A20684069F3
:10CFC00094F83D10C0F3C0100025212904D118B1F8
:10CFD000E584204600F067F82068406994F83E1028
:10CFE000C0F38010222904D118B1E585204600F055
:10CFF00042F8206C40F0100020642046FDF750FFFE
:10D0000070BD10B50146406A0968096889061BD4DD
:10D010000021C1850168CA6822F48072CA60016873
:10D020004A6922F001024A6101684A6922F040021D
:10D030004A61202180F83E10016B012904D101686A
:10D04000CA6822F01002CA60016B012902D0FEF703
:10D050001FFA10BD818DFDF7F6FE10BD10B5406AB8
:10D06000016B012902D0FEF7EBFA10BD818D490852
:10D07000FDF7E9FE10BD0168CA6822F49072CA602B
:10D0800001684A6922F001024A61016B012904D159
:10D090000168CA6822F01002CA60202180F83E10A0
:10D0A0000021016370470168CA6822F0C002CA60AB
:10D0B000202180F83D10704708B590F83E102229D5
:10D0C00001D0022008BD82684FF480539A4201D1FA
:10D0D000016921B1816A9A421BD04AB10AE0026813
:10D0E000816A5268C2F308020A80816A891C08E0DA
:10D0F000026972B10268526802F07F020A70816AA6
:10D10000491C8162C18D491E0904090CC18503D0E7
:10D1100019E002685268F1E70168CA6822F020024B
:10D12000CA600168CA6822F48072CA6001684A69EC
:10D1300022F001024A61202180F83E10016B012992
:10D1400003D0FEF7A5F9002008BD002101630168A6
:10D15000CA6822F01002CA6001680A68D20602D5C5
:10D160000A6849680091818DFDF76DFEEBE70000CC
:10D1700070B50C4605464FF480710948FBF769F815
:10D18000224629460648FBF74BF8064822464FF64A
:10D19000FF734068BDE870400149FEF753BA0000D4
:10D1A000502F0020D001002070B5044600680169AE
:10D1B000E26821F44051114301612169A0680843EC
:10D1C000616908432168CA6841F20C639A430243CB
:10D1D000CA6020684169A26921F44071114341612C
:10D1E0001E492068884202D1FDF7C8F801E0FDF72A
:10D1F000B5F800EBC00101EB00126068642180000B
:10D20000B2FBF0F3B3FBF1F36FF018067343B2FB1C
:10D21000F0F5B2FBF0F605EB8305322303EB0515C1
:10D22000B5FBF1F5B6FBF1F605F0F00505EB0615DB
:10D23000B2FBF0F6B2FBF0F0B0FBF1F06FF01802C9
:10D24000504306EB800003EB0010B0FBF1F02168C7
:10D2500000F00F002844886070BD000000380140D5
:10D2600038B5816282850025134604460564222074
:10D2700084F83E00A26B13489062A26B1248D06201
:10D28000A26B12481063A06B0A4645632168A06B2D
:10D29000091DFCF78DFB206801684168009184F846
:10D2A0003C50C16841F48071C1602068416941F01F
:10D2B000010141612068416941F040014161002064
:10D2C00038BD000003D000085DD00008B9CF0008C9
:10D2D00081628285C28500210164222280F83E207D
:10D2E00080F83C100168CA6842F48072CA60016824
:10D2F0004A6942F001024A610068C16841F02001B8
:10D30000C160002070472DE9F041984617460E464F
:10D310000446069D1DE0681C1BD02DB1FCF7F4FCF3
:10D32000A0EB0800A84214D92068C16821F4D0718C
:10D33000C1602068416921F001014161202084F829
:10D340003D0084F83E00002084F83C000320BDE846
:10D35000F0812068006836EA000004D00020B8425E
:10D36000D9D00020F3E70120F9E7000010B5094CFF
:10D370002068C068800601D501F088FA2068C0687E
:10D38000000601D501F088FABDE810403420FCF712
:10D390006DBE0000981200200148FDF783BD00001B
:10D3A0003411002038B50B4C20680168C943C90608
:10D3B0000BD40168406800902046FDF745FDA06B46
:10D3C00000684068C0B2FEF7DDFEBDE838400148A5
:10D3D000FDF768BDDC110020144810B5144A03782D
:10D3E000A2F110011088052B02D84969088018E0C5
:10D3F0000A2B04D8896908805088488011E00F2BD7
:10D400000FD80878FEF7D0F958B110880A78CB68A1
:10D4100002EB4202497803EB021202EB810121F890
:10D42000340CBDE81040FEF73DBB0000B502002003
:10D43000E8010020FEE7012000F006B8014800786E
:10D4400070470000B8030020032801D80149087084
:10D4500070470000B80300200FB4084B10B504A9B2
:10D4600002AA039800F02CF8044602A9002000F05C
:10D47000D1F8204610BC5DF814FB000015D600085A
:10D480000907090E002804DB00F1E02080F80014F1
:10D49000704700F00F0000F1E02080F8141D704785
:10D4A00002E008C8121F08C1002AFAD1704770476D
:10D4B000002001E001C1121F002AFBD170470000CB
:10D4C0002DE9FF4F89B09B460446002506E025283C
:10D4D0000BD05A460B999047641C6D1C207800288D
:10D4E000F5D10DB02846BDE8F08F0027B8460122DF
:10D4F000474900E0074314F8013F203B02FA03F0DC
:10D500000842F7D120782E2819D114F8010F47F0DE
:10D5100004072A280ED06FF02F022078A0F13001E6
:10D5200009290CD808EB880102EB410100EB010846
:10D53000641CF2E70A98641C50F8048B0A90207867
:10D540000028CED0642808D0692806D075281ED0BF
:10D550005A460B9990476D1C58E00A994FF00A09FA
:10D5600001C90A91002802DA40422D2102E0390562
:10D5700004D52B218DF82010012103E0F90704D0F8
:10D580002021F7E78A4608AE0DE00021FAE70A9964
:10D590004FF00A0901C90A91F7E74946FAF76BFE0D
:10D5A000303106F8011D0028F7D1ADEB060000F17F
:10D5B0002009780701D44FF00108C84502DDA8EB27
:10D5C000090000E000208046002706E008A85A462F
:10D5D000C05D0B9990476D1C7F1C5745F6DB04E03E
:10D5E00030205A460B9990476D1CB8F10001A8F104
:10D5F0000108F5DC05E016F8010B5A460B99904737
:10D600006D1CB9F10001A9F10109F4DC641C65E7A6
:10D61000092801000A68531C0B6010707047000055
:10D6200070B5064D00242878012802D00624204633
:10D6300070BD2869804700202870F8E7F8000020B6
:10D6400070B50C460988002505292FD1417840F294
:10D65000CF760A0281781143C278491C13020279FD
:10D6600089B21A43531EB34220D2002323800123E0
:10D6700000F8013B2688761C2680560703D003EB72
:10D68000D203DEB201E0C2F3C70600F8016B2388C3
:10D690005B1C2380002300F013FB18B101F0E4F8B9
:10D6A000054604E020883044208000E00325284619
:10D6B00070BD70B50C460988002505292FD1417829
:10D6C00040F2CF760A0281781143C278491C1302D6
:10D6D000027989B21A43531EB34220D20023238019
:10D6E000022300F8013B23885B1C2380530704D0EE
:10D6F000012303EBD203DEB201E0C2F3C70600F858
:10D70000016B23885B1C238000F0E0FA18B101F064
:10D71000ABF8054604E020883044208000E0032573
:10D72000284670BD70B50C4609880026052923D10E
:10D73000417805790A02817811436A1EFE2A1BD8B6
:10D7400000222280032200F8012B22880023521C91
:10D7500022806A0000F8012B2288521C22802A466F
:10D7600000F000FB18B101F07FF8064605E02088C4
:10D7700000EB4500208000E00326304670BD70B508
:10D780000C4609880026052925D1417805790A0229
:10D7900081781143C27845EA02256A1E7C2A1AD292
:10D7A00000222280042200F8012B2288521C2280B1
:10D7B0006A0000F8012B2288521C22802A4600F0C1
:10D7C00023FB18B101F050F8064605E0208800EB75
:10D7D0004500208000E00326304670BD2DE9F04171
:10D7E0000446088800270D460A2842D36078267927
:10D7F0000102A078227A0843401C1FFA80F8E078E2
:10D8000046EA00266079731E0102A0790843401C95
:10D8100081B2E0797C2B42EA0022607A28D83AB3C0
:10D82000792A25D8B0EB420F22D1012304F10A0056
:10D8300000F098FA98B900212980172121702988D1
:10D84000601C491C2980710000F8011B29880023F5
:10D85000491C29803246414600F084FA18B101F093
:10D8600003F8074605E0288800EB4600288000E022
:10D8700003273846BDE8F08170B5064C0D460649D1
:10D880002288401CFAF7CCFC2088401C288000200D
:10D8900070BD0000F40000203027002038B5098852
:10D8A000002405290BD141780A0281781143491CD3
:10D8B000027989B21AB9C278FF2A03D012B10324BF
:10D8C000204638BD00228DF80120C078FF280CD0FA
:10D8D0008DF8002001231A46684600F0F1F900286F
:10D8E000EED000F0C1FF0446EAE701208DF8000009
:10D8F000F0E710B509880024052902D0032420464A
:10D9000010BD417801230A028178C01C11431A46D8
:10D9100000F028FA0028F2D000F0A6FF0446EEE757
:10D920002DE9F0410D4609880024052926D94178C2
:10D9300043790A0281781143491C8EB2C178027979
:10D9400042EA0122510704D0012101EBD201C9B200
:10D9500001E0C2F3C701571EB7F5F66F0ED2994228
:10D960000CD101233146801D00F0AAF918B100F056
:10D970007BFF044603E00520288000E003242046C6
:10D98000BDE8F08170B50D460988002406291CD336
:10D9900041780A0281781143C278130202791A434E
:10D9A0004379561EB6F59F7F0FD85606360E9E4217
:10D9B0000BD10123801D00F0D5F918B100F054FF00
:10D9C000044603E00520288000E00324204670BDC3
:10D9D0002DE9F0410D46C1780379867843EA0123A9
:10D9E000417900240A0281791143C2791702027A2F
:10D9F0003A43062E01D1012B02D00320BDE8F0816D
:10DA00000123093000F068F920B100F02DFF044631
:10DA10002046F3E709202880FAE700002DE9F041CD
:10DA20001D46069B1746064629B1F72903D8134C15
:10DA3000084621710EB102251BE0114921611149EF
:10DA400061611149E1601149A1610021E161104961
:10DA50002162104961621049A1622A46394600F0EC
:10DA60007BF8050005D101F089F928B16671012024
:10DA700020702846BDE8F0810325FAE7F800002071
:10DA800081DC0008A5DC000805DC0008A1DB00083B
:10DA900011EE0008B9EE000879EE000838B52D4CFB
:10DAA000207808B1062038BD684601F059F90128F0
:10DAB0004DD19DF8000070B3012802D0022846D154
:10DAC00011E000F003FA234AA369921D911CC81FBC
:10DAD000984700BB60782179884200D0D8B90220ED
