:020000040800F2
:1080000060430020DD8100087FD90008A1C9000875
:1080100051D600085D930008E5EC00080000000060
:108020000000000000000000000000004581000882
:10803000E19500080000000089810008DDDD0008EE
:10804000F7810008F7810008F7810008F781000830
:10805000F7810008F7810008F7810008F781000820
:10806000F7810008F7810008F7810008F781000810
:10807000F781000881950008F7810008F781000862
:10808000F7810008F7810008F7810008F7810008F0
:10809000F7810008F7810008F7810008F7810008E0
:1080A000F781000849E00008F7810008F78100081F
:1080B000F7810008F781000855E00008F781000803
:1080C000F7810008F7810008F7810008F7810008B0
:1080D000F781000845EC00087DEC000889EC0008F9
:1080E000F7810008F7810008F7810008F781000890
:1080F000F7810008F7810008F7810008F781000880
:10810000F7810008F781000861E00008F7810008A6
:1081100075E8000879E8000885E00008F7810008A4
:10812000F7810008F78100088D950008F7810008A5
:10813000DFF80CD000F05EFC00480047AD060108F7
:1081400060430020224B19680868B0E8F00F80F304
:108150000988BFF36F8F4FF0000080F311884EF055
:108160000D0E70470000000006480068006880F3AC
:10817000088862B661B6BFF34F8FBFF36F8F00DF21
:1081800000BF00BF08ED00E0EFF30980BFF36F8F81
:108190000F4B1A6820E9F00F106008B54FF050003F
:1081A00080F31188BFF34F8FBFF36F8F09F032FB5D
:1081B0004FF0000080F31188BDE808401968086896
:1081C000B0E8F00F80F30988BFF36F8F704700BFEE
:1081D00088000020EFF305807047000006488047C4
:1081E00006480047FEE7FEE7FEE7FEE7FEE7FEE79C
:1081F000FEE7FEE7FEE7FEE785DE000831810008C6
:10820000202A04DB203A21FA02F00021704721FAEB
:1082100002F3D040C2F12002914008431946704752
:1082200040EA01039B0703D009E008C9121F08C0F8
:10823000042AFAD203E011F8013B00F8013B521E78
:10824000F9D27047D2B201E000F8012B491EFBD2EF
:1082500070470022F6E710B513460A460446194651
:10826000FFF7F0FF204610BD421C10F8011B00294B
:10827000FBD1801A704780EA010210B502F000437A
:10828000400022D04A001FD0010E01EB1261C0F362
:108290005600C2F3560240F4000042F40002A0FB74
:1082A000022000047F39140400D0401C50EA124020
:1082B00001D44000491EC2B20C0604EBD010401C91
:1082C0004008802A02D003E0002010BD20F0010009
:1082D000002900DA0020184310BD30B480EA010202
:1082E00002F0004530F0004221F0004013D090B180
:1082F000C30DD40DC2F31601C0F31600E41A41F405
:10830000000140F400027D34914201D3641C00E07E
:108310004900002C02DA30BC002070474FF4000006
:108320000023914201D3891A034340084FEA4101D7
:10833000F7D151B1914202D14FF0004105E002D294
:108340004FF0010101E06FF0010103EBC45028443C
:1083500030BC00F05BBA2DE9FE4F804681EA030095
:10836000C00F0C46009021F0004123F00045B8EB0F
:108370000200A94105D24046214690461C460B46C4
:10838000024623F00040104347D0270DC7F30A00F0
:10839000C3F30A510290401A019040286BDAC3F3EC
:1083A000130040F4801B0098924620B10023D2EBCA
:1083B000030A63EB0B0B01985946C0F1400250468B
:1083C00000F003FA06460D4650465946019A00F061
:1083D0000BFA10EB08006141002487EA115284EA8D
:1083E000E7731A4340D0009A62B3019A012A4FEA18
:1083F000075215DC001B61EB02014FF0004202EA5C
:108400000752CDE90042001C41F5801132462B464F
:1084100000F042FA03B0BDE8F08F40462146F9E78C
:10842000001B61EB0201001C41F5801300185B4149
:108430002018A2F5001747EB030140EAD570B619E2
:108440006D4111E06D084FEA360645EAC0754FEA06
:108450000752001B61EB0201001C41F58011490825
:108460004FEA30000019514132462B4603B0BDE8B7
:10847000F04F00F002BA0098012240000023D0EB38
:10848000020263EBE073009821464FEAE074B8EB18
:10849000000061EB0401E9E783F000435BE781F052
:1084A000004158E72DE9FE4F81EA030404F000443F
:1084B00021F0004100944FF0000B23F0004350EAFC
:1084C00001045ED052EA03045BD0C3F30A54C1F343
:1084D0000A552C44A4F2F3340194A0FB0254C1F3D6
:1084E000130141F48011C3F3130343F4801301FB20
:1084F000024400FB034E840A970A44EA815447EA87
:108500008357A4FB076802958D0A05FB07854FEA90
:10851000932C04FB0C542705029D4FEA065847EAAA
:108520001637B5EB08056EEB070C870E920E47EA7F
:10853000811742EA8312A7FB0201B6EB0B0164EB41
:1085400000042B0D43EA0C335E1844EB1C50DA4652
:108550005146E7FB0201C5F313044FEA0B3343EA2C
:1085600014534FEA0432019C43EA0603A4F10C04BD
:108570000294009CCDE900B400F08EF903B0BDE890
:10858000F08F00200146F9E72DE9F04D81EA030460
:1085900004F0004B21F0004514464FF0000A23F090
:1085A000004150EA050220D054EA01021DD0C5F373
:1085B0000A570246C5F31303C1F31300C1F30A5669
:1085C00040F4801543F48013A7EB0608101BD64631
:1085D00008F2FD3873EB050002D308F1010801E051
:1085E00092185B41B8F1000F03DA00200146BDE8A4
:1085F000F08D00204FF48011064684460EE0171BD4
:1086000073EB050705D3121B63EB050306434CEA26
:10861000010C49084FEA300092185B4150EA01070B
:10862000EDD152EA030012D082EA040083EA050188
:10863000084305D0101BAB4106D20122002306E0FF
:1086400000224FF0004302E06FF0010253101AEBDA
:1086500006004CEB085110EB0A0041EB0B01BDE8A2
:10866000F04D00F00AB996230022114600F0D7B869
:108670000EB5C10F80EAE0700844CA07002140F23D
:1086800033438DE80E000A460B4600F005F903B0AF
:1086900000BD0EB540F2334102910021CDE9001139
:1086A0000A460B4600F0F8F803B000BDC1F30A52C9
:1086B00010B5C1F3130140F2FF3341F480119A4227
:1086C00001DA002010BD40F233439A42A2F2334255
:1086D00003DC5242FFF794FD10BD904010BD00F046
:1086E000004230F000400AD0C10D01F56071C0F3C6
:1086F000160042EA0151C2084007114370470020AA
:108700000146704701F0004330B421F0004150EAC7
:10871000010206D00A0DA2F56072C1F31301002A0E
:1087200002DC30BC00207047440F44EAC104C100A1
:10873000E01830BC00EBC25000F068B830B50B4612
:10874000014600202022012409E021FA02F59D4281
:1087500005D303FA02F5491B04FA02F52844151E55
:10876000A2F10102F1DC30BD2DE9F05F05460020E9
:1087700092469B4688460646814640241BE0284692
:10878000414647462246FFF73BFD53465A46C01A2C
:10879000914110D311461846224600F016F82D1AC2
:1087A00067EB01084F4622460120002100F00DF83A
:1087B00017EB00094E41201EA4F10104DFDC4846FE
:1087C00031462A464346BDE8F09F202A04DB203A82
:1087D00000FA02F1002070479140C2F1200320FA14
:1087E00003F3194390407047202A06DBCB17203A49
:1087F00041FA02F043EAE07306E041FA02F3D040A6
:10880000C2F1200291400843194670470029A8BFD1
:108810007047401C490008BF20F00100704710B4A9
:10882000B0FA80FC00FA0CF050EA010404BF10BC5E
:10883000704749B1CCF1200421FA04F411FA0CF18B
:1088400018BF012121430843A3EB0C01CB1D4FEAC4
:1088500000614FEA102042BF002010BC704700EBBF
:10886000C35010440029A4BF10BC7047401C4900ED
:1088700008BF20F0010010BC704710B5141E73F142
:10888000000408DA401C41F1000192185B411A43D0
:1088900001D120F0010010BD2DE9F04D92469B461C
:1088A00011B1B1FA81F202E0B0FA80F220329046C2
:1088B000FFF78BFF04460F4640EA0A0041EA0B012E
:1088C00053465A46084313D0114653EA010019D0C3
:1088D000C8F140025046FFF793FC05460E4650464D
:1088E00059464246FFF771FF084305D0012004E0D6
:1088F00020463946BDE8F08D0020054346EAE07683
:108900002C4337430A986305E40AA0EB08000022D1
:10891000FD0A44EA47540A3002D500200146E9E73F
:10892000010510196941DDE9084500196941BDE8F3
:10893000F04DA2E770B521F0004303430CD0C1F322
:108940000A550024D5EB040564EB0403D617AD1AD1
:10895000B34102DB0020014670BD201841EB0251FB
:1089600070BDC1F30A52C1F3130140F2FF3341F469
:1089700080119A4202DA00200146704740F23343E8
:108980009A42A2F2334202DC5242FFF739BCFFF7AF
:108990001CBF000030B5041E71F1000404DB4FF071
:1089A0000044404264EB0101141E73F1000405DB36
:1089B0001C464FF00043524263EB04038B4208BF56
:1089C000824230BD30B5041E71F1000404DB4FF06B
:1089D0000044404264EB0101141E73F1000405DB06
:1089E0001C464FF00043524263EB0403994208BF18
:1089F000904230BD064C074D06E0E06840F00103B0
:108A000094E8070098471034AC42F6D3FFF794FB84
:108A1000242401084424010870B58C1810F8015B67
:108A200015F0070301D110F8013B2A1106D110F807
:108A3000012B03E010F8016B01F8016B5B1EF9D10B
:108A40002B0705D40023521E0DD401F8013BFAE791
:108A500010F8013BCB1A921C03E013F8015B01F8FC
:108A6000015B521EF9D5A142D8D3002070BD000091
:108A700070B5044600688168C943C90717D1816889
:108A800021F00101816002F02FF905460AE000BFE4
:108A900002F02AF9401B022804D920688068C043EC
:108AA000C00706D020688068C043C007F0D000200F
:108AB00070BDA06A40F01000A062E06A40F00100C2
:108AC000E062012070BD0000F8B500260446009663
:108AD00000688168C943C9072DD0816841F0010150
:108AE0008160164816490068B0FBF1F000E0401EB6
:108AF00000900028FBD102F0F7F8054616E000BF11
:108B000002F0F2F8401B022810D920688068C043A8
:108B1000C0070BD0A06A40F01000A062E06A40F0ED
:108B20000100E06284F824600120F8BD20688068BC
:108B3000C043C007E4D10020F8BD0000840000203D
:108B400040420F0002484178491C417070470000C4
:108B5000240700202DE9F0412C4C4FF4FA76A1882F
:108B60006088814207D0B04200D96680608800F0FA
:108B7000E3FB6088A08005F047FA0025012748B98B
:108B800005F032FA10B905F0E1F9C0B1022005F0A4
:108B9000F3F8A0B120780028608806D068B10A28D0
:108BA00009D90A386080BDE8F081B04201D20A30AC
:108BB000F8E72770F7E76580F5E72570F3E705F03C
:108BC000F9F940B120780028608801D098B9F4E71D
:108BD000B0420CD3EDE70E4800680088002860889A
:108BE00007D0B0420CD2C0F5FA71052906DD401D50
:108BF000D8E70028D7D0052806D8DCE76680D2E77A
:108C0000A0F5FA710529F9DD401FCBE79C0600208D
:108C1000EC01002010B5002000F08EFB064C012274
:108C20001021204602F05BF820460122BDE81040EA
:108C3000202102F054B80000000C014010B504F0EF
:108C4000ABF900F0D1FF07480021426911800170A3
:108C500000F0E0FB05F080FB05F06EFBBDE8104086
:108C600005F0F2BCDC0100200C4810B5426900217F
:108C700011800170016A42680A60416A82680A6074
:108C8000826A0521118000F12C014FF44872C068FE
:108C9000FFF7C6FABDE8104004F088B9DC010020F7
:108CA00010B50821042000F01DFF0149C86010BD67
:108CB000B005002010B503F0A3FF124CA07121787D
:108CC00081421AD1E079401CC0B2E071022817D36A
:108CD00000F046FB2079AA2803D0BDE8104000F040
:108CE0001DB8217800290BD00120607160780843FD
:108CF0006070BDE8104004F023B920700020E071DE
:108D000010BD0000A806002010B50F2004F018F9CF
:108D100005F0B9F8BDE8104005F0E0B82DE9F043E2
:108D200089B020216846FFF794FA3A4DE868401C64
:108D3000E86029699631884202D9012005F0C2FB1A
:108D40000024344EDFF8D090344F1436A046305D06
:108D50002978884252D1E8682861002005F0B2FBEA
:108D6000325D6878824257F8240021D1401C47F8D0
:108D70002400962844D32AA1684606F019F86846CC
:108D8000FFF772FAC1B2684605F05EFED9F800003E
:108D90000088102808D0112808D01E4810F15C0067
:108DA00050F8240080472BE02148F9E72148F7E7F5
:108DB00008B90120687122461FA1684605F0F8FF36
:108DC0006846FFF751FAC1B2684605F03DFED9F892
:108DD0000000008810280BD011280BD00D483C3023
:108DE00050F824008047D9F80000008820B105E041
:108DF0001548F5E71548F3E704F082FF47F82480AB
:108E0000641CE4B2082CA2D32878687009B0BDE8CD
:108E1000F0830000A8060020EC010020643500204B
:108E20005BB0B4BCFCB3A4B0B45D3A2025640A00C6
:108E300090050020000600205BB0B4BCFCB5E3BB8D
:108E4000F75D3A2025640A0070050020E005002047
:108E500070B5264C42F21071E268521CE2606088E4
:108E6000884201D2401C00E00020608040F2DC50CB
:108E7000824203D9A08840F48070A0804FF496709D
:108E8000B2FBF0F100FB112171B982420CD318A1A1
:108E9000224805F08DFF2148FFF7E6F9C1B21F48CF
:108EA00005F0D2FD04F022FD60880A25B0FBF5F143
:108EB00005FB1100062801D104F0C6FC6088B0FB58
:108EC000F5F105FB110008B904F030FC6088B0FB37
:108ED000F5F105FB1100032806D12078002803D006
:108EE000BDE8704004F016BC70BD000058070020BB
:108EF0005B4552524F525D09C7FDB6AFB0E5CDA8F4
:108F0000D1B6B9CAD5CF20636E743A09256409D6A3
:108F1000D8C6F4B4AEBFDA0A000000006E3C0020F0
:108F200010B50021032000F0F3FD1C4C01216080EE
:108F3000032000F0EDFDA080032805D90322A280C4
:108F40000121104604F0A0FE0221032000F0E0FD04
:108F5000E080072805D90722E2800221032004F0DF
:108F600093FE0421032000F0D3FD2081082805D9B9
:108F7000082222810421032004F086FE052103201B
:108F800000F0C6FD6081012807D901226281052118
:108F9000BDE81040032004F077BE10BD5805002046
:108FA00010B5074C2078AA2803D0BDE8104000F087
:108FB0000FB804F0B1FF04F091FF0020207010BD45
:108FC000AC0600200149022008707047D80100203B
:108FD00070B504F0FFFF002861D104F0DFFF002826
:108FE0005DD12F4DA868401CA86005F09BFE00F0E5
:108FF00047F9287A2B4CC0070FD004F0C3FF002894
:109000004DD02078012140F008002070084605F07E
:10901000A7FABDE8704005F0CBB904F077FC48B979
:109020002078002120F008002070012005F098FA37
:1090300005F0BEF903F0EEFC18B1BDE8704000F099
:10904000E5BC0020686100F07FFE112803D100F02C
:1090500065FA03F091FE04F085FF18B1BDE8704099
:1090600003F05CBD04F0D0FF18B1BDE8704000F023
:1090700071B804F0B9FF18B1BDE8704004F0ACBCA1
:1090800004F098FF18B1BDE8704004F079BC04F01A
:10909000CBFF002803D0BDE8704004F073BE70BD64
:1090A00024070020D801002000B5012004F05CFE58
:1090B00004F058FF00280ED104F0A6FF0E4918B1A5
:1090C00008680188491E05E004F08EFF20B1086899
:1090D0000188891E018000BD04F06CFF18B108688A
:1090E0000188C91EF6E704F09FFF0028F3D0086846
:1090F0000188091FEEE70000EC01002010B50120F7
:1091000004F032FE04F02EFF114918B108680188FE
:10911000C91C17E004F078FF18B108680188891CA1
:1091200010E004F061FF18B108680188491C09E0EB
:1091300004F040FF00280AD104F076FF18B1086857
:109140000188491E0180BDE8104000F0DBB910BD68
:10915000EC01002000B5012004F006FE04F002FF3F
:10916000104920B109680888801C088000BD04F0FF
:109170004BFF18B108680188491C09E004F034FF6E
:109180000028F3D104F016FF20B108680188491EB9
:10919000018000BD04F048FF0028FAD0086801886B
:1091A000891EF5E7EC01002000B5012004F0DCFD8C
:1091B00004F0D8FE104920B109680888401C0880D6
:1091C00000BD04F021FF0028FAD104F00DFF18B112
:1091D00008680188491E05E004F0ECFE20B108682B
:1091E0000188891E018000BD04F01EFF0028FAD00E
:1091F00008680188C91EF5E7EC01002010B50120C0
:1092000004F0B2FD04F0AEFE134918B108680188FD
:10921000091D13E004F0F8FE18B108680188C91CA4
:109220000CE004F0E1FE18B108680188891C05E033
:1092300004F0C0FE20B108680188491C018003E0E9
:1092400004F0F2FE002806D1002004F0B3FABDE8D5
:10925000104000F057B910BDEC010020012000F0D3
:1092600007B8000001480078704700008D06002014
:10927000032801D801490870704700008D060020BE
:1092800010B5FFF7EFFF1F4C01280CD0FFF7EAFFE6
:10929000032827D0FFF7E6FF022820782FD020F000
:1092A0000100207010BD1848016911B18268914217
:1092B00001D9816801618268D10705D12178CB0786
:1092C0000DD021F0010121700169511A78290FD9BF
:1092D000002181600846FFF7CBFF207805E041F0D0
:1092E0000101F0E72078C10706D020F001002070CE
:1092F000BDE8104003F040BD40F00100F7E740F04A
:109300000100CEE7D801002024070020FFF782FCEF
:10931000044801F00EFEFFF71DFC142007F094FD39
:10932000F6E70000681200204FF4FA7000F004B86D
:10933000002000F001B8000070B5074D0446002180
:10934000A86802F0EBFDA86801684C63BDE87040B6
:10935000002102F089BD00009C060020FEE700000D
:1093600010B50B4C6079012807D0022808D00A28D4
:1093700008D904F0EDFF002008E004F0E9FF01E067
:1093800004F0D1FF6079002801D0401C607110BD4D
:10939000A806002010B504460821064802F0BEFDCC
:1093A00004480068C463BDE810400821014802F089
:1093B0005BBD0000BC12002030B5ADF5017D0D464F
:1093C00004464FF400720B496846FEF729FF00205F
:1093D000694608E014F8012B82EA102231F81220C5
:1093E00082EA002080B26D1EADB2F3D20DF5017D90
:1093F00030BD00003821010810B500F08FF8044896
:1094000000214161C180BDE8104003F0B5BC0000FF
:109410002407002070B5314B186A008803F0D7FB91
:1094200010B9186A59680160586A008803F0CFFBC8
:1094300020B1586A408803F0D1FB10B9586A996886
:109440000160986A0188491E082901D3052101801D
:1094500000245C704FF448729C70587800EBC00197
:1094600001EB0010D96801EBC000997830F82100B9
:1094700003F0ADFBF8B1587800EBC00101EB001030
:10948000D96801EBC000997800EB8100408803F0B7
:10949000A5FB80B19878A8B1597801EBC10505EB1F
:1094A0000111DD6805EBC10101EB80014D8831F848
:1094B000021C8D4206D8D868BDE8704007492C319F
:1094C000FEF7AEBE401CC0B298703228C5D35878A3
:1094D000401CC0B258700428BED370BDDC0100200F
:1094E00010B50522064B002133F81140844201D10A
:1094F000012010BD491C89B29142F5D3002010BD56
:109500004C070020014881688161704724070020D2
:1095100001490020487070472407002010B500F072
:1095200021F80C4C0020E16808800B492070607025
:1095300009680880A07804F0CBFB0849084AE07865
:10954000096808801268A1881180BDE8104000F009
:1095500039B80000B00500202C050020F4010020DF
:10956000F801002002480021C1608180704700009E
:109570005807002001490020087070472407002088
:10958000014801F013B8000054170020014801F011
:109590000DB800001017002030B590F8405001249D
:1095A000AC40C56B6C60046863604368102B036853
:1095B00003D099600068C26030BD9A600068C160E5
:1095C00030BD0000054910B58969088004F0F2F843
:1095D000BDE81040022004F0BFBB0000DC01002009
:1095E0007047704710B586B004461422114968468A
:1095F000FEF716FE4FF4E130042C0FD0012C0FD0F3
:10960000022C0BD0032C09D0052C07D0601E042897
:109610000ED8684600EB840050F8040C06B010BD6C
:1096200005490220C9680880034810308068F5E7C2
:109630000020F3E724210108AC01002010B500212F
:10964000032000F04FFA0A4C01212060032000F0B3
:1096500049FAE0600120FFF7C5FF0021042000F077
:1096600041FA60600121042000F03CFAA06010BDC6
:10967000AC01002010B50446800703D5FF2105206A
:1096800004F0C8FFE00705D0FF21BDE8104004202A
:1096900004F0C0BF10BD10B50446400703D500213B
:1096A000072004F05DFFA00703D5FF21072004F089
:1096B000B1FFE00705D0FF21BDE81040062004F00F
:1096C000A9BF10BD10B5FF21052004F0A3FFFF21A5
:1096D000BDE81040042004F09DBF70B50446642826
:1096E00002D94FF0640400E002D34FF0010101E021
:1096F0004FF000014FF0070004F032FF0A25B4FBE1
:10970000F5F0B0FBF5F105FB1101072004F082FF35
:10971000B4FBF5F005FB1041BDE87040062004F0F5
:1097200079BF70B504464FF47A70B4FBF0F00A25A7
:10973000B0FBF5F105FB1101002004F06BFF642084
:10974000B4FBF0F0B0FBF5F105FB1101012004F0D2
:1097500061FFB4FBF5F0B0FBF5F105FB1101022050
:1097600004F058FFB4FBF5F005FB1041BDE8704074
:10977000032004F04FBF10B504464521002004F03B
:1097800021FFC4F30321012004F044FFC4F30311BB
:10979000022004F03FFF04F00F01BDE81040032059
:1097A00004F038BF70B505460A24B0FBF4F0B0FBF6
:1097B000F4F104FB1101002004F02CFFB5FBF4F0E0
:1097C00004FB1051BDE87040012004F023BF10B528
:1097D00004465021052004F0F5FE0A20B4FBF0F108
:1097E00000FB1141BDE81040042004F013BF70B528
:1097F0000446642802D94FF0640400E002D34FF01D
:10980000010101E04FF000014FF0070004F0A8FE55
:109810000A25B4FBF5F0B0FBF5F105FB11010720BB
:1098200004F0F8FEB4FBF5F005FB1041BDE8704014
:10983000062004F0EFBE70B505460A24B0FBF4F034
:10984000B0FBF4F104FB1101022004F0E3FEB5FBD0
:10985000F4F004FB1051BDE87040032004F0DABEC0
:1098600070B50446642802D94FF0640400E002D3C6
:109870004FF0010101E04FF000014FF0070004F04C
:109880006FFE0A250A2C01D2FF2105E0B4FBF5F09A
:10989000B0FBF5F105FB1101072004F0BBFEB4FBA2
:1098A000F5F005FB1041BDE87040062004F0B2BEA3
:1098B00070B505460A24B0FBF4F0B0FBF4F104FBEC
:1098C0001101052004F0A6FEB5FBF4F004FB1051D5
:1098D000BDE87040042004F09DBE72B6FEE70000B3
:1098E00070B50D4E0546304607F09AFD002812D19E
:1098F0000A4C206940F0020020616561206940F057
:1099000040002061304607F08BFD012803D020691C
:1099100020F00200206170BDFFFF5F0000200240C8
:10992000044B0022DA61044A136943F00103136116
:1099300001807047E01700200020024014480022F8
:10994000C168CB06134904D5CA6942F00202CA6154
:109950001022C3685B0705D5CB6943F00103CB61D7
:1099600042F00402C369DB0707D0CB6943F004036C
:10997000CB61C16921F00101C161A2F5807101399A
:1099800001D0C2607047C16921F00101C161704717
:1099900000200240E017002070B5054601F0A4F950
:1099A0000646114C09E0681C07D025B101F09CF96E
:1099B000801BA84201D9032070BDE068C007F2D126
:1099C000E068800601D52020E060E068C00605D48C
:1099D000E069C00702D1E068400703D5FFF7AEFF9A
:1099E000012070BD002070BD0020024010B5064C63
:1099F000E068008800F0E6F820706178814201D9C3
:109A00000120607010BD0000B005002010B5C0B08E
:109A100000F09AF9112802D004F030FE3AE004F088
:109A200095FA002836D002F0EBFF98BB00F086F9DB
:109A30004FF4807188422DD01E4CA278A068801A05
:109A4000B0F5E15F12D96846FEF703FC62781AA10F
:109A5000684605F0ADF96846FEF706FCC1B26846F7
:109A600004F0F2FF00206070207AA070606910B1ED
:109A7000A168884204D9A0686061A17801B9A0708A
:109A80006169A068401AF02804D96078401C6070B1
:109A9000FFF7B2FC03F056FE30B1022004F06CF97F
:109AA00010B1022004F060F940B0BDE8104005F0AC
:109AB000F1B8000024070020B9CAD5CFBBD6B8B48E
:109AC000BCC6CAB1B3ACB9FD31D0A1CAB12CC7E58F
:109AD000B3FDBCC6CAFDC6F73A0925640A000000FA
:109AE00070470000032802D0042805D00AE0B1F531
:109AF000397F07D2044802E0102903D8034800EB5D
:109B00004100704700207047843500204C3B002006
:109B1000032802D0042805D00AE0B1F5397F07D226
:109B2000044802E0102903D8034830F811007047B8
:109B300000207047843500204C3B002070B5092080
:109B400003F066FA124C606800F078F9606800F083
:109B5000D1FB0721606800F02FFB606800F058FA25
:109B6000800503D5606800F055FA05464DB1B5F59E
:109B7000805F06D0002020802846BDE8704000F0BD
:109B8000EFB82088411C21800A28F5D9014870BD12
:109B9000900600200000C8C230B500231A460125F7
:109BA00005FA02F4044206D05B1CDBB2994202D1F2
:109BB000521CD0B230BD521CD2B2102AF0D30020B9
:109BC00030BD0000024610B5002001465FF00104E0
:109BD00004FA01F3134201D0401CC0B2491CC9B2BF
:109BE0001029F5D310BD000000B530210320FFF788
:109BF00079FF3E49086080210320FFF773FF3C494D
:109C0000086082210320FFF76DFF3A4908604FF496
:109C100080710320FFF766FF3749086006210320A3
:109C2000FFF760FF3549086002884FF4FA718A42F5
:109C300000D9018000210320FFF754FF304908605C
:109C400001210320FFF74EFF2E4908600221032067
:109C5000FFF748FF2C49086004210320FFF742FF6B
:109C60002A49086008210420FFF73CFF28490860C2
:109C700009210420FFF736FF264908600A21042045
:109C8000FFF730FF244908600B210420FFF72AFF6B
:109C9000224908600C210420FFF724FF20490860B6
:109CA0000E210420FFF71EFF1E490860102104202A
:109CB000FFF718FF1C49086022210320FFF712FF5D
:109CC0001A49086021210320FFF70CFF184908609A
:109CD00023210320FFF706FF1649086024210320F3
:109CE000FFF700FF1449086000BD000028050020B0
:109CF000FC01002000020020E801002054050020A3
:109D0000480500204C0500205005002004020020DA
:109D10002C050020300500203405002038050020E7
:109D20003C0500204005002044050020EC010020F7
:109D3000F0010020F4010020F80100200148808893
:109D400070470000580700200148006800787047FD
:109D5000EC0100200148C078704700002407002073
:109D60002DE9F041FEF77FFCFEF7B9FC4FF06638B5
:109D700042461C4BFEF796FBFEF7C4FC0546FEF779
:109D8000AEFC4246184BFEF78AFB184E07460C46BF
:109D900031462846FEF76FFAFEF7A1FC3A46234605
:109DA000FEF7F2FBFEF7AEFC3146FEF796FAFEF741
:109DB00096FC06F0CDFA00220D4BFEF7E5FB0D4AAE
:109DC0000D4BFEF7C8FA02460B4600200B49FEF782
:109DD000DBFB42460A4BFEF75FFBBDE8F041FEF7B6
:109DE00091BC000066664A3F66660A40000020415A
:109DF00000DCAE4083DBB5DCE1796B3F0000F03F77
:109E0000661271402DE9F04100250B4E2C460127CA
:109E100006EBC400818856F8340000F05BFF18B9E7
:109E200007FA04F02843C5B2641CE4B2022CEFD355
:109E30002846BDE8F081000040000020F8B500256C
:109E40000446009590F82400012808D0012084F8E9
:109E500024002046FEF70CFE060002D053E002204C
:109E6000F8BDA06A20F4885040F00200A0620220F1
:109E700001F04AF926490968B1FBF0F0400000E022
:109E8000401E00900028FBD12046FEF71DFE2068F2
:109E9000816841F00801816000F026FF074608E074
:109EA00000F022FFC01B0A2803D920688068000741
:109EB00015D4206880680007F2D42068816841F0DA
:109EC0000401816000F010FF074612E000F00CFF73
:109ED000C01B0A280DD920688068400709D5A06AF0
:109EE00020F0020040F01000A06284F8245001200D
:109EF000F8BD206880684007E8D4A06A20F002001E
:109F000040F00100A06284F824503046F8BD000003
:109F100084000020F8B50024009490F82420254601
:109F2000012A12D0012280F824204A681F23072A20
:109F30000DD20668776B521E02EB820293409F435C
:109F40000B6893401F43776319E00220F8BD066851
:109F50000D2A0AD2376BD21F02EB820293409F4335
:109F60000B6893401F43376309E0F76A0D3A02EB31
:109F7000820293409F430B6893401F43F7620A6835
:109F8000072306680A2A0AD3F7680A3A02EB420254
:109F900093409F438B6893401F43F76008E0376905
:109FA00002EB420293409F438B6893401F4337610B
:109FB0000A68102A01D0112A20D1124B02689A4255
:109FC00017D193681B0219D4936843F4000393607C
:109FD0000968102912D10C490C4A0968B1FBF2F149
:109FE00001EB8101490000E0491E00910029FBD1ED
:109FF00004E0816A41F020018162012480F824504C
:10A000002046F8BD002401408400002040420F009B
:10A01000806A70470068C06C704700002DE9F0410D
:10A0200004004FF000057FD0A06A002628B9E66240
:10A0300084F82460204600F081F82046FEF718FDE1
:10A04000A16AC90600D420B1A06A40F01000A06245
:10A050006AE0A16A21F4885141F00201A16233490A
:10A0600023688B42E16904D1B1F5402F01D14FF44F
:10A070000021277B4FF4807C41EA470261680A4354
:10A08000A168614508D0012906D0002194F814E0A8
:10A09000BEF1010F02D00AE06146F7E7C7B1A76A37
:10A0A00047F02007A762E76A47F00107E7625F68A9
:10A0B00027F469470F435F60236899681C4F394054
:10A0C00011439960A16861450BD0012909D00CE0CA
:10A0D000DFF860E0A7690EEB47370F4347F40061F4
:10A0E000E5E7218A0D05A5F580152168CB6A23F4E3
:10A0F00070032B43CB62216889680F4B1940914252
:10A1000008D1E662A16A21F0020141F00101A162D9
:10A11000BDE8F081A06A20F0020040F01000A062CB
:10A12000E06A40F00100E0620120F1E7003C0140FC
:10A13000FDF7E1FF00E0FFFFFE0E1FFF10B586B048
:10A140000021009101910291039100681649884213
:10A1500027D11648816941F480618161816901F4E8
:10A1600080610491816941F004018161816901F09C
:10A1700004010491816941F008018161806903242F
:10A1800000F0080004906020CDE90004694608480A
:10A1900000F0A4FC0220CDE900046946054800F067
:10A1A0009DFC06B010BD00000028014000100240D8
:10A1B00000080140000C01402DE9F84300270D463E
:10A1C0000446009700F090FD804620688168C9052C
:10A1D00008D5A06A40F02000A06284F82470012015
:10A1E000BDE8F8834168C90503D4C06A10F4700F54
:10A1F0002AD0022000F088FF3B490968B1FBF0F645
:10A200002068036939490B424FEA61014FEAA11204
:10A210001FD1C3684FEA611C13EA0C0F19D10369FF
:10A220000B4225D1C068104222D1142023E0681CC3
:10A230000AD02DB100F058FDA0EB0800A84203D9C8
:10A2400020680068800725D5206800688007EED563
:10A250002DE003690B4202D1C168114206D00269A8
:10A2600023490A4206D1C068084203D1542002E0C3
:10A27000292000E0FC204643009816E0681C11D01D
:10A280002DB100F031FDA0EB0800A8420AD90098DA
:10A29000B04207D2A06A40F00400A06284F82470A3
:10A2A00003209DE70098401C0090B042E6D321684F
:10A2B0006FF012000860A06A40F40070A06220688D
:10A2C0008068C0F3424007280CD1207B50B9A06AB7
:10A2D00020F48070A062A06AC00403D4A06A40F099
:10A2E0000100A06200207BE7840000202449922422
:10A2F0004992240070B5044690F8240001280DD03E
:10A30000012084F824002046FEF7DEFB02004FF017
:10A31000000005D084F82400104670BD022070BDF6
:10A32000A16A40F20123994341F48071A1621F4D5B
:10A3300023681F49AB4218D10E6816F4702F14D051
:10A34000A66A46F48016A6620E68760505D5A66A4A
:10A3500026F4005646F48056A662A66AF6040AD58C
:10A36000E66A26F00606E66206E0A66A26F480168D
:10A37000A6625E68E9E7E06284F824006FF00200FC
:10A38000186020688368C3F34243072B05D1A842B5
:10A3900008D1096811F4702F04D0816841F480114C
:10A3A0008160B9E7816841F4A001F9E70028014024
:10A3B0000424014010B590F821100022022905D094
:10A3C0000421816380F82020012010BD01680B6802
:10A3D00023F00E030B6001680B6823F001030B6090
:10A3E00090F84030C46B012101FA03F3636080F8F8
:10A3F000211080F82020104610BD00002DE9F05FEC
:10A4000090F821100024022903D004218163012443
:10A4100085E001680A6822F00E020A6001680A6895
:10A4200022F001020A603F4E3E4FB215DFF8F4C041
:10A43000DFF8F090DFF8ECA0DFF8E8B0DFF8E4E058
:10A440000168783F13011502ACF1640CA9F15009C1
:10A45000AAF13C0AABF1280BAEF1140E4FF48018B0
:10A46000B14227D9B9420ED0614512D049451DD01D
:10A47000514518D0594518D0714501D1424615E0D3
:10A48000294EB14201D1012210E0274E1436B142CB
:10A4900001D110220AE0244E2836B14206D0224AC9
:10A4A0003C32914201D11A4600E02A461E49091F5A
:10A4B0000A602BE0B94213D0614517D0494522D03C
:10A4C00051451DD059451DD0714501D142461AE074
:10A4D000B14202D14FF0807215E0134EB14201D16A
:10A4E000012210E0104E1436B14201D110220AE0D0
:10A4F0000D4E2836B14206D00B4A3C32914201D172
:10A500001A4600E02A46074980394A60012180F84E
:10A510002110002180F82010416B01B188472046AE
:10A52000BDE8F09F800002400804024010B5D0B1A1
:10A5300001680A6822F001020A60026800211160C5
:10A5400002685160026891600268D160144C026830
:10A550001423A24209D2134C2244B2FBF3F292001C
:10A560000264114A0AE0012010BD0D4C64422244ED
:10A57000B2FBF3F292000264094A083AC26390F80F
:10A58000403001229A40C36B5A608162C16201630C
:10A590004163816380F8211080F82010002010BDF5
:10A5A00008040240F8FFFDBF000002402DE9F05F03
:10A5B000C16B0A6801680B68046C4FF0040808FA64
:10A5C00004F8844D844E854FDFF814C2DFF81492EE
:10A5D000DFF814A2DFF814B2DFF814E218EA020F71
:10A5E00065D05FEA437862D50A68920603D40A68A8
:10A5F00022F004020A60DFF8F0814FF48062016803
:10A6000008F1140813011402414524D9A9420DD0C0
:10A61000B1420FD0B9421AD0614515D0494515D085
:10A62000514501D1120312E0594501D104220EE037
:10A63000714501D140220AE06D4D1435A94206D082
:10A640006B4A2832914201D11A4600E022466749FE
:10A65000091F0A6029E0A94213D0B14215D0B942BE
:10A6600020D061451BD049451BD0514502D14FF444
:10A67000800217E0414502D14FF0806212E0594557
:10A6800001D104220EE0714501D140220AE0584D6B
:10A690001435A94206D0564A2832914201D11A46B1
:10A6A00000E022464B4908394A60C16A71E04FF028
:10A6B000020808FA04F818EA020F70D05FEA8378FB
:10A6C0006DD50A68920606D40A6822F00A020A606A
:10A6D000012180F82110DFF810814FF40072016829
:10A6E00008F1140813011402414524D9A9420DD0E0
:10A6F000B1420FD0B9421AD0614515D0494515D0A5
:10A70000514501D1120312E0594501D102220EE058
:10A71000714501D120220AE0354D1435A94206D0F9
:10A72000334A2832914201D11A4600E022462F498D
:10A73000091F0A6029E0A94213D0B14215D0B942DD
:10A7400020D061451BD049451BD0514502D14FF463
:10A75000001217E0414502D14FF0007212E0594556
:10A7600001D102220EE0714501D120220AE0204DE4
:10A770001435A94206D01E4A2832914201D11A4608
:10A7800000E02246134908394A60002180F8201071
:10A79000816A00291CD0BDE8F05F0847FFE7082563
:10A7A000A540154214D01A0712D50A6822F00E02ED
:10A7B0000A6090F84020C36B012101FA02F25A604E
:10A7C000816380F82110002180F82010016BE0E700
:10A7D000BDE8F09F080002401C000240300002402B
:10A7E00044000240580002406C000240080402404D
:10A7F0001C04024030B560B11A4B026814219A4221
:10A8000009D2194B1344B3FBF1F1890001641749D4
:10A810000AE0012030BD134B5B421344B3FBF1F15E
:10A82000890001640F490839C163022180F82110B1
:10A83000136843F6F0718B43F0E901142143D0E92A
:10A8400002452C432143046921434469214384691F
:10A8500021431943116000214163012242770177AE
:10A86000084630BD08040240F8FFFDBF000002406A
:10A8700070B5044690F82000002501280CD0012076
:10A8800084F8200094F821600020012E06D084F87E
:10A8900020000225284670BD022070BD022684F8E3
:10A8A0002160A0632068066826F001060660204645
:10A8B000FEF772FEE06A00282068016802D041F0CD
:10A8C0000E0106E021F0040101602068016841F0FA
:10A8D0000A0101602068016841F001010160D9E7C7
:10A8E000064810B54FF0FF31C16000220261C1601F
:10A8F000C26000F085FB002010BD00000010024087
:10A900000348016941F080010161002070470000A7
:10A91000002002402DE9F05F07461C4888460024CD
:10A92000017E15461E46012909D001218146017686
:10A930004CF2503A5046FFF72FF818B122E00220AF
:10A94000BDE8F09F012F02D0022F00D00427D3468C
:10A95000DFF83CA0220128463146FDF751FC81B2C8
:10A9600008EB4400FEF7DCFF5846FFF715F8DAF86D
:10A97000102022F00102CAF8102018B9641CE4B2B9
:10A98000BC42E7D3002289F81820D9E7E01700205D
:10A9900000200240064900200A69120607D5054A30
:10A9A0004A60054A4A600969090600D501207047D6
:10A9B0000020024023016745AB89EFCD2DE9F0432C
:10A9C00000233E4F0F2574E001229A400A406ED0CA
:10A9D00023F00304E619D6F808809C074FEA147C9C
:10A9E00005FA0CF909EA0804DFF8D480404502D1E1
:10A9F0004FF0000824E0DFF8CC80404502D14FF052
:10AA000001081DE0DFF8C080404502D14FF0020888
:10AA100016E0DFF8B880404502D14FF003080FE0A0
:10AA2000DFF8AC80404502D14FF0040808E0DFF8C1
:10AA3000A480404502D14FF0050801E04FF0060820
:10AA400008FA0CF8A04515D1D6F808C02CEA090C74
:10AA5000C6F808C0204E346894433460341D26681C
:10AA600096432660241D266896432660241D26688A
:10AA700096432660FF2A01D8064601E000F104064D
:10AA80004FEA830401D9A4F12004D6F800C005FAE6
:10AA900004F82CEA080C4FF0040808FA04F84CEA11
:10AAA000080CC6F800C0C46824EA0204C46003F1BC
:10AAB000010331FA03F287D1BDE8F08300000140C1
:10AAC00000080140000C014000100140001401404A
:10AAD00000180140001C0140000401402DE9F84F1E
:10AAE000DFF8C891002409F1040A0AF1040B234697
:10AAF0000F270BF1040ED1E00125A54006EA05025F
:10AB0000AA4276D1DFF8A8C14E68A6EB0C086645CC
:10AB10002BD00DDC032E34D005DC36B3012E19D03A
:10AB2000022E2FD11BE0112E16D0122E2AD119E0A1
:10AB3000B8F5881F19D006DCB8F5803F15D0B8F5F8
:10AB4000801F1FD111E0B8F5001F0ED0B8F5041F0B
:10AB500018D10AE0CB6815E0CB681B1D12E0CB686A
:10AB600008330FE0CB680C330CE08B682BB1012B62
:10AB70004FF0080303D0456104E0042302E00561BF
:10AB800000E00023FF2A01D8064601E000F1040698
:10AB90004FEA840501D9A5F12005D6F8008007FA0F
:10ABA00005FC28EA0C0803FA05F548EA0508C6F88A
:10ABB00000804D68ED0070D53E4DAE6946F001064F
:10ABC000AE61AD6924F0030605F0010500953A4D2C
:10ABD00006EB050CDCF80850A607360F07FA06F856
:10ABE00025EA0805DFF8D480404503D14FF000087E
:10ABF00025E052E0DFF8C880404502D14FF001085F
:10AC00001DE0DFF8C080404502D14FF0020816E099
:10AC1000DFF8B480404502D14FF003080FE0DFF8C1
:10AC2000AC80404502D14FF0040808E0DFF8A08076
:10AC3000404502D14FF0050801E04FF0060808FA40
:10AC400006F848EA0508CCF808804D68D9F8006095
:10AC5000ED034D4601D5164300E096432E604D6846
:10AC6000DAF80060AD03554601D5164300E096437F
:10AC70002E604D68DBF80060ED025D4601D516439D
:10AC800000E096432E604D68DEF80060AD02754628
:10AC900001D5164300E096432E60641C0A681646F0
:10ACA000E2407FF429AFBDE8F88F000000040140C6
:10ACB0000000111000100240000001400008014097
:10ACC000000C014000100140001401400018014038
:10ACD000001C01408068084000D0012070470AB184
:10ACE000016170470904FBE7014880687047000074
:10ACF0007800002070B5040025D094F83D000025B0
:10AD000020B984F83C50204600F0B8F8242084F89C
:10AD10003D002068016821F00101016020680168A0
:10AD200041F4004101602068016821F400410160A4
:10AD300000F080FB4D4A6168914201D84C4900E027
:10AD40004C49884201D2012070BD4B492368B0FBB9
:10AD5000F1F15E6826F03F060E435E606368934241
:10AD600006D94FF4967359434FF47A73B1FBF3F15C
:10AD70002368491C1E6A26F03F0631431962616848
:10AD8000914210D84900401EB0FBF1F2521CC2F3B0
:10AD90000B02042A01D2042022E0B0FBF1F0401C97
:10ADA000C0F30B001CE0A268F2B301EBC10303EB9C
:10ADB0000116431EB3FBF6F35B1C43F480431B05F3
:10ADC00049D092B301EBC10202EB0111401EB0FB6E
:10ADD000F1F0401CC0F30B0040F4804040F4004010
:10ADE0002168CA694CF6FF739A431043C861D4E9DD
:10ADF000071001432068026822F0C002114301607D
:10AE0000D4E9030101432068826848F2FF339A4382
:10AE100011438160D4E9050108432168CA6822F022
:10AE2000FF021043C86001E00EE016E020680168F0
:10AE300041F0010101602564202084F83D00256374
:10AE400084F83E50002070BD01EB4106431EB3FB69
:10AE5000F6F35B1CB3E70120C2E701EB4101401EA2
:10AE6000B0FBF1F0401CC0F30B00B7E7A086010077
:10AE700080841E0000093D0040420F0010B586B0DE
:10AE80000021009101910291039100680F498842CD
:10AE90001AD10F4CA06940F00800A061A069694672
:10AEA00000F008000490C0200090122001900320C0
:10AEB00003900848FFF712FEE06940F40010E061DB
:10AEC000E06900F40010049006B010BD005400408A
:10AED00000100240000C014070B5040011D0216840
:10AEE0004CF6CC400860216845F255500860D4E922
:10AEF000000141602168A0688860FFF7F5FE054603
:10AF00000DE0012070BD00BFFFF7EEFE401B2728BB
:10AF100005D92068C068800701D0032070BD206873
:10AF2000C0688007F0D121684AF6AA200860002096
:10AF300070BD00684AF6AA21016000207047000039
:10AF400002488168027811448160704778000020CF
:10AF5000074810B5016841F010010160032000F0BE
:10AF6000C1F80F2000F006F800F04CF8002010BDEA
:10AF70000020024030B505461C4887B0816941F485
:10AF800000618161806906A900F40060009001A859
:10AF900000F030FA00F05EFA1549164AB0FBF1F104
:10AFA0001548491E0260416040F2E7320021C0E9C5
:10AFB00003218160816100F063FC040012D10E481E
:10AFC00000F0EAFC04000DD1192000F05DF8102D0E
:10AFD00007D200222946192000F064F807480560CE
:10AFE00000E0012407B0204630BD00000010024000
:10AFF00040420F00002C0140981700207C000020E8
:10B00000704700000F4808B5816941F00101816176
:10B01000816901F001010091C16941F08051C16174
:10B02000C069002200F0805000900F21901E00F0B7
:10B0300039F80548416821F0E06141F00071416054
:10B0400008BD00000010024000000140002809DB9C
:10B0500000F01F02012191404009800000F1E02032
:10B06000C0F88012704700280DDB00F01F0201219C
:10B0700091404009800000F1E020C0F88011BFF34A
:10B080004F8FBFF36F8F7047002809DB00F01F025E
:10B09000012191404009800000F1E020C0F800113A
:10B0A00070470000F0B40E4B1B680C46C3F302233C
:10B0B000C3F10705042D00D90425191D072901D264
:10B0C000002300E0DB1E012606FA05F1491E21409F
:10B0D00099409E40761E16403143F0BC03F07CBE82
:10B0E0000CED00E0064900F0070208684FF6FF0388
:10B0F000184040EA0220034A1043086070470000ED
:10B100000CED00E00000FA0510B52CA401461DCCA2
:10B1100086B08DE81D002DA02D4C00680490002005
:10B1200004292FD00BDC01292FD0022928D100F0CF
:10B1300091F96168C1F38131491C49001EE0082979
:10B1400020D010291CD161682268D20118D5C1F322
:10B150008342C9031DF8020009D5616804AAC1F33E
:10B160004041515C1B4AB2FBF1F1484301E01A49EE
:10B1700048436168490203D440000321B0FBF1F069
:10B1800006B010BD00F076F9FAE7226AC2F3012199
:10B19000012903D1920701D5C803F1E7022905D19E
:10B1A000626A920702D549F64040E9E70329E7D1F0
:10B1B00021688903E4D54FF22440E1E70203040546
:10B1C000060708090A0B0C0D0E0F101001020000F3
:10B1D0000010024000127A0000093D002DE9F843FA
:10B1E00005460078354CC00754D0E0690026C00001
:10B1F00008D4E06940F08050E061E069012600F089
:10B20000805000902E480168C90512D4016880461C
:10B2100041F480710160FFF767FD074605E000BF5C
:10B22000FFF762FDC01B642823D8D8F80000C005D2
:10B23000F6D5206A10F4407021D0A98801F440713D
:10B2400081421CD0206A1F49012220F440700A600C
:10B2500000220A602062C00711D0FFF745FD0746B3
:10B2600041F2883808E000BFFFF73EFDC11B4145B1
:10B2700002D90320BDE8F883206A8007F4D5206A4C
:10B28000696820F44070084320621EB1E06920F034
:10B290008050E0612878800705D56068A96820F4AF
:10B2A0004040084360602878C00605D56068696939
:10B2B00020F48000084360600020DBE700100240BB
:10B2C00000700040400442422DE9F0470F4605005F
:10B2D00061D0434E306800F00700B84209D23068B0
:10B2E00020F0070038433060306800F00700B842B3
:10B2F00051D128683B4C810712D5400703D56068BF
:10B3000040F4E06060602878000703D5606840F48E
:10B31000605060606068A96820F0F00008436060D9
:10B320002878C00728D06868012810D02168022832
:10B3300010D0890700292EDA616821F0030101434A
:10B340006160FFF7D1FC804641F288390DE0216849
:10B350008903EFE78901EDE7FFF7C6FCA0EB0801E1
:10B36000494502D90320BDE8F0876068696800F0AC
:10B370000C00B0EB810FEFD1306800F00700B8424D
:10B380000BD9306820F0070038433060306800F097
:10B390000700B84201D00120E5E72878400705D52D
:10B3A0006068E96820F4E06008436060287800077E
:10B3B00006D56068296920F4605040EAC1006060E9
:10B3C00000F058F86168084AC1F30311515CC840A5
:10B3D0000649086006480068FFF7CCFD0020C2E778
:10B3E00000200240001002400C1F010884000020D1
:10B3F0007C0000200F2202600C4A536803F0030314
:10B400004360536803F0F0038360536803F4E06320
:10B41000C36052684FF4E06303EAD2020261044859
:10B42000006800F00700086070470000001002404C
:10B43000002002400448054900684968044AC1F3F5
:10B440000221515CC8407047840000200010024077
:10B450001C1F01080448054900684968044AC1F3F3
:10B46000C221515CC8407047840000200010024097
:10B470001C1F010812A185B00FC98DE80F0014A090
:10B48000144A006804905168134801F00C03042B1F
:10B4900010D0082B0ED1C1F38343C9031DF803005C
:10B4A0000AD5516804AAC1F34041515C0A4A50438D
:10B4B000B0FBF1F005B0704708494843FAE70000D7
:10B4C00002030405060708090A0B0C0D0E0F1010E5
:10B4D000010200000010024000127A0000093D0045
:10B4E0002DE9F84F040070D02078C04DC00749D036
:10B4F0006868C0F38100012807D06868C0F3810044
:10B50000022809D16868C00306D52868800339D5A8
:10B5100060680028E7D035E06068B0F5803F0BD068
:10B5200010B1B0F5A02F11D0286820F48030286029
:10B53000286820F4802002E0286840F480302860E9
:10B54000606890B1FFF7D0FB06460AE0286840F437
:10B5500080202860F0E700BFFFF7C6FB801B64284F
:10B5600073D828688003F7D50CE0FFF7BDFB0646CB
:10B5700005E000BFFFF7B8FB801B6428F0D82868FF
:10B580008003F7D420789A4E80074FF001094FF0DE
:10B59000000839D5686810F00C0F07D06868C0F350
:10B5A0008100022809D16868C00306D42868800792
:10B5B00014D52069012808D110E02069B0B1C6F87F
:10B5C0000090FFF791FB074605E00AE1FFF78CFBCF
:10B5D000C01B0228C4D828688007F7D5286861698D
:10B5E00020F0F80040EAC10028600DE0C6F80080B5
:10B5F000FFF77AFB074604E0FFF776FBC01B022843
:10B6000023D828688007F7D4207800072CD57948FC
:10B61000A169D9B1C0F80090FFF766FB074604E0C6
:10B62000FFF762FBC01B02280FD8686A8007F7D5B6
:10B6300071484FF4FA510068B0FBF1F0009000BF80
:10B640000098411E0091FAD20EE080E0C0F8008020
:10B65000FFF74AFB074604E0FFF746FBC01B022842
:10B6600075D8686A8007F7D42078400760D5E86904
:10B670000027C00008D4E86940F08050E861E8691C
:10B68000012700F0805000905C480168C90513D480
:10B690000168834641F480710160FFF725FB824613
:10B6A00006E000BFFFF720FBA0EB0A0064284ED89D
:10B6B000DBF80000C005F5D5E06801280AD008B124
:10B6C000052813D0286A20F001002862286A20F09B
:10B6D000040002E0286A40F001002862E06841F2BC
:10B6E000883B98B1FFF700FB82460BE0286A40F0E8
:10B6F00004002862EEE700BFFFF7F6FAA0EB0A01AC
:10B7000059455AD8286A8007F6D50CE0FFF7ECFABD
:10B71000824605E0FFF7E8FAA0EB0A0159454CD84C
:10B72000286A8007F6D41FB1E86920F08050E861EC
:10B73000E06988B36968C1F38101022944D0022815
:10B74000C6F8608004D0FFF7CFFA044638E034E052
:10B75000FFF7CAFA074604E0FFF7C6FAC01B022843
:10B760002BD828688001F7D4206AB0F5803F05D136
:10B770006868A16820F4003008436860D4E90801D3
:10B780000843696821F4741108436860C6F8609042
:10B79000FFF7AAFA044606E025E000BFFFF7A4FA87
:10B7A000001B022809D828688001F7D51BE000BFDC
:10B7B000FFF79AFA001B022802D90320BDE8F88F90
:10B7C00028688001F4D40EE00128F7D06868226A66
:10B7D00000F48031914204D1616A00F47010884213
:10B7E00001D00120EAE70020E8E700000010024055
:10B7F0000000424280044242840000200070004069
:10B800007047704770B590F83C20012A2CD0012475
:10B8100080F83C40022280F83D2003685A689D6809
:10B8200022F070060A6832435A60104B02689A424E
:10B830000ED00F4B9A420BD0B2F1804F08D00D4B77
:10B840009A4205D00C4B9A4202D00C4B9A4204D13A
:10B85000496825F080031943916080F83D4000213C
:10B8600080F83C10084670BD022070BD002C0140DD
:10B87000003401400004004000080040000C00407B
:10B8800010B5040003D094F83D0010B107E001208A
:10B8900010BD002084F83C00204600F01FF8022074
:10B8A00084F83D00211D206802F0F2FB012084F89D
:10B8B000460084F83E0084F83F0084F8400084F895
:10B8C000410084F8420084F8430084F8440084F87E
:10B8D000450084F83D00002010BD000008B5016857
:10B8E0002848B1F1804F0BD0274A914210D1C1694D
:10B8F00041F00201C161C06900F00200009008BD82
:10B90000C16941F00101C161C06900F00100F5E7C2
:10B910001E4A91420ED1C16941F00401C161C06962
:10B92000002200F00400009005211E20FFF7BAFB62
:10B930001E2022E0164A91420ED1C16941F0080151
:10B94000C161C069002200F008000090052132208A
:10B95000FFF7A8FB322010E00E4A9142CFD1C16917
:10B9600041F01001C161C069002200F01000009098
:10B9700005213620FFF796FB3620BDE80840FFF78B
:10B9800083BB00000010024000040040000800409B
:10B99000000C00400010004090F83D10012901D03B
:10B9A00001207047022180F83D100168CA6842F00A
:10B9B0000102CA6000680E4988420ED00D498842D3
:10B9C0000BD0B0F1804F08D00B49884205D00B490D
:10B9D000884202D00A49884204D1816801F00701F7
:10B9E000062903D0016841F0010101600020704781
:10B9F000002C0140003401400004004000080040D9
:10BA0000000C00400168CA6822F00102CA600168A7
:10BA10000A6A41F211131A4207D10A6A9B101A42AC
:10BA200003D10A6822F001020A60012180F83D106A
:10BA30000020704770B5044690F83C00012817D0EC
:10BA4000012584F83C50022084F83D00206882687B
:10BA500022F0770222F47F4282600868502830D0BA
:10BA60000DDC20284DD005DC98B310283BD148E0F0
:10BA7000022070BD302844D0402834D139E06028FD
:10BA800028D0702806D0B0F5805F2CD0B0F5005FCC
:10BA900029D10AE0CB68D1E90121206802F04BFBF3
:10BAA0002068816841F0770109E0CB68D1E9012184
:10BAB000206802F040FB2068816841F48041816089
:10BAC00011E0CA684968206802F00AFC5021206829
:10BAD00007E016E0CA684968206802F012FC60219D
:10BAE000206802F032FB84F83D50002084F83C00CE
:10BAF00070BDCA684968206802F0F2FB40212068E6
:10BB0000EFE7226801461046EBE7704770B5044640
:10BB1000006801694FF00005C943890715D4C16861
:10BB2000C943890711D4E91E0161012020772068EB
:10BB300080698007204602D0FFF7E7FF04E000F0AD
:10BB4000D3F8204600F08EF9257720680169C943B3
:10BB5000490717D4C168C943490713D46FF00401DA
:10BB60000161022020772068806910F4407F204620
:10BB700002D0FFF7CAFF04E000F0B6F8204600F05C
:10BB800071F9257720680169C943090716D4C1688E
:10BB9000C943090712D46FF008010161042020771E
:10BBA0002068C0698007204602D0FFF7AEFF04E09E
:10BBB00000F09AF8204600F055F9257720680169D1
:10BBC000C943C90617D4C168C943C90613D46FF065
:10BBD00010010161082020772068C06910F4407FBF
:10BBE000204602D0FFF791FF04E000F07DF82046E8
:10BBF00000F038F9257720680169C943C90708D1E1
:10BC0000C168C943C90704D1891E0161204600F0FB
:10BC1000DDF920680169C943090609D4C168C9432F
:10BC2000090605D46FF0800101612046FFF7E8FDA9
:10BC300020680169C943490609D4C168C943490656
:10BC400005D46FF040010161204600F0E1F9206861
:10BC50000169C94389060BD4C168C943890607D461
:10BC60006FF0200101612046BDE87040FFF7C9BDBB
:10BC700070BD000000B585B00021009101910291D6
:10BC80000391026814480221B2F1804F14D0134B83
:10BC90009A420FD1826942F0080282618069039161
:10BCA00000F0080004900120CDE9000169460C482D
:10BCB000FEF714FF05B000BD826942F00402826104
:10BCC0008069039100F0040004900320CDE9000195
:10BCD00069460448ECE70000001002400004004000
:10BCE000000C014000080140704770B50D4604008B
:10BCF00003D094F83D0010B107E0012070BD002092
:10BD000084F83C00204600F01BF8022084F83D0037
:10BD1000211D206802F0BCF92068016821F00801AB
:10BD2000016054F8460B016829430160012004F8C2
:10BD30001F09E0752076E0762077A075002070BDA1
:10BD4000704770B5044690F83C000D4601280AD0B3
:10BD5000012084F83C0042B1042A18D0082A2AD0D5
:10BD60000C2A4DD139E0022070BD206802F0F6F9AE
:10BD70002068816941F0080181612068816921F0B2
:10BD800004018161206881692A69114311E02068FA
:10BD900002F014FA2068816941F400618161206831
:10BDA000816921F480618161206881692A6941EAA1
:10BDB0000221816124E0206802F036FA2068C1691E
:10BDC00041F00801C1612068C16921F00401C1612D
:10BDD0002068C1692A69114311E0206802F058FA0D
:10BDE0002068C16941F40061C1612068C16921F422
:10BDF0008061C1612068C1692A6941EA0221C1618B
:10BE0000002084F83C0070BD10B5040003D094F805
:10BE10003D0010B107E0012010BD002084F83C0077
:10BE2000204600F01EF8022084F83D00211D206805
:10BE300002F02EF9012084F8460084F83E0084F8D0
:10BE40003F0084F8400084F8410084F8420084F800
:10BE5000430084F8440084F8450084F83D00002045
:10BE600010BD70477047000010B50446022249B16A
:10BE700004290ED0082913D094F84100012816D0C7
:10BE8000012010BD94F83E000128F9D184F83E202D
:10BE90000FE094F83F000128F2D184F83F2008E039
:10BEA00094F840000128EBD184F8402001E084F8A8
:10BEB00041200122206802F031F913492068134A19
:10BEC000884201D0904203D1436C43F40043436461
:10BED000206888420DD090420BD0B0F1804F08D03E
:10BEE0000B49884205D00B49884202D00A49884252
:10BEF00004D1816801F00701062903D0016841F0EF
:10BF000001010160002010BD002C014000340140FF
:10BF10000004004000080040000C004030B504461A
:10BF200000680D0006D0042D08D0082D38D00C2D47
:10BF300008D139E0C16821F0020102E0C16821F0B6
:10BF40000401C16000222946206802F0E7F81D4B79
:10BF500041F2111120688A10984202D01A4B98427F
:10BF600009D1036A0B4206D1036A134203D1436C21
:10BF700023F4004343642068036A0B4206D1016A3C
:10BF8000114203D1016821F00101016001207DB15E
:10BF9000042D10D0082D11D084F84100002030BDB0
:10BFA000C16821F00801CCE7C16821F01001C8E7A1
:10BFB00084F83E00F2E784F83F00EFE784F84000A1
:10BFC000ECE70000002C01400034014010B50446AD
:10BFD00000680B49884201D1FEF7B2FF0949206889
:10BFE000884201D105F076F907492068884206D1D8
:10BFF00002F0AEF9BDE810400448FFF703BD10BDE4
:10C00000002C014000080040001000409413002064
:10C01000704738B5044690F83E0020281CD181B105
:10C020007AB194F83C00012816D0012084F83C0035
:10C030002063204602F080FD002803D1216B0129F6
:10C0400001D0012038BD21680A684A680092CA6898
:10C0500042F01002CA6038BD022038BD704710B5EA
:10C06000040014D0242084F83D002068C16821F425
:10C070000051C160204600F081F90020206484F85E
:10C080003D0084F83E0044F8300F207310BD0120BD
:10C0900010BD00007CB5054600208DF80000286822
:10C0A0000168C943090725D401684068019001224D
:10C0B0006946284600F071FB0F482C6884420AD17B
:10C0C000861531460D48FCF7C4F820686068324692
:10C0D0000A4901900BE00A4884420BD140210948EB
:10C0E000FCF7B7F8206860680649402201902846AE
:10C0F00000F03EFB7CBD0000004800406E3B00208D
:10C10000004C0040E8320020F8B502680446106890
:10C11000D168536910F00F0F4FF0000553D003F0B2
:10C12000010601F49077374360D0C20705D0CA05F5
:10C1300003D5226C42F001022264420705D5DA07DA
:10C1400003D0226C42F002022264820705D5DA078E
:10C1500003D0226C42F004022264020707D501F0EA
:10C160002002324303D0226C42F008022264226C87
:10C17000002A3AD0800604D5880602D5204602F06F
:10C1800008FC20684069216CC0F38010090700D4C6
:10C1900038B3204602F0DCFB2068416949061BD514
:10C1A000416921F040014161A06BA8B15949416347
:10C1B000A06BFEF723F9002817D0A06B416B01B0EC
:10C1C000BDE8F0400847830610D58B060ED5204603
:10C1D000BDE8F84002F0DDBB2046BDE8F840FFF7BF
:10C1E00059BF2046FFF756FF2564F8BD266B202374
:10C1F000012E52D1C60650D5CE064ED510685068D5
:10C200000090506940062AD5A16B08684068000478
:10C21000000CEAD0A68D8642E7D9E08588692028FF
:10C2200018D0D06820F48070D0602068416921F077
:10C23000010141612068416921F04001416184F8B8
:10C240003E3025632068C16821F01001C160A06BF9
:10C25000FEF7B0F8A08DE18D401A81B219E0A08DF3
:10C26000E18D401A81B2E08D0028BED00029BCD0FB
:10C27000D06820F49070D0602068426922F00102FA
:10C28000426184F83E3025632068C26822F01002C3
:10C29000C2602046FFF7E2FEF8BD05062BD50D066D
:10C2A00029D594F83D002128F6D1A068B0F5805F2B
:10C2B00001D12069B0B1206A411C21622168007857
:10C2C0004860E08C401E0004000CE084E4D120684B
:10C2D000C16821F08001C1602068C16841F040015F
:10C2E000C160F8BD206A0088C0F308005060206A71
:10C2F000801C2062E5E74006F3D54806F1D5D168F9
:10C30000204621F04001D16084F83D3000F047FB29
:10C31000F8BD000085E8000870B5040004D094F86A
:10C320003D00002510B106E0012070BD84F83C50AE
:10C33000204600F089F8242084F83D002068C16878
:10C3400021F40051C160204602F09AFB2068016987
:10C3500021F4904101612068416921F02A01416185
:10C360002068C16841F40051C1602564202084F830
:10C370003D0084F83E00002070BD000070B504460A
:10C38000274D0368274A28484FF44061AB420AD141
:10C39000D36923F40023D361FEF710FBA06BFEF7F3
:10C3A000C5F8342037E0214DAB420CD1D16921F4DE
:10C3B0008011D1619914FEF701FB04211C48FEF79E
:10C3C000FDFA352027E01B4D1B48AB4209D191698E
:10C3D00021F4804191614FF4C061FEF7EFFA25200E
:10C3E00019E0164DAB4208D1D16921F40031D16179
:10C3F0000C21FEF7E3FA26200DE0114883420ED10E
:10C40000D06920F48020D0610E48FEF7D7FAA06BE7
:10C41000FEF78CF82720BDE87040FEF724BE70BD03
:10C42000004C00400010024000100140005000404D
:10C430000014014000380140000801400044004061
:10C4400000480040000C01402DE9F04F85B0002469
:10C450000094019402940394054601688848874A31
:10C460000615DFF820924FF002084FF4006A4FF0F3
:10C47000800B914237D1C16941F40021C161C1698A
:10C4800001F400210491816941F01001816180690A
:10C49000CDE9006800F01000CDE903806946484608
:10C4A000FEF71CFBCDF800A0CDE9014869464846DF
:10C4B000FEF714FB754E7448C6E90004C6E9024B4A
:10C4C00034617461B4613046F461FEF793F908B1E8
:10C4D000FDF703FAAE630022062134207562FEF7F1
:10C4E000E1FD342032E06A4A0427914233D1C16928
:10C4F00041F48011C161C16901F480110491816925
:10C5000041F010018161816901F01001049181699C
:10C5100041F0200181618069694600F020000490AB
:10C520009014CDE900084846CDF80C80FEF7D6FA05
:10C53000CDE9007469465748CDF80880FEF7CEFA79
:10C54000002205213520FEF7ADFD3520FEF79CFDCC
:10C5500005B0BDE8F08F504ADFF84091914227D1F5
:10C56000816941F480418161816901F480410491D4
:10C57000816941F0040181618069694600F004002D
:10C5800004905015CDE900084846CDF80C80FEF720
:10C59000A5FACDE9006469464846CDF80880FEF763
:10C5A0009DFA002206212520FEF77CFD2520CDE7FF
:10C5B0003B4A914224D1C16941F40031C161C16952
:10C5C00001F400310491816941F0040181618069C5
:10C5D000CDE9007800F00400CDE9038069464846C3
:10C5E000FEF77CFA08208DE8110169464846FEF7FF
:10C5F00075FA002205212620FEF754FD2620A5E726
:10C60000284A9142A4D1C16941F48021C161C16924
:10C6100001F480210491816941F008018161806900
:10C62000CDE9006800F00800CDE903801E4E6946A0
:10C630003046FEF753FACDF800A0CDE9014869462F
:10C640003046FEF74BFA114E18484436C6E900044E
:10C65000C6E9024B34617461B4613046F461FEF79F
:10C66000C9F808B1FDF739F9AE630022052127208A
:10C670007562FEF717FD272068E70000004C0040B8
:10C68000001002400010014030040240101700204A
:10C6900000500040001401400038014000080140F3
:10C6A0000044004000480040000C014030000240BF
:10C6B0002DE9F84F044690F83E009A4616460D467E
:10C6C000202853D1FDB1F6B194F83C0001284DD09B
:10C6D000012084F83C0000272764222084F83E00D3
:10C6E0002763FEF701FBA6858146E685A0684FF427
:10C6F0008058404501D1206940B12E465FF00005C9
:10C7000084F83C7027E00120BDE8F88F0026F7E7A9
:10C710004B46002220212046CDF800A002F05FFA0F
:10C7200008B10320F0E726B1A06840451BD038B11E
:10C7300008E020684068C0F3080025F8020B07E015
:10C74000206980B12068406800F07F0006F8010B86
:10C75000E08D401EE085E08D0028D9D1202084F8AE
:10C760003E000020D0E720684068EFE70220CBE7DA
:10C7700090F83E30202B0ED159B152B190F83C3098
:10C78000012B08D0012380F83C300023036302F022
:10C79000D3B9012070470220704790F83E30202B1B
:10C7A0000ED159B152B190F83C30012B08D0012381
:10C7B00080F83C300023036302F0F6B90120704793
:10C7C000022070472DE9F843064600683F49884239
:10C7D00003D13F48007804F04DFE3E4930683E4C9E
:10C7E00000254FF00108884229D1A0883849020469
:10C7F00001F1580117D401F1A8024304127804D5BD
:10C800000A2A0CD140F4004029E00D2A25D0C0F3BB
:10C810000D03401C80B2CA54A080632800D9A580B3
:10C82000A08800040BD584F8008008786070A08888
:10C83000C0F30D0126485830FBF70BFDA5802749B2
:10C840003068274F88422BD1608801041CD44104F2
:10C85000397809D50A2913D103E040F48040A0803B
:10C86000DEE740F400402CE00D2928D0C0F30D0293
:10C870001B4B401CA83B80B299546080632800D9B0
:10C880006580608800040BD584F8008060881449B6
:10C89000C0F30D02A83901F58A70FBF7C1FC658071
:10C8A0001049306888420ED10D4814300068016884
:10C8B000406800903878BDE8F84302F015BA40F4BB
:10C8C00080406080DDE7BDE8F88300000044004060
:10C8D000201400200048004070000020004C004060
:10C8E000DC15002000500040704700002DE9F8439F
:10C8F000044690F83D001F4616460D4620284CD1B0
:10C90000C5B1BEB194F83C00012846D0012084F89E
:10C910003C004FF00008C4F84080212084F83D001E
:10C92000FEF7E2F9A6848146E684A068B0F5805F50
:10C9300003D004E00120BDE8F883206928B12E4629
:10C940005FF0000584F83C800EE00026FAE78021C5
:10C95000204602F044F9A0B9AEB116F8010B2168E7
:10C960004860E08C401EE084E08C4B464FF00002B3
:10C9700000970028EBD14FF04001204602F02FF93C
:10C9800030B10320D7E735F8020BC0F30800E6E723
:10C99000202084F83D000020CDE70220CBE770473F
:10C9A000FEE7000010B590B1012814D0212821D154
:10C9B000114CB4F8420010B1002001F079F9B4F83C
:10C9C0004400002816D1BDE8104001F087BABDE848
:10C9D000104000F081BE094C20680068C16821F455
:10C9E0000051C16000F0C4FD20680068C16841F4D6
:10C9F0000051C16010BD000084350020A40100205A
:10CA000003484078022801D3012070470020704776
:10CA10002407002030B589B020216846FBF719FCB7
:10CA2000FDF78CF90446FDF789F80546FBF757FE3C
:10CA300002460B462CA1684602F0BAF96846FBF79D
:10CA400013FCC1B2684601F0FFFF2D48854202D1B8
:10CA500044F0400422E02B48854202DB44F02004ED
:10CA60001CE0294929488D4209DB8168092901D246
:10CA7000491C0AE0FDF76EF980B902200CE0244958
:10CA80008D420BDC816811B10021816006E0FDF769
:10CA900061F9022802D1002001F02CF91D4D29680E
:10CAA0000888A04202D000B13CB10C802868008800
:10CAB000002800D0012009B030BD4FF48074A0429E
:10CAC00003D100BFFCF798FCF0E713480078012879
:10CAD000F0D1FFF795FF18B128680088A042E9D18E
:10CAE000FCF730F8EEE70000BBFACFE4CEC2B6C8E0
:10CAF000A3BA25302E336620A1E343200A000000AC
:10CB00000000C8C20000A04200008C42B005002016
:10CB1000000082422C050020DA01002070B50120BF
:10CB200001F02AF9214C48B1A169A068401AB0F57A
:10CB3000E15F3AD9BDE8704001F0D0B92078401CDF
:10CB4000C0B2207006280BD2C10705D0012803D936
:10CB5000BDE8704000F096B9BDE8704000F00CB937
:10CB600002F0A8F8124D286800880A2801D800F0C1
:10CB700070FD28680F4D0088062804D10E482968EA
:10CB8000006800884880022001F0E6F80B482A6817
:10CB90000168098811800068007800F00BFE00F041
:10CBA000EBF8FCF7D7FA0020207070BD24070020B6
:10CBB000EC01002028050020F8010020F4010020ED
:10CBC000401E032801D80120704700207047143808
:10CBD000502801D8012070470020704741F25C7155
:10CBE0001438884201D80120704700207047FCF7B4
:10CBF0008BF8FCF75FF8142004F026F9F9E7000041
:10CC00002DE9F0410D4800210D4E057801700C46CC
:10CC10005FF0010706EBC400818856F83400FEF788
:10CC200059F818B907FA04F02843C5B2641CE4B2F5
:10CC3000042CEFD32846BDE8F081000071000020ED
:10CC4000C40600202DE9F0411D4617460C46C0B22F
:10CC5000FCF706FE3C26B4FBF6F06421B0FBF1F2D3
:10CC600001FB1200FCF79EFDB4FBF6F006FB104042
:10CC7000FCF7E1FD0DB1284603E001F017F918B10A
:10CC80000020FCF7A4FD02E0FF20FCF7F3FC38468F
:10CC9000BDE8F041AFF3008010B5044600F001019B
:10CCA000042001F05DFC04F00201052001F058FCB5
:10CCB00004F00401032001F053FC04F008010120FA
:10CCC00001F04EFC04F01001BDE81040022001F01C
:10CCD00047BC000070B514460D46064601F036F913
:10CCE00000281ED0FCF782FE0122D1030D48FDF77B
:10CCF000F6FF04F0B7FC3046FCF7DAFD2846FCF7F7
:10CD000076FD094800EB440030F8020CFCF733FDD7
:10CD10000020FFF7C1FF01F04BFBBDE8704004F0BD
:10CD2000C1BC70BD00080140C005002070B50446BC
:10CD3000FF20FCF7B0FC3C25B4FBF5F06421B0FB10
:10CD4000F1F201FB1200FCF72DFDB4FBF5F005FB41
:10CD50001040BDE87040FCF76EBD000010B5002229
:10CD60004FF400410348FDF7BAFFBDE8104001F061
:10CD7000DDBB00000008014010B50122D1031048BE
:10CD8000FDF7ADFF01F00AF9002818D101F0DEF837
:10CD9000002814D104F066FC0A480D4A0068127895
:10CDA0000378094800680188084800680088FFF790
:10CDB00049FF01F0FDFABDE8104004F073BC10BD5E
:10CDC00000080140F0010020F8010020F4010020DB
:10CDD000D801002070B50D46044601F0DFF80028A8
:10CDE0001ED00122D1030F48FDF779FF04F03AFC71
:10CDF0002046FCF772FC2846FCF793FCFCF762FC2B
:10CE0000042C0BD0052C09D05FF00000FFF744FF85
:10CE100001F0CEFABDE8704004F044BC1020F5E704
:10CE200070BD00000008014070B5044604F01AFC13
:10CE30000021072001F094FB4121072001F0C2FBF3
:10CE40002146062001F0E6FB0D4C3C2564212068BC
:10CE50000088B0FBF5F0B0FBF1F201FB1200FCF72B
:10CE6000A1FC20680088B0FBF5F105FB1100FCF780
:10CE7000E2FC01F09DFABDE8704004F013BC000034
:10CE8000F801002010B504F0EDFB084809490068DE
:10CE900009780278064800680088FFF747FF01F02C
:10CEA00087FABDE8104004F0FDBB0000F00100204F
:10CEB000F8010020D801002070B50122D1031E48DE
:10CEC000FDF70DFF5321072001F07CFB4A210620CE
:10CED00001F078FB0121002001F09CFB02210120E0
:10CEE00001F098FB0021022001F094FB00210320B7
:10CEF00001F090FBFCF786FF104D0A242870B0FB70
:10CF0000F4F0B0FBF4F104FB1101052001F082FB09
:10CF10002878B0FBF4F104FB1101042001F07AFB46
:10CF20000020FFF7B9FE0021072001F019FBBDE842
:10CF3000704001F03DBA000000080140DA01002015
:10CF400070B50446134DC00701D0012200E0002255
:10CF500008212846FDF7C3FEA00701D5012200E005
:10CF6000002204212846FDF7BAFE600701D5012200
:10CF700000E0002202212846FDF7B1FE200701D57E
:10CF8000012200E000222846BDE870400121FDF7A3
:10CF9000A6BE00000010014040F2E3220149024811
:10CFA00000F0F0BD843500200079000840F2E32253
:10CFB0000149024800F0F4BD8435002000790008E2
:10CFC0003EB5002411480094019402940E498460F7
:10CFD000016004730475012505614FF4602144600C
:10CFE000C161FDF71BF808B1FCF777FC0520CDE91E
:10CFF0000005694602940548FCF78CFF002801D023
:10D00000FCF76BFC3EBD000000280140E41100204D
:10D010000EB5694600900120019007200290024859
:10D020004068FCF777FF0EBD90060020114808B558
:10D03000416941F001014161416901F00101009143
:10D04000416941F0020141614069002200F00200A3
:10D05000009005210D20FEF725F80D20FEF714F8AD
:10D06000002205213A20FEF71DF8BDE808403A20CD
:10D07000FEF70AB80010024010B5AAB01C222149E0
:10D080006846FBF7CDF80021684603F0E9FE1E4C28
:10D090001C491C2220601C3107A8FBF7C1F80021A5
:10D0A00007A803F0DDFE174960601C2238310EA886
:10D0B000FBF7B6F800210EA803F0D2FE1149A060DC
:10D0C0001C22543115A8FBF7ABF8002115A803F07A
:10D0D000C7FE0C49E0601C2270311CA8FBF7A0F8C9
:10D0E00000211CA803F0BCFE064920611C228C31E3
:10D0F00023A8FBF795F8002123A803F0B1FE606197
:10D100002AB010BD641E0108500000202DE9F04F28
:10D1100085B00024354800940194029403948169F9
:10D1200041F010018161816901F010010491816970
:10D1300041F020018161816901F020010491816940
:10D1400041F004018161816901F004010491816968
:10D1500041F0080181618069DFF8949000F00800D7
:10D16000049000224F214846FDF7B9FDDFF884A066
:10D170004DF23407002239465046FDF7B0FDDFF886
:10D1800078B04FF41048002241465846FDF7A7FDFD
:10D190004F2001250226CDE90005CDE9024669466A
:10D1A0004846FDF79BFC4FF46C708DE831006946F2
:10D1B0004846FDF793FC00970396CDE90154694674
:10D1C0005046FDF78BFC28028DE831006946584631
:10D1D000FDF784FCCDF800800396CDE90154694643
:10D1E0005846FDF77BFC05B0BDE8F08F001002400B
:10D1F00000100140000C0140000801400D4810B52E
:10D200000B4901600C49416000214FF4804281606C
:10D21000C0E9031241618161C1610162FDF76AFDEC
:10D22000002803D0BDE81040FCF757BB10BD00003C
:10D230000054004014120020A0860100094810B5D7
:10D24000074901600221416040F6FF718160FDF7EE
:10D2500043FE002803D0BDE81040FCF73EBB10BDE4
:10D26000003000406812002030B58DB000240794D3
:10D27000089409940A940B941C2168460C94FAF7BC
:10D28000E8FF284D4FF08040286027480188C5E915
:10D2900001144088C5E903042846AC61FEF7F0FAA2
:10D2A00008B1FCF71AFB4FF48050079007A91D48FE
:10D2B000FEF7C0FB08B1FCF710FB1A48FEF7A4FD0F
:10D2C00008B1FCF70AFB0B940BA916480C94FEF767
:10D2D00099FA08B1FCF701FB6020CDE900040220B7
:10D2E00002900022694604940E48FEF72AFD08B118
:10D2F000FCF7F3FA042269460A480294FEF721FD7E
:10D3000008B1FCF7EAFA00210648FEF707FE286894
:10D31000446300210348FEF7A7FD0248FEF7AAFC7C
:10D320000DB030BD741200206800002010B58EB022
:10D3300000240794089409940A940B941C216846CD
:10D340000C94FAF786FF1E481C4901601D498A8823
:10D35000C0E90124C988C0E903148461FEF790FA8A
:10D3600008B1FCF7BAFA4FF48050079007A91448A7
:10D37000FEF760FB08B1FCF7B0FA1148FEF744FD78
:10D3800008B1FCF7AAFA0B940BA90D480C94FEF710
:10D3900039FA08B1FCF7A1FA6020CDE90004029443
:10D3A0000822694606480494FEF7CBFC08B1FCF756
:10D3B00094FA0348FEF75EFC0EB010BD0004004076
:10D3C000BC1200206800002010B586B00024174869
:10D3D0000094019402940394049413490594016009
:10D3E00040F60F61C0E901142321C0E90314802134
:10D3F0008161FEF745FA08B1FCF76FFA4FF48050EF
:10D40000009069460948FEF715FB08B1FCF765FA7C
:10D41000049404A905480594FEF7F4F9002801D006
:10D42000FCF75BFA06B010BD0008004004130020B2
:10D4300010B586B000241748009401940294039418
:10D44000049413490594016040F60F61C0E901148A
:10D4500040F2E731C0E903148461FEF711FA08B124
:10D46000FCF73BFA4FF48050009069460948FEF7FC
:10D47000E1FA08B1FCF731FA049404A905480594CF
:10D48000FEF7C0F9002801D0FCF727FA06B010BD5E
:10D49000000C00404C1300201CB5002413480094DD
:10D4A00011490194016040F60F61C0E9011440F296
:10D4B000E7318461C160FEF7E3F908B1FCF70DFACA
:10D4C00008210A48FEF711FC08B1FCF706FA102003
:10D4D000CDE9000469460548FEF794F9002801D01B
:10D4E000FCF7FBF91CBD0000001000409413002065
:10D4F00010B50420FCF776F80B490A4AC1E9002070
:10D50000002088600C22C860C1E904028861C861FB
:10D510000846FEF701FF002803D0BDE81040FCF7E5
:10D52000DCB910BD004C00409815002010B5052056
:10D53000FCF758F80D490C4AC1E90020002088602A
:10D540000C22C860C1E904028861C8610846FEF780
:10D55000E3FE08B1FCF7C1F904490122BDE810401F
:10D5600044310248FFF719B900500040F01500207F
:10D5700010B50120FCF736F80B490A4AC1E9002032
:10D58000002088600C22C860C1E904028861C8617B
:10D590000846FEF7C1FE002803D0BDE81040FCF7A6
:10D5A0009CB910BD00380140DC13002010B50220EA
:10D5B000FCF718F80D490C4AC1E9002000208860EA
:10D5C0000C22C860C1E904028861C8610846FEF700
:10D5D000A3FE08B1FCF781F904490122BDE810401F
:10D5E00014390248FFF7D9B8004400403414002031
:10D5F00010B50320FBF7F6FF0B490A4AC1E90020EA
:10D60000002088600C22C860C1E904028861C861FA
:10D610000846FEF781FE002803D0BDE81040FCF765
:10D620005CB910BD00480040DC140020032000F06D
:10D6300045FBFBF7C7FC4FF47A6003F005FC4FF4A1
:10D64000FA7400BFFBF7ACFC204603F0FDFBF9E7E2
:10D65000FEE710B5FFF7AAFC012010BD0C4810B57D
:10D6600080680168CA6842F01002CA6001684A69AD
:10D6700042F001024A614FF480720649FEF7C9FC8C
:10D6800005480068016821F00401016010BD000038
:10D69000580700206E3B00205417002040F2E32280
:10D6A0000149024800F06EBA843500200079000874
:10D6B00010B502F025FC074841684A1C42600A295F
:10D6C00006D900214160BDE81040012003F07CBF75
:10D6D00010BD000044070020084808B50068152167
:10D6E00000220180012000904FF4E133104602F047
:10D6F000C7FBBDE8084002F0C5B90000AC0100203E
:10D70000FFF7ACFFFBF76DFFFBF7A2FB142003F064
:10D710009BFBF9E70EB5044A07CA8DE8070006210E
:10D72000684600F0D9F80EBD382301080EB5044A4A
:10D7300007CA8DE807000621684600F0CDF80EBD47
:10D7400050230108044801784078814201D101202A
:10D750007047002070470000580700200EB50FA347
:10D760000ECB8DE80E00010E8DF80310010C8DF824
:10D770000410010A8DF805108DF8060005210DF141
:10D780000200FBF719FE010A8DF807108DF808005A
:10D790000A21684600F0A0F80EBD0000020508004E
:10D7A00000000000000300000148407870470000BE
:10D7B00058070020642800D96420024948700220DC
:10D7C00000F0CABA580700202DE9F0410446142899
:10D7D00006D24FF0AF0004FB00F0FAF75AFF24E046
:10D7E00003D14FF0000014491FE0642C21D014260F
:10D7F000B4FBF6F006FB1040FAF74BFF00220F4B8C
:10D80000FAF750FE0746143C94FBF6F00D46FAF783
:10D810002FFF00220A4BFAF745FE3A462B46FAF74D
:10D820009AFD0022044BFAF796FDBDE8F041FAF7A5
:10D830003DBF00200349F8E70058AB40008053404B
:10D8400000689840000BC34070B58AB001252021C4
:10D8500001A8FAF7FEFC164C20786178884202D9BC
:10D86000A0F1010002E003D200F10100207001E00C
:10D870004FF00005C0B250EA050116D0FFF7A4FF33
:10D880000646FFF76BFF85B10520B6FBF0F3207865
:10D890000090324607A101A801F08AFA01A8FAF720
:10D8A000E3FCC1B201A801F0CFF80AB0284670BD70
:10D8B00058070020B5E7BCABD7AACBD93A092564F5
:10D8C0000909D7AACBD93A09256409B5B5CEBB3A1F
:10D8D00009256425250A00000A46014602484FF63C
:10D8E000FF738068FFF702B85807002010B506489C
:10D8F000FEF7B5FB08B1FBF7F0FFFFF779FEBDE8D7
:10D900001040FFF7ABBE0000DC140020094800689F
:10D91000008802280BD0032809D0072807D0082840
:10D9200005D00C2803D00D2801D00020704701201D
:10D9300070470000EC01002070B590F8044200230D
:10D94000002C1BD1FF2492FBF4F504FB15240122CB
:10D9500080F801220022A0F8FE2100F1FF050BE073
:10D9600090F80362CA5C725590F80322FE2A02D234
:10D97000521C80F803225B1CA342F1DB70BDFEE762
:10D980000B4810B581688069081AB0F5E15F01D9CC
:10D9900000F0A4FAFFF7F0F9022000F0EDF90028FA
:10D9A00004D0BDE81040022000F0DEB910BD000038
:10D9B0002407002010B5FBF757F9BDE810400120FF
:10D9C00000F08ABEFFF788FEFBF738F9FFF770FE1C
:10D9D000142003F039FAF9E72DE9F0416148624C6F
:10D9E0000025006841F2707102882068032A04D083
:10D9F000082A0AD00D2A17D06CE00288521C92B275
:10DA000002808A4266D3058064E00188491E018055
:10DA1000FFF7B2F920680088E8BBFBF7EFFB53483B
:10DA200021680068408835E00288514E521C93B24C
:10DA3000038032681288052A2ED0D0B2FFF7C0F8D2
:10DA400048B330684B4F2468008800EBC00101EBFD
:10DA500000103968248801EBC00C474801780CEBB2
:10DA6000810333F8C62CA24234D8312903D033F8CD
:10DA7000C23C934225D2FBF7C1FB3068008800EB23
:10DA8000C00101EB0010396801EBC0003B4930F8E0
:10DA9000C80C096808801DE08B4200D3058001880E
:10DAA0000A20B1FBF0F200FB121232B1B1FBF0F22E
:10DAB00000FB1210062802D00CE0642008E01420BD
:10DAC00006E0491CC9B201700CEB810010F8C80CCB
:10DAD000FBF778FDFFF736FE30B1022000F04CF97D
