:020000040800F2
:10800000283F0020DD81000895DD000835CB000801
:10801000E1D700082D930008E1F0000800000000FF
:108020000000000000000000000000004581000882
:10803000ED9600080000000089810008D1E10008E9
:10804000F7810008F7810008F7810008F781000830
:10805000F7810008F7810008F7810008F781000820
:10806000F7810008F7810008F7810008F781000810
:10807000F781000885960008F7810008F78100085D
:10808000F7810008F7810008F7810008F7810008F0
:10809000F7810008F7810008F7810008F7810008E0
:1080A000F78100084DE40008F7810008F781000817
:1080B000F7810008F781000859E40008F7810008FB
:1080C000F7810008F7810008F7810008F7810008B0
:1080D000F7810008D1EF000809F0000815F000084A
:1080E000F7810008F7810008F7810008F781000890
:1080F000F7810008F7810008F7810008F781000880
:10810000F7810008F781000865E40008F78100089E
:1081100035EC000839EC000889E40008F781000814
:10812000F7810008F781000891960008F7810008A0
:10813000DFF80CD000F05EFC00480047990701080A
:10814000283F0020224B19680868B0E8F00F80F340
:108150000988BFF36F8F4FF0000080F311884EF055
:108160000D0E70470000000006480068006880F3AC
:10817000088862B661B6BFF34F8FBFF36F8F00DF21
:1081800000BF00BF08ED00E0EFF30980BFF36F8F81
:108190000F4B1A6820E9F00F106008B54FF050003F
:1081A00080F31188BFF34F8FBFF36F8F09F0F6F99B
:1081B0004FF0000080F31188BDE808401968086896
:1081C000B0E8F00F80F30988BFF36F8F704700BFEE
:1081D00088000020EFF305807047000006488047C4
:1081E00006480047FEE7FEE7FEE7FEE7FEE7FEE79C
:1081F000FEE7FEE7FEE7FEE779E2000831810008CE
:10820000202A04DB203A21FA02F00021704721FAEB
:1082100002F3D040C2F12002914008431946704752
:1082200040EA01039B0703D009E008C9121F08C0F8
:10823000042AFAD203E011F8013B00F8013B521E78
:10824000F9D27047D2B201E000F8012B491EFBD2EF
:1082500070470022F6E710B513460A460446194651
:10826000FFF7F0FF204610BD421C10F8011B00294B
:10827000FBD1801A704780EA010210B502F000437A
:10828000400022D04A001FD0010E01EB1261C0F362
:108290005600C2F3560240F4000042F40002A0FB74
:1082A000022000047F39140400D0401C50EA124020
:1082B00001D44000491EC2B20C0604EBD010401C91
:1082C0004008802A02D003E0002010BD20F0010009
:1082D000002900DA0020184310BD30B480EA010202
:1082E00002F0004530F0004221F0004013D090B180
:1082F000C30DD40DC2F31601C0F31600E41A41F405
:10830000000140F400027D34914201D3641C00E07E
:108310004900002C02DA30BC002070474FF4000006
:108320000023914201D3891A034340084FEA4101D7
:10833000F7D151B1914202D14FF0004105E002D294
:108340004FF0010101E06FF0010103EBC45028443C
:1083500030BC00F05BBA2DE9FE4F804681EA030095
:10836000C00F0C46009021F0004123F00045B8EB0F
:108370000200A94105D24046214690461C460B46C4
:10838000024623F00040104347D0270DC7F30A00F0
:10839000C3F30A510290401A019040286BDAC3F3EC
:1083A000130040F4801B0098924620B10023D2EBCA
:1083B000030A63EB0B0B01985946C0F1400250468B
:1083C00000F003FA06460D4650465946019A00F061
:1083D0000BFA10EB08006141002487EA115284EA8D
:1083E000E7731A4340D0009A62B3019A012A4FEA18
:1083F000075215DC001B61EB02014FF0004202EA5C
:108400000752CDE90042001C41F5801132462B464F
:1084100000F042FA03B0BDE8F08F40462146F9E78C
:10842000001B61EB0201001C41F5801300185B4149
:108430002018A2F5001747EB030140EAD570B619E2
:108440006D4111E06D084FEA360645EAC0754FEA06
:108450000752001B61EB0201001C41F58011490825
:108460004FEA30000019514132462B4603B0BDE8B7
:10847000F04F00F002BA0098012240000023D0EB38
:10848000020263EBE073009821464FEAE074B8EB18
:10849000000061EB0401E9E783F000435BE781F052
:1084A000004158E72DE9FE4F81EA030404F000443F
:1084B00021F0004100944FF0000B23F0004350EAFC
:1084C00001045ED052EA03045BD0C3F30A54C1F343
:1084D0000A552C44A4F2F3340194A0FB0254C1F3D6
:1084E000130141F48011C3F3130343F4801301FB20
:1084F000024400FB034E840A970A44EA815447EA87
:108500008357A4FB076802958D0A05FB07854FEA90
:10851000932C04FB0C542705029D4FEA065847EAAA
:108520001637B5EB08056EEB070C870E920E47EA7F
:10853000811742EA8312A7FB0201B6EB0B0164EB41
:1085400000042B0D43EA0C335E1844EB1C50DA4652
:108550005146E7FB0201C5F313044FEA0B3343EA2C
:1085600014534FEA0432019C43EA0603A4F10C04BD
:108570000294009CCDE900B400F08EF903B0BDE890
:10858000F08F00200146F9E72DE9F04D81EA030460
:1085900004F0004B21F0004514464FF0000A23F090
:1085A000004150EA050220D054EA01021DD0C5F373
:1085B0000A570246C5F31303C1F31300C1F30A5669
:1085C00040F4801543F48013A7EB0608101BD64631
:1085D00008F2FD3873EB050002D308F1010801E051
:1085E00092185B41B8F1000F03DA00200146BDE8A4
:1085F000F08D00204FF48011064684460EE0171BD4
:1086000073EB050705D3121B63EB050306434CEA26
:10861000010C49084FEA300092185B4150EA01070B
:10862000EDD152EA030012D082EA040083EA050188
:10863000084305D0101BAB4106D20122002306E0FF
:1086400000224FF0004302E06FF0010253101AEBDA
:1086500006004CEB085110EB0A0041EB0B01BDE8A2
:10866000F04D00F00AB996230022114600F0D7B869
:108670000EB5C10F80EAE0700844CA07002140F23D
:1086800033438DE80E000A460B4600F005F903B0AF
:1086900000BD0EB540F2334102910021CDE9001139
:1086A0000A460B4600F0F8F803B000BDC1F30A52C9
:1086B00010B5C1F3130140F2FF3341F480119A4227
:1086C00001DA002010BD40F233439A42A2F2334255
:1086D00003DC5242FFF794FD10BD904010BD00F046
:1086E000004230F000400AD0C10D01F56071C0F3C6
:1086F000160042EA0151C2084007114370470020AA
:108700000146704701F0004330B421F0004150EAC7
:10871000010206D00A0DA2F56072C1F31301002A0E
:1087200002DC30BC00207047440F44EAC104C100A1
:10873000E01830BC00EBC25000F068B830B50B4612
:10874000014600202022012409E021FA02F59D4281
:1087500005D303FA02F5491B04FA02F52844151E55
:10876000A2F10102F1DC30BD2DE9F05F05460020E9
:1087700092469B4688460646814640241BE0284692
:10878000414647462246FFF73BFD53465A46C01A2C
:10879000914110D311461846224600F016F82D1AC2
:1087A00067EB01084F4622460120002100F00DF83A
:1087B00017EB00094E41201EA4F10104DFDC4846FE
:1087C00031462A464346BDE8F09F202A04DB203A82
:1087D00000FA02F1002070479140C2F1200320FA14
:1087E00003F3194390407047202A06DBCB17203A49
:1087F00041FA02F043EAE07306E041FA02F3D040A6
:10880000C2F1200291400843194670470029A8BFD1
:108810007047401C490008BF20F00100704710B4A9
:10882000B0FA80FC00FA0CF050EA010404BF10BC5E
:10883000704749B1CCF1200421FA04F411FA0CF18B
:1088400018BF012121430843A3EB0C01CB1D4FEAC4
:1088500000614FEA102042BF002010BC704700EBBF
:10886000C35010440029A4BF10BC7047401C4900ED
:1088700008BF20F0010010BC704710B5141E73F142
:10888000000408DA401C41F1000192185B411A43D0
:1088900001D120F0010010BD2DE9F04D92469B461C
:1088A00011B1B1FA81F202E0B0FA80F220329046C2
:1088B000FFF78BFF04460F4640EA0A0041EA0B012E
:1088C00053465A46084313D0114653EA010019D0C3
:1088D000C8F140025046FFF793FC05460E4650464D
:1088E00059464246FFF771FF084305D0012004E0D6
:1088F00020463946BDE8F08D0020054346EAE07683
:108900002C4337430A986305E40AA0EB08000022D1
:10891000FD0A44EA47540A3002D500200146E9E73F
:10892000010510196941DDE9084500196941BDE8F3
:10893000F04DA2E770B521F0004303430CD0C1F322
:108940000A550024D5EB040564EB0403D617AD1AD1
:10895000B34102DB0020014670BD201841EB0251FB
:1089600070BDC1F30A52C1F3130140F2FF3341F469
:1089700080119A4202DA00200146704740F23343E8
:108980009A42A2F2334202DC5242FFF739BCFFF7AF
:108990001CBF000030B5041E71F1000404DB4FF071
:1089A0000044404264EB0101141E73F1000405DB36
:1089B0001C464FF00043524263EB04038B4208BF56
:1089C000824230BD30B5041E71F1000404DB4FF06B
:1089D0000044404264EB0101141E73F1000405DB06
:1089E0001C464FF00043524263EB0403994208BF18
:1089F000904230BD064C074D06E0E06840F00103B0
:108A000094E8070098471034AC42F6D3FFF794FB84
:108A10009C200108BC20010870B58C1810F8015B7F
:108A200015F0070301D110F8013B2A1106D110F807
:108A3000012B03E010F8016B01F8016B5B1EF9D10B
:108A40002B0705D40023521E0DD401F8013BFAE791
:108A500010F8013BCB1A921C03E013F8015B01F8FC
:108A6000015B521EF9D5A142D8D3002070BD000091
:108A700070B5044600688168C943C90717D1816889
:108A800021F00101816002F087F905460AE000BF8C
:108A900002F082F9401B022804D920688068C04394
:108AA000C00706D020688068C043C007F0D000200F
:108AB00070BDA06A40F01000A062E06A40F00100C2
:108AC000E062012070BD0000F8B500260446009663
:108AD00000688168C943C9072DD0816841F0010150
:108AE0008160164816490068B0FBF1F000E0401EB6
:108AF00000900028FBD102F04FF9054616E000BFB8
:108B000002F04AF9401B022810D920688068C0434F
:108B1000C0070BD0A06A40F01000A062E06A40F0ED
:108B20000100E06284F824600120F8BD20688068BC
:108B3000C043C007E4D10020F8BD0000840000203D
:108B400040420F0002484178491C417070470000C4
:108B5000080700202DE9F0412C4C4FF4FA76A1884B
:108B60006088814207D0B04200D96680608800F0FA
:108B7000CBFB6088A08005F04DFC0025012748B99B
:108B800005F03AFC10B905F0F1FBC0B1022005F088
:108B9000EDFAA0B120780028608806D068B10A28D4
:108BA00009D90A386080BDE8F081B04201D20A30AC
:108BB000F8E72770F7E76580F5E72570F3E705F03C
:108BC00003FC40B120780028608801D090B9F4E718
:108BD000B0420BD3EDE70E4800780028608807D03C
:108BE000B0420CD2C0F5FA71052906DD401DD9E767
:108BF0000028D8D0052806D8DDE76680D3E7A0F5A1
:108C0000FA710529F9DD401FCCE70000800600203D
:108C1000D101002010B5002000F076FB064C0122A7
:108C20001021204602F0B3F820460122BDE8104092
:108C3000202102F0ACB80000000C014010B504F097
:108C400079FA01F049F8074800210170417000F0FD
:108C5000E9FB05F083FD05F071FDBDE8104005F06E
:108C6000F5BE0000D40100200C4810B500210170B1
:108C70004170416942680A60816982680A60C2691C
:108C80000521118000F120014FF44872C068FFF700
:108C9000C7FABDE8104004F057BA0000D401002024
:108CA00010B50821042000F0A3FF0149C86010BDE1
:108CB0009C05002010B504F07BF8124CA0712178BF
:108CC00081421AD1E079401CC0B2E071022817D36A
:108CD00000F02EFB2079AA2803D0BDE8104000F058
:108CE0001DB8217800290BD00120607160780843FD
:108CF0006070BDE8104004F0F1B920700020E07110
:108D000010BD00008C06002010B50F2004F0E6F91D
:108D100005F0B3FABDE8104005F0E6BA2DE9F043DE
:108D200089B020216846FFF794FA384DE868401C66
:108D3000E86029699631884202D9012005F0C4FD16
:108D40000024324EDFF8C890324F1436A046305D12
:108D5000297888424FD1E8682861002005F0B4FDE9
:108D6000325D6878824257F824001FD1401C47F8D2
:108D70002400962841D328A1684606F009FA6846DF
:108D8000FFF772FAC1B2684606F03EF899F80000A3
:108D9000102807D0112807D01C485C3050F8240058
:108DA00080472AE02048F9E72048F7E708B9012082
:108DB000687122461EA1684606F0EAF96846FFF788
:108DC00053FAC1B2684606F01FF899F8000010285F
:108DD0000BD011280BD00D4810F13C0050F82400A6
:108DE000804799F8000020B105E01548F6E71548DE
:108DF000F4E705F07FF947F82480641CE4B2082CFE
:108E0000A5D32878687009B0BDE8F0838C060020EF
:108E1000D10100201C3300205BB0B4BCFCB3A4B073
:108E2000B45D3A2025640A007C050020EC05002092
:108E30005BB0B4BCFCB5E3BBF75D3A2025640A0027
:108E40005C050020CC05002070B5264C42F2107164
:108E5000E268521CE2606088884201D2401C00E057
:108E60000020608040F2DC50824203D9A08840F4A8
:108E70008070A0804FF49670B2FBF0F100FB1121DE
:108E800071B982420CD318A1224806F081F9214819
:108E9000FFF7EAF9C1B21F4805F0B6FF04F056FF2C
:108EA00060880A25B0FBF5F105FB1100062801D109
:108EB00004F0F8FD6088B0FBF5F105FB110008B97E
:108EC00004F0FCFC6088B0FBF5F105FB1100032801
:108ED00006D12078002803D0BDE8704004F0E2BC41
:108EE00070BD0000400700205B4552524F525D09A3
:108EF000C7FDB6AFB0E5CDA8D1B6B9CAD5CF20630E
:108F00006E743A09256409D6D8C6F4B4AEBFDA0A3D
:108F100000000000263A002010B50021032000F0D8
:108F20007DFE1C4C01216080032000F077FEA080B4
:108F3000032805D90322A2800121104605F0A6F8D6
:108F40000221032000F06AFEE080072805D90722ED
:108F5000E2800221032005F099F80421032000F0AB
:108F60005DFE2081082805D90822228104210320E2
:108F700005F08CF80521032000F050FE60810128E7
:108F800007D9012262810521BDE81040032005F0C8
:108F90007DB810BD4405002010B5074C2078AA28E4
:108FA00003D0BDE8104000F00FB805F0C5F905F09A
:108FB0009BF90020207010BD90060020014902207E
:108FC00008707047D001002070B505F00BFA00283A
:108FD00061D105F0EFF900285DD12F4DA868401C44
:108FE000A86006F08FF800F033F9287A2B4CC00700
:108FF0000FD005F0D3F900284DD02078012140F0A2
:1090000008002070084605F0ADFCBDE8704005F092
:10901000D1BB04F0ABFE48B92078002120F0080055
:109020002070012005F09EFC05F0C4FB03F0DAFD82
:1090300018B1BDE8704000F06FBD0020686100F01D
:10904000DBFE112803D100F071FA03F06DFF05F08B
:1090500097F918B1BDE8704003F040BE05F0DAF9A9
:1090600018B1BDE8704000F069B805F0C5F918B155
:10907000BDE8704004F0BEBE05F0A6F918B1BDE829
:10908000704004F089BE05F0D3F9002803D0BDE894
:10909000704005F071B870BD08070020D0010020B5
:1090A00000B5012005F05AF805F06AF900280CD146
:1090B00005F0B0F90C4910B10878401E04E005F045
:1090C0009BF918B10878801E087000BD05F07CF986
:1090D00010B10878C01EF7E705F0AAF90028F4D00F
:1090E0000878001FF0E70000D101002010B5012032
:1090F00005F034F805F044F90F4910B10878C01CA8
:1091000014E005F087F910B10878801C0EE005F036
:1091100073F910B10878401C08E005F055F90028F3
:1091200009D105F085F910B10878401E0870BDE836
:10913000104000F0EFB910BDD101002000B50120B2
:1091400005F00CF805F01CF90E4910B10878801CE8
:1091500004E005F05FF918B10878401C087000BD04
:1091600005F04AF90028FAD105F02EF910B1087877
:10917000401EF3E705F05CF90028F0D00878801E67
:10918000ECE70000D101002000B5012004F0E6FF6B
:1091900005F0F6F80E4910B10878401C08E005F01B
:1091A00039F9002805D105F027F918B10878401ED3
:1091B000087000BD05F008F910B10878801EF7E7C7
:1091C00005F036F90028F4D00878C01EF0E700005A
:1091D000D101002010B5012004F0C0FF05F0D0F847
:1091E000114910B10878001D10E005F013F910B115
:1091F0000878C01C0AE005F0FFF810B10878801C60
:1092000004E005F0E1F818B10878401C087003E0AC
:1092100005F00EF9002806D1002004F0F9FBBDE8A6
:10922000104000F077B910BDD1010020012000F0FE
:1092300007B8000001480078704700007A06002057
:10924000032801D801490870704700007A06002001
:1092500010B5FFF7EFFF1F4C01280CD0FFF7EAFF16
:10926000032827D0FFF7E6FF022820782FD020F030
:109270000100207010BD1848016911B18268914247
:1092800001D9816801618268D10705D12178CB07B6
:109290000DD021F0010121700169511A78290FD9EF
:1092A000002181600846FFF7CBFF207805E041F000
:1092B0000101F0E72078C10706D020F001002070FE
:1092C000BDE8104003F030BE40F00100F7E740F089
:1092D0000100CEE7D001002008070020FFF79AFC2C
:1092E000044801F07EFEFFF735FC142007F030FD46
:1092F000F6E70000341200204FF4FA7000F004B8D2
:10930000002000F001B8000070B5074D04460021B0
:10931000A86802F05BFEA86801684C63BDE8704075
:10932000002102F0F9BD000080060020FEE70000E9
:1093300010B50B4C6079012807D0022808D00A2804
:1093400008D905F007FA002008E005F003FA01E06B
:1093500005F0EBF96079002801D0401C607110BD68
:109360008C06002010B504460821064802F02EFEA7
:1093700004480068C463BDE810400821014802F0B9
:10938000CBBD00008812002030B5ADF5017D0D4643
:1093900004464FF400720B496846FEF741FF002077
:1093A000694608E014F8012B82EA102231F81220F5
:1093B00082EA002080B26D1EADB2F3D20DF5017DC0
:1093C00030BD0000541D010810B500F0AFF804488E
:1093D00000214161C180BDE8104003F0A5BD00003F
:1093E00008070020002180B1012810D002280ED0EB
:1093F00003280ED004280ED00F280ED010280CD031
:1094000011280AD006280AD0802108467047012179
:10941000FBE70821F9E70221F7E70421F5E710212E
:10942000F3E7000070B5314B5869008803F0A7FCE2
:1094300010B95869596801609869008803F09FFC69
:1094400020B19869408803F0A1FC10B99869996827
:109450000160D8690188491E082901D305210180CE
:1094600000249C704FF44872DC70987800EBC001C7
:1094700001EB0010D96801EBC000D97830F8210069
:1094800003F07DFCF8B1987800EBC00101EB00100F
:10949000D96801EBC000D97800EB8100408803F067
:1094A00075FC80B1D878A8B1997801EBC10505EBBE
:1094B0000111DD6805EBC10101EB80014D8831F838
:1094C000021C8D4206D8D868BDE87040074920319B
:1094D000FEF7A6BE401CC0B2D8703228C5D398781B
:1094E000401CC0B298700428BED370BDD4010020C7
:1094F00010B50822064B002133F81140844201D1F7
:10950000012010BD491C89B29142F5D3002010BD45
:1095100030070020014881688161704708070020FA
:1095200001490020487070470807002010B500F07E
:109530001BF80A4C0020E16808800949207060701F
:1095400009680880A07804F0BFFD0649E07808802B
:10955000A2884A80BDE8104000F0B6B89C05002003
:1095600018050020E401002002480021C16081802C
:109570007047000040070020014900200870704734
:1095800008070020012803D0022803D1FFF74EBEB0
:1095900005F0A7BD7047C0B200F096B800F0A0B8C3
:1095A000014610B5000A11F0FF010BD001290DD0C2
:1095B00002290ED104280CD205F004FBBDE81040AE
:1095C00000F014BB002005F083FAF7E705F0D6FAA7
:1095D000F4E710BD10B538B104F004FF002807D03F
:1095E000BDE8104004F097BEBDE8104004F07CBE1A
:1095F00010BD000070B5204E204C142560B101282C
:1096000015D002281ED003281BD1012005F060FAD6
:10961000BDE8704003F088BC04F0D6FE002810D1ED
:10962000FFF764FD306821680160002007E004F066
:10963000CBFE002805D0FFF7A7FD3068008820800A
:10964000658070BD04F02CFE20B1BDE870400020A4
:1096500005F03EBA04F030FE18B1BDE8704005F0E8
:109660008DBA04F035FE0028EBD005480078BDE83F
:10967000704005F0A7BA000014050020E4010020A6
:10968000D4010020014800F0E9BF0000FC170020D1
:10969000014800F0E3BF0000B817002030B590F893
:1096A00040500124AC40C56B6C6004686360436843
:1096B000102B036803D099600068C26030BD9A60C7
:1096C0000068C16030BD0000044910B5088004F096
:1096D0009FF9BDE81040022004F038BDE4010020ED
:1096E0000149488070470000E4010020704770473E
:1096F00010B586B00446142211496846FEF790FD65
:109700004FF4E130042C0FD0012C0FD0022C0BD0E1
:10971000032C09D0052C07D0601E04280ED86846FB
:1097200000EB840050F8040C06B010BD054902207F
:10973000C9680880034810308068F5E70020F3E727
:10974000401D0108AC01002010B50021032000F0ED
:109750004FFA0A4C01212060032000F049FAE06032
:109760000120FFF7C5FF0021042000F041FA6060EE
:109770000121042000F03CFAA06010BDAC010020E3
:1097800010B50446800703D5FF21052005F044F9F4
:10979000E00705D0FF21BDE81040042005F03CB9EA
:1097A00010BD10B50446400703D50021072005F081
:1097B000D9F8A00703D5FF21072005F02DF9E00710
:1097C00005D0FF21BDE81040062005F025B910BDE9
:1097D00010B5FF21052005F01FF9FF21BDE810405D
:1097E000042005F019B970B50446642802D94FF079
:1097F000640400E002D34FF0010101E04FF00001EA
:109800004FF0070005F0AEF80A25B4FBF5F0B0FB09
:10981000F5F105FB1101072005F0FEF8B4FBF5F0AA
:1098200005FB1041BDE87040062005F0F5B870B5A5
:1098300004464FF47A70B4FBF0F00A25B0FBF5F162
:1098400005FB1101002005F0E7F86420B4FBF0F0FF
:10985000B0FBF5F105FB1101012005F0DDF8B4FBCB
:10986000F5F0B0FBF5F105FB1101022005F0D4F88D
:10987000B4FBF5F005FB1041BDE87040032005F096
:10988000CBB810B504464521002005F09DF8C4F37F
:109890000321012005F0C0F8C4F30311022005F0F4
:1098A000BBF804F00F01BDE81040032005F0B4B888
:1098B00070B505460A24B0FBF4F0B0FBF4F104FBEC
:1098C0001101002005F0A8F8B5FBF4F004FB1051DD
:1098D000BDE87040012005F09FB810B50446502146
:1098E000052005F071F80A20B4FBF0F100FB1141EE
:1098F000BDE81040042005F08FB870B50446642818
:1099000002D94FF0640400E002D34FF0010101E0FE
:109910004FF000014FF0070005F024F80A25B4FBD2
:10992000F5F0B0FBF5F105FB1101072005F074F827
:10993000B4FBF5F005FB1041BDE87040062005F0D2
:109940006BB870B505460A24B0FBF4F0B0FBF4F137
:1099500004FB1101022005F05FF8B5FBF4F004FBF5
:109960001051BDE87040032005F056B870B50446AC
:10997000642802D94FF0640400E002D34FF00101E3
:1099800001E04FF000014FF0070004F0EBFF0A2563
:109990000A2C01D2FF2105E0B4FBF5F0B0FBF5F194
:1099A00005FB1101072005F037F8B4FBF5F005FBC6
:1099B0001041BDE87040062005F02EB870B5054690
:1099C0000A24B0FBF4F0B0FBF4F104FB1101052014
:1099D00005F022F8B5FBF4F004FB1051BDE870402F
:1099E000042005F019B872B6FEE7000070B50D4E00
:1099F0000546304607F020FC002812D10A4C2069A9
:109A000040F0020020616561206940F04000206163
:109A1000304607F011FC012803D0206920F0020035
:109A2000206170BDFFFF5F0000200240044B002258
:109A3000DA61044A136943F001031361018070473E
:109A4000881800200020024014480022C168CB067C
:109A5000134904D5CA6942F00202CA611022C368E0
:109A60005B0705D5CB6943F00103CB6142F00402EB
:109A7000C369DB0707D0CB6943F00403CB61C1693D
:109A800021F00101C161A2F58071013901D0C260EC
:109A90007047C16921F00101C16170470020024097
:109AA0008818002070B5054601F076F90646114C7D
:109AB00009E0681C07D025B101F06EF9801BA842AF
:109AC00001D9032070BDE068C007F2D1E0688006CC
:109AD00001D52020E060E068C00605D4E069C00739
:109AE00002D1E068400703D5FFF7AEFF012070BD4B
:109AF000002070BD0020024010B5064CE0680088D0
:109B000000F0D8F820706178814201D9012060709E
:109B100010BD00009C05002010B5C0B000F06CF92D
:109B2000112802D004F0ACFF3AE004F01FFC00283A
:109B300036D003F04DF898BB00F058F94FF480711F
:109B400088422DD01E4CA278A068801AB0F5E15F43
:109B500012D96846FEF77DFB62781AA1684605F0C7
:109B600017FB6846FEF780FBC1B2684605F04CF96A
:109B700000206070207AA070606910B1A1688842EE
:109B800004D9A0686061A17801B9A0706169A0687A
:109B9000401AF02804D96078401C6070FFF714FC6C
:109BA00003F0FEFE30B1022004F0E0FA10B1022012
:109BB00004F0D4FA40B0BDE8104005F069BA0000E6
:109BC00008070020B9CAD5CFBBD6B8B4BCC6CAB145
:109BD000B3ACB9FD31D0A1CAB12CC7E5B3FDBCC649
:109BE000CAFDC6F73A0925640A0000007047000064
:109BF000032802D0042805D00AE0B1F5397F07D246
:109C0000044802E0102903D8034800EB41007047E4
:109C1000002070473C33002004390020032802D084
:109C2000042805D00AE0B1F5397F07D2044802E0E4
:109C3000102903D8034830F81100704700207047FE
:109C40003C3300200439002070B5092003F0AEFA3F
:109C50000C4C206800F04AF9206800F0A3FB0721B3
:109C6000206800F001FB206800F02AFA800503D587
:109C7000206800F027FA05462846BDE8704000F04D
:109C8000C7B800007C06002030B500231A46012525
:109C900005FA02F4044206D05B1CDBB2994202D101
:109CA000521CD0B230BD521CD2B2102AF0D30020C8
:109CB00030BD0000024610B5002001465FF00104EF
:109CC00004FA01F3134201D0401CC0B2491CC9B2CE
:109CD0001029F5D310BD000000B570210320FFF757
:109CE00087FF3249086080210320FFF781FF304958
:109CF000086082210320FFF77BFF2E4908604FF4A4
:109D000080710320FFF774FF2B49086006210320B0
:109D1000FFF76EFF2949086002884FF4FA718A4202
:109D200000D9018000210320FFF762FF2449086069
:109D300001210320FFF75CFF224908600221032074
:109D4000FFF756FF2049086004210320FFF750FF6A
:109D50001E49086008210420FFF74AFF1C490860DB
:109D600009210420FFF744FF1A4908600A21042052
:109D7000FFF73EFF184908600B210420FFF738FF6A
:109D8000164908600C210420FFF732FF14490860CF
:109D90000E210420FFF72CFF124908601021042037
:109DA000FFF726FF1049086000BD000014050020E1
:109DB000E8010020EC010020E00100204005002027
:109DC00034050020380500203C050020F00100206B
:109DD000180500201C050020200500202405002077
:109DE000280500202C05002030050020014880882F
:109DF00070470000400700200148007870470000CD
:109E0000D10100200148C0787047000008070020F9
:109E10002DE9F041FEF727FCFEF761FC4FF06638B4
:109E200042461C4BFEF73EFBFEF76CFC0546FEF778
:109E300056FC4246184BFEF732FB184E07460C46BE
:109E400031462846FEF717FAFEF749FC3A46234604
:109E5000FEF79AFBFEF756FC3146FEF73EFAFEF798
:109E60003EFC06F0EBFA00220D4BFEF78DFB0D4A8F
:109E70000D4BFEF770FA02460B4600200B49FEF729
:109E800083FB42460A4BFEF707FBBDE8F041FEF7B5
:109E900039BC000066664A3F66660A400000204101
:109EA00000DCAE4083DBB5DCE1796B3F0000F03FC6
:109EB000661271402DE9F04100250B4E2C4601271A
:109EC00006EBC400818856F8340000F05BFF18B937
:109ED00007FA04F02843C5B2641CE4B2022CEFD3A5
:109EE0002846BDE8F081000040000020F8B50025BC
:109EF0000446009590F82400012808D0012084F839
:109F000024002046FEF7B4FD060002D053E00220F4
:109F1000F8BDA06A20F4885040F00200A062022040
:109F200001F04AF926490968B1FBF0F0400000E071
:109F3000401E00900028FBD12046FEF7C5FD20689A
:109F4000816841F00801816000F026FF074608E0C3
:109F500000F022FFC01B0A2803D920688068000790
:109F600015D4206880680007F2D42068816841F029
:109F70000401816000F010FF074612E000F00CFFC2
:109F8000C01B0A280DD920688068400709D5A06A3F
:109F900020F0020040F01000A06284F8245001205C
:109FA000F8BD206880684007E8D4A06A20F002006D
:109FB00040F00100A06284F824503046F8BD000053
:109FC00084000020F8B50024009490F82420254651
:109FD000012A12D0012280F824204A681F23072A70
:109FE0000DD20668776B521E02EB820293409F43AC
:109FF0000B6893401F43776319E00220F8BD0668A1
:10A000000D2A0AD2376BD21F02EB820293409F4384
:10A010000B6893401F43376309E0F76A0D3A02EB80
:10A02000820293409F430B6893401F43F7620A6884
:10A03000072306680A2A0AD3F7680A3A02EB4202A3
:10A0400093409F438B6893401F43F76008E0376954
:10A0500002EB420293409F438B6893401F4337615A
:10A060000A68102A01D0112A20D1124B02689A42A4
:10A0700017D193681B0219D4936843F400039360CB
:10A080000968102912D10C490C4A0968B1FBF2F198
:10A0900001EB8101490000E0491E00910029FBD13C
:10A0A00004E0816A41F020018162012480F824509B
:10A0B0002046F8BD002401408400002040420F00EB
:10A0C000806A70470068C06C704700002DE9F0415D
:10A0D00004004FF000057FD0A06A002628B9E66290
:10A0E00084F82460204600F081F82046FEF7C0FC8A
:10A0F000A16AC90600D420B1A06A40F01000A06295
:10A100006AE0A16A21F4885141F00201A162334959
:10A1100023688B42E16904D1B1F5402F01D14FF49E
:10A120000021277B4FF4807C41EA470261680A43A3
:10A13000A168614508D0012906D0002194F814E0F7
:10A14000BEF1010F02D00AE06146F7E7C7B1A76A86
:10A1500047F02007A762E76A47F00107E7625F68F8
:10A1600027F469470F435F60236899681C4F3940A3
:10A1700011439960A16861450BD0012909D00CE019
:10A18000DFF860E0A7690EEB47370F4347F4006143
:10A19000E5E7218A0D05A5F580152168CB6A23F432
:10A1A00070032B43CB62216889680F4B19409142A1
:10A1B00008D1E662A16A21F0020141F00101A16229
:10A1C000BDE8F081A06A20F0020040F01000A0621B
:10A1D000E06A40F00100E0620120F1E7003C01404C
:10A1E000FDF7E1FF00E0FFFFFE0E1FFF10B586B098
:10A1F0000021009101910291039100681649884263
:10A2000027D11648816941F480618161816901F437
:10A2100080610491816941F004018161816901F0EB
:10A2200004010491816941F008018161806903247E
:10A2300000F0080004906020CDE900046946084859
:10A2400000F0A4FC0220CDE900046946054800F0B6
:10A250009DFC06B010BD0000002801400010024027
:10A2600000080140000C01402DE9F84300270D468D
:10A270000446009700F090FD804620688168C9057B
:10A2800008D5A06A40F02000A06284F82470012064
:10A29000BDE8F8834168C90503D4C06A10F4700FA3
:10A2A0002AD0022000F088FF3B490968B1FBF0F694
:10A2B0002068036939490B424FEA61014FEAA11254
:10A2C0001FD1C3684FEA611C13EA0C0F19D103694F
:10A2D0000B4225D1C068104222D1142023E0681C13
:10A2E0000AD02DB100F058FDA0EB0800A84203D918
:10A2F00020680068800725D5206800688007EED5B3
:10A300002DE003690B4202D1C168114206D00269F7
:10A3100023490A4206D1C068084203D1542002E012
:10A32000292000E0FC204643009816E0681C11D06C
:10A330002DB100F031FDA0EB0800A8420AD9009829
:10A34000B04207D2A06A40F00400A06284F82470F2
:10A3500003209DE70098401C0090B042E6D321689E
:10A360006FF012000860A06A40F40070A0622068DC
:10A370008068C0F3424007280CD1207B50B9A06A06
:10A3800020F48070A062A06AC00403D4A06A40F0E8
:10A390000100A06200207BE7840000202449922471
:10A3A0004992240070B5044690F8240001280DD08D
:10A3B000012084F824002046FEF786FB02004FF0BF
:10A3C000000005D084F82400104670BD022070BD46
:10A3D000A16A40F20123994341F48071A1621F4DAB
:10A3E00023681F49AB4218D10E6816F4702F14D0A1
:10A3F000A66A46F48016A6620E68760505D5A66A9A
:10A4000026F4005646F48056A662A66AF6040AD5DB
:10A41000E66A26F00606E66206E0A66A26F48016DC
:10A42000A6625E68E9E7E06284F824006FF002004B
:10A43000186020688368C3F34243072B05D1A84204
:10A4400008D1096811F4702F04D0816841F480119B
:10A450008160B9E7816841F4A001F9E70028014073
:10A460000424014010B590F821100022022905D0E3
:10A470000421816380F82020012010BD01680B6851
:10A4800023F00E030B6001680B6823F001030B60DF
:10A4900090F84030C46B012101FA03F3636080F847
:10A4A000211080F82020104610BD00002DE9F05F3B
:10A4B00090F821100024022903D004218163012493
:10A4C00085E001680A6822F00E020A6001680A68E5
:10A4D00022F001020A603F4E3E4FB215DFF8F4C091
:10A4E000DFF8F090DFF8ECA0DFF8E8B0DFF8E4E0A8
:10A4F0000168783F13011502ACF1640CA9F1500911
:10A50000AAF13C0AABF1280BAEF1140E4FF48018FF
:10A51000B14227D9B9420ED0614512D049451DD06C
:10A52000514518D0594518D0714501D1424615E022
:10A53000294EB14201D1012210E0274E1436B1421A
:10A5400001D110220AE0244E2836B14206D0224A18
:10A550003C32914201D11A4600E02A461E49091FA9
:10A560000A602BE0B94213D0614517D0494522D08B
:10A5700051451DD059451DD0714501D142461AE0C3
:10A58000B14202D14FF0807215E0134EB14201D1B9
:10A59000012210E0104E1436B14201D110220AE01F
:10A5A0000D4E2836B14206D00B4A3C32914201D1C1
:10A5B0001A4600E02A46074980394A60012180F89E
:10A5C0002110002180F82010416B01B188472046FE
:10A5D000BDE8F09F800002400804024010B5D0B1F1
:10A5E00001680A6822F001020A6002680021116015
:10A5F00002685160026891600268D160144C026880
:10A600001423A24209D2134C2244B2FBF3F292006B
:10A610000264114A0AE0012010BD0D4C644222443C
:10A62000B2FBF3F292000264094A083AC26390F85E
:10A63000403001229A40C36B5A608162C16201635B
:10A640004163816380F8211080F82010002010BD44
:10A6500008040240F8FFFDBF000002402DE9F05F52
:10A66000C16B0A6801680B68046C4FF0040808FAB3
:10A6700004F8844D844E854FDFF814C2DFF814923D
:10A68000DFF814A2DFF814B2DFF814E218EA020FC0
:10A6900065D05FEA437862D50A68920603D40A68F7
:10A6A00022F004020A60DFF8F0814FF48062016852
:10A6B00008F1140813011402414524D9A9420DD010
:10A6C000B1420FD0B9421AD0614515D0494515D0D5
:10A6D000514501D1120312E0594501D104220EE087
:10A6E000714501D140220AE06D4D1435A94206D0D2
:10A6F0006B4A2832914201D11A4600E0224667494E
:10A70000091F0A6029E0A94213D0B14215D0B9420D
:10A7100020D061451BD049451BD0514502D14FF493
:10A72000800217E0414502D14FF0806212E05945A6
:10A7300001D104220EE0714501D140220AE0584DBA
:10A740001435A94206D0564A2832914201D11A4600
:10A7500000E022464B4908394A60C16A71E04FF077
:10A76000020808FA04F818EA020F70D05FEA83784A
:10A770006DD50A68920606D40A6822F00A020A60B9
:10A78000012180F82110DFF810814FF40072016878
:10A7900008F1140813011402414524D9A9420DD02F
:10A7A000B1420FD0B9421AD0614515D0494515D0F4
:10A7B000514501D1120312E0594501D102220EE0A8
:10A7C000714501D120220AE0354D1435A94206D049
:10A7D000334A2832914201D11A4600E022462F49DD
:10A7E000091F0A6029E0A94213D0B14215D0B9422D
:10A7F00020D061451BD049451BD0514502D14FF4B3
:10A80000001217E0414502D14FF0007212E05945A5
:10A8100001D102220EE0714501D120220AE0204D33
:10A820001435A94206D01E4A2832914201D11A4657
:10A8300000E02246134908394A60002180F82010C0
:10A84000816A00291CD0BDE8F05F0847FFE70825B2
:10A85000A540154214D01A0712D50A6822F00E023C
:10A860000A6090F84020C36B012101FA02F25A609D
:10A87000816380F82110002180F82010016BE0E74F
:10A88000BDE8F09F080002401C000240300002407A
:10A8900044000240580002406C000240080402409C
:10A8A0001C04024030B560B11A4B026814219A4270
:10A8B00009D2194B1344B3FBF1F189000164174924
:10A8C0000AE0012030BD134B5B421344B3FBF1F1AE
:10A8D000890001640F490839C163022180F8211001
:10A8E000136843F6F0718B43F0E901142143D0E97A
:10A8F00002452C432143046921434469214384696F
:10A9000021431943116000214163012242770177FD
:10A91000084630BD08040240F8FFFDBF00000240B9
:10A9200070B5044690F82000002501280CD00120C5
:10A9300084F8200094F821600020012E06D084F8CD
:10A9400020000225284670BD022070BD022684F832
:10A950002160A0632068066826F001060660204694
:10A96000FEF79CFEE06A00282068016802D041F0F2
:10A970000E0106E021F0040101602068016841F049
:10A980000A0101602068016841F001010160D9E716
:10A99000064810B54FF0FF31C16000220261C1606E
:10A9A000C26000F085FB002010BD000000100240D6
:10A9B0000348016941F080010161002070470000F7
:10A9C000002002402DE9F05F07461C48884600241D
:10A9D000017E15461E46012909D0012181460176D6
:10A9E0004CF2503A5046FFF75DF818B122E00220D1
:10A9F000BDE8F09F012F02D0022F00D00427D346DC
:10AA0000DFF83CA0220128463146FDF7F9FB81B270
:10AA100008EB4400FFF70AF85846FFF743F8DAF866
:10AA2000102022F00102CAF8102018B9641CE4B208
:10AA3000BC42E7D3002289F81820D9E78818002003
:10AA400000200240064900200A69120607D5054A7F
:10AA50004A60054A4A600969090600D50120704725
:10AA60000020024023016745AB89EFCD2DE9F0437B
:10AA700000233E4F0F2574E001229A400A406ED019
:10AA800023F00304E619D6F808809C074FEA147CEB
:10AA900005FA0CF909EA0804DFF8D480404502D130
:10AAA0004FF0000824E0DFF8CC80404502D14FF0A1
:10AAB00001081DE0DFF8C080404502D14FF00208D8
:10AAC00016E0DFF8B880404502D14FF003080FE0F0
:10AAD000DFF8AC80404502D14FF0040808E0DFF811
:10AAE000A480404502D14FF0050801E04FF0060870
:10AAF00008FA0CF8A04515D1D6F808C02CEA090CC4
:10AB0000C6F808C0204E346894433460341D26686B
:10AB100096432660241D266896432660241D2668D9
:10AB200096432660FF2A01D8064601E000F104069C
:10AB30004FEA830401D9A4F12004D6F800C005FA35
:10AB400004F82CEA080C4FF0040808FA04F84CEA60
:10AB5000080CC6F800C0C46824EA0204C46003F10B
:10AB6000010331FA03F287D1BDE8F0830000014010
:10AB700000080140000C0140001001400014014099
:10AB800000180140001C0140000401402DE9F84F6D
:10AB9000DFF8C891002409F1040A0AF1040B2346E6
:10ABA0000F270BF1040ED1E00125A54006EA0502AE
:10ABB000AA4276D1DFF8A8C14E68A6EB0C0866451C
:10ABC0002BD00DDC032E34D005DC36B3012E19D08A
:10ABD000022E2FD11BE0112E16D0122E2AD119E0F1
:10ABE000B8F5881F19D006DCB8F5803F15D0B8F548
:10ABF000801F1FD111E0B8F5001F0ED0B8F5041F5B
:10AC000018D10AE0CB6815E0CB681B1D12E0CB68B9
:10AC100008330FE0CB680C330CE08B682BB1012BB1
:10AC20004FF0080303D0456104E0042302E005610E
:10AC300000E00023FF2A01D8064601E000F10406E7
:10AC40004FEA840501D9A5F12005D6F8008007FA5E
:10AC500005FC28EA0C0803FA05F548EA0508C6F8D9
:10AC600000804D68ED0070D53E4DAE6946F001069E
:10AC7000AE61AD6924F0030605F0010500953A4D7B
:10AC800006EB050CDCF80850A607360F07FA06F8A5
:10AC900025EA0805DFF8D480404503D14FF00008CD
:10ACA00025E052E0DFF8C880404502D14FF00108AE
:10ACB0001DE0DFF8C080404502D14FF0020816E0E9
:10ACC000DFF8B480404502D14FF003080FE0DFF811
:10ACD000AC80404502D14FF0040808E0DFF8A080C6
:10ACE000404502D14FF0050801E04FF0060808FA90
:10ACF00006F848EA0508CCF808804D68D9F80060E5
:10AD0000ED034D4601D5164300E096432E604D6895
:10AD1000DAF80060AD03554601D5164300E09643CE
:10AD20002E604D68DBF80060ED025D4601D51643EC
:10AD300000E096432E604D68DEF80060AD02754677
:10AD400001D5164300E096432E60641C0A6816463F
:10AD5000E2407FF429AFBDE8F88F00000004014015
:10AD600000001110001002400000014000080140E6
:10AD7000000C014000100140001401400018014087
:10AD8000001C01408068084000D0012070470AB1D3
:10AD9000016170470904FBE70148806870470000C3
:10ADA0007800002070B5040025D094F83D000025FF
:10ADB00020B984F83C50204600F0B8F8242084F8EC
:10ADC0003D002068016821F00101016020680168F0
:10ADD00041F4004101602068016821F400410160F4
:10ADE00000F080FB4D4A6168914201D84C4900E077
:10ADF0004C49884201D2012070BD4B492368B0FB09
:10AE0000F1F15E6826F03F060E435E606368934290
:10AE100006D94FF4967359434FF47A73B1FBF3F1AB
:10AE20002368491C1E6A26F03F0631431962616897
:10AE3000914210D84900401EB0FBF1F2521CC2F3FF
:10AE40000B02042A01D2042022E0B0FBF1F0401CE6
:10AE5000C0F30B001CE0A268F2B301EBC10303EBEB
:10AE60000116431EB3FBF6F35B1C43F480431B0542
:10AE700049D092B301EBC10202EB0111401EB0FBBD
:10AE8000F1F0401CC0F30B0040F4804040F400405F
:10AE90002168CA694CF6FF739A431043C861D4E92C
:10AEA000071001432068026822F0C00211430160CC
:10AEB000D4E9030101432068826848F2FF339A43D2
:10AEC00011438160D4E9050108432168CA6822F072
:10AED000FF021043C86001E00EE016E02068016840
:10AEE00041F0010101602564202084F83D002563C4
:10AEF00084F83E50002070BD01EB4106431EB3FBB9
:10AF0000F6F35B1CB3E70120C2E701EB4101401EF1
:10AF1000B0FBF1F0401CC0F30B00B7E7A0860100C6
:10AF200080841E0000093D0040420F0010B586B02D
:10AF30000021009101910291039100680F4988421C
:10AF40001AD10F4CA06940F00800A061A0696946C1
:10AF500000F008000490C02000901220019003200F
:10AF600003900848FFF712FEE06940F40010E0612A
:10AF7000E06900F40010049006B010BD00540040D9
:10AF800000100240000C014070B5040011D021688F
:10AF90004CF6CC400860216845F255500860D4E971
:10AFA000000141602168A0688860FFF7F5FE054652
:10AFB0000DE0012070BD00BFFFF7EEFE401B27280B
:10AFC00005D92068C068800701D0032070BD2068C3
:10AFD000C0688007F0D121684AF6AA2008600020E6
:10AFE00070BD00684AF6AA21016000207047000089
:10AFF000024881680278114481607047780000201F
:10B00000074810B5016841F010010160032000F00D
:10B01000C1F80F2000F006F800F04CF8002010BD39
:10B020000020024030B505461C4887B0816941F4D4
:10B0300000618161806906A900F40060009001A8A8
:10B0400000F030FA00F05EFA1549164AB0FBF1F153
:10B050001548491E0260416040F2E7320021C0E914
:10B0600003218160816100F063FC040012D10E486D
:10B0700000F0EAFC04000DD1192000F05DF8102D5D
:10B0800007D200222946192000F064F8074805601D
:10B0900000E0012407B0204630BD0000001002404F
:10B0A00040420F00002C0140401800207C0000208E
:10B0B000704700000F4808B5816941F001018161C6
:10B0C000816901F001010091C16941F08051C161C4
:10B0D000C069002200F0805000900F21901E00F007
:10B0E00039F80548416821F0E06141F000714160A4
:10B0F00008BD00000010024000000140002809DBEC
:10B1000000F01F02012191404009800000F1E02081
:10B11000C0F88012704700280DDB00F01F020121EB
:10B1200091404009800000F1E020C0F88011BFF399
:10B130004F8FBFF36F8F7047002809DB00F01F02AD
:10B14000012191404009800000F1E020C0F8001189
:10B1500070470000F0B40E4B1B680C46C3F302238B
:10B16000C3F10705042D00D90425191D072901D2B3
:10B17000002300E0DB1E012606FA05F1491E2140EE
:10B1800099409E40761E16403143F0BC04F014B83E
:10B190000CED00E0064900F0070208684FF6FF03D7
:10B1A000184040EA0220034A10430860704700003C
:10B1B0000CED00E00000FA0510B52CA401461DCCF2
:10B1C00086B08DE81D002DA02D4C00680490002055
:10B1D00004292FD00BDC01292FD0022928D100F01F
:10B1E00091F96168C1F38131491C49001EE00829C9
:10B1F00020D010291CD161682268D20118D5C1F372
:10B200008342C9031DF8020009D5616804AAC1F38D
:10B210004041515C1B4AB2FBF1F1484301E01A493D
:10B2200048436168490203D440000321B0FBF1F0B8
:10B2300006B010BD00F076F9FAE7226AC2F30121E8
:10B24000012903D1920701D5C803F1E7022905D1ED
:10B25000626A920702D549F64040E9E70329E7D13F
:10B2600021688903E4D54FF22440E1E70203040595
:10B27000060708090A0B0C0D0E0F10100102000042
:10B280000010024000127A0000093D002DE9F84349
:10B2900005460078354CC00754D0E0690026C00050
:10B2A00008D4E06940F08050E061E069012600F0D8
:10B2B000805000902E480168C90512D4016880466C
:10B2C00041F480710160FFF767FD074605E000BFAC
:10B2D000FFF762FDC01B642823D8D8F80000C00522
:10B2E000F6D5206A10F4407021D0A98801F440718D
:10B2F00081421CD0206A1F49012220F440700A605C
:10B3000000220A602062C00711D0FFF745FD074602
:10B3100041F2883808E000BFFFF73EFDC11B414500
:10B3200002D90320BDE8F883206A8007F4D5206A9B
:10B33000696820F44070084320621EB1E06920F083
:10B340008050E0612878800705D56068A96820F4FE
:10B350004040084360602878C00605D56068696988
:10B3600020F48000084360600020DBE7001002400A
:10B3700000700040400442422DE9F0470F460500AE
:10B3800061D0434E306800F00700B84209D23068FF
:10B3900020F0070038433060306800F00700B84202
:10B3A00051D128683B4C810712D5400703D560680E
:10B3B00040F4E06060602878000703D5606840F4DE
:10B3C000605060606068A96820F0F0000843606029
:10B3D0002878C00728D06868012810D02168022882
:10B3E00010D0890700292EDA616821F0030101439A
:10B3F0006160FFF7D1FC804641F288390DE0216899
:10B400008903EFE78901EDE7FFF7C6FCA0EB080130
:10B41000494502D90320BDE8F0876068696800F0FB
:10B420000C00B0EB810FEFD1306800F00700B8429C
:10B430000BD9306820F0070038433060306800F0E6
:10B440000700B84201D00120E5E72878400705D57C
:10B450006068E96820F4E0600843606028780007CD
:10B4600006D56068296920F4605040EAC100606038
:10B4700000F058F86168084AC1F30311515CC840F4
:10B480000649086006480068FFF7CCFD0020C2E7C7
:10B490000020024000100240281B01088400002008
:10B4A0007C0000200F2202600C4A536803F0030363
:10B4B0004360536803F0F0038360536803F4E06370
:10B4C000C36052684FF4E06303EAD20202610448A9
:10B4D000006800F00700086070470000001002409C
:10B4E000002002400448054900684968044AC1F345
:10B4F0000221515CC84070478400002000100240C7
:10B50000381B01080448054900684968044AC1F32A
:10B51000C221515CC84070478400002000100240E6
:10B52000381B010812A185B00FC98DE80F0014A0C7
:10B53000144A006804905168134801F00C03042B6E
:10B5400010D0082B0ED1C1F38343C9031DF80300AB
:10B550000AD5516804AAC1F34041515C0A4A5043DC
:10B56000B0FBF1F005B0704708494843FAE7000026
:10B5700002030405060708090A0B0C0D0E0F101034
:10B58000010200000010024000127A0000093D0094
:10B590002DE9F84F040070D02078C04DC00749D085
:10B5A0006868C0F38100012807D06868C0F3810093
:10B5B000022809D16868C00306D52868800339D5F8
:10B5C00060680028E7D035E06068B0F5803F0BD0B8
:10B5D00010B1B0F5A02F11D0286820F48030286079
:10B5E000286820F4802002E0286840F48030286039
:10B5F000606890B1FFF7D0FB06460AE0286840F487
:10B6000080202860F0E700BFFFF7C6FB801B64289E
:10B6100073D828688003F7D50CE0FFF7BDFB06461A
:10B6200005E000BFFFF7B8FB801B6428F0D828684E
:10B630008003F7D420789A4E80074FF001094FF02D
:10B64000000839D5686810F00C0F07D06868C0F39F
:10B650008100022809D16868C00306D428688007E1
:10B6600014D52069012808D110E02069B0B1C6F8CE
:10B670000090FFF791FB074605E00AE1FFF78CFB1E
:10B68000C01B0228C4D828688007F7D528686169DC
:10B6900020F0F80040EAC10028600DE0C6F8008004
:10B6A000FFF77AFB074604E0FFF776FBC01B022892
:10B6B00023D828688007F7D4207800072CD579484C
:10B6C000A169D9B1C0F80090FFF766FB074604E016
:10B6D000FFF762FBC01B02280FD8686A8007F7D506
:10B6E00071484FF4FA510068B0FBF1F0009000BFD0
:10B6F0000098411E0091FAD20EE080E0C0F8008070
:10B70000FFF74AFB074604E0FFF746FBC01B022891
:10B7100075D8686A8007F7D42078400760D5E86953
:10B720000027C00008D4E86940F08050E861E8696B
:10B73000012700F0805000905C480168C90513D4CF
:10B740000168834641F480710160FFF725FB824662
:10B7500006E000BFFFF720FBA0EB0A0064284ED8EC
:10B76000DBF80000C005F5D5E06801280AD008B173
:10B77000052813D0286A20F001002862286A20F0EA
:10B78000040002E0286A40F001002862E06841F20B
:10B79000883B98B1FFF700FB82460BE0286A40F037
:10B7A00004002862EEE700BFFFF7F6FAA0EB0A01FB
:10B7B00059455AD8286A8007F6D50CE0FFF7ECFA0D
:10B7C000824605E0FFF7E8FAA0EB0A0159454CD89C
:10B7D000286A8007F6D41FB1E86920F08050E8613C
:10B7E000E06988B36968C1F38101022944D0022865
:10B7F000C6F8608004D0FFF7CFFA044638E034E0A2
:10B80000FFF7CAFA074604E0FFF7C6FAC01B022892
:10B810002BD828688001F7D4206AB0F5803F05D185
:10B820006868A16820F4003008436860D4E9080122
:10B830000843696821F4741108436860C6F8609091
:10B84000FFF7AAFA044606E025E000BFFFF7A4FAD6
:10B85000001B022809D828688001F7D51BE000BF2B
:10B86000FFF79AFA001B022802D90320BDE8F88FDF
:10B8700028688001F4D40EE00128F7D06868226AB5
:10B8800000F48031914204D1616A00F47010884262
:10B8900001D00120EAE70020E8E7000000100240A4
:10B8A00000004242800442428400002000700040B8
:10B8B0007047704770B590F83C20012A2CD00124C5
:10B8C00080F83C40022280F83D2003685A689D6859
:10B8D00022F070060A6832435A60104B02689A429E
:10B8E0000ED00F4B9A420BD0B2F1804F08D00D4BC7
:10B8F0009A4205D00C4B9A4202D00C4B9A4204D18A
:10B90000496825F080031943916080F83D4000218B
:10B9100080F83C10084670BD022070BD002C01402C
:10B92000003401400004004000080040000C0040CA
:10B9300010B5040003D094F83D0010B107E00120D9
:10B9400010BD002084F83C00204600F01FF80220C3
:10B9500084F83D00211D206802F09CFD012084F840
:10B96000460084F83E0084F83F0084F8400084F8E4
:10B97000410084F8420084F8430084F8440084F8CD
:10B98000450084F83D00002010BD000008B50168A6
:10B990002848B1F1804F0BD0274A914210D1C1699C
:10B9A00041F00201C161C06900F00200009008BDD1
:10B9B000C16941F00101C161C06900F00100F5E712
:10B9C0001E4A91420ED1C16941F00401C161C069B2
:10B9D000002200F00400009005211E20FFF7BAFBB2
:10B9E0001E2022E0164A91420ED1C16941F00801A1
:10B9F000C161C069002200F00800009005213220DA
:10BA0000FFF7A8FB322010E00E4A9142CFD1C16966
:10BA100041F01001C161C069002200F010000090E7
:10BA200005213620FFF796FB3620BDE80840FFF7DA
:10BA300083BB0000001002400004004000080040EA
:10BA4000000C00400010004090F83D10012901D08A
:10BA500001207047022180F83D100168CA6842F059
:10BA60000102CA6000680E4988420ED00D49884222
:10BA70000BD0B0F1804F08D00B49884205D00B495C
:10BA8000884202D00A49884204D1816801F0070146
:10BA9000062903D0016841F00101016000207047D0
:10BAA000002C014000340140000400400008004028
:10BAB000000C00400168CA6822F00102CA600168F7
:10BAC0000A6A41F211131A4207D10A6A9B101A42FC
:10BAD00003D10A6822F001020A60012180F83D10BA
:10BAE0000020704770B5044690F83C00012817D03C
:10BAF000012584F83C50022084F83D0020688268CB
:10BB000022F0770222F47F4282600868502830D009
:10BB10000DDC20284DD005DC98B310283BD148E03F
:10BB2000022070BD302844D0402834D139E060284C
:10BB300028D0702806D0B0F5805F2CD0B0F5005F1B
:10BB400029D10AE0CB68D1E90121206802F0F5FC97
:10BB50002068816841F0770109E0CB68D1E90121D3
:10BB6000206802F0EAFC2068816841F4804181602D
:10BB700011E0CA684968206802F0B4FD50212068CD
:10BB800007E016E0CA684968206802F0BCFD602141
:10BB9000206802F0DCFC84F83D50002084F83C0072
:10BBA00070BDCA684968206802F09CFD4021206889
:10BBB000EFE7226801461046EBE7704770B5044690
:10BBC000006801694FF00005C943890715D4C168B1
:10BBD000C943890711D4E91E01610120207720683B
:10BBE00080698007204602D0FFF7E7FF04E000F0FD
:10BBF000D3F8204600F08EF9257720680169C94303
:10BC0000490717D4C168C943490713D46FF0040129
:10BC10000161022020772068806910F4407F20466F
:10BC200002D0FFF7CAFF04E000F0B6F8204600F0AB
:10BC300071F9257720680169C943090716D4C168DD
:10BC4000C943090712D46FF008010161042020776D
:10BC50002068C0698007204602D0FFF7AEFF04E0ED
:10BC600000F09AF8204600F055F925772068016920
:10BC7000C943C90617D4C168C943C90613D46FF0B4
:10BC800010010161082020772068C06910F4407F0E
:10BC9000204602D0FFF791FF04E000F07DF8204637
:10BCA00000F038F9257720680169C943C90708D130
:10BCB000C168C943C90704D1891E0161204600F04B
:10BCC000DDF920680169C943090609D4C168C9437F
:10BCD000090605D46FF0800101612046FFF7E8FDF9
:10BCE00020680169C943490609D4C168C9434906A6
:10BCF00005D46FF040010161204600F0E1F92068B1
:10BD00000169C94389060BD4C168C943890607D4B0
:10BD10006FF0200101612046BDE87040FFF7C9BD0A
:10BD200070BD000000B585B0002100910191029125
:10BD30000391026814480221B2F1804F14D0134BD2
:10BD40009A420FD1826942F00802826180690391B0
:10BD500000F0080004900120CDE9000169460C487C
:10BD6000FEF714FF05B000BD826942F00402826153
:10BD70008069039100F0040004900320CDE90001E4
:10BD800069460448ECE7000000100240000400404F
:10BD9000000C014000080140704770B50D460400DA
:10BDA00003D094F83D0010B107E0012070BD0020E1
:10BDB00084F83C00204600F01BF8022084F83D0087
:10BDC000211D206802F066FB2068016821F008014F
:10BDD000016054F8460B016829430160012004F812
:10BDE0001F09E0752076E0762077A075002070BDF1
:10BDF000704770B5044690F83C000D4601280AD003
:10BE0000012084F83C0042B1042A18D0082A2AD024
:10BE10000C2A4DD139E0022070BD206802F0A0FB51
:10BE20002068816941F0080181612068816921F001
:10BE300004018161206881692A69114311E0206849
:10BE400002F0BEFB2068816941F4006181612068D5
:10BE5000816921F480618161206881692A6941EAF0
:10BE60000221816124E0206802F0E0FB2068C169C2
:10BE700041F00801C1612068C16921F00401C1617C
:10BE80002068C1692A69114311E0206802F002FCB0
:10BE90002068C16941F40061C1612068C16921F471
:10BEA0008061C1612068C1692A6941EA0221C161DA
:10BEB000002084F83C0070BD10B5040003D094F855
:10BEC0003D0010B107E0012010BD002084F83C00C7
:10BED000204600F01EF8022084F83D00211D206855
:10BEE00002F0D8FA012084F8460084F83E0084F875
:10BEF0003F0084F8400084F8410084F8420084F850
:10BF0000430084F8440084F8450084F83D00002094
:10BF100010BD70477047000010B50446022249B1B9
:10BF200004290ED0082913D094F84100012816D016
:10BF3000012010BD94F83E000128F9D184F83E207C
:10BF40000FE094F83F000128F2D184F83F2008E088
:10BF500094F840000128EBD184F8402001E084F8F7
:10BF600041200122206802F0DBFA13492068134ABD
:10BF7000884201D0904203D1436C43F400434364B0
:10BF8000206888420DD090420BD0B0F1804F08D08D
:10BF90000B49884205D00B49884202D00A498842A1
:10BFA00004D1816801F00701062903D0016841F03E
:10BFB00001010160002010BD002C0140003401404F
:10BFC0000004004000080040000C004030B504466A
:10BFD00000680D0006D0042D08D0082D38D00C2D97
:10BFE00008D139E0C16821F0020102E0C16821F006
:10BFF0000401C16000222946206802F091FA1D4B1D
:10C0000041F2111120688A10984202D01A4B9842CE
:10C0100009D1036A0B4206D1036A134203D1436C70
:10C0200023F4004343642068036A0B4206D1016A8B
:10C03000114203D1016821F00101016001207DB1AD
:10C04000042D10D0082D11D084F84100002030BDFF
:10C05000C16821F00801CCE7C16821F01001C8E7F0
:10C0600084F83E00F2E784F83F00EFE784F84000F0
:10C07000ECE70000002C01400034014010B50446FC
:10C0800000680B49884201D1FEF7B2FF09492068D8
:10C09000884201D105F040F807492068884206D15E
:10C0A00002F058FBBDE810400448FFF703BD10BD87
:10C0B000002C0140000800400010004060130020E8
:10C0C000704738B5044690F83E0020281CD181B155
:10C0D0007AB194F83C00012816D0012084F83C0085
:10C0E0002063204602F0EEFE002803D1216B0129D7
:10C0F00001D0012038BD21680A684A680092CA68E8
:10C1000042F01002CA6038BD022038BD704710B539
:10C1100004460068416994F83D20C1F3C011212A0A
:10C120000BD151B1416921F080014161606B08B1CF
:10C13000FEF798F9204602F003FE2068416994F862
:10C140003E20C1F38011222A0BD151B1416921F067
:10C1500040014161A06B08B1FEF784F9204602F06E
:10C16000D7FD002010BD10B5040014D0242084F8A1
:10C170003D002068C16821F40051C160204600F0F4
:10C1800081F90020206484F83D0084F83E0044F8E2
:10C19000300F207310BD012010BD00007CB5054696
:10C1A00000208DF8000028680168C943090725D4DC
:10C1B00001684068019001226946284600F071FB41
:10C1C0000F482C6884420AD1861531460D48FCF789
:10C1D00040F82068606832460A4901900BE00A483E
:10C1E00084420BD140210948FCF733F8206860688D
:10C1F000064940220190284600F03EFB7CBD00002D
:10C200000048004026390020004C004090320020B9
:10C21000F8B5026804461068D168536910F00F0F32
:10C220004FF0000553D003F0010601F49077374337
:10C2300060D0C20705D0CA0503D5226C42F00102C6
:10C240002264420705D5DA0703D0226C42F00202CD
:10C250002264820705D5DA0703D0226C42F004027B
:10C260002264020707D501F02002324303D0226C7A
:10C2700042F008022264226C002A3AD0800604D5DB
:10C28000880602D5204602F064FD20684069216CD2
:10C29000C0F38010090700D438B3204602F038FDFF
:10C2A0002068416949061BD5416921F0400141617F
:10C2B000A06BA8B159494163A06BFEF7F7F80028BD
:10C2C00017D0A06B416B01B0BDE8F0400847830672
:10C2D00010D58B060ED52046BDE8F84002F039BDDA
:10C2E0002046BDE8F840FFF759BF2046FFF756FF4C
:10C2F0002564F8BD266B2023012E52D1C60650D5E9
:10C30000CE064ED5106850680090506940062AD578
:10C31000A16B086840680004000CEAD0A68D864234
:10C32000E7D9E0858869202818D0D06820F480708B
:10C33000D0602068416921F00101416120684169B4
:10C3400021F04001416184F83E3025632068C168D6
:10C3500021F01001C160A06BFEF784F8A08DE18D83
:10C36000401A81B219E0A08DE18D401A81B2E08DB2
:10C370000028BED00029BCD0D06820F49070D060D6
:10C380002068426922F00102426184F83E30256350
:10C390002068C26822F01002C2602046FFF7B6FE95
:10C3A000F8BD05062BD50D0629D594F83D002128AA
:10C3B000F6D1A068B0F5805F01D12069B0B1206AE4
:10C3C000411C2162216800784860E08C401E000416
:10C3D000000CE084E4D12068C16821F08001C160D4
:10C3E0002068C16841F04001C160F8BD206A008842
:10C3F000C0F308005060206A801C2062E5E7400618
:10C40000F3D54806F1D5D168204621F04001D1602E
:10C4100084F83D3000F08DFBF8BD000045EC0008CD
:10C4200070B5040004D094F83D00002510B106E07A
:10C43000012070BD84F83C50204600F089F824208B
:10C4400084F83D002068C16821F40051C160204695
:10C4500002F0DCFC2068016921F490410161206850
:10C46000416921F02A0141612068C16841F400510D
:10C47000C1602564202084F83D0084F83E0000203F
:10C4800070BD000070B50446274D0368274A284850
:10C490004FF44061AB420AD1D36923F40023D36146
:10C4A000FEF7E4FAA06BFEF799F8342037E0214D4F
:10C4B000AB420CD1D16921F48011D1619914FEF7FE
:10C4C000D5FA04211C48FEF7D1FA352027E01B4D90
:10C4D0001B48AB4209D1916921F4804191614FF42D
:10C4E000C061FEF7C3FA252019E0164DAB4208D112
:10C4F000D16921F40031D1610C21FEF7B7FA262071
:10C500000DE0114883420ED1D06920F48020D06123
:10C510000E48FEF7ABFAA06BFEF760F82720BDE8E7
:10C520007040FEF7F8BD70BD004C004000100240A6
:10C53000001001400050004000140140003801404C
:10C54000000801400044004000480040000C014049
:10C550002DE9F04F85B000240094019402940394D7
:10C56000054601688848874A0615DFF820924FF093
:10C5700002084FF4006A4FF0800B914237D1C16935
:10C5800041F40021C161C16901F400210491816974
:10C5900041F0100181618069CDE9006800F0100070
:10C5A000CDE9038069464846FEF7F0FACDF800A0D1
:10C5B000CDE9014869464846FEF7E8FA754E7448E9
:10C5C000C6E90004C6E9024B34617461B4613046C7
:10C5D000F461FEF767F908B1FDF705FAAE630022D2
:10C5E000062134207562FEF7B5FD342032E06A4A38
:10C5F0000427914233D1C16941F48011C161C169FD
:10C6000001F480110491816941F010018161816917
:10C6100001F010010491816941F02001816180697C
:10C62000694600F0200004909014CDE900084846C7
:10C63000CDF80C80FEF7AAFACDE900746946574898
:10C64000CDF80880FEF7A2FA002205213520FEF77A
:10C6500081FD3520FEF770FD05B0BDE8F08F504A32
:10C66000DFF84091914227D1816941F48041816195
:10C67000816901F480410491816941F00401816183
:10C680008069694600F0040004905015CDE9000867
:10C690004846CDF80C80FEF779FACDE9006469468A
:10C6A0004846CDF80880FEF771FA002206212520C1
:10C6B000FEF750FD2520CDE73B4A914224D1C169C8
:10C6C00041F40031C161C16901F400310491816913
:10C6D00041F0040181618069CDE9007800F0040037
:10C6E000CDE9038069464846FEF750FA08208DE8F8
:10C6F000110169464846FEF749FA00220521262025
:10C70000FEF728FD2620A5E7284A9142A4D1C16959
:10C7100041F48021C161C16901F4802104918169E2
:10C7200041F0080181618069CDE9006800F00800EE
:10C73000CDE903801E4E69463046FEF727FACDF854
:10C7400000A0CDE9014869463046FEF71FFA114EB8
:10C7500018484436C6E90004C6E9024B34617461E6
:10C76000B4613046F461FEF79DF808B1FDF73BF97E
:10C77000AE630022052127207562FEF7EBFC27201F
:10C7800068E70000004C004000100240001001402B
:10C7900030040240B817002000500040001401404F
:10C7A00000380140000801400044004000480040BB
:10C7B000000C0140300002402DE9F84F044690F88B
:10C7C0003E009A4616460D46202853D1FDB1F6B1DB
:10C7D00094F83C0001284DD0012084F83C0000274B
:10C7E0002764222084F83E002763FEF7D5FAA68549
:10C7F0008146E685A0684FF48058404501D1206904
:10C8000040B12E465FF0000584F83C7027E001201F
:10C81000BDE8F88F0026F7E74B460022202120468E
:10C82000CDF800A002F0A1FB08B10320F0E726B18B
:10C83000A06840451BD038B108E020684068C0F3CC
:10C84000080025F8020B07E0206980B120684068E5
:10C8500000F07F0006F8010BE08D401EE085E08DC2
:10C860000028D9D1202084F83E000020D0E720689D
:10C870004068EFE70220CBE790F83E30202B0ED146
:10C8800059B152B190F83C30012B08D0012380F807
:10C890003C300023036302F015BB012070470220E7
:10C8A000704790F83E30202B0ED159B152B190F81C
:10C8B0003C30012B08D0012380F83C300023036377
:10C8C00002F038BB01207047022070472DE9F0418B
:10C8D00006460068624901270025624C884226D13D
:10C8E0006088010418D460494204097804D50A29F3
:10C8F0000ED140F400402EE00D292AD0C0F30D02E5
:10C90000594B401C643B80B299546080632800D925
:10C910006580608800040AD5277060885249C0F39A
:10C920000D02643901F53C70FBF77AFC65804F49D4
:10C93000306888422DD1E0884B49020401F158014A
:10C940001CD401F1A8024304127809D50A2A11D196
:10C9500003E040F480406080DBE740F4004028E0E2
:10C960000D2A24D0C0F30D03401C80B2CA54E080CD
:10C97000632800D9E580E08800040AD5277008788C
:10C980006070E088C0F30D0137485830FBF761FC58
:10C99000E5803749306888422BD1A08801041DD436
:10C9A00034494204097809D50A2913D103E040F437
:10C9B0008040E080DFE740F400402CE00D2928D0E3
:10C9C000C0F30D022B4B401CA83B80B29954A080B1
:10C9D000632800D9A580A08800040AD52770A08804
:10C9E0002449C0F30D02A83901F5BC70FBF718FC0F
:10C9F000A5802149306888422BD1208901041FD4A9
:10CA00001C49420401F1BC01097809D50A2913D156
:10CA100003E040F48040A080DDE740F400401CE0EB
:10CA20000D2918D0C0F30D02124B401C143380B2F4
:10CA300099542081632800D925812089000408D5D4
:10CA400027702089C0F30D010A481430FBF701FC60
:10CA50002581BDE8F08140F480402081EDE70000B1
:10CA6000004400406C000020641400200048004096
:10CA7000004C00402016002000500040704700008D
:10CA80002DE9F843044690F83D001F4616460D4632
:10CA900020284CD1C5B1BEB194F83C00012846D045
:10CAA000012084F83C004FF00008C4F840802120A9
:10CAB00084F83D00FEF770F9A6848146E684A068FC
:10CAC000B0F5805F03D004E00120BDE8F883206961
:10CAD00028B12E465FF0000584F83C800EE0002669
:10CAE000FAE78021204602F040FAA0B9AEB116F86C
:10CAF000010B21684860E08C401EE084E08C4B46CE
:10CB00004FF0000200970028EBD14FF04001204683
:10CB100002F02BFA30B10320D7E735F8020BC0F34F
:10CB20000800E6E7202084F83D000020CDE7022041
:10CB3000CBE77047FEE7000010B5A0B1012816D082
:10CB40002149032823D0612826D062282AD06328CF
:10CB50002ED0702832D0712818D1B1F8E200BDE88B
:10CB60001040FCF71BBDBDE8104000F07DBE174C27
:10CB700020680068C16821F40051C16000F0BCFD6C
:10CB800020680068C16841F40051C16010BDC888C8
:10CB9000BDE81040FCF7F6BCB1F8C200BDE810409B
:10CBA000FCF7FEBCB1F8C400BDE81040FCF722BDA4
:10CBB000B1F8C600BDE81040FCF70CBDB1F8E000CC
:10CBC000BDE81040FCF7E7BC3C330020A401002086
:10CBD00003484078022801D30120704700207047A5
:10CBE0000807002030B589B020216846FBF731FBEB
:10CBF000FDF7FCF80446FDF727F80546FBF76FFD47
:10CC000002460B4629A1684602F0C2FA6846FBF7C5
:10CC10002BFBC1B2684602F0F7F82A48854202DBD6
:10CC200044F020041CE0284928488D4209DB816833
:10CC3000092901D2491C0AE0FDF7E4F880B9022075
:10CC40000CE023498D420BDC816811B10021816029
:10CC500006E0FDF7D7F8022802D1002001F044FADF
:10CC60001C4D29680888A04202D000B13CB10C805C
:10CC700028680088002800D0012009B030BD4FF49A
:10CC80008074A04203D100BFFCF79EFBF0E712487E
:10CC900000780128F0D1FFF79BFF18B128680088C1
:10CCA000A042E9D1FBF74EFFEEE70000BBFACFE46C
:10CCB000CEC2B6C8A3BA25302E336620A1E34320E6
:10CCC0000A0000000000A04200008C429C050020E9
:10CCD0000000824218050020D301002070B5012019
:10CCE00001F044FA1E4C48B1A169A068401AB0F5A1
:10CCF000E15F34D9BDE8704001F0F6BA2078401CFD
:10CD0000C0B2207006280BD2C10705D0012803D974
:10CD1000BDE8704000F086B9BDE8704000F004B98D
:10CD200002F0C6F90F4D28780A2801D800F059FD05
:10CD300028780D4D0D4E062802D13168688848804C
:10CD4000022001F003FA316828880880287800F072
:10CD50005FFE00F0E9F8FCF7F1F90020207070BDEB
:10CD600008070020D1010020E40100201405002064
:10CD7000401E032801D80120704700207047143856
:10CD8000502801D8012070470020704741F25C71A3
:10CD90001438884201D80120704700207047FBF703
:10CDA000B3FFFBF787FF142003F0D2FFF9E7000081
:10CDB0002DE9F0410D4800210D4E057801700C461B
:10CDC0005FF0010706EBC400818856F83400FDF7D8
:10CDD000D9FF18B907FA04F02843C5B2641CE4B2BD
:10CDE000042CEFD32846BDE8F08100006D00002040
:10CDF000A80600202DE9F041044615460E46C0B2B3
:10CE0000FCF7B4FD240C3C27B4FBF7F06421B0FB25
:10CE1000F1F201FB1200FCF74BFDB4FBF7F007FB4E
:10CE20001040FCF78EFD0DB1284603E001F038FA02
:10CE300018B10020FCF751FD02E0FF20FCF7A0FC38
:10CE40003046BDE8F041AFF3008010B5044600F075
:10CE50000101042001F086FD04F00201052001F02B
:10CE600081FD04F00401032001F07CFD04F00801C1
:10CE7000012001F077FD04F01001BDE81040022010
:10CE800001F070BD70B514460D46064601F06EFA0D
:10CE900000281ED0FCF730FE0122D1030D48FDF71B
:10CEA00076FF04F0A3FA3046FCF788FD2846FCF72D
:10CEB00024FD094800EB440030F8020CFCF7E1FCCB
:10CEC0000020FFF7C2FF01F075FCBDE8704004F0E0
:10CED000ADBA70BD00080140AC05002070B5044635
:10CEE000FF20FCF75EFC240C3C25B4FBF5F064212C
:10CEF000B0FBF1F201FB1200FCF7DAFCB4FBF5F039
:10CF000005FB1040BDE87040FCF71BBD10B50022CA
:10CF10004FF400410348FDF73AFFBDE8104001F02F
:10CF200007BD00000008014010B50122D1030E48E2
:10CF3000FDF72DFF01F03EFA002813D101F016FA9B
:10CF400000280FD104F052FA094908480A78094923
:10CF500000680978FFF74EFF01F02CFCBDE8104097
:10CF600004F064BA10BD000000080140E401002094
:10CF7000D4010020D001002070B50D46044601F018
:10CF800019FA00281ED00122D1030F48FDF7FFFE39
:10CF900004F02CFA2046FCF726FC2846FCF747FC58
:10CFA000FCF716FC042C0BD0052C09D05FF0000018
:10CFB000FFF74BFF01F0FEFBBDE8704004F036BA0E
:10CFC0001020F5E770BD00000008014070B5044670
:10CFD00004F00CFA0021072001F0C4FC41210720D5
:10CFE00001F0F2FC2146062001F016FD0C4C3C2518
:10CFF00064216088B0FBF5F0B0FBF1F201FB120098
:10D00000FCF756FC6088B0FBF5F105FB1100FCF75E
:10D0100098FC01F0CFFBBDE8704004F007BA0000B7
:10D02000E401002010B504F0E1F9084906480A7847
:10D03000074900680978FFF751FF01F0BBFBBDE825
:10D04000104004F0F3B90000E4010020D4010020F6
:10D05000D001002070B50122D1031E48FDF797FED4
:10D060005321072001F0B0FC4A21062001F0ACFC5E
:10D070000121002001F0D0FC0221012001F0CCFCB4
:10D080000021022001F0C8FC0021032001F0C4FCB3
:10D09000FCF710FF104D0A242870B0FBF4F0B0FB31
:10D0A000F4F104FB1101052001F0B6FC2878B0FB77
:10D0B000F4F104FB1101042001F0AEFC0020FFF7A5
:10D0C000C4FE0021072001F04DFCBDE8704001F0D6
:10D0D00071BB000000080140D301002070B5044678
:10D0E000134DC00701D0012200E00022082128468C
:10D0F000FDF74DFEA00701D5012200E0002204212A
:10D100002846FDF744FE600701D5012200E0002219
:10D1100002212846FDF73BFE200701D5012200E051
:10D1200000222846BDE870400121FDF730BE000016
:10D130000010014040F2E3220149024800F024BF00
:10D140003C3300200079000840F2E3220149024804
:10D1500000F028BF3C330020007900083EB50024D1
:10D1600011480094019402940E4984600160047394
:10D170000475012505614FF460214460C161FCF72D
:10D18000A5FF08B1FCF72FFC0520CDE90005694695
:10D1900002940548FCF716FF002801D0FCF723FC99
:10D1A0003EBD000000280140B01100200EB56946C8
:10D1B0000090012001900720029002480068FCF7CF
:10D1C00001FF0EBD7C060020114808B5416941F001
:10D1D00001014161416901F001010091416941F0A2
:10D1E000020141614069002200F002000090052127
:10D1F0000D20FDF7AFFF0D20FDF79EFF002205215A
:10D200003A20FDF7A7FFBDE808403A20FDF794BF9C
:10D210000010024010B5A4B01C221C496846FAF761
:10D22000FFFF0021684603F09FFD194C17491C229F
:10D2300020601C3107A8FAF7F3FF002107A803F0CC
:10D2400093FD124960601C2238310EA8FAF7E8FFFE
:10D2500000210EA803F088FD0C49A0601C22543167
:10D2600015A8FAF7DDFF002115A803F07DFD074999
:10D27000E0601C2270311CA8FAF7D2FF00211CA824
:10D2800003F072FD206124B010BD00009C1A01085B
:10D29000500000202DE9F04F85B00024354800945F
:10D2A000019402940394816941F0100181618169C4
:10D2B00001F010010491816941F0200181618169CF
:10D2C00001F020010491816941F0040181618169CB
:10D2D00001F004010491816941F0080181618069D4
:10D2E000DFF8949000F00800049000224F21484697
:10D2F000FDF74DFDDFF884A04DF2340700223946DA
:10D300005046FDF744FDDFF878B04FF41048002296
:10D3100041465846FDF73BFD4F2001250226CDE949
:10D320000005CDE9024669464846FDF72FFC4FF45B
:10D330006C708DE8310069464846FDF727FC009780
:10D340000396CDE9015469465046FDF71FFC2802BB
:10D350008DE8310069465846FDF718FCCDF800808D
:10D360000396CDE9015469465846FDF70FFC05B018
:10D37000BDE8F08F0010024000100140000C014099
:10D38000000801400D4810B50B4901600C4941608F
:10D3900000214FF480428160C0E903124161816144
:10D3A000C1610162FDF7FEFC002803D0BDE810401A
:10D3B000FCF719BB10BD000000540040E011002034
:10D3C000A0860100094810B50749016002214160AB
:10D3D00040F6FF718160FDF7D7FD002803D0BDE85E
:10D3E0001040FCF700BB10BD00300040341200209C
:10D3F00030B58DB000250795089509950A950B95D0
:10D400001C2168460C95FAF724FF284C4FF0804009
:10D41000206027480188C4E901154088C4E9030554
:10D420002046A561FEF784FA08B1FCF7DCFA4FF458
:10D430008050079007A91D48FEF754FB08B1FCF780
:10D44000D2FA1A48FEF738FD08B1FCF7CCFA0B9572
:10D450000BA916480C95FEF72DFA08B1FCF7C3FA94
:10D460006020CDE900050220029000226946049563
:10D470000E48FEF7BEFC08B1FCF7B5FA0422694677
:10D480000A48FEF7B6FC08B1FCF7ADFA00210748E0
:10D49000FEF79CFD2068456300210448FEF73CFD33
:10D4A0000248FEF73FFC0DB030BD000040120020E6
:10D4B0006400002010B58EB00024079408940994ED
:10D4C0000A940B941C2168460C94FAF7C2FE1E487D
:10D4D0001C4901601D498A88C0E90124C988C0E946
:10D4E00003148461FEF724FA08B1FCF77CFA4FF4C8
:10D4F0008050079007A91448FEF7F4FA08B1FCF72A
:10D5000072FA1148FEF7D8FC08B1FCF76CFA0B94DC
:10D510000BA90D480C94FEF7CDF908B1FCF763FA9E
:10D520006020CDE90004029408226946064804946C
:10D53000FEF75FFC08B1FCF756FA0348FEF7F2FB72
:10D540000EB010BD000400408812002064000020CE
:10D5500010B586B0002417480094019402940394F7
:10D56000049413490594016040F60F61C0E9011469
:10D570002321C0E903148461FEF7DAF908B1FCF74E
:10D5800032FA4FF48050009069460A48FEF7AAFA32
:10D5900008B1FCF728FA049404A906480594FEF79C
:10D5A00089F9002801D0FCF71EFA06B010BD000072
:10D5B00000080040D012002010B586B000241748A3
:10D5C0000094019402940394049413490594016017
:10D5D00040F60F61C0E9011440F2E731C0E90314DD
:10D5E0008461FEF7A5F908B1FCF7FDF94FF480500E
:10D5F000009069460948FEF775FA08B1FCF7F3F99F
:10D60000049404A905480594FEF754F9002801D0B4
:10D61000FCF7E9F906B010BD000C0040181300201B
:10D620001CB500241348009411490194016040F690
:10D630000F61C0E9011440F2E7318461C160FEF777
:10D6400077F908B1FCF7CFF908210A48FEF7A5FBE6
:10D6500008B1FCF7C8F91020CDE900046946054877
:10D66000FEF728F9002801D0FCF7BDF91CBD000029
:10D67000001000406013002010B50420FCF738F8BB
:10D680000B490A4AC1E90020002088600C22C860CA
:10D69000C1E904028861C8610846FEF7C1FE00289E
:10D6A00003D0BDE81040FCF79EB910BD004C00400F
:10D6B000DC15002010B50520FCF71AF80D490C4ABE
:10D6C000C1E90020002088600C22C860C1E9040282
:10D6D0008861C8610846FEF7A3FE08B1FCF783F92C
:10D6E00004490122BDE8104044310248FFF7D9B88F
:10D6F000005000409816002010B50120FBF7F8FFFD
:10D700000D490C4AC1E90020002088600C22C86045
:10D71000C1E904028861C8610846FEF781FE08B1CC
:10D72000FCF761F904490122BDE8104014390248B0
:10D73000FFF7B7B800380140BC13002010B5022035
:10D74000FBF7D6FF0D490C4AC1E900200020886094
:10D750000C22C860C1E904028861C8610846FEF76E
:10D760005FFE08B1FCF73FF904490122BDE8104013
:10D7700014390248FFF795B800440040781400209F
:10D7800010B50320FBF7B4FF0B490A4AC1E900209A
:10D79000002088600C22C860C1E904028861C86169
:10D7A0000846FEF73DFE002803D0BDE81040FCF718
:10D7B0001AB910BD0048004020150020022000F0DA
:10D7C00079FCFBF7FBFB4FF47A6003F0C1FA4FF4EE
:10D7D000FA7400BFFBF7E0FB204603F0B9FAF9E763
:10D7E000FEE710B5FFF7B0FC012010BD0C4810B5E6
:10D7F00080680168CA6842F01002CA6001684A691C
:10D8000042F001024A614FF480720649FEF759FC6A
:10D8100005480068016821F00401016010BD0000A6
:10D820004007002026390020FC17002040F2E322A8
:10D830000149024800F0A8BB3C33002000790008F1
:10D8400010B502F0E1FB074841684A1C42600A2912
:10D8500006D900214160BDE81040012003F078BDE9
:10D8600010BD000028070020084808B50068AA215C
:10D8700000220180012000904FF4E133104602F0B5
:10D8800083FBBDE8084002F081B90000AC01002034
:10D89000FFF7ACFFFBF72BFFFBF7D6FA142003F0E2
:10D8A00057FAF9E70EB5044A07CA8DE807000621C2
:10D8B000684600F041FA0EBD541F01080EB5044A37
:10D8C00007CA8DE807000621684600F035FA0EBD4C
:10D8D0006C1F010870B5184C05466178481DA842B8
:10D8E00003D04A1D2B4615A110E0A01CFBF74CFDF0
:10D8F0006119024631F8030C40BA904212D011F877
:10D90000020C11F8031C00EA012317A1224801F0C0
:10D910003FFC2148FAF7A8FCBDE87040C1B21E48A0
:10D9200001F072BA4922E11C1C48FAF779FCBDE803
:10D93000704000F0FFB80000263900205B455252CD
:10D940004F525D09BDD3CAD5B3A4B6C8B4EDCEF36A
:10D950003A09CAD5B5BD3A092564202020CAB5BC0C
:10D96000CA3A0925640A00005B4552524F525D09CC
:10D97000637263D0A3D1E9B4EDCEF33A09BCC6CB50
:10D98000E3B5C3B5BD3A092564202020CAD5B5BD8D
:10D99000B5C43A0925640A00263A0020D032002096
:10D9A000044801784078814201D10120704700206D
:10D9B00070470000400700200EB50FA30ECB8DE886
:10D9C0000E00010E8DF80310010C8DF80410010AF1
:10D9D0008DF805108DF8060005210DF10200FBF70A
:10D9E000D3FC010A8DF807108DF808000A2168465B
:10D9F00000F0A2F90EBD00000205080000000000C2
:10DA000000030000014840787047000040070020F4
:10DA1000642800D9642002494870022000F096BBB7
:10DA2000400700202DE9F0410446142806D24FF0AB
:10DA3000AF0004FB00F0FAF72CFE24E003D14FF016
:10DA4000000014491FE0642C21D01426B4FBF6F02A
:10DA500006FB1040FAF71DFE00220F4BFAF722FDDD
:10DA60000746143C94FBF6F00D46FAF701FE00223F
:10DA70000A4BFAF717FD3A462B46FAF76CFC0022E0
:10DA8000044BFAF768FCBDE8F041FAF70FBE00203E
:10DA90000349F8E70058AB400080534000689840C5
:10DAA000000BC34070B58AB00125202101A8FAF708
:10DAB000D0FB164C20786178884202D9A0F1010091
:10DAC00002E003D200F10100207001E04FF00005F8
:10DAD000C0B250EA050116D0FFF7A4FF0646FFF7D3
